202505020060000600000000000000003867000000000000000038678000000000030707216669PODER JUDICIAL MINISTERIO PUBL000000007500000000000000000000000000000000000000000000000000000000000000000000000000000000000000000000000000000000000000PES00010000001000000000000000000000000
202505050060000600000000000000003868000000000000000038688000000000030627393713DIRECCION GENERAL DE CULTURA Y000000048500000000000000000000000000000000000000000000000000000000000000000000000000000000000000000000000000000000000000PES00010000001000000000000000000000000
202505050060000600000000000000003869000000000000000038698000000000030627393713DIRECCION GENERAL DE CULTURA Y000000291600000000000000000000000000000000000000000000000000000000000000000000000000000000000000000000000000000000000000PES00010000001000000000000000000000000
202505050060000600000000000000003870000000000000000038708000000000030999057167MINISTERIO DE PRODUCCION CIENC000001025000000000000000000000000000000000000000000000000000000000000000000000000000000000000000000000000000000000000000PES00010000001000000000000000000000000
202505050080000600000000000000000430000000000000000004308000000000030999057167MINISTERIO DE PRODUCCION CIENC000001025000000000000000000000000000000000000000000000000000000000000000000000000000000000000000000000000000000000000000PES00010000001000000000000000000000000
202505050060000600000000000000003871000000000000000038718000000000030999057167MINISTERIO DE PRODUCCION CIENC000001025000000000000000000000000000000000000000000000000000000000000000000000000000000000000000000000000000000000000000PES00010000001000000000000000000000000
202505050080000600000000000000000431000000000000000004318000000000030627393713DIRECCION GENERAL DE CULTURA Y000000849400000000000000000000000000000000000000000000000000000000000000000000000000000000000000000000000000000000000000PES00010000001000000000000000000000000
202505050060000600000000000000003872000000000000000038728000000000030715904817ORGANISMO PROVINCIAL DE INTEGR000000849400000000000000000000000000000000000000000000000000000000000000000000000000000000000000000000000000000000000000PES00010000001000000000000000000000000
202505050060000600000000000000003873000000000000000038738000000000030708499044INSTITUTO CULTURAL DE LA PROV 000000054580000000000000000000000000000000000000000000000000000000000000000000000000000000000000000000000000000000000000PES00010000001000000000000000000000000
202505050060000600000000000000003874000000000000000038748000000000030708499044INSTITUTO CULTURAL DE LA PROV 000000114240000000000000000000000000000000000000000000000000000000000000000000000000000000000000000000000000000000000000PES00010000001000000000000000000000000
202505050060000600000000000000003875000000000000000038758000000000030708499044INSTITUTO CULTURAL DE LA PROV 000000032040000000000000000000000000000000000000000000000000000000000000000000000000000000000000000000000000000000000000PES00010000001000000000000000000000000
202505050060000600000000000000003876000000000000000038768000000000030708499044INSTITUTO CULTURAL DE LA PROV 000000032040000000000000000000000000000000000000000000000000000000000000000000000000000000000000000000000000000000000000PES00010000001000000000000000000000000
202505060060000600000000000000003877000000000000000038778000000000030710405863MINISTERIO DE AMBIENTE        000000203600000000000000000000000000000000000000000000000000000000000000000000000000000000000000000000000000000000000000PES00010000001000000000000000000000000
202505060060000600000000000000003878000000000000000038788000000000030627393713DIRECCION GENERAL DE CULTURA Y000000231300000000000000000000000000000000000000000000000000000000000000000000000000000000000000000000000000000000000000PES00010000001000000000000000000000000
202505060080000600000000000000000432000000000000000004328000000000030710405863MINISTERIO DE AMBIENTE        000000203600000000000000000000000000000000000000000000000000000000000000000000000000000000000000000000000000000000000000PES00010000001000000000000000000000000
202505060060000600000000000000003879000000000000000038798000000000030710405863MINISTERIO DE AMBIENTE        000000285040000000000000000000000000000000000000000000000000000000000000000000000000000000000000000000000000000000000000PES00010000001000000000000000000000000
202505060060000600000000000000003880000000000000000038808000000000030627393713DIRECCION GENERAL DE CULTURA Y000000245736000000000000000000000000000000000000000000000000000000000000000000000000000000000000000000000000000000000000PES00010000001000000000000000000000000
202505070060000600000000000000003881000000000000000038818000000000030999268346INSTITUTO PROVINCIAL DE LOTERI000000024000000000000000000000000000000000000000000000000000000000000000000000000000000000000000000000000000000000000000PES00010000001000000000000000020250707
202505070060000600000000000000003882000000000000000038828000000000030717321231JEFATURA DE ASESORES DEL GOBER000000034300000000000000000000000000000000000000000000000000000000000000000000000000000000000000000000000000000000000000PES00010000001000000000000000000000000
202505070060000600000000000000003883000000000000000038838000000000030717321231JEFATURA DE ASESORES DEL GOBER000000019600000000000000000000000000000000000000000000000000000000000000000000000000000000000000000000000000000000000000PES00010000001000000000000000000000000
202505080010000600000000000000001783000000000000000017838000000000030500008454BANCO SANTANDER ARGENTINA SOCI000000015000001000000000000000000000000000000000000000000000000000000000000000000000000000000000000000000000000000000000PES00010000001000000000000000000000000
202505080060000600000000000000003884000000000000000038848000000000030559799536SINDICATO OBRAS SANITARIAS DE 000000105060000000000000000000000000000000000000000000000000000000000000000000000000000000000000000000000000000000000000PES00010000001000000000000000000000000
202505080010000600000000000000001784000000000000000017848000000000030657864281CAMUZZI GAS PAMPEANA S A      000000015060105000000000000000000000000000000000000000000000000000000000000000000000000000000000000000000000000000000000PES00010000001000000000000000000000000
202505090060000600000000000000003885000000000000000038858000000000030627393713DIRECCION GENERAL DE CULTURA Y000000053350000000000000000000000000000000000000000000000000000000000000000000000000000000000000000000000000000000000000PES00010000001000000000000000000000000
202505120060000600000000000000003886000000000000000038868000000000030715124234MINISTERIO DE GOBIERNO BS.AS. 000000690000000000000000000000000000000000000000000000000000000000000000000000000000000000000000000000000000000000000000PES00010000001000000000000000000000000
202505120060000600000000000000003887000000000000000038878000000000030707045031MINISTERIO DE DESARROLLO DE LA000001496550000000000000000000000000000000000000000000000000000000000000000000000000000000000000000000000000000000000000PES00010000001000000000000000000000000
202505120060000600000000000000003888000000000000000038888000000000033638161309COLEGIO DE MAGISTRADOS Y FUNCI000000063000000000000000000000000000000000000000000000000000000000000000000000000000000000000000000000000000000000000000PES00010000001000000000000000000000000
202505120010000600000000000000001785000000000000000017858000000000027251607864COVELLO JULIETA               000000180200041000000000000000000000000000000000000000000000000000000000000000000000000000000000000000000000000000000000PES00010000001000000000000000000000000
202505120060000600000000000000003889000000000000000038898000000000030717321231JEFATURA DE ASESORES DEL GOBER000001630000000000000000000000000000000000000000000000000000000000000000000000000000000000000000000000000000000000000000PES00010000001000000000000000000000000
202505130060000600000000000000003890000000000000000038908000000000030546666707UNIVERSIDAD NACIONAL DE LA PLA000000022000000000000000000000000000000000000000000000000000000000000000000000000000000000000000000000000000000000000000PES00010000001000000000000000000000000
202505130080000600000000000000000433000000000000000004338000000000030627393713DIRECCION GENERAL DE CULTURA Y000000849400000000000000000000000000000000000000000000000000000000000000000000000000000000000000000000000000000000000000PES00010000001000000000000000000000000
202505130060000600000000000000003891000000000000000038918000000000030715904817ORGANISMO PROVINCIAL DE INTEGR000000849400000000000000000000000000000000000000000000000000000000000000000000000000000000000000000000000000000000000000PES00010000001000000000000000000000000
202505140060000600000000000000003892000000000000000038928000000000030627393713DIRECCION GENERAL DE CULTURA Y000000060030000000000000000000000000000000000000000000000000000000000000000000000000000000000000000000000000000000000000PES00010000001000000000000000000000000
202505140060000600000000000000003893000000000000000038938000000000030627393713DIRECCION GENERAL DE CULTURA Y000000095564000000000000000000000000000000000000000000000000000000000000000000000000000000000000000000000000000000000000PES00010000001000000000000000000000000
202505140060000600000000000000003894000000000000000038948000000000030627393713DIRECCION GENERAL DE CULTURA Y000000100528000000000000000000000000000000000000000000000000000000000000000000000000000000000000000000000000000000000000PES00010000001000000000000000000000000
202505140060000600000000000000003895000000000000000038958000000000030627393713DIRECCION GENERAL DE CULTURA Y000000151320000000000000000000000000000000000000000000000000000000000000000000000000000000000000000000000000000000000000PES00010000001000000000000000000000000
202505150060000600000000000000003896000000000000000038968000000000030627393713DIRECCION GENERAL DE CULTURA Y000000346920000000000000000000000000000000000000000000000000000000000000000000000000000000000000000000000000000000000000PES00010000001000000000000000000000000
202505150010000600000000000000001786000000000000000017868000000000033593283319CORREGIDOR SA                 000000123156000000000000000000000000000000000000000000000000000000000000000000000000000000000000000000000000000000000000PES00010000001000000000000000000000000
202505150010000600000000000000001787000000000000000017878000000000027225988795NINA MARIA LAURA              000000067200012000000000000000000000000000000000000000000000000000000000000000000000000000000000000000000000000000000000PES00010000001000000000000000000000000
202505150010000600000000000000001788000000000000000017888000000000027225988795NINA MARIA LAURA              000000042000008000000000000000000000000000000000000000000000000000000000000000000000000000000000000000000000000000000000PES00010000001000000000000000000000000
202505150010000600000000000000001789000000000000000017898000000000033593283319CORREGIDOR SA                 000000068967360000000000000000000000000000000000000000000000000000000000000000000000000000000000000000000000000000000000PES00010000001000000000000000000000000
202505150060000600000000000000003897000000000000000038978000000000030627393713DIRECCION GENERAL DE CULTURA Y000000235690000000000000000000000000000000000000000000000000000000000000000000000000000000000000000000000000000000000000PES00010000001000000000000000000000000
202505160060000600000000000000003898000000000000000038988000000000030627393713DIRECCION GENERAL DE CULTURA Y000000300344000000000000000000000000000000000000000000000000000000000000000000000000000000000000000000000000000000000000PES00010000001000000000000000000000000
202505160060000600000000000000003899000000000000000038998000000000030627393713DIRECCION GENERAL DE CULTURA Y000000070000000000000000000000000000000000000000000000000000000000000000000000000000000000000000000000000000000000000000PES00010000001000000000000000000000000
202505160060000600000000000000003900000000000000000039008000000000030716742292MINISTERIO DE MUJERES Y DIVERS000000032160000000000000000000000000000000000000000000000000000000000000000000000000000000000000000000000000000000000000PES00010000001000000000000000000000000
202505160060000600000000000000003901000000000000000039018000000000030546666707UNIVERSIDAD NACIONAL DE LA PLA000000040000000000000000000000000000000000000000000000000000000000000000000000000000000000000000000000000000000000000000PES00010000001000000000000000000000000
202505170010000600000000000000001790000000000000000017908000000000030520912963TAIUTI CONSTRUCCIONES S C A   000000026860004000000000000000000000000000000000000000000000000000000000000000000000000000000000000000000000000000000000PES00010000001000000000000000000000000
202505190060000600000000000000003902000000000000000039028000000000030627393713DIRECCION GENERAL DE CULTURA Y000000433000000000000000000000000000000000000000000000000000000000000000000000000000000000000000000000000000000000000000PES00010000001000000000000000000000000
202505190080000600000000000000000434000000000000000004348000000000030627393713DIRECCION GENERAL DE CULTURA Y000000433000000000000000000000000000000000000000000000000000000000000000000000000000000000000000000000000000000000000000PES00010000001000000000000000000000000
202505190060000600000000000000003903000000000000000039038000000000030715904817ORGANISMO PROVINCIAL DE INTEGR000000433000000000000000000000000000000000000000000000000000000000000000000000000000000000000000000000000000000000000000PES00010000002000000000000000000000000
202505210010000600000000000000001791000000000000000017918000000000030559880120JOSE ANACLETO E HIJOS S A     000000007680035000000000000000000000000000000000000000000000000000000000000000000000000000000000000000000000000000000000PES00010000001000000000000000000000000
202505210060000600000000000000003904000000000000000039048000000000033684854149COMISION DE INVESTIGACIONES CI000000023260000000000000000000000000000000000000000000000000000000000000000000000000000000000000000000000000000000000000PES00010000001000000000000000000000000
202505220080000600000000000000000435000000000000000004358000000000030627393713DIRECCION GENERAL DE CULTURA Y000000095564000000000000000000000000000000000000000000000000000000000000000000000000000000000000000000000000000000000000PES00010000001000000000000000000000000
202505220060000600000000000000003905000000000000000039058000000000030627393713DIRECCION GENERAL DE CULTURA Y000000095564000000000000000000000000000000000000000000000000000000000000000000000000000000000000000000000000000000000000PES00010000001000000000000000000000000
202505220060000600000000000000003906000000000000000039068000000000030627393713DIRECCION GENERAL DE CULTURA Y000000116400000000000000000000000000000000000000000000000000000000000000000000000000000000000000000000000000000000000000PES00010000001000000000000000000000000
202505220060000600000000000000003907000000000000000039078000000000030627393713DIRECCION GENERAL DE CULTURA Y000000368604000000000000000000000000000000000000000000000000000000000000000000000000000000000000000000000000000000000000PES00010000001000000000000000000000000
202505220060000600000000000000003908000000000000000039088000000000030627393713DIRECCION GENERAL DE CULTURA Y000000425180000000000000000000000000000000000000000000000000000000000000000000000000000000000000000000000000000000000000PES00010000001000000000000000000000000
202505220060000600000000000000003909000000000000000039098000000000030627393713DIRECCION GENERAL DE CULTURA Y000000032820000000000000000000000000000000000000000000000000000000000000000000000000000000000000000000000000000000000000PES00010000001000000000000000000000000
202505230060000600000000000000003910000000000000000039108000000000030717462021ORGANISMO PROVINCIAL DE LA NIÑ000000578910000000000000000000000000000000000000000000000000000000000000000000000000000000000000000000000000000000000000PES00010000001000000000000000000000000
202505230060000600000000000000003911000000000000000039118000000000030627393713DIRECCION GENERAL DE CULTURA Y000000081950000000000000000000000000000000000000000000000000000000000000000000000000000000000000000000000000000000000000PES00010000001000000000000000000000000
202505230080000600000000000000000436000000000000000004368000000000030627393713DIRECCION GENERAL DE CULTURA Y000000425180000000000000000000000000000000000000000000000000000000000000000000000000000000000000000000000000000000000000PES00010000001000000000000000000000000
202505230060000600000000000000003912000000000000000039128000000000030627393713DIRECCION GENERAL DE CULTURA Y000000425180000000000000000000000000000000000000000000000000000000000000000000000000000000000000000000000000000000000000PES00010000001000000000000000000000000
202505240010000600000000000000001792000000000000000017928000000000030707919902AGUAS BONAERENSES S.A.        000000023759942000000000000000000000000000000000000000000000000000000000000000000000000000000000000000000000000000000000PES00010000001000000000000000000000000
202505260080000600000000000000000437000000000000000004378000000000030627393713DIRECCION GENERAL DE CULTURA Y000000368604000000000000000000000000000000000000000000000000000000000000000000000000000000000000000000000000000000000000PES00010000001000000000000000000000000
202505260060000600000000000000003913000000000000000039138000000000030627393713DIRECCION GENERAL DE CULTURA Y000000368604000000000000000000000000000000000000000000000000000000000000000000000000000000000000000000000000000000000000PES00010000001000000000000000000000000
202505270060000600000000000000003914000000000000000039148000000000030688384547SERVICIO NACIONAL DE SANIDAD Y000000020000000000000000000000000000000000000000000000000000000000000000000000000000000000000000000000000000000000000000PES00010000001000000000000000000000000
202505270060000600000000000000003915000000000000000039158000000000033684854149COMISION DE INVESTIGACIONES CI000000010610000000000000000000000000000000000000000000000000000000000000000000000000000000000000000000000000000000000000PES00010000001000000000000000000000000
202505270060000600000000000000003916000000000000000039168000000000030708499044INSTITUTO CULTURAL DE LA PROV 000000031080000000000000000000000000000000000000000000000000000000000000000000000000000000000000000000000000000000000000PES00010000001000000000000000000000000
202505270060000600000000000000003917000000000000000039178000000000030708499044INSTITUTO CULTURAL DE LA PROV 000000009700000000000000000000000000000000000000000000000000000000000000000000000000000000000000000000000000000000000000PES00010000001000000000000000000000000
202505270060000600000000000000003918000000000000000039188000000000030708499044INSTITUTO CULTURAL DE LA PROV 000000028600000000000000000000000000000000000000000000000000000000000000000000000000000000000000000000000000000000000000PES00010000001000000000000000000000000
202505270060000600000000000000003919000000000000000039198000000000030709414085ESCUELA FREUD LACAN DE LA PLAT000000070000000000000000000000000000000000000000000000000000000000000000000000000000000000000000000000000000000000000000PES00010000001000000000000000000000000
202505280060000600000000000000003920000000000000000039208000000000033633178009INSTITUTO DE PREVISION SOCIAL 000000059000000000000000000000000000000000000000000000000000000000000000000000000000000000000000000000000000000000000000PES00010000001000000000000000000000000
202505280080000600000000000000000438000000000000000004388000000000030627393713DIRECCION GENERAL DE CULTURA Y000000259820000000000000000000000000000000000000000000000000000000000000000000000000000000000000000000000000000000000000PES00010000001000000000000000000000000
202505280060000600000000000000003921000000000000000039218000000000030627393713DIRECCION GENERAL DE CULTURA Y000000259820000000000000000000000000000000000000000000000000000000000000000000000000000000000000000000000000000000000000PES00010000001000000000000000000000000
202505280060000600000000000000003922000000000000000039228000000000033638161309COLEGIO DE MAGISTRADOS Y FUNCI000000006350000000000000000000000000000000000000000000000000000000000000000000000000000000000000000000000000000000000000PES00010000001000000000000000000000000
202505280060000600000000000000003923000000000000000039238000000000030999057167MINISTERIO DE PRODUCCION CIENC000000225500000000000000000000000000000000000000000000000000000000000000000000000000000000000000000000000000000000000000PES00010000001000000000000000000000000
202505280060000600000000000000003924000000000000000039248000000000030627393713DIRECCION GENERAL DE CULTURA Y000000164000000000000000000000000000000000000000000000000000000000000000000000000000000000000000000000000000000000000000PES00010000001000000000000000000000000
202505280060000600000000000000003925000000000000000039258000000000030627393713DIRECCION GENERAL DE CULTURA Y000000034056000000000000000000000000000000000000000000000000000000000000000000000000000000000000000000000000000000000000PES00010000001000000000000000000000000
202505290060000600000000000000003926000000000000000039268000000000030627393713DIRECCION GENERAL DE CULTURA Y000000354420000000000000000000000000000000000000000000000000000000000000000000000000000000000000000000000000000000000000PES00010000001000000000000000000000000
202505290060000600000000000000003927000000000000000039278000000000030627393713DIRECCION GENERAL DE CULTURA Y000000414000000000000000000000000000000000000000000000000000000000000000000000000000000000000000000000000000000000000000PES00010000001000000000000000000000000
202505290060000600000000000000003928000000000000000039288000000000030627393713DIRECCION GENERAL DE CULTURA Y000000022400000000000000000000000000000000000000000000000000000000000000000000000000000000000000000000000000000000000000PES00010000001000000000000000000000000
202505290010000600000000000000001793000000000000000017938000000000033593283319CORREGIDOR SA                 000000059114880000000000000000000000000000000000000000000000000000000000000000000000000000000000000000000000000000000000PES00010000001000000000000000000000000
202505300060000600000000000000003929000000000000000039298000000000030716742292MINISTERIO DE MUJERES Y DIVERS000000012416000000000000000000000000000000000000000000000000000000000000000000000000000000000000000000000000000000000000PES00010000001000000000000000000000000
202505300060000600000000000000003930000000000000000039308000000000030643233343MINISTERIO DE ECONOMIA - PBA  000000024840000000000000000000000000000000000000000000000000000000000000000000000000000000000000000000000000000000000000PES00010000001000000000000000000000000
202505300060000600000000000000003931000000000000000039318000000000030717462021ORGANISMO PROVINCIAL DE LA NIÑ000000144727500000000000000000000000000000000000000000000000000000000000000000000000000000000000000000000000000000000000PES00010000001000000000000000000000000
202505300060000600000000000000003932000000000000000039328000000000030717462021ORGANISMO PROVINCIAL DE LA NIÑ000000144727500000000000000000000000000000000000000000000000000000000000000000000000000000000000000000000000000000000000PES00010000001000000000000000000000000
202505300060000600000000000000003933000000000000000039338000000000030717462021ORGANISMO PROVINCIAL DE LA NIÑ000000144727500000000000000000000000000000000000000000000000000000000000000000000000000000000000000000000000000000000000PES00010000001000000000000000000000000
202505300060000600000000000000003934000000000000000039348000000000030717462021ORGANISMO PROVINCIAL DE LA NIÑ000000144727500000000000000000000000000000000000000000000000000000000000000000000000000000000000000000000000000000000000PES00010000001000000000000000000000000
202505300060000600000000000000003935000000000000000039358000000000030710405863MINISTERIO DE AMBIENTE        000000244320000000000000000000000000000000000000000000000000000000000000000000000000000000000000000000000000000000000000PES00010000001000000000000000000000000
202505300010000600000000000000001794000000000000000017948000000000027225988795NINA MARIA LAURA              000000084000051000000000000000000000000000000000000000000000000000000000000000000000000000000000000000000000000000000000PES00010000001000000000000000000000000
202505300010000600000000000000001795000000000000000017958000000000027225988795NINA MARIA LAURA              000000068000004000000000000000000000000000000000000000000000000000000000000000000000000000000000000000000000000000000000PES00010000001000000000000000000000000
