202305020060000600000000000000002682000000000000000026828000000000030638438514H CAMARA DE DIPUTADOS PCIA BS 000000202690000000000000000000000000000000000000000000000000000000000000000000000000000000000000000000000000000000000000PES00010000001000000000000000000000000
202305030060000600000000000000002683000000000000000026838000000000030546666707UNIVERSIDAD NACIONAL DE LA PLA000000003650000000000000000000000000000000000000000000000000000000000000000000000000000000000000000000000000000000000000PES00010000001000000000000000000000000
202305030060000600000000000000002684000000000000000026848000000000030627393713DIRECCION GENERAL DE CULTURA Y000000087000000000000000000000000000000000000000000000000000000000000000000000000000000000000000000000000000000000000000PES00010000001000000000000000000000000
202305030060000600000000000000002685000000000000000026858000000000030627393713DIRECCION GENERAL DE CULTURA Y000000162500000000000000000000000000000000000000000000000000000000000000000000000000000000000000000000000000000000000000PES00010000001000000000000000000000000
202305050060000600000000000000002686000000000000000026868000000000033638161309COLEGIO DE MAGISTRADOS Y FUNCI000000001200000000000000000000000000000000000000000000000000000000000000000000000000000000000000000000000000000000000000PES00010000001000000000000000000000000
202305050060000600000000000000002687000000000000000026878000000000030708499044INSTITUTO CULTURAL DE LA PROV 000000032500000000000000000000000000000000000000000000000000000000000000000000000000000000000000000000000000000000000000PES00010000001000000000000000020230605
202305080060000600000000000000002688000000000000000026888000000000030638438514H CAMARA DE DIPUTADOS PCIA BS 000001168727500000000000000000000000000000000000000000000000000000000000000000000000000000000000000000000000000000000000PES00010000001000000000000000000000000
202305080080000600000000000000000229000000000000000002298000000000030638438514H CAMARA DE DIPUTADOS PCIA BS 000001168727500000000000000000000000000000000000000000000000000000000000000000000000000000000000000000000000000000000000PES00010000001000000000000000000000000
202305080060000600000000000000002689000000000000000026898000000000030638438514H CAMARA DE DIPUTADOS PCIA BS 000000192227500000000000000000000000000000000000000000000000000000000000000000000000000000000000000000000000000000000000PES00010000001000000000000000000000000
202305090060000600000000000000002690000000000000000026908000000000030707045031MINISTERIO DE DESARROLLO DE LA000000779100000000000000000000000000000000000000000000000000000000000000000000000000000000000000000000000000000000000000PES00010000001000000000000000000000000
202305090060000600000000000000002691000000000000000026918000000000030716742292MINISTERIO DE LAS MUJERES, POL000000004500000000000000000000000000000000000000000000000000000000000000000000000000000000000000000000000000000000000000PES00010000001000000000000000000000000
202305090060000600000000000000002692000000000000000026928000000000030715471511MINISTERIO DE JEFATURA DE GABI000000012000000000000000000000000000000000000000000000000000000000000000000000000000000000000000000000000000000000000000PES00010000001000000000000000000000000
202305090080000600000000000000000230000000000000000002308000000000030715471511MINISTERIO DE JEFATURA DE GABI000000012000000000000000000000000000000000000000000000000000000000000000000000000000000000000000000000000000000000000000PES00010000001000000000000000000000000
202305090080000600000000000000000231000000000000000002318000000000030715471511MINISTERIO DE JEFATURA DE GABI000000012000000000000000000000000000000000000000000000000000000000000000000000000000000000000000000000000000000000000000PES00010000001000000000000000000000000
202305090010000600000000000000001395000000000000000013958000000000030683462566DEVELOP SRL                   000000019493100000000000000000000000000000000000000000000000000000000000000000000000000000000000000000000000000000000000PES00010000001000000000000000000000000
202305090010000600000000000000001396000000000000000013968000000000030683462566DEVELOP SRL                   000000005118300000000000000000000000000000000000000000000000000000000000000000000000000000000000000000000000000000000000PES00010000001000000000000000000000000
202305090010000600000000000000001397000000000000000013978000000000030683462566DEVELOP SRL                   000000008820900000000000000000000000000000000000000000000000000000000000000000000000000000000000000000000000000000000000PES00010000001000000000000000000000000
202305090060000600000000000000002693000000000000000026938000000000030707216669PODER JUDICIAL MINISTERIO PUBL000000006630000000000000000000000000000000000000000000000000000000000000000000000000000000000000000000000000000000000000PES00010000001000000000000000000000000
202305100060000600000000000000002694000000000000000026948000000000030715471511MINISTERIO DE JEFATURA DE GABI000000012000000000000000000000000000000000000000000000000000000000000000000000000000000000000000000000000000000000000000PES00010000001000000000000000000000000
202305110010000600000000000000001398000000000000000013988000000000030501152826LABORATORIOS RICHMOND SACIF   000000001320014000000000000000000000000000000000000000000000000000000000000000000000000000000000000000000000000000000000PES00010000001000000000000000000000000
202305110060000600000000000000002695000000000000000026958000000000030627393713DIRECCION GENERAL DE CULTURA Y000000092000000000000000000000000000000000000000000000000000000000000000000000000000000000000000000000000000000000000000PES00010000001000000000000000000000000
202305120060000600000000000000002696000000000000000026968000000000030708499044INSTITUTO CULTURAL DE LA PROV 000000023100000000000000000000000000000000000000000000000000000000000000000000000000000000000000000000000000000000000000PES00010000001000000000000000020230612
202305120060000600000000000000002697000000000000000026978000000000030708499044INSTITUTO CULTURAL DE LA PROV 000000007900000000000000000000000000000000000000000000000000000000000000000000000000000000000000000000000000000000000000PES00010000001000000000000000020230612
202305120060000600000000000000002698000000000000000026988000000000030708499044INSTITUTO CULTURAL DE LA PROV 000000007390000000000000000000000000000000000000000000000000000000000000000000000000000000000000000000000000000000000000PES00010000001000000000000000020230612
202305120060000600000000000000002699000000000000000026998000000000030708499044INSTITUTO CULTURAL DE LA PROV 000000056000000000000000000000000000000000000000000000000000000000000000000000000000000000000000000000000000000000000000PES00010000001000000000000000020230612
202305120060000600000000000000002700000000000000000027008000000000030708499044INSTITUTO CULTURAL DE LA PROV 000000009480000000000000000000000000000000000000000000000000000000000000000000000000000000000000000000000000000000000000PES00010000001000000000000000020230612
202305120060000600000000000000002701000000000000000027018000000000030708499044INSTITUTO CULTURAL DE LA PROV 000000026800000000000000000000000000000000000000000000000000000000000000000000000000000000000000000000000000000000000000PES00010000001000000000000000020230612
202305120060000600000000000000002702000000000000000027028000000000030708499044INSTITUTO CULTURAL DE LA PROV 000000023100000000000000000000000000000000000000000000000000000000000000000000000000000000000000000000000000000000000000PES00010000001000000000000000020230612
202305120060000600000000000000002703000000000000000027038000000000030708499044INSTITUTO CULTURAL DE LA PROV 000000013500000000000000000000000000000000000000000000000000000000000000000000000000000000000000000000000000000000000000PES00010000001000000000000000020230612
202305120060000600000000000000002704000000000000000027048000000000030710405863MINISTERIO DE AMBIENTE        000000006250000000000000000000000000000000000000000000000000000000000000000000000000000000000000000000000000000000000000PES00010000001000000000000000000000000
202305120060000600000000000000002705000000000000000027058000000000030710405863MINISTERIO DE AMBIENTE        000000006250000000000000000000000000000000000000000000000000000000000000000000000000000000000000000000000000000000000000PES00010000001000000000000000000000000
202305120060000600000000000000002706000000000000000027068000000000030546033925CRUZ ROJA ARGENTINA           000000001200000000000000000000000000000000000000000000000000000000000000000000000000000000000000000000000000000000000000PES00010000001000000000000000000000000
202305180060000600000000000000002707000000000000000027078000000000030712158588UNIVERSIDAD PROVINCIAL DE EZEI000000013800000000000000000000000000000000000000000000000000000000000000000000000000000000000000000000000000000000000000PES00010000001000000000000000000000000
202305180060000600000000000000002708000000000000000027088000000000030638438514H CAMARA DE DIPUTADOS PCIA BS 000000110790300000000000000000000000000000000000000000000000000000000000000000000000000000000000000000000000000000000000PES00010000001000000000000000000000000
202305150080000600000000000000000232000000000000000002328000000000030712158588UNIVERSIDAD PROVINCIAL DE EZEI000000013800000000000000000000000000000000000000000000000000000000000000000000000000000000000000000000000000000000000000PES00010000001000000000000000000000000
202305180060000600000000000000002709000000000000000027098000000000030712158588UNIVERSIDAD PROVINCIAL DE EZEI000000013800000000000000000000000000000000000000000000000000000000000000000000000000000000000000000000000000000000000000PES00010000001000000000000000000000000
202305180060000600000000000000002710000000000000000027108000000000030710405863MINISTERIO DE AMBIENTE        000000068400000000000000000000000000000000000000000000000000000000000000000000000000000000000000000000000000000000000000PES00010000001000000000000000000000000
202305160010000600000000000000001399000000000000000013998000000000033593283319CORREGIDOR SA                 000000044294221000000000000000000000000000000000000000000000000000000000000000000000000000000000000000000000000000000000PES00010000001000000000000000000000000
202305160080000600000000000000000233000000000000000002338000000000030999057167MINISTERIO DE PRODUCCION CIENC000000002700000000000000000000000000000000000000000000000000000000000000000000000000000000000000000000000000000000000000PES00010000001000000000000000000000000
202305180060000600000000000000002711000000000000000027118000000000030999057167MINISTERIO DE PRODUCCION CIENC000000002700000000000000000000000000000000000000000000000000000000000000000000000000000000000000000000000000000000000000PES00010000001000000000000000000000000
202305160010000600000000000000001400000000000000000014008000000000033593283319CORREGIDOR SA                 000000007846650000000000000000000000000000000000000000000000000000000000000000000000000000000000000000000000000000000000PES00010000001000000000000000000000000
202305180060000600000000000000002712000000000000000027128000000000030717321231JEFATURA DE ASESORES DEL GOBER000000085000000000000000000000000000000000000000000000000000000000000000000000000000000000000000000000000000000000000000PES00010000001000000000000000000000000
202305180060000600000000000000002713000000000000000027138000000000030627393713DIRECCION GENERAL DE CULTURA Y000000035100000000000000000000000000000000000000000000000000000000000000000000000000000000000000000000000000000000000000PES00010000001000000000000000000000000
202305180060000600000000000000002714000000000000000027148000000000030627393713DIRECCION GENERAL DE CULTURA Y000000087000000000000000000000000000000000000000000000000000000000000000000000000000000000000000000000000000000000000000PES00010000001000000000000000000000000
202305160080000600000000000000000234000000000000000002348000000000030627393713DIRECCION GENERAL DE CULTURA Y000000087000000000000000000000000000000000000000000000000000000000000000000000000000000000000000000000000000000000000000PES00010000001000000000000000000000000
202305180060000600000000000000002715000000000000000027158000000000030627393713DIRECCION GENERAL DE CULTURA Y000000092000000000000000000000000000000000000000000000000000000000000000000000000000000000000000000000000000000000000000PES00010000001000000000000000000000000
202305180060000600000000000000002716000000000000000027168000000000030627393713DIRECCION GENERAL DE CULTURA Y000000100500000000000000000000000000000000000000000000000000000000000000000000000000000000000000000000000000000000000000PES00010000001000000000000000000000000
202305160080000600000000000000000235000000000000000002358000000000030627393713DIRECCION GENERAL DE CULTURA Y000000092000000000000000000000000000000000000000000000000000000000000000000000000000000000000000000000000000000000000000PES00010000001000000000000000000000000
202305180060000600000000000000002717000000000000000027178000000000030710932103ASOCIACION CIVIL WIKIMEDIA ARG000000004500000000000000000000000000000000000000000000000000000000000000000000000000000000000000000000000000000000000000PES00010000001000000000000000000000000
202305180060000600000000000000002718000000000000000027188000000000027214477969MAILHE ALEJANDRA MARIA        000000000720000000000000000000000000000000000000000000000000000000000000000000000000000000000000000000000000000000000000PES00010000001000000000000000000000000
202305180080000600000000000000000236000000000000000002368000000000027214477969MAILHE ALEJANDRA MARIA        000000000720000000000000000000000000000000000000000000000000000000000000000000000000000000000000000000000000000000000000PES00010000001000000000000000000000000
202305180060000600000000000000002719000000000000000027198000000000027214477969MAILHE ALEJANDRA MARIA        000000000720000000000000000000000000000000000000000000000000000000000000000000000000000000000000000000000000000000000000PES00010000001000000000000000000000000
202305180060000600000000000000002720000000000000000027208000000000030715124234MINISTERIO DE GOBIERNO BS.AS. 000000027000000000000000000000000000000000000000000000000000000000000000000000000000000000000000000000000000000000000000PES00010000001000000000000000000000000
202305180060000600000000000000002721000000000000000027218000000000027285085786ORTIZ MARIA EUGENIA           000000001100000000000000000000000000000000000000000000000000000000000000000000000000000000000000000000000000000000000000PES00010000001000000000000000000000000
202305180060000600000000000000002722000000000000000027228000000000030626983398MINISTERIO DE SALUD PCIA DE BS000000009400000000000000000000000000000000000000000000000000000000000000000000000000000000000000000000000000000000000000PES00010000001000000000000000000000000
202305190080000600000000000000000237000000000000000002378000000000027285085786ORTIZ MARIA EUGENIA           000000001100000000000000000000000000000000000000000000000000000000000000000000000000000000000000000000000000000000000000PES00010000001000000000000000000000000
202305190060000600000000000000002723000000000000000027238000000000027285085786ORTIZ MARIA EUGENIA           000000001700000000000000000000000000000000000000000000000000000000000000000000000000000000000000000000000000000000000000PES00010000001000000000000000000000000
202305190060000600000000000000002724000000000000000027248000000000027285085786ORTIZ MARIA EUGENIA           000000001700000000000000000000000000000000000000000000000000000000000000000000000000000000000000000000000000000000000000PES00010000001000000000000000000000000
202305230060000600000000000000002725000000000000000027258000000000030716742292MINISTERIO DE LAS MUJERES, POL000000001800000000000000000000000000000000000000000000000000000000000000000000000000000000000000000000000000000000000000PES00010000001000000000000000000000000
202305230060000600000000000000002726000000000000000027268000000000030638438514H CAMARA DE DIPUTADOS PCIA BS 000000087075700000000000000000000000000000000000000000000000000000000000000000000000000000000000000000000000000000000000PES00010000001000000000000000000000000
202305230060000600000000000000002727000000000000000027278000000000030708499044INSTITUTO CULTURAL DE LA PROV 000000011900000000000000000000000000000000000000000000000000000000000000000000000000000000000000000000000000000000000000PES00010000001000000000000000020230623
202305230060000600000000000000002728000000000000000027288000000000030708499044INSTITUTO CULTURAL DE LA PROV 000000018850000000000000000000000000000000000000000000000000000000000000000000000000000000000000000000000000000000000000PES00010000001000000000000000020230623
202305230060000600000000000000002729000000000000000027298000000000030708499044INSTITUTO CULTURAL DE LA PROV 000000017320000000000000000000000000000000000000000000000000000000000000000000000000000000000000000000000000000000000000PES00010000001000000000000000020230623
202305290060000600000000000000002730000000000000000027308000000000030707051546MINISTERIO DE JUSTICIA Y DEREC000000312000000000000000000000000000000000000000000000000000000000000000000000000000000000000000000000000000000000000000PES00010000001000000000000000000000000
202305290060000600000000000000002731000000000000000027318000000000030684598402MINISTERIO DE DESARROLLO AGRAR000000048000000000000000000000000000000000000000000000000000000000000000000000000000000000000000000000000000000000000000PES00010000001000000000000000000000000
202305290010000600000000000000001401000000000000000014018000000000030683462566DEVELOP SRL                   000000025518900000000000000000000000000000000000000000000000000000000000000000000000000000000000000000000000000000000000PES00010000001000000000000000000000000
202305290010000600000000000000001402000000000000000014028000000000030683462566DEVELOP SRL                   000000005517600000000000000000000000000000000000000000000000000000000000000000000000000000000000000000000000000000000000PES00010000001000000000000000000000000
202305290010000600000000000000001403000000000000000014038000000000030683462566DEVELOP SRL                   000000009540850000000000000000000000000000000000000000000000000000000000000000000000000000000000000000000000000000000000PES00010000001000000000000000000000000
202305290010000600000000000000001404000000000000000014048000000000020054120436SALAZAR  WILCHELM JUAN CARLOS 000000048400000000000000000000000000000000000000000000000000000000000000000000000000000000000000000000000000000000000000PES00010000001000000000000000000000000
202305300060000600000000000000002732000000000000000027328000000000030710404611AGENCIA DE RECAUDACION DE LA P000000218040000000000000000000000000000000000000000000000000000000000000000000000000000000000000000000000000000000000000PES00010000001000000000000000000000000
202305300080000600000000000000000238000000000000000002388000000000030710932103ASOCIACION CIVIL WIKIMEDIA ARG000000004500000000000000000000000000000000000000000000000000000000000000000000000000000000000000000000000000000000000000PES00010000001000000000000000000000000
202305300060000600000000000000002733000000000000000027338000000000030708499044INSTITUTO CULTURAL DE LA PROV 000000009000000000000000000000000000000000000000000000000000000000000000000000000000000000000000000000000000000000000000PES00010000001000000000000000020230630
202305300060000600000000000000002734000000000000000027348000000000030716742292MINISTERIO DE LAS MUJERES, POL000000008050000000000000000000000000000000000000000000000000000000000000000000000000000000000000000000000000000000000000PES00010000001000000000000000000000000
202305310010000600000000000000001405000000000000000014058000000000033593283319CORREGIDOR SA                 000000009330120000000000000000000000000000000000000000000000000000000000000000000000000000000000000000000000000000000000PES00010000001000000000000000000000000
202305310060000600000000000000002735000000000000000027358000000000030708499044INSTITUTO CULTURAL DE LA PROV 000000019000000000000000000000000000000000000000000000000000000000000000000000000000000000000000000000000000000000000000PES00010000001000000000000000020230630
202305310060000600000000000000002736000000000000000027368000000000030708499044INSTITUTO CULTURAL DE LA PROV 000000019510000000000000000000000000000000000000000000000000000000000000000000000000000000000000000000000000000000000000PES00010000001000000000000000020230630
202305310060000600000000000000002737000000000000000027378000000000030708499044INSTITUTO CULTURAL DE LA PROV 000000017320000000000000000000000000000000000000000000000000000000000000000000000000000000000000000000000000000000000000PES00010000001000000000000000020230630
202305310060000600000000000000002738000000000000000027388000000000030708499044INSTITUTO CULTURAL DE LA PROV 000000014400000000000000000000000000000000000000000000000000000000000000000000000000000000000000000000000000000000000000PES00010000001000000000000000020230630
202305310060000600000000000000002739000000000000000027398000000000030708499044INSTITUTO CULTURAL DE LA PROV 000000007150000000000000000000000000000000000000000000000000000000000000000000000000000000000000000000000000000000000000PES00010000001000000000000000020230630
