202507010060000600000000000000003982000000000000000039828000000000030627393713DIRECCION GENERAL DE CULTURA Y000000232800000000000000000000000000000000000000000000000000000000000000000000000000000000000000000000000000000000000000PES00010000001000000000000000000000000
202507010030000600000000000000000078000000000000000000788000000000030657864281CAMUZZI GAS PAMPEANA S A      000000003240036000000000000000000000000000000000000000000000000000000000000000000000000000000000000000000000000000000000PES00010000001000000000000000000000000
202507010060000600000000000000003983000000000000000039838000000000030708499044INSTITUTO CULTURAL DE LA PROV 000000054890000000000000000000000000000000000000000000000000000000000000000000000000000000000000000000000000000000000000PES00010000001000000000000000000000000
202507010060000600000000000000003984000000000000000039848000000000030708499044INSTITUTO CULTURAL DE LA PROV 000000045890000000000000000000000000000000000000000000000000000000000000000000000000000000000000000000000000000000000000PES00010000002000000000000000000000000
202507010080000600000000000000000454000000000000000004548000000000030708499044INSTITUTO CULTURAL DE LA PROV 000000054890000000000000000000000000000000000000000000000000000000000000000000000000000000000000000000000000000000000000PES00010000001000000000000000000000000
202507010060000600000000000000003985000000000000000039858000000000030708499044INSTITUTO CULTURAL DE LA PROV 000000049800000000000000000000000000000000000000000000000000000000000000000000000000000000000000000000000000000000000000PES00010000002000000000000000000000000
202507010060000600000000000000003986000000000000000039868000000000030708499044INSTITUTO CULTURAL DE LA PROV 000000039920000000000000000000000000000000000000000000000000000000000000000000000000000000000000000000000000000000000000PES00010000002000000000000000000000000
202507010060000600000000000000003987000000000000000039878000000000030999057167MINISTERIO DE PRODUCCION CIENC000001045000000000000000000000000000000000000000000000000000000000000000000000000000000000000000000000000000000000000000PES00010000001000000000000000000000000
202507020060000600000000000000003988000000000000000039888000000000030627393713DIRECCION GENERAL DE CULTURA Y000000151048000000000000000000000000000000000000000000000000000000000000000000000000000000000000000000000000000000000000PES00010000001000000000000000000000000
202507020010000600000000000000001817000000000000000018178000000000030657877669EMPRESA DISTRIBUIDORA LA PLATA000000003000001000000000000000000000000000000000000000000000000000000000000000000000000000000000000000000000000000000000PES00010000001000000000000000000000000
202507020010000600000000000000001818000000000000000018188000000000030717506428TKTK TECHNOLOGIES S.A.U.      000000047600045000000000000000000000000000000000000000000000000000000000000000000000000000000000000000000000000000000000PES00010000001000000000000000000000000
202507020010000600000000000000001819000000000000000018198000000000030657877669EMPRESA DISTRIBUIDORA LA PLATA000000026200001000000000000000000000000000000000000000000000000000000000000000000000000000000000000000000000000000000000PES00010000001000000000000000000000000
202507020010000600000000000000001820000000000000000018208000000000030657877669EMPRESA DISTRIBUIDORA LA PLATA000000070000000000000000000000000000000000000000000000000000000000000000000000000000000000000000000000000000000000000000PES00010000001000000000000000000000000
202507020010000600000000000000001821000000000000000018218000000000027225988795NINA MARIA LAURA              000000033600006000000000000000000000000000000000000000000000000000000000000000000000000000000000000000000000000000000000PES00010000001000000000000000000000000
202507020010000600000000000000001822000000000000000018228000000000027225988795NINA MARIA LAURA              000000114400012000000000000000000000000000000000000000000000000000000000000000000000000000000000000000000000000000000000PES00010000001000000000000000000000000
202507020010000600000000000000001823000000000000000018238000000000030678023864SAT MEDICA SA                 000000145000000000000000000000000000000000000000000000000000000000000000000000000000000000000000000000000000000000000000PES00010000001000000000000000000000000
202507030060000600000000000000003989000000000000000039898000000000030627393713DIRECCION GENERAL DE CULTURA Y000000220800000000000000000000000000000000000000000000000000000000000000000000000000000000000000000000000000000000000000PES00010000001000000000000000000000000
202507030060000600000000000000003990000000000000000039908000000000030708499044INSTITUTO CULTURAL DE LA PROV 000000026780000000000000000000000000000000000000000000000000000000000000000000000000000000000000000000000000000000000000PES00010000001000000000000000000000000
202507030010000600000000000000001824000000000000000018248000000000030657877669EMPRESA DISTRIBUIDORA LA PLATA000000014500001000000000000000000000000000000000000000000000000000000000000000000000000000000000000000000000000000000000PES00010000001000000000000000000000000
202507030010000600000000000000001825000000000000000018258000000000030657877669EMPRESA DISTRIBUIDORA LA PLATA000000007500000000000000000000000000000000000000000000000000000000000000000000000000000000000000000000000000000000000000PES00010000001000000000000000000000000
202507030010000600000000000000001826000000000000000018268000000000030657877669EMPRESA DISTRIBUIDORA LA PLATA000000007380001000000000000000000000000000000000000000000000000000000000000000000000000000000000000000000000000000000000PES00010000001000000000000000000000000
202507030010000600000000000000001827000000000000000018278000000000030657877669EMPRESA DISTRIBUIDORA LA PLATA000000004960001000000000000000000000000000000000000000000000000000000000000000000000000000000000000000000000000000000000PES00010000001000000000000000000000000
202507030010000600000000000000001828000000000000000018288000000000030657877669EMPRESA DISTRIBUIDORA LA PLATA000000018840000000000000000000000000000000000000000000000000000000000000000000000000000000000000000000000000000000000000PES00010000001000000000000000000000000
202507030010000600000000000000001829000000000000000018298000000000030657877669EMPRESA DISTRIBUIDORA LA PLATA000000012000000000000000000000000000000000000000000000000000000000000000000000000000000000000000000000000000000000000000PES00010000001000000000000000000000000
202507030010000600000000000000001830000000000000000018308000000000030657877669EMPRESA DISTRIBUIDORA LA PLATA000000007700000000000000000000000000000000000000000000000000000000000000000000000000000000000000000000000000000000000000PES00010000001000000000000000000000000
202507030030000600000000000000000079000000000000000000798000000000030657877669EMPRESA DISTRIBUIDORA LA PLATA000000014500001000000000000000000000000000000000000000000000000000000000000000000000000000000000000000000000000000000000PES00010000001000000000000000000000000
202507030030000600000000000000000080000000000000000000808000000000030657877669EMPRESA DISTRIBUIDORA LA PLATA000000007700000000000000000000000000000000000000000000000000000000000000000000000000000000000000000000000000000000000000PES00010000001000000000000000000000000
202507030010000600000000000000001831000000000000000018318000000000030657877669EMPRESA DISTRIBUIDORA LA PLATA000000022200001000000000000000000000000000000000000000000000000000000000000000000000000000000000000000000000000000000000PES00010000001000000000000000000000000
202507040080000600000000000000000455000000000000000004558000000000030627393713DIRECCION GENERAL DE CULTURA Y000000232800000000000000000000000000000000000000000000000000000000000000000000000000000000000000000000000000000000000000PES00010000001000000000000000000000000
202507040060000600000000000000003991000000000000000039918000000000030627393713DIRECCION GENERAL DE CULTURA Y000000189150000000000000000000000000000000000000000000000000000000000000000000000000000000000000000000000000000000000000PES00010000001000000000000000000000000
202507040060000600000000000000003992000000000000000039928000000000030627393713DIRECCION GENERAL DE CULTURA Y000000392656000000000000000000000000000000000000000000000000000000000000000000000000000000000000000000000000000000000000PES00010000001000000000000000000000000
202507040080000600000000000000000456000000000000000004568000000000030627393713DIRECCION GENERAL DE CULTURA Y000000189150000000000000000000000000000000000000000000000000000000000000000000000000000000000000000000000000000000000000PES00010000001000000000000000000000000
202507070060000600000000000000003993000000000000000039938000000000030627393713DIRECCION GENERAL DE CULTURA Y000000020010000000000000000000000000000000000000000000000000000000000000000000000000000000000000000000000000000000000000PES00010000001000000000000000000000000
202507070060000600000000000000003994000000000000000039948000000000030559799536SINDICATO OBRAS SANITARIAS DE 000000086860000000000000000000000000000000000000000000000000000000000000000000000000000000000000000000000000000000000000PES00010000001000000000000000000000000
202507080060000600000000000000003995000000000000000039958000000000030707045031MINISTERIO DE DESARROLLO DE LA000003940900000000000000000000000000000000000000000000000000000000000000000000000000000000000000000000000000000000000000PES00010000001000000000000000000000000
202507080060000600000000000000003996000000000000000039968000000000030627393713DIRECCION GENERAL DE CULTURA Y000000081950000000000000000000000000000000000000000000000000000000000000000000000000000000000000000000000000000000000000PES00010000001000000000000000000000000
202507080060000600000000000000003997000000000000000039978000000000030627393713DIRECCION GENERAL DE CULTURA Y000000084260000000000000000000000000000000000000000000000000000000000000000000000000000000000000000000000000000000000000PES00010000001000000000000000000000000
202507080010000600000000000000001832000000000000000018328000000000033593283319CORREGIDOR SA                 000000096565500000000000000000000000000000000000000000000000000000000000000000000000000000000000000000000000000000000000PES00010000001000000000000000000000000
202507110060000600000000000000003998000000000000000039988000000000030710405863MINISTERIO DE AMBIENTE        000000400162000000000000000000000000000000000000000000000000000000000000000000000000000000000000000000000000000000000000PES00010000001000000000000000000000000
202507110080000600000000000000000457000000000000000004578000000000030710405863MINISTERIO DE AMBIENTE        000000401162000000000000000000000000000000000000000000000000000000000000000000000000000000000000000000000000000000000000PES00010000001000000000000000000000000
202507120060000600000000000000003999000000000000000039998000000000030627393713DIRECCION GENERAL DE CULTURA Y000000371680000000000000000000000000000000000000000000000000000000000000000000000000000000000000000000000000000000000000PES00010000001000000000000000000000000
202507120060000600000000000000004000000000000000000040008000000000030627393713DIRECCION GENERAL DE CULTURA Y000000082000000000000000000000000000000000000000000000000000000000000000000000000000000000000000000000000000000000000000PES00010000001000000000000000000000000
202507120060000600000000000000004001000000000000000040018000000000030627393713DIRECCION GENERAL DE CULTURA Y000000067680000000000000000000000000000000000000000000000000000000000000000000000000000000000000000000000000000000000000PES00010000001000000000000000000000000
202507120060000600000000000000004002000000000000000040028000000000030627393713DIRECCION GENERAL DE CULTURA Y000000048500000000000000000000000000000000000000000000000000000000000000000000000000000000000000000000000000000000000000PES00010000001000000000000000000000000
202507120060000600000000000000004003000000000000000040038000000000030627393713DIRECCION GENERAL DE CULTURA Y000002760000000000000000000000000000000000000000000000000000000000000000000000000000000000000000000000000000000000000000PES00010000001000000000000000000000000
202507140060000600000000000000004004000000000000000040048000000000030708499044INSTITUTO CULTURAL DE LA PROV 000000040580000000000000000000000000000000000000000000000000000000000000000000000000000000000000000000000000000000000000PES00010000002000000000000000000000000
202507140060000600000000000000004005000000000000000040058000000000030708499044INSTITUTO CULTURAL DE LA PROV 000000040580000000000000000000000000000000000000000000000000000000000000000000000000000000000000000000000000000000000000PES00010000001000000000000000000000000
202507140060000600000000000000004006000000000000000040068000000000030708499044INSTITUTO CULTURAL DE LA PROV 000000065310000000000000000000000000000000000000000000000000000000000000000000000000000000000000000000000000000000000000PES00010000001000000000000000000000000
202507140080000600000000000000000458000000000000000004588000000000030708499044INSTITUTO CULTURAL DE LA PROV 000000040580000000000000000000000000000000000000000000000000000000000000000000000000000000000000000000000000000000000000PES00010000001000000000000000000000000
202507140060000600000000000000004007000000000000000040078000000000030708499044INSTITUTO CULTURAL DE LA PROV 000000040580000000000000000000000000000000000000000000000000000000000000000000000000000000000000000000000000000000000000PES00010000001000000000000000000000000
202507140060000600000000000000004008000000000000000040088000000000030999057167MINISTERIO DE PRODUCCION CIENC000000055418000000000000000000000000000000000000000000000000000000000000000000000000000000000000000000000000000000000000PES00010000001000000000000000000000000
202507150060000600000000000000004009000000000000000040098000000000030627393713DIRECCION GENERAL DE CULTURA Y000000094880000000000000000000000000000000000000000000000000000000000000000000000000000000000000000000000000000000000000PES00010000001000000000000000000000000
202507150060000600000000000000004010000000000000000040108000000000030627393713DIRECCION GENERAL DE CULTURA Y000000082000000000000000000000000000000000000000000000000000000000000000000000000000000000000000000000000000000000000000PES00010000001000000000000000000000000
202507150060000600000000000000004011000000000000000040118000000000030627393713DIRECCION GENERAL DE CULTURA Y000000259080000000000000000000000000000000000000000000000000000000000000000000000000000000000000000000000000000000000000PES00010000001000000000000000000000000
202507150010000600000000000000001833000000000000000018338000000000030657864281CAMUZZI GAS PAMPEANA S A      000000026940020000000000000000000000000000000000000000000000000000000000000000000000000000000000000000000000000000000000PES00010000001000000000000000000000000
202507150010000600000000000000001834000000000000000018348000000000030500008454BANCO SANTANDER ARGENTINA SOCI000000045000000000000000000000000000000000000000000000000000000000000000000000000000000000000000000000000000000000000000PES00010000001000000000000000000000000
202507150060000600000000000000004012000000000000000040128000000000030546666707UNIVERSIDAD NACIONAL DE LA PLA000000020000000000000000000000000000000000000000000000000000000000000000000000000000000000000000000000000000000000000000PES00010000001000000000000000000000000
202507150010000600000000000000001835000000000000000018358000000000030586688703OPTARIS S.A.                  000000019000000000000000000000000000000000000000000000000000000000000000000000000000000000000000000000000000000000000000PES00010000001000000000000000000000000
202507150010000600000000000000001836000000000000000018368000000000020247717081JARISZ CHRISTIAN IVAN         000000212000001000000000000000000000000000000000000000000000000000000000000000000000000000000000000000000000000000000000PES00010000001000000000000000000000000
202507160060000600000000000000004013000000000000000040138000000000030715904817ORGANISMO PROVINCIAL DE INTEGR000000798740000000000000000000000000000000000000000000000000000000000000000000000000000000000000000000000000000000000000PES00010000001000000000000000000000000
202507160060000600000000000000004014000000000000000040148000000000030708693045CONSEJO PROFESIONAL DE CIENCIA000000095000000000000000000000000000000000000000000000000000000000000000000000000000000000000000000000000000000000000000PES00010000001000000000000000000000000
202507160010000600000000000000001837000000000000000018378000000000030708953896EURO SWISS S.A.               000000089600000000000000000000000000000000000000000000000000000000000000000000000000000000000000000000000000000000000000PES00010000001000000000000000000000000
202507170080000600000000000000000459000000000000000004598000000000030999057167MINISTERIO DE PRODUCCION CIENC000000231700000000000000000000000000000000000000000000000000000000000000000000000000000000000000000000000000000000000000PES00010000001000000000000000000000000
202507170060000600000000000000004015000000000000000040158000000000030999057167MINISTERIO DE PRODUCCION CIENC000000231800000000000000000000000000000000000000000000000000000000000000000000000000000000000000000000000000000000000000PES00010000001000000000000000000000000
202507170060000600000000000000004016000000000000000040168000000000030708752297MINISTERIO DE TRABAJO DE LA PR000000942900000000000000000000000000000000000000000000000000000000000000000000000000000000000000000000000000000000000000PES00010000001000000000000000000000000
202507180010000600000000000000001838000000000000000018388000000000030544640212LABORATORIO ELEA PHOENIX S. A.000000079000000000000000000000000000000000000000000000000000000000000000000000000000000000000000000000000000000000000000PES00010000001000000000000000000000000
202507180080000600000000000000000460000000000000000004608000000000030708499044INSTITUTO CULTURAL DE LA PROV 000000045890000000000000000000000000000000000000000000000000000000000000000000000000000000000000000000000000000000000000PES00010000001000000000000000000000000
202507180060000600000000000000004017000000000000000040178000000000030708499044INSTITUTO CULTURAL DE LA PROV 000000054890000000000000000000000000000000000000000000000000000000000000000000000000000000000000000000000000000000000000PES00010000001000000000000000000000000
202507180010000600000000000000001839000000000000000018398000000000030520912963TAIUTI CONSTRUCCIONES S C A   000000026860000000000000000000000000000000000000000000000000000000000000000000000000000000000000000000000000000000000000PES00010000001000000000000000000000000
202507180060000600000000000000004018000000000000000040188000000000030627393713DIRECCION GENERAL DE CULTURA Y000000189150000000000000000000000000000000000000000000000000000000000000000000000000000000000000000000000000000000000000PES00010000001000000000000000000000000
202507180060000600000000000000004019000000000000000040198000000000030627393713DIRECCION GENERAL DE CULTURA Y000000232800000000000000000000000000000000000000000000000000000000000000000000000000000000000000000000000000000000000000PES00010000001000000000000000000000000
202507220060000600000000000000004020000000000000000040208000000000030627393713DIRECCION GENERAL DE CULTURA Y000000080000000000000000000000000000000000000000000000000000000000000000000000000000000000000000000000000000000000000000PES00010000001000000000000000000000000
202507230060000600000000000000004021000000000000000040218000000000030717321231JEFATURA DE ASESORES DEL GOBER000000014700000000000000000000000000000000000000000000000000000000000000000000000000000000000000000000000000000000000000PES00010000001000000000000000000000000
202507240060000600000000000000004022000000000000000040228000000000030627393713DIRECCION GENERAL DE CULTURA Y000003596400000000000000000000000000000000000000000000000000000000000000000000000000000000000000000000000000000000000000PES00010000001000000000000000000000000
202507240010000600000000000000001840000000000000000018408000000000033593283319CORREGIDOR SA                 000000049262400000000000000000000000000000000000000000000000000000000000000000000000000000000000000000000000000000000000PES00010000001000000000000000000000000
202507240010000600000000000000001841000000000000000018418000000000027225988795NINA MARIA LAURA              000000016000024000000000000000000000000000000000000000000000000000000000000000000000000000000000000000000000000000000000PES00010000001000000000000000000000000
202507240010000600000000000000001842000000000000000018428000000000027225988795NINA MARIA LAURA              000000033600020000000000000000000000000000000000000000000000000000000000000000000000000000000000000000000000000000000000PES00010000001000000000000000000000000
202507240010000600000000000000001843000000000000000018438000000000027225988795NINA MARIA LAURA              000000128800078000000000000000000000000000000000000000000000000000000000000000000000000000000000000000000000000000000000PES00010000001000000000000000000000000
202507240010000600000000000000001844000000000000000018448000000000027225988795NINA MARIA LAURA              000000172000048000000000000000000000000000000000000000000000000000000000000000000000000000000000000000000000000000000000PES00010000001000000000000000000000000
202507260060000600000000000000004023000000000000000040238000000000030550857061COLEGIO DE FARMACEUTICOS DE LA000000273920000000000000000000000000000000000000000000000000000000000000000000000000000000000000000000000000000000000000PES00010000001000000000000000000000000
202507280060000600000000000000004024000000000000000040248000000000030715124234MINISTERIO DE GOBIERNO BS.AS. 000001150000000000000000000000000000000000000000000000000000000000000000000000000000000000000000000000000000000000000000PES00010000001000000000000000000000000
202507280010000600000000000000001845000000000000000018458000000000027251607864COVELLO JULIETA               000000025200012000000000000000000000000000000000000000000000000000000000000000000000000000000000000000000000000000000000PES00010000001000000000000000000000000
202507280010000600000000000000001846000000000000000018468000000000020247717081JARISZ CHRISTIAN IVAN         000000150000001000000000000000000000000000000000000000000000000000000000000000000000000000000000000000000000000000000000PES00010000001000000000000000020250728
202507290060000600000000000000004025000000000000000040258000000000030708499044INSTITUTO CULTURAL DE LA PROV 000000028140000000000000000000000000000000000000000000000000000000000000000000000000000000000000000000000000000000000000PES00010000001000000000000000000000000
202507300010000600000000000000001847000000000000000018478000000000030657877669EMPRESA DISTRIBUIDORA LA PLATA000000033734800000000000000000000000000000000000000000000000000000000000000000000000000000000000000000000000000000000000PES00010000001000000000000000000000000
202507310060000600000000000000004026000000000000000040268000000000033691349719ASOCIACION DE REUMATOLOGIA DE 000000139500000000000000000000000000000000000000000000000000000000000000000000000000000000000000000000000000000000000000PES00010000001000000000000000000000000
202507310060000600000000000000004027000000000000000040279600000000000018432738ALVAREZ FABIANA EDITH         000000037200000000000000000000000000000000000000000000000000000000000000000000000000000000000000000000000000000000000000PES00010000001000000000000000000000000
202507310010000600000000000000001848000000000000000018488000000000030657877669EMPRESA DISTRIBUIDORA LA PLATA000000004940005000000000000000000000000000000000000000000000000000000000000000000000000000000000000000000000000000000000PES00010000001000000000000000000000000
202507310080000600000000000000000461000000000000000004618000000000030708499044INSTITUTO CULTURAL DE LA PROV 000000054890000000000000000000000000000000000000000000000000000000000000000000000000000000000000000000000000000000000000PES00010000001000000000000000000000000
202507310080000600000000000000000462000000000000000004628000000000030708499044INSTITUTO CULTURAL DE LA PROV 000000040580000000000000000000000000000000000000000000000000000000000000000000000000000000000000000000000000000000000000PES00010000001000000000000000000000000
202507310080000600000000000000000463000000000000000004638000000000030708499044INSTITUTO CULTURAL DE LA PROV 000000079720000000000000000000000000000000000000000000000000000000000000000000000000000000000000000000000000000000000000PES00010000001000000000000000000000000
