202402050060000600000000000000003170000000000000000031708000000000030708499044INSTITUTO CULTURAL DE LA PROV 000000014000000000000000000000000000000000000000000000000000000000000000000000000000000000000000000000000000000000000000PES00010000001000000000000000020240305
202402060060000600000000000000003171000000000000000031718000000000030626983398MINISTERIO DE SALUD PCIA DE BS000000020000000000000000000000000000000000000000000000000000000000000000000000000000000000000000000000000000000000000000PES00010000001000000000000000000000000
202402080010000600000000000000001520000000000000000015208000000000030657864281CAMUZZI GAS PAMPEANA S A      000000008610092000000000000000000000000000000000000000000000000000000000000000000000000000000000000000000000000000000000PES00010000001000000000000000000000000
202402140060000600000000000000003172000000000000000031728000000000033684854149COMISION DE INVESTIGACIONES CI000000014000000000000000000000000000000000000000000000000000000000000000000000000000000000000000000000000000000000000000PES00010000001000000000000000000000000
202402140060000600000000000000003173000000000000000031738000000000030709643874FUNDACION FACULTAD DE CIENCIAS000000003840000000000000000000000000000000000000000000000000000000000000000000000000000000000000000000000000000000000000PES00010000001000000000000000000000000
202402190010000600000000000000001521000000000000000015218000000000033593283319CORREGIDOR SA                 000000081000038000000000000000000000000000000000000000000000000000000000000000000000000000000000000000000000000000000000PES00010000001000000000000000000000000
202402190010000600000000000000001522000000000000000015228000000000027251607864COVELLO JULIETA               000000050000044000000000000000000000000000000000000000000000000000000000000000000000000000000000000000000000000000000000PES00010000001000000000000000000000000
202402190060000600000000000000003174000000000000000031748000000000030627393713DIRECCION GENERAL DE CULTURA Y000000575400000000000000000000000000000000000000000000000000000000000000000000000000000000000000000000000000000000000000PES00010000001000000000000000000000000
202402190010000600000000000000001523000000000000000015238000000000033593283319CORREGIDOR SA                 000000060000052000000000000000000000000000000000000000000000000000000000000000000000000000000000000000000000000000000000PES00010000001000000000000000000000000
202402190060000600000000000000003175000000000000000031758000000000030627393713DIRECCION GENERAL DE CULTURA Y000000201000000000000000000000000000000000000000000000000000000000000000000000000000000000000000000000000000000000000000PES00010000001000000000000000000000000
202402200060000600000000000000003176000000000000000031768000000000030627393713DIRECCION GENERAL DE CULTURA Y000000342000000000000000000000000000000000000000000000000000000000000000000000000000000000000000000000000000000000000000PES00010000001000000000000000000000000
202402200010000600000000000000001524000000000000000015248000000000027251607864COVELLO JULIETA               000000050000044000000000000000000000000000000000000000000000000000000000000000000000000000000000000000000000000000000000PES00010000001000000000000000000000000
202402210010000600000000000000001525000000000000000015258000000000033593283319CORREGIDOR SA                 000000018132600000000000000000000000000000000000000000000000000000000000000000000000000000000000000000000000000000000000PES00010000001000000000000000000000000
202402210010000600000000000000001526000000000000000015268000000000033593283319CORREGIDOR SA                 000000034911000000000000000000000000000000000000000000000000000000000000000000000000000000000000000000000000000000000000PES00010000001000000000000000000000000
202402220060000600000000000000003177000000000000000031778000000000030627393713DIRECCION GENERAL DE CULTURA Y000000272400000000000000000000000000000000000000000000000000000000000000000000000000000000000000000000000000000000000000PES00010000001000000000000000000000000
202402230010000600000000000000001527000000000000000015278000000000030657864281CAMUZZI GAS PAMPEANA S A      000000003160024000000000000000000000000000000000000000000000000000000000000000000000000000000000000000000000000000000000PES00010000001000000000000000000000000
202402230060000600000000000000003178000000000000000031788000000000030705044801SOCIEDAD ARGENTINA DE DERMATOL000001050000000000000000000000000000000000000000000000000000000000000000000000000000000000000000000000000000000000000000PES00010000001000000000000000000000000
202402230080000600000000000000000310000000000000000003108000000000030627393713DIRECCION GENERAL DE CULTURA Y000000272400000000000000000000000000000000000000000000000000000000000000000000000000000000000000000000000000000000000000PES00010000001000000000000000000000000
202402260060000600000000000000003179000000000000000031798000000000030708499044INSTITUTO CULTURAL DE LA PROV 000000078000000000000000000000000000000000000000000000000000000000000000000000000000000000000000000000000000000000000000PES00010000001000000000000000020240326
202402260060000600000000000000003180000000000000000031808000000000030708499044INSTITUTO CULTURAL DE LA PROV 000000069300000000000000000000000000000000000000000000000000000000000000000000000000000000000000000000000000000000000000PES00010000001000000000000000020240326
202402270060000600000000000000003181000000000000000031818000000000030717458342MINISTERIO DE HABITAT Y DESARR000000007980000000000000000000000000000000000000000000000000000000000000000000000000000000000000000000000000000000000000PES00010000001000000000000000000000000
202402270060000600000000000000003182000000000000000031828000000000030546666707UNIVERSIDAD NACIONAL DE LA PLA000000024000000000000000000000000000000000000000000000000000000000000000000000000000000000000000000000000000000000000000PES00010000001000000000000000000000000
202402280010000600000000000000001528000000000000000015288000000000027251607864COVELLO JULIETA               000000050000044000000000000000000000000000000000000000000000000000000000000000000000000000000000000000000000000000000000PES00010000001000000000000000000000000
202402280010000600000000000000001529000000000000000015298000000000030641040580LABORATORIO COPAHUE S A.      000000016800003000000000000000000000000000000000000000000000000000000000000000000000000000000000000000000000000000000000PES00010000001000000000000000000000000
202402280080000600000000000000000311000000000000000003118000000000030717458342MINISTERIO DE HABITAT Y DESARR000000007980000000000000000000000000000000000000000000000000000000000000000000000000000000000000000000000000000000000000PES00010000001000000000000000000000000
202402280060000600000000000000003183000000000000000031838000000000030717458342MINISTERIO DE HABITAT Y DESARR000000007980000000000000000000000000000000000000000000000000000000000000000000000000000000000000000000000000000000000000PES00010000001000000000000000000000000
202402280060000600000000000000003184000000000000000031848000000000030627393713DIRECCION GENERAL DE CULTURA Y000000080000000000000000000000000000000000000000000000000000000000000000000000000000000000000000000000000000000000000000PES00010000001000000000000000000000000
202402280060000600000000000000003185000000000000000031858000000000033638161309COLEGIO DE MAGISTRADOS Y FUNCI000000003880000000000000000000000000000000000000000000000000000000000000000000000000000000000000000000000000000000000000PES00010000001000000000000000000000000
202402290060000600000000000000003186000000000000000031868000000000030627393713DIRECCION GENERAL DE CULTURA Y000000204000000000000000000000000000000000000000000000000000000000000000000000000000000000000000000000000000000000000000PES00010000001000000000000000000000000
