202405030010000600000000000000001550000000000000000015508000000000030717392619COOPERATIVA DE TRABAJO GASTRON000000212500000000000000000000000000000000000000000000000000000000000000000000000000000000000000000000000000000000000000PES00010000001000000000000000000000000
202405030060000600000000000000003248000000000000000032488000000000030660037736SOCIEDAD ARGENTINA DE INMUNOLO000000152000000000000000000000000000000000000000000000000000000000000000000000000000000000000000000000000000000000000000PES00010000001000000000000000000000000
202405060060000600000000000000003249000000000000000032498000000000030638438514H CAMARA DE DIPUTADOS PCIA BS 000000426586000000000000000000000000000000000000000000000000000000000000000000000000000000000000000000000000000000000000PES00010000001000000000000000000000000
202405070060000600000000000000003250000000000000000032508000000000030627393713DIRECCION GENERAL DE CULTURA Y000000260000000000000000000000000000000000000000000000000000000000000000000000000000000000000000000000000000000000000000PES00010000001000000000000000020240707
202405080060000600000000000000003251000000000000000032518000000000030999106753INSTITUTO DE LA VIVIENDA DE LA000000009700000000000000000000000000000000000000000000000000000000000000000000000000000000000000000000000000000000000000PES00010000001000000000000000000000000
202405080080000600000000000000000327000000000000000003278000000000030627393713DIRECCION GENERAL DE CULTURA Y000000260000000000000000000000000000000000000000000000000000000000000000000000000000000000000000000000000000000000000000PES00010000001000000000000000020240707
202405080060000600000000000000003252000000000000000032528000000000030627393713DIRECCION GENERAL DE CULTURA Y000000260000000000000000000000000000000000000000000000000000000000000000000000000000000000000000000000000000000000000000PES00010000001000000000000000020240708
202405080060000600000000000000003253000000000000000032538000000000030708499044INSTITUTO CULTURAL DE LA PROV 000000019000000000000000000000000000000000000000000000000000000000000000000000000000000000000000000000000000000000000000PES00010000001000000000000000020240625
202405080060000600000000000000003254000000000000000032548000000000030708499044INSTITUTO CULTURAL DE LA PROV 000000012000000000000000000000000000000000000000000000000000000000000000000000000000000000000000000000000000000000000000PES00010000001000000000000000020240627
202405080060000600000000000000003255000000000000000032558000000000030708499044INSTITUTO CULTURAL DE LA PROV 000000024000000000000000000000000000000000000000000000000000000000000000000000000000000000000000000000000000000000000000PES00010000001000000000000000020240606
202405080060000600000000000000003256000000000000000032568000000000030716742292MINISTERIO DE MUJERES Y DIVERS000000018000000000000000000000000000000000000000000000000000000000000000000000000000000000000000000000000000000000000000PES00010000001000000000000000020240620
202405080060000600000000000000003257000000000000000032578000000000030665658313MINISTERIO DE INFRAESTRUCTURA 000000025000000000000000000000000000000000000000000000000000000000000000000000000000000000000000000000000000000000000000PES00010000001000000000000000000000000
202405080060000600000000000000003258000000000000000032588000000000030717458342MINISTERIO DE HABITAT Y DESARR000000007200000000000000000000000000000000000000000000000000000000000000000000000000000000000000000000000000000000000000PES00010000001000000000000000020240610
202405090010000600000000000000001551000000000000000015518000000000030501152826LABORATORIOS RICHMOND SACIF S.000000013000000000000000000000000000000000000000000000000000000000000000000000000000000000000000000000000000000000000000PES00010000001000000000000000000000000
202405140010000600000000000000001552000000000000000015528000000000030540576870MEGALABS ARGENTINA S.A.U.     000000012000000000000000000000000000000000000000000000000000000000000000000000000000000000000000000000000000000000000000PES00010000001000000000000000000000000
202405140010000600000000000000001553000000000000000015538000000000030540576870MEGALABS ARGENTINA S.A.U.     000000013200000000000000000000000000000000000000000000000000000000000000000000000000000000000000000000000000000000000000PES00010000001000000000000000000000000
202405140030000600000000000000000062000000000000000000628000000000030540576870MEGALABS ARGENTINA S.A.U.     000000012000000000000000000000000000000000000000000000000000000000000000000000000000000000000000000000000000000000000000PES00010000001000000000000000000000000
202405140060000600000000000000003259000000000000000032598000000000030715124234MINISTERIO DE GOBIERNO BS.AS. 000000363000000000000000000000000000000000000000000000000000000000000000000000000000000000000000000000000000000000000000PES00010000001000000000000000000000000
202405160060000600000000000000003260000000000000000032608000000000020286872566PAURA EZEQUIEL MAXIMILIANO    000000010540000000000000000000000000000000000000000000000000000000000000000000000000000000000000000000000000000000000000PES00010000001000000000000000000000000
202405160010000600000000000000001554000000000000000015548000000000030712342273GRUPO SEIS TRES UNO S.R.L.    000000023000001000000000000000000000000000000000000000000000000000000000000000000000000000000000000000000000000000000000PES00010000001000000000000000000000000
202405160060000600000000000000003261000000000000000032619600000000000021579641GOTTA VIVIANA CLELIA          000000010700000000000000000000000000000000000000000000000000000000000000000000000000000000000000000000000000000000000000PES00010000001000000000000000000000000
202405160010000600000000000000001555000000000000000015558000000000027225988795NINA MARIA LAURA              000000155000032000000000000000000000000000000000000000000000000000000000000000000000000000000000000000000000000000000000PES00010000001000000000000000000000000
202405160060000600000000000000003262000000000000000032628000000000030627393713DIRECCION GENERAL DE CULTURA Y000000393600000000000000000000000000000000000000000000000000000000000000000000000000000000000000000000000000000000000000PES00010000001000000000000000000000000
202405170010000600000000000000001556000000000000000015568000000000030641040580LABORATORIO COPAHUE S A.      000000027000000000000000000000000000000000000000000000000000000000000000000000000000000000000000000000000000000000000000PES00010000001000000000000000000000000
202405170060000600000000000000003263000000000000000032638000000000030638438514H CAMARA DE DIPUTADOS PCIA BS 000000417387000000000000000000000000000000000000000000000000000000000000000000000000000000000000000000000000000000000000PES00010000001000000000000000000000000
202405170060000600000000000000003264000000000000000032648000000000030707045031MINISTERIO DE DESARROLLO DE LA000001845000000000000000000000000000000000000000000000000000000000000000000000000000000000000000000000000000000000000000PES00010000001000000000000000000000000
202405170060000600000000000000003265000000000000000032658000000000030627393713DIRECCION GENERAL DE CULTURA Y000000465000000000000000000000000000000000000000000000000000000000000000000000000000000000000000000000000000000000000000PES00010000001000000000000000020240717
202405210060000600000000000000003266000000000000000032668000000000030710100140CENTRO CIENTIFICO TECNOLOGICO 000000068400000000000000000000000000000000000000000000000000000000000000000000000000000000000000000000000000000000000000PES00010000001000000000000000000000000
202405210060000600000000000000003267000000000000000032678000000000030626983398MINISTERIO DE SALUD PCIA DE BS000000132000000000000000000000000000000000000000000000000000000000000000000000000000000000000000000000000000000000000000PES00010000001000000000000000000000000
202405210060000600000000000000003268000000000000000032688000000000030626983398MINISTERIO DE SALUD PCIA DE BS000000138600000000000000000000000000000000000000000000000000000000000000000000000000000000000000000000000000000000000000PES00010000001000000000000000000000000
202405210060000600000000000000003269000000000000000032698000000000030626983398MINISTERIO DE SALUD PCIA DE BS000000059400000000000000000000000000000000000000000000000000000000000000000000000000000000000000000000000000000000000000PES00010000001000000000000000000000000
202405210080000600000000000000000328000000000000000003288000000000030626983398MINISTERIO DE SALUD PCIA DE BS000000270600000000000000000000000000000000000000000000000000000000000000000000000000000000000000000000000000000000000000PES00010000001000000000000000000000000
202405210080000600000000000000000329000000000000000003298000000000030627393713DIRECCION GENERAL DE CULTURA Y000000465000000000000000000000000000000000000000000000000000000000000000000000000000000000000000000000000000000000000000PES00010000001000000000000000020240721
202405210060000600000000000000003270000000000000000032708000000000030627393713DIRECCION GENERAL DE CULTURA Y000000465000000000000000000000000000000000000000000000000000000000000000000000000000000000000000000000000000000000000000PES00010000001000000000000000020240721
202405220060000600000000000000003271000000000000000032718000000000030715124234MINISTERIO DE GOBIERNO BS.AS. 000000363000000000000000000000000000000000000000000000000000000000000000000000000000000000000000000000000000000000000000PES00010000001000000000000000000000000
202405220080000600000000000000000330000000000000000003308000000000030715124234MINISTERIO DE GOBIERNO BS.AS. 000000363000000000000000000000000000000000000000000000000000000000000000000000000000000000000000000000000000000000000000PES00010000001000000000000000000000000
202405220060000600000000000000003272000000000000000032728000000000030627393713DIRECCION GENERAL DE CULTURA Y000000128800000000000000000000000000000000000000000000000000000000000000000000000000000000000000000000000000000000000000PES00010000001000000000000000020240722
202405230010000600000000000000001557000000000000000015578000000000030710434421FARMACIA ZORICH DE PAULA CRIST000000025200004000000000000000000000000000000000000000000000000000000000000000000000000000000000000000000000000000000000PES00010000001000000000000000000000000
202405230010000600000000000000001558000000000000000015588000000000030501152826LABORATORIOS RICHMOND SACIF S.000000005000010000000000000000000000000000000000000000000000000000000000000000000000000000000000000000000000000000000000PES00010000001000000000000000000000000
202405240060000600000000000000003273000000000000000032738000000000030638438514H CAMARA DE DIPUTADOS PCIA BS 000000572723000000000000000000000000000000000000000000000000000000000000000000000000000000000000000000000000000000000000PES00010000001000000000000000000000000
202405240060000600000000000000003274000000000000000032748000000000030684598402MINISTERIO DE DESARROLLO AGRAR000000004000000000000000000000000000000000000000000000000000000000000000000000000000000000000000000000000000000000000000PES00010000001000000000000000000000000
202405240060000600000000000000003275000000000000000032758000000000030999057167MINISTERIO DE PRODUCCION CIENC000000101490000000000000000000000000000000000000000000000000000000000000000000000000000000000000000000000000000000000000PES00010000001000000000000000000000000
202405240010000600000000000000001559000000000000000015598000000000033593283319CORREGIDOR SA                 000000001860007000000000000000000000000000000000000000000000000000000000000000000000000000000000000000000000000000000000PES00010000001000000000000000000000000
202405240010000600000000000000001560000000000000000015608000000000033593283319CORREGIDOR SA                 000000087205736000000000000000000000000000000000000000000000000000000000000000000000000000000000000000000000000000000000PES00010000001000000000000000000000000
202405270010000600000000000000001561000000000000000015618000000000030707816046E TRAVEL SRL                  000000009750000000000000000000000000000000000000000000000000000000000000000000000000000000000000000000000000000000000000PES00010000001000000000000000000000000
202405280010000600000000000000001562000000000000000015628000000000020321089675LOPEZ OSORNIO MATIAS          000000096000000000000000000000000000000000000000000000000000000000000000000000000000000000000000000000000000000000000000PES00010000001000000000000000000000000
202405290060000600000000000000003276000000000000000032768000000000030665708825TRIBUNAL DE CUENTAS DE LA PROV000000012000000000000000000000000000000000000000000000000000000000000000000000000000000000000000000000000000000000000000PES00010000001000000000000000000000000
202405300060000600000000000000003277000000000000000032778000000000030717321231JEFATURA DE ASESORES DEL GOBER000000099600000000000000000000000000000000000000000000000000000000000000000000000000000000000000000000000000000000000000PES00010000001000000000000000000000000
202405300060000600000000000000003278000000000000000032788000000000030546666707UNIVERSIDAD NACIONAL DE LA PLA000000014000000000000000000000000000000000000000000000000000000000000000000000000000000000000000000000000000000000000000PES00010000001000000000000000000000000
202405300060000600000000000000003279000000000000000032798000000000030546666707UNIVERSIDAD NACIONAL DE LA PLA000000026000000000000000000000000000000000000000000000000000000000000000000000000000000000000000000000000000000000000000PES00010000001000000000000000000000000
202405300010000600000000000000001563000000000000000015638000000000030657877669EMPRESA DISTRIBUIDORA LA PLATA000000024900001000000000000000000000000000000000000000000000000000000000000000000000000000000000000000000000000000000000PES00010000001000000000000000000000000
202405300030000600000000000000000063000000000000000000638000000000030657877669EMPRESA DISTRIBUIDORA LA PLATA000000024900001000000000000000000000000000000000000000000000000000000000000000000000000000000000000000000000000000000000PES00010000001000000000000000000000000
202405300010000600000000000000001564000000000000000015648000000000030657877669EMPRESA DISTRIBUIDORA LA PLATA000000024900001000000000000000000000000000000000000000000000000000000000000000000000000000000000000000000000000000000000PES00010000001000000000000000000000000
202405300010000600000000000000001565000000000000000015658000000000030657877669EMPRESA DISTRIBUIDORA LA PLATA000000012080000000000000000000000000000000000000000000000000000000000000000000000000000000000000000000000000000000000000PES00010000001000000000000000000000000
202405300010000600000000000000001566000000000000000015668000000000030657877669EMPRESA DISTRIBUIDORA LA PLATA000000004000000000000000000000000000000000000000000000000000000000000000000000000000000000000000000000000000000000000000PES00010000001000000000000000000000000
202405300010000600000000000000001567000000000000000015678000000000030657877669EMPRESA DISTRIBUIDORA LA PLATA000000018400001000000000000000000000000000000000000000000000000000000000000000000000000000000000000000000000000000000000PES00010000001000000000000000000000000
202405300010000600000000000000001568000000000000000015688000000000030657877669EMPRESA DISTRIBUIDORA LA PLATA000000105800004000000000000000000000000000000000000000000000000000000000000000000000000000000000000000000000000000000000PES00010000001000000000000000000000000
202405300060000600000000000000003280000000000000000032808000000000030708499044INSTITUTO CULTURAL DE LA PROV 000000018500000000000000000000000000000000000000000000000000000000000000000000000000000000000000000000000000000000000000PES00010000001000000000000000020240623
202405300060000600000000000000003281000000000000000032818000000000030708499044INSTITUTO CULTURAL DE LA PROV 000000018500000000000000000000000000000000000000000000000000000000000000000000000000000000000000000000000000000000000000PES00010000001000000000000000020240617
202405300060000600000000000000003282000000000000000032828000000000030708499044INSTITUTO CULTURAL DE LA PROV 000000018000000000000000000000000000000000000000000000000000000000000000000000000000000000000000000000000000000000000000PES00010000001000000000000000020240624
202405300060000600000000000000003283000000000000000032838000000000030708499044INSTITUTO CULTURAL DE LA PROV 000000148000000000000000000000000000000000000000000000000000000000000000000000000000000000000000000000000000000000000000PES00010000001000000000000000020240624
202405300080000600000000000000000331000000000000000003318000000000030708499044INSTITUTO CULTURAL DE LA PROV 000000018500000000000000000000000000000000000000000000000000000000000000000000000000000000000000000000000000000000000000PES00010000001000000000000000000000000
202405310060000600000000000000003284000000000000000032848000000000030707045031MINISTERIO DE DESARROLLO DE LA000001640000000000000000000000000000000000000000000000000000000000000000000000000000000000000000000000000000000000000000PES00010000001000000000000000000000000
202405310060000600000000000000003285000000000000000032858000000000030716742292MINISTERIO DE MUJERES Y DIVERS000000028040000000000000000000000000000000000000000000000000000000000000000000000000000000000000000000000000000000000000PES00010000001000000000000000020240531
202405310060000600000000000000003286000000000000000032868000000000030627393713DIRECCION GENERAL DE CULTURA Y000000260000000000000000000000000000000000000000000000000000000000000000000000000000000000000000000000000000000000000000PES00010000001000000000000000000000000
202405310080000600000000000000000332000000000000000003328000000000030627393713DIRECCION GENERAL DE CULTURA Y000000260000000000000000000000000000000000000000000000000000000000000000000000000000000000000000000000000000000000000000PES00010000001000000000000000000000000
202405310080000600000000000000000333000000000000000003338000000000030627393713DIRECCION GENERAL DE CULTURA Y000000260000000000000000000000000000000000000000000000000000000000000000000000000000000000000000000000000000000000000000PES00010000001000000000000000000000000
202405310060000600000000000000003287000000000000000032878000000000030627393713DIRECCION GENERAL DE CULTURA Y000000260000000000000000000000000000000000000000000000000000000000000000000000000000000000000000000000000000000000000000PES00010000001000000000000000020240730
202405310010000600000000000000001569000000000000000015698000000000027251607864COVELLO JULIETA               000000105000001000000000000000000000000000000000000000000000000000000000000000000000000000000000000000000000000000000000PES00010000001000000000000000000000000
202405310010000600000000000000001570000000000000000015708000000000020253552760DONATE JUAN MANUEL            000000286000001000000000000000000000000000000000000000000000000000000000000000000000000000000000000000000000000000000000PES00010000001000000000000000000000000
