202401020060000600000000000000003162000000000000000031628000000000030546666707UNIVERSIDAD NACIONAL DE LA PLA000000011400000000000000000000000000000000000000000000000000000000000000000000000000000000000000000000000000000000000000PES00010000001000000000000000020240118
202401030060000600000000000000003163000000000000000031638000000000030708752297MINISTERIO DE TRABAJO DE LA PR000000334950000000000000000000000000000000000000000000000000000000000000000000000000000000000000000000000000000000000000PES00010000001000000000000000000000000
202401030080000600000000000000000307000000000000000003078000000000030626983398MINISTERIO DE SALUD PCIA DE BS000000106400000000000000000000000000000000000000000000000000000000000000000000000000000000000000000000000000000000000000PES00010000001000000000000000000000000
202401030080000600000000000000000308000000000000000003088000000000030626983398MINISTERIO DE SALUD PCIA DE BS000000106400000000000000000000000000000000000000000000000000000000000000000000000000000000000000000000000000000000000000PES00010000001000000000000000000000000
202401030080000600000000000000000309000000000000000003098000000000030626983398MINISTERIO DE SALUD PCIA DE BS000000110200000000000000000000000000000000000000000000000000000000000000000000000000000000000000000000000000000000000000PES00010000001000000000000000000000000
202401040060000600000000000000003164000000000000000031648000000000030676303657FUNDACION ARGENINTA           000000130000000000000000000000000000000000000000000000000000000000000000000000000000000000000000000000000000000000000000PES00010000001000000000000000000000000
202401050060000600000000000000003165000000000000000031658000000000030710325789SINDICATO UNIDOS PORTUARIOS AR000000027500000000000000000000000000000000000000000000000000000000000000000000000000000000000000000000000000000000000000PES00010000001000000000000000000000000
202401120060000600000000000000003166000000000000000031668000000000030638438514H CAMARA DE DIPUTADOS PCIA BS 000000362552500000000000000000000000000000000000000000000000000000000000000000000000000000000000000000000000000000000000PES00010000001000000000000000000000000
202401150060000600000000000000003167000000000000000031678000000000030711485909ASOCIACION DE PADRES DE PERSON000000032900000000000000000000000000000000000000000000000000000000000000000000000000000000000000000000000000000000000000PES00010000001000000000000000000000000
202401160010000600000000000000001518000000000000000015188000000000030657864281CAMUZZI GAS PAMPEANA S A      000000011790052000000000000000000000000000000000000000000000000000000000000000000000000000000000000000000000000000000000PES00010000001000000000000000000000000
202401190010000600000000000000001519000000000000000015198000000000030712116753REFRACTORY S.R.L.             000000011374000000000000000000000000000000000000000000000000000000000000000000000000000000000000000000000000000000000000PES00010000001000000000000000000000000
202401230060000600000000000000003168000000000000000031688000000000030638438514H CAMARA DE DIPUTADOS PCIA BS 000000387500000000000000000000000000000000000000000000000000000000000000000000000000000000000000000000000000000000000000PES00010000001000000000000000000000000
202401250060000600000000000000003169000000000000000031698000000000030715124234MINISTERIO DE GOBIERNO BS.AS. 000000326620000000000000000000000000000000000000000000000000000000000000000000000000000000000000000000000000000000000000PES00010000001000000000000000000000000
