202303020080000600000000000000000213000000000000000002138000000000030627393713DIRECCION GENERAL DE CULTURA Y000000039279968000000000000000000000000000000000000000000000000000000000000000000000000000000000000000000000000000000000PES00010000001000000000000000000000000
202303020060000600000000000000002543000000000000000025438000000000030627393713DIRECCION GENERAL DE CULTURA Y000000039279968000000000000000000000000000000000000000000000000000000000000000000000000000000000000000000000000000000000PES00010000001000000000000000000000000
202303020010000600000000000000001342000000000000000013428000000000030716775840NICOLAS BARDELLA AMBIENTAL    000000005850000000000000000000000000000000000000000000000000000000000000000000000000000000000000000000000000000000000000PES00010000001000000000000000000000000
202303070060000600000000000000002544000000000000000025448000000000030707051546MINISTERIO DE JUSTICIA Y DEREC000000105462000000000000000000000000000000000000000000000000000000000000000000000000000000000000000000000000000000000000PES00010000001000000000000000000000000
202303080060000600000000000000002545000000000000000025458000000000033638161309COLEGIO DE MAGISTRADOS Y FUNCI000000000540000000000000000000000000000000000000000000000000000000000000000000000000000000000000000000000000000000000000PES00010000001000000000000000000000000
202303080060000600000000000000002546000000000000000025468000000000030708499044INSTITUTO CULTURAL DE LA PROV 000000043000000000000000000000000000000000000000000000000000000000000000000000000000000000000000000000000000000000000000PES00010000001000000000000000020230312
202303080060000600000000000000002547000000000000000025478000000000030708499044INSTITUTO CULTURAL DE LA PROV 000000025970000000000000000000000000000000000000000000000000000000000000000000000000000000000000000000000000000000000000PES00010000001000000000000000020230308
202303080060000600000000000000002548000000000000000025488000000000030708499044INSTITUTO CULTURAL DE LA PROV 000000077800000000000000000000000000000000000000000000000000000000000000000000000000000000000000000000000000000000000000PES00010000001000000000000000020230319
202303090080000600000000000000000214000000000000000002148000000000030708499044INSTITUTO CULTURAL DE LA PROV 000000043000000000000000000000000000000000000000000000000000000000000000000000000000000000000000000000000000000000000000PES00010000001000000000000000020230309
202303090080000600000000000000000215000000000000000002158000000000030708499044INSTITUTO CULTURAL DE LA PROV 000000077800000000000000000000000000000000000000000000000000000000000000000000000000000000000000000000000000000000000000PES00010000001000000000000000020230309
202303090080000600000000000000000216000000000000000002168000000000030708499044INSTITUTO CULTURAL DE LA PROV 000000025970000000000000000000000000000000000000000000000000000000000000000000000000000000000000000000000000000000000000PES00010000001000000000000000020230309
202303090060000600000000000000002549000000000000000025498000000000030708499044INSTITUTO CULTURAL DE LA PROV 000000043000000000000000000000000000000000000000000000000000000000000000000000000000000000000000000000000000000000000000PES00010000001000000000000000020230409
202303090060000600000000000000002550000000000000000025508000000000030708499044INSTITUTO CULTURAL DE LA PROV 000000025970000000000000000000000000000000000000000000000000000000000000000000000000000000000000000000000000000000000000PES00010000001000000000000000020230409
202303090060000600000000000000002551000000000000000025518000000000030708499044INSTITUTO CULTURAL DE LA PROV 000000077800000000000000000000000000000000000000000000000000000000000000000000000000000000000000000000000000000000000000PES00010000001000000000000000020230409
202303090060000600000000000000002552000000000000000025528000000000030708499044INSTITUTO CULTURAL DE LA PROV 000000026180000000000000000000000000000000000000000000000000000000000000000000000000000000000000000000000000000000000000PES00010000001000000000000000020230409
202303090060000600000000000000002553000000000000000025538000000000030708499044INSTITUTO CULTURAL DE LA PROV 000000018760000000000000000000000000000000000000000000000000000000000000000000000000000000000000000000000000000000000000PES00010000001000000000000000020230409
202303090060000600000000000000002554000000000000000025548000000000030708499044INSTITUTO CULTURAL DE LA PROV 000000021600000000000000000000000000000000000000000000000000000000000000000000000000000000000000000000000000000000000000PES00010000001000000000000000020230409
202303090060000600000000000000002555000000000000000025558000000000030708499044INSTITUTO CULTURAL DE LA PROV 000000007811200000000000000000000000000000000000000000000000000000000000000000000000000000000000000000000000000000000000PES00010000001000000000000000020230409
202303090060000600000000000000002556000000000000000025568000000000030708499044INSTITUTO CULTURAL DE LA PROV 000000061210900000000000000000000000000000000000000000000000000000000000000000000000000000000000000000000000000000000000PES00010000001000000000000000020230409
202303110060000600000000000000002557000000000000000025578000000000033637617449ADMINISTRACION NACIONAL DE LA 000000007700000000000000000000000000000000000000000000000000000000000000000000000000000000000000000000000000000000000000PES00010000001000000000000000000000000
202303110060000600000000000000002558000000000000000025588000000000030707216669PODER JUDICIAL MINISTERIO PUBL000000034800000000000000000000000000000000000000000000000000000000000000000000000000000000000000000000000000000000000000PES00010000001000000000000000000000000
202303110060000600000000000000002559000000000000000025598000000000030707216669PODER JUDICIAL MINISTERIO PUBL000000008700000000000000000000000000000000000000000000000000000000000000000000000000000000000000000000000000000000000000PES00010000001000000000000000000000000
202303110060000600000000000000002560000000000000000025608000000000030707216669PODER JUDICIAL MINISTERIO PUBL000000007800000000000000000000000000000000000000000000000000000000000000000000000000000000000000000000000000000000000000PES00010000001000000000000000000000000
202303110060000600000000000000002561000000000000000025618000000000030707216669PODER JUDICIAL MINISTERIO PUBL000000006720000000000000000000000000000000000000000000000000000000000000000000000000000000000000000000000000000000000000PES00010000001000000000000000000000000
202303110060000600000000000000002562000000000000000025628000000000030707216669PODER JUDICIAL MINISTERIO PUBL000000003000000000000000000000000000000000000000000000000000000000000000000000000000000000000000000000000000000000000000PES00010000001000000000000000000000000
202303110060000600000000000000002563000000000000000025638000000000030683077050PROGRAMA DE LAS NACIONES UNIDA000000000487500000000000000000000000000000000000000000000000000000000000000000000000000000000000000000000000000000000000PES00010000001000000000000000000000000
202303110060000600000000000000002564000000000000000025648000000000030683077050PROGRAMA DE LAS NACIONES UNIDA000000000187500000000000000000000000000000000000000000000000000000000000000000000000000000000000000000000000000000000000PES00010000001000000000000000000000000
202303130060000600000000000000002565000000000000000025658000000000030662117273FONDO DE LAS NACIONES UNIDAS P000000010200000000000000000000000000000000000000000000000000000000000000000000000000000000000000000000000000000000000000PES00010000001000000000000000000000000
202303130010000600000000000000001343000000000000000013438000000000030677145087BREAST CLINIC SA              000000006500011000000000000000000000000000000000000000000000000000000000000000000000000000000000000000000000000000000000PES00010000001000000000000000000000000
202303130060000600000000000000002566000000000000000025668000000000030586185612SINDICATO DE SALUD PUBLICA DE 000000034490000000000000000000000000000000000000000000000000000000000000000000000000000000000000000000000000000000000000PES00010000001000000000000000000000000
202303130010000600000000000000001344000000000000000013448000000000033707044239TECNOIMAGEN S A               000000018876000000000000000000000000000000000000000000000000000000000000000000000000000000000000000000000000000000000000PES00010000001000000000000000000000000
202303130060000600000000000000002567000000000000000025678000000000030707045031MINISTERIO DE DESARROLLO DE LA000000616125000000000000000000000000000000000000000000000000000000000000000000000000000000000000000000000000000000000000PES00010000001000000000000000000000000
202303130060000600000000000000002568000000000000000025688000000000030716742292MINISTERIO DE LAS MUJERES, POL000000035000000000000000000000000000000000000000000000000000000000000000000000000000000000000000000000000000000000000000PES00010000001000000000000000000000000
202303130060000600000000000000002569000000000000000025698000000000030716742292MINISTERIO DE LAS MUJERES, POL000000002900000000000000000000000000000000000000000000000000000000000000000000000000000000000000000000000000000000000000PES00010000001000000000000000000000000
202303140060000600000000000000002570000000000000000025708000000000030716742292MINISTERIO DE LAS MUJERES, POL000000001500000000000000000000000000000000000000000000000000000000000000000000000000000000000000000000000000000000000000PES00010000001000000000000000000000000
202303140010000600000000000000001345000000000000000013458000000000030571421352BANCO CREDICOOP COOPERATIVO LT000000002430012000000000000000000000000000000000000000000000000000000000000000000000000000000000000000000000000000000000PES00010000001000000000000000000000000
202303140060000600000000000000002571000000000000000025718000000000030546666707UNIVERSIDAD NACIONAL DE LA PLA000000009000000000000000000000000000000000000000000000000000000000000000000000000000000000000000000000000000000000000000PES00010000001000000000000000000000000
202303140060000600000000000000002572000000000000000025728000000000030627393713DIRECCION GENERAL DE CULTURA Y000000098400000000000000000000000000000000000000000000000000000000000000000000000000000000000000000000000000000000000000PES00010000001000000000000000000000000
202303140060000600000000000000002573000000000000000025738000000000030627393713DIRECCION GENERAL DE CULTURA Y000000043200000000000000000000000000000000000000000000000000000000000000000000000000000000000000000000000000000000000000PES00010000001000000000000000000000000
202303140060000600000000000000002574000000000000000025748000000000030627393713DIRECCION GENERAL DE CULTURA Y000000090400000000000000000000000000000000000000000000000000000000000000000000000000000000000000000000000000000000000000PES00010000001000000000000000000000000
202303140060000600000000000000002575000000000000000025758000000000030627393713DIRECCION GENERAL DE CULTURA Y000000028650000000000000000000000000000000000000000000000000000000000000000000000000000000000000000000000000000000000000PES00010000001000000000000000000000000
202303150010000600000000000000001346000000000000000013468000000000030683462566DEVELOP SRL                   000000021275672000000000000000000000000000000000000000000000000000000000000000000000000000000000000000000000000000000000PES00010000001000000000000000000000000
202303150010000600000000000000001347000000000000000013478000000000030683462566DEVELOP SRL                   000000004576220000000000000000000000000000000000000000000000000000000000000000000000000000000000000000000000000000000000PES00010000001000000000000000000000000
202303150010000600000000000000001348000000000000000013488000000000030683462566DEVELOP SRL                   000000009527540000000000000000000000000000000000000000000000000000000000000000000000000000000000000000000000000000000000PES00010000001000000000000000000000000
202303150010000600000000000000001349000000000000000013498000000000030683462566DEVELOP SRL                   000000013214410000000000000000000000000000000000000000000000000000000000000000000000000000000000000000000000000000000000PES00010000001000000000000000000000000
202303150010000600000000000000001350000000000000000013508000000000030683462566DEVELOP SRL                   000000002107820000000000000000000000000000000000000000000000000000000000000000000000000000000000000000000000000000000000PES00010000001000000000000000000000000
202303150010000600000000000000001351000000000000000013518000000000030683462566DEVELOP SRL                   000000005837040000000000000000000000000000000000000000000000000000000000000000000000000000000000000000000000000000000000PES00010000001000000000000000000000000
202303150010000600000000000000001352000000000000000013528000000000030683462566DEVELOP SRL                   000000000243210000000000000000000000000000000000000000000000000000000000000000000000000000000000000000000000000000000000PES00010000001000000000000000000000000
202303150010000600000000000000001353000000000000000013538000000000030683462566DEVELOP SRL                   000000024321000000000000000000000000000000000000000000000000000000000000000000000000000000000000000000000000000000000000PES00010000001000000000000000000000000
202303150010000600000000000000001354000000000000000013548000000000030683462566DEVELOP SRL                   000000002513170000000000000000000000000000000000000000000000000000000000000000000000000000000000000000000000000000000000PES00010000001000000000000000000000000
202303150010000600000000000000001355000000000000000013558000000000030683462566DEVELOP SRL                   000000001621400000000000000000000000000000000000000000000000000000000000000000000000000000000000000000000000000000000000PES00010000001000000000000000000000000
202303150010000600000000000000001356000000000000000013568000000000030683462566DEVELOP SRL                   000000013323552000000000000000000000000000000000000000000000000000000000000000000000000000000000000000000000000000000000PES00010000001000000000000000000000000
202303150010000600000000000000001357000000000000000013578000000000030683462566DEVELOP SRL                   000000005581488000000000000000000000000000000000000000000000000000000000000000000000000000000000000000000000000000000000PES00010000001000000000000000000000000
202303150010000600000000000000001358000000000000000013588000000000030683462566DEVELOP SRL                   000000002790744000000000000000000000000000000000000000000000000000000000000000000000000000000000000000000000000000000000PES00010000001000000000000000000000000
202303150010000600000000000000001359000000000000000013598000000000030683462566DEVELOP SRL                   000000004231128000000000000000000000000000000000000000000000000000000000000000000000000000000000000000000000000000000000PES00010000001000000000000000000000000
202303150010000600000000000000001360000000000000000013608000000000030683462566DEVELOP SRL                   000000002837450000000000000000000000000000000000000000000000000000000000000000000000000000000000000000000000000000000000PES00010000001000000000000000000000000
202303160060000600000000000000002576000000000000000025768000000000030716742292MINISTERIO DE LAS MUJERES, POL000000001200000000000000000000000000000000000000000000000000000000000000000000000000000000000000000000000000000000000000PES00010000001000000000000000000000000
202303160080000600000000000000000217000000000000000002178000000000030627393713DIRECCION GENERAL DE CULTURA Y000000098400000000000000000000000000000000000000000000000000000000000000000000000000000000000000000000000000000000000000PES00010000001000000000000000000000000
202303160060000600000000000000002577000000000000000025778000000000030627393713DIRECCION GENERAL DE CULTURA Y000000098400000000000000000000000000000000000000000000000000000000000000000000000000000000000000000000000000000000000000PES00010000001000000000000000000000000
202303160060000600000000000000002578000000000000000025788000000000030627393713DIRECCION GENERAL DE CULTURA Y000000019800000000000000000000000000000000000000000000000000000000000000000000000000000000000000000000000000000000000000PES00010000001000000000000000000000000
202303160060000600000000000000002579000000000000000025798000000000030627393713DIRECCION GENERAL DE CULTURA Y000000132800000000000000000000000000000000000000000000000000000000000000000000000000000000000000000000000000000000000000PES00010000001000000000000000000000000
202303160060000600000000000000002580000000000000000025808000000000030716742292MINISTERIO DE LAS MUJERES, POL000000001200000000000000000000000000000000000000000000000000000000000000000000000000000000000000000000000000000000000000PES00010000001000000000000000000000000
202303160080000600000000000000000218000000000000000002188000000000030716742292MINISTERIO DE LAS MUJERES, POL000000001200000000000000000000000000000000000000000000000000000000000000000000000000000000000000000000000000000000000000PES00010000001000000000000000000000000
202303160080000600000000000000000219000000000000000002198000000000030707216669PODER JUDICIAL MINISTERIO PUBL000000006720000000000000000000000000000000000000000000000000000000000000000000000000000000000000000000000000000000000000PES00010000001000000000000000000000000
202303160060000600000000000000002581000000000000000025818000000000030707216669PODER JUDICIAL MINISTERIO PUBL000000003000000000000000000000000000000000000000000000000000000000000000000000000000000000000000000000000000000000000000PES00010000001000000000000000000000000
202303170060000600000000000000002582000000000000000025828000000000030546666707UNIVERSIDAD NACIONAL DE LA PLA000000001345000000000000000000000000000000000000000000000000000000000000000000000000000000000000000000000000000000000000PES00010000001000000000000000000000000
202303170060000600000000000000002583000000000000000025838000000000030999057167MINISTERIO DE PRODUCCION CIENC000000002700000000000000000000000000000000000000000000000000000000000000000000000000000000000000000000000000000000000000PES00010000001000000000000000000000000
202303170060000600000000000000002584000000000000000025848000000000030708499044INSTITUTO CULTURAL DE LA PROV 000000043000000000000000000000000000000000000000000000000000000000000000000000000000000000000000000000000000000000000000PES00010000001000000000000000020230417
202303170060000600000000000000002585000000000000000025858000000000030708499044INSTITUTO CULTURAL DE LA PROV 000000025970000000000000000000000000000000000000000000000000000000000000000000000000000000000000000000000000000000000000PES00010000001000000000000000020230417
202303170060000600000000000000002586000000000000000025868000000000030708499044INSTITUTO CULTURAL DE LA PROV 000000077800000000000000000000000000000000000000000000000000000000000000000000000000000000000000000000000000000000000000PES00010000001000000000000000020230417
202303170060000600000000000000002587000000000000000025878000000000030708499044INSTITUTO CULTURAL DE LA PROV 000000077800000000000000000000000000000000000000000000000000000000000000000000000000000000000000000000000000000000000000PES00010000001000000000000000020230417
202303170060000600000000000000002588000000000000000025888000000000030708499044INSTITUTO CULTURAL DE LA PROV 000000026180000000000000000000000000000000000000000000000000000000000000000000000000000000000000000000000000000000000000PES00010000001000000000000000020230417
202303170060000600000000000000002589000000000000000025898000000000030708499044INSTITUTO CULTURAL DE LA PROV 000000018760000000000000000000000000000000000000000000000000000000000000000000000000000000000000000000000000000000000000PES00010000001000000000000000020230417
202303170060000600000000000000002590000000000000000025908000000000030708499044INSTITUTO CULTURAL DE LA PROV 000000021600000000000000000000000000000000000000000000000000000000000000000000000000000000000000000000000000000000000000PES00010000001000000000000000020230417
202303170060000600000000000000002591000000000000000025918000000000030708499044INSTITUTO CULTURAL DE LA PROV 000000061210900000000000000000000000000000000000000000000000000000000000000000000000000000000000000000000000000000000000PES00010000001000000000000000020230417
202303170060000600000000000000002592000000000000000025928000000000030708499044INSTITUTO CULTURAL DE LA PROV 000000007811200000000000000000000000000000000000000000000000000000000000000000000000000000000000000000000000000000000000PES00010000001000000000000000020230417
202303170080000600000000000000000220000000000000000002208000000000030708499044INSTITUTO CULTURAL DE LA PROV 000000077800000000000000000000000000000000000000000000000000000000000000000000000000000000000000000000000000000000000000PES00010000001000000000000000020230417
202303170080000600000000000000000221000000000000000002218000000000030708499044INSTITUTO CULTURAL DE LA PROV 000000061210900000000000000000000000000000000000000000000000000000000000000000000000000000000000000000000000000000000000PES00010000001000000000000000020230409
202303200060000600000000000000002593000000000000000025938000000000030716742292MINISTERIO DE LAS MUJERES, POL000000000700000000000000000000000000000000000000000000000000000000000000000000000000000000000000000000000000000000000000PES00010000001000000000000000000000000
202303200060000600000000000000002594000000000000000025948000000000030707216669PODER JUDICIAL MINISTERIO PUBL000000002625000000000000000000000000000000000000000000000000000000000000000000000000000000000000000000000000000000000000PES00010000001000000000000000000000000
202303210060000600000000000000002595000000000000000025958000000000030559799536SINDICATO OBRAS SANITARIAS DE 000000014900000000000000000000000000000000000000000000000000000000000000000000000000000000000000000000000000000000000000PES00010000001000000000000000000000000
202303210060000600000000000000002596000000000000000025968000000000030559799536SINDICATO OBRAS SANITARIAS DE 000000002600000000000000000000000000000000000000000000000000000000000000000000000000000000000000000000000000000000000000PES00010000001000000000000000000000000
202303210060000600000000000000002597000000000000000025978000000000030559799536SINDICATO OBRAS SANITARIAS DE 000000025560000000000000000000000000000000000000000000000000000000000000000000000000000000000000000000000000000000000000PES00010000001000000000000000000000000
202303210060000600000000000000002598000000000000000025988000000000030708499044INSTITUTO CULTURAL DE LA PROV 000000016761000000000000000000000000000000000000000000000000000000000000000000000000000000000000000000000000000000000000PES00010000001000000000000000020230421
202303210060000600000000000000002599000000000000000025998000000000030708499044INSTITUTO CULTURAL DE LA PROV 000000048975200000000000000000000000000000000000000000000000000000000000000000000000000000000000000000000000000000000000PES00010000001000000000000000020230421
202303210060000600000000000000002600000000000000000026008000000000030708499044INSTITUTO CULTURAL DE LA PROV 000000009000000000000000000000000000000000000000000000000000000000000000000000000000000000000000000000000000000000000000PES00010000001000000000000000020230421
202303210060000600000000000000002601000000000000000026018000000000030708499044INSTITUTO CULTURAL DE LA PROV 000000016320000000000000000000000000000000000000000000000000000000000000000000000000000000000000000000000000000000000000PES00010000001000000000000000020230421
202303210060000600000000000000002602000000000000000026028000000000030708499044INSTITUTO CULTURAL DE LA PROV 000000058123000000000000000000000000000000000000000000000000000000000000000000000000000000000000000000000000000000000000PES00010000001000000000000000020230421
202303210060000600000000000000002603000000000000000026038000000000030708499044INSTITUTO CULTURAL DE LA PROV 000000081231000000000000000000000000000000000000000000000000000000000000000000000000000000000000000000000000000000000000PES00010000001000000000000000020230421
202303210060000600000000000000002604000000000000000026048000000000030540780028COLEGIO DE MEDICOS DE LA PROVI000000003792000000000000000000000000000000000000000000000000000000000000000000000000000000000000000000000000000000000000PES00010000001000000000000000000000000
202303230010000600000000000000001361000000000000000013618000000000030501152826LABORATORIOS RICHMOND SACIF   000000001070014000000000000000000000000000000000000000000000000000000000000000000000000000000000000000000000000000000000PES00010000001000000000000000000000000
202303230060000600000000000000002605000000000000000026058000000000033637617449ADMINISTRACION NACIONAL DE LA 000000000500000000000000000000000000000000000000000000000000000000000000000000000000000000000000000000000000000000000000PES00010000001000000000000000000000000
202303250060000600000000000000002606000000000000000026068000000000030708499044INSTITUTO CULTURAL DE LA PROV 000000025800000000000000000000000000000000000000000000000000000000000000000000000000000000000000000000000000000000000000PES00010000001000000000000000020230425
202303250060000600000000000000002607000000000000000026078000000000030708499044INSTITUTO CULTURAL DE LA PROV 000000083400000000000000000000000000000000000000000000000000000000000000000000000000000000000000000000000000000000000000PES00010000001000000000000000020230425
202303250060000600000000000000002608000000000000000026088000000000030708499044INSTITUTO CULTURAL DE LA PROV 000000026108000000000000000000000000000000000000000000000000000000000000000000000000000000000000000000000000000000000000PES00010000001000000000000000020230425
202303250060000600000000000000002609000000000000000026098000000000030708499044INSTITUTO CULTURAL DE LA PROV 000000033800000000000000000000000000000000000000000000000000000000000000000000000000000000000000000000000000000000000000PES00010000001000000000000000020230425
202303250060000600000000000000002610000000000000000026108000000000030708499044INSTITUTO CULTURAL DE LA PROV 000000012850000000000000000000000000000000000000000000000000000000000000000000000000000000000000000000000000000000000000PES00010000001000000000000000020230425
202303270060000600000000000000002611000000000000000026118000000000030708499044INSTITUTO CULTURAL DE LA PROV 000000029600000000000000000000000000000000000000000000000000000000000000000000000000000000000000000000000000000000000000PES00010000001000000000000000020230427
202303270060000600000000000000002612000000000000000026128000000000030708499044INSTITUTO CULTURAL DE LA PROV 000000030511000000000000000000000000000000000000000000000000000000000000000000000000000000000000000000000000000000000000PES00010000001000000000000000020230427
202303280060000600000000000000002613000000000000000026138000000000030665708825TRIBUNAL DE CUENTAS DE LA PROV000000002840000000000000000000000000000000000000000000000000000000000000000000000000000000000000000000000000000000000000PES00010000001000000000000000000000000
202303280060000600000000000000002614000000000000000026148000000000030605234794CAJA DE PREVISION SOCIAL PARA 000000004200000000000000000000000000000000000000000000000000000000000000000000000000000000000000000000000000000000000000PES00010000001000000000000000000000000
202303280060000600000000000000002615000000000000000026158000000000030708499044INSTITUTO CULTURAL DE LA PROV 000000021642000000000000000000000000000000000000000000000000000000000000000000000000000000000000000000000000000000000000PES00010000001000000000000000020230428
202303280080000600000000000000000222000000000000000002228000000000030708499044INSTITUTO CULTURAL DE LA PROV 000000021642000000000000000000000000000000000000000000000000000000000000000000000000000000000000000000000000000000000000PES00010000001000000000000000020230428
202303280060000600000000000000002616000000000000000026168000000000030708499044INSTITUTO CULTURAL DE LA PROV 000000021642000000000000000000000000000000000000000000000000000000000000000000000000000000000000000000000000000000000000PES00010000001000000000000000020230428
202303290010000600000000000000001362000000000000000013628000000000030657864281CAMUZZI GAS PAMPEANA S A      000000013420003000000000000000000000000000000000000000000000000000000000000000000000000000000000000000000000000000000000PES00010000001000000000000000000000000
202303290060000600000000000000002617000000000000000026178000000000030529881769AGREMIACION BONAERENSE EMPLEAD000000145000000000000000000000000000000000000000000000000000000000000000000000000000000000000000000000000000000000000000PES00010000001000000000000000000000000
202303290010000600000000000000001363000000000000000013638000000000030529881769AGREMIACION BONAERENSE EMPLEAD000000145000000000000000000000000000000000000000000000000000000000000000000000000000000000000000000000000000000000000000PES00010000001000000000000000000000000
202303290030000600000000000000000056000000000000000000568000000000030657864281CAMUZZI GAS PAMPEANA S A      000000013420003000000000000000000000000000000000000000000000000000000000000000000000000000000000000000000000000000000000PES00010000001000000000000000000000000
202303300060000600000000000000002618000000000000000026188000000000033637617449ADMINISTRACION NACIONAL DE LA 000000000500000000000000000000000000000000000000000000000000000000000000000000000000000000000000000000000000000000000000PES00010000001000000000000000000000000
202303300060000600000000000000002619000000000000000026198000000000033638161309COLEGIO DE MAGISTRADOS Y FUNCI000000012420000000000000000000000000000000000000000000000000000000000000000000000000000000000000000000000000000000000000PES00010000001000000000000000000000000
202303300010000600000000000000001364000000000000000013648000000000030657877669EMPRESA DISTRIBUIDORA LA PLATA000000019380002000000000000000000000000000000000000000000000000000000000000000000000000000000000000000000000000000000000PES00010000001000000000000000000000000
202303300060000600000000000000002620000000000000000026208000000000030716742292MINISTERIO DE LAS MUJERES, POL000000011550000000000000000000000000000000000000000000000000000000000000000000000000000000000000000000000000000000000000PES00010000001000000000000000020230330
202303300060000600000000000000002621000000000000000026218000000000030717495620MINISTERIO DE TRANSPORTE O. P.000000210000000000000000000000000000000000000000000000000000000000000000000000000000000000000000000000000000000000000000PES00010000001000000000000000000000000
202303300060000600000000000000002622000000000000000026228000000000030586185612SINDICATO DE SALUD PUBLICA DE 000000004680000000000000000000000000000000000000000000000000000000000000000000000000000000000000000000000000000000000000PES00010000001000000000000000000000000
202303300060000600000000000000002623000000000000000026238000000000030708499044INSTITUTO CULTURAL DE LA PROV 000000037500000000000000000000000000000000000000000000000000000000000000000000000000000000000000000000000000000000000000PES00010000001000000000000000020230430
202303300010000600000000000000001365000000000000000013658000000000030601290592AGREMIACION ODONTOLOGICA DE BE000000001349999000000000000000000000000000000000000000000000000000000000000000000000000000000000000000000000000000000000PES00010000001000000000000000000000000
202303300010000600000000000000001366000000000000000013668000000000030657877669EMPRESA DISTRIBUIDORA LA PLATA000000012410001000000000000000000000000000000000000000000000000000000000000000000000000000000000000000000000000000000000PES00010000001000000000000000000000000
202303310010000600000000000000001367000000000000000013678000000000030657877669EMPRESA DISTRIBUIDORA LA PLATA000000005955000000000000000000000000000000000000000000000000000000000000000000000000000000000000000000000000000000000000PES00010000001000000000000000000000000
202303310010000600000000000000001368000000000000000013688000000000030657877669EMPRESA DISTRIBUIDORA LA PLATA000000006940001000000000000000000000000000000000000000000000000000000000000000000000000000000000000000000000000000000000PES00010000001000000000000000000000000
202303310060000600000000000000002624000000000000000026248000000000030546666707UNIVERSIDAD NACIONAL DE LA PLA000000023100000000000000000000000000000000000000000000000000000000000000000000000000000000000000000000000000000000000000PES00010000001000000000000000000000000
