202306010060000600000000000000002740000000000000000027408000000000030546666707UNIVERSIDAD NACIONAL DE LA PLA000000001048000000000000000000000000000000000000000000000000000000000000000000000000000000000000000000000000000000000000PES00010000001000000000000000000000000
202306010060000600000000000000002741000000000000000027418000000000030638438514H CAMARA DE DIPUTADOS PCIA BS 000000080670100000000000000000000000000000000000000000000000000000000000000000000000000000000000000000000000000000000000PES00010000001000000000000000000000000
202306020060000600000000000000002742000000000000000027428000000000030626983398MINISTERIO DE SALUD PCIA DE BS000000004220000000000000000000000000000000000000000000000000000000000000000000000000000000000000000000000000000000000000PES00010000001000000000000000000000000
202306020060000600000000000000002743000000000000000027438000000000030707045031MINISTERIO DE DESARROLLO DE LA000000736700000000000000000000000000000000000000000000000000000000000000000000000000000000000000000000000000000000000000PES00010000001000000000000000000000000
202306020060000600000000000000002744000000000000000027448000000000030520918694ASOCIACION EMPLEADOS DE LA DIR000000014400000000000000000000000000000000000000000000000000000000000000000000000000000000000000000000000000000000000000PES00010000001000000000000000000000000
202306030060000600000000000000002745000000000000000027458000000000030627393713DIRECCION GENERAL DE CULTURA Y000000346000000000000000000000000000000000000000000000000000000000000000000000000000000000000000000000000000000000000000PES00010000001000000000000000000000000
202306030060000600000000000000002746000000000000000027468000000000030627393713DIRECCION GENERAL DE CULTURA Y000000119700000000000000000000000000000000000000000000000000000000000000000000000000000000000000000000000000000000000000PES00010000001000000000000000000000000
202306050060000600000000000000002747000000000000000027478000000000030626983398MINISTERIO DE SALUD PCIA DE BS000000004220000000000000000000000000000000000000000000000000000000000000000000000000000000000000000000000000000000000000PES00010000002000000000000000000000000
202306050080000600000000000000000239000000000000000002398000000000030626983398MINISTERIO DE SALUD PCIA DE BS000000004220000000000000000000000000000000000000000000000000000000000000000000000000000000000000000000000000000000000000PES00010000001000000000000000000000000
202306050060000600000000000000002748000000000000000027488000000000030520918694ASOCIACION EMPLEADOS DE LA DIR000000014400000000000000000000000000000000000000000000000000000000000000000000000000000000000000000000000000000000000000PES00010000001000000000000000000000000
202306050060000600000000000000002749000000000000000027498000000000030710405863MINISTERIO DE AMBIENTE        000000086030000000000000000000000000000000000000000000000000000000000000000000000000000000000000000000000000000000000000PES00010000001000000000000000000000000
202306050060000600000000000000002750000000000000000027508000000000030627393713DIRECCION GENERAL DE CULTURA Y000000020000000000000000000000000000000000000000000000000000000000000000000000000000000000000000000000000000000000000000PES00010000001000000000000000000000000
202306050010000600000000000000001406000000000000000014068000000000030641040580LABORATORIO COPAHUE S A.      000000010850001000000000000000000000000000000000000000000000000000000000000000000000000000000000000000000000000000000000PES00010000001000000000000000000000000
202306080060000600000000000000002751000000000000000027518000000000030546666707UNIVERSIDAD NACIONAL DE LA PLA000000011500000000000000000000000000000000000000000000000000000000000000000000000000000000000000000000000000000000000000PES00010000001000000000000000000000000
202306080060000600000000000000002752000000000000000027528000000000030711471444GRUPO PHAROS - CENTRO INTERDIS000000093000000000000000000000000000000000000000000000000000000000000000000000000000000000000000000000000000000000000000PES00010000001000000000000000000000000
202306090060000600000000000000002753000000000000000027538000000000033637617449ADMINISTRACION NACIONAL DE LA 000000002500000000000000000000000000000000000000000000000000000000000000000000000000000000000000000000000000000000000000PES00010000001000000000000000000000000
202306090060000600000000000000002754000000000000000027548000000000030711471444GRUPO PHAROS - CENTRO INTERDIS000000006600000000000000000000000000000000000000000000000000000000000000000000000000000000000000000000000000000000000000PES00010000001000000000000000000000000
202306090060000600000000000000002755000000000000000027558000000000030627393713DIRECCION GENERAL DE CULTURA Y000000011200000000000000000000000000000000000000000000000000000000000000000000000000000000000000000000000000000000000000PES00010000001000000000000000000000000
202306090060000600000000000000002756000000000000000027568000000000030627393713DIRECCION GENERAL DE CULTURA Y000000049200000000000000000000000000000000000000000000000000000000000000000000000000000000000000000000000000000000000000PES00010000001000000000000000000000000
202306090060000600000000000000002757000000000000000027578000000000034546671471PODER JUDICIAL CONSEJO DE LA M000000001260000000000000000000000000000000000000000000000000000000000000000000000000000000000000000000000000000000000000PES00010000001000000000000000000000000
202306120060000600000000000000002758000000000000000027588000000000030546666707UNIVERSIDAD NACIONAL DE LA PLA000000009000000000000000000000000000000000000000000000000000000000000000000000000000000000000000000000000000000000000000PES00010000001000000000000000000000000
202306120060000600000000000000002759000000000000000027598000000000030546666707UNIVERSIDAD NACIONAL DE LA PLA000000009000000000000000000000000000000000000000000000000000000000000000000000000000000000000000000000000000000000000000PES00010000001000000000000000000000000
202306120060000600000000000000002760000000000000000027608000000000030676303657FUNDACION ARGENINTA           000000048000000000000000000000000000000000000000000000000000000000000000000000000000000000000000000000000000000000000000PES00010000001000000000000000000000000
202306120010000600000000000000001407000000000000000014078000000000030700743140MONTE VERDE S A               000000008000000000000000000000000000000000000000000000000000000000000000000000000000000000000000000000000000000000000000PES00010000001000000000000000000000000
202306120060000600000000000000002761000000000000000027618000000000030638438514H CAMARA DE DIPUTADOS PCIA BS 000000101969500000000000000000000000000000000000000000000000000000000000000000000000000000000000000000000000000000000000PES00010000001000000000000000000000000
202306120060000600000000000000002762000000000000000027628000000000030999057167MINISTERIO DE PRODUCCION CIENC000000009300000000000000000000000000000000000000000000000000000000000000000000000000000000000000000000000000000000000000PES00010000001000000000000000000000000
202306120010000600000000000000001408000000000000000014088000000000030601290592AGREMIACION ODONTOLOGICA DE BE000000003680003000000000000000000000000000000000000000000000000000000000000000000000000000000000000000000000000000000000PES00010000001000000000000000000000000
202306120060000600000000000000002763000000000000000027638000000000030627393713DIRECCION GENERAL DE CULTURA Y000000014000000000000000000000000000000000000000000000000000000000000000000000000000000000000000000000000000000000000000PES00010000001000000000000000000000000
202306120010000600000000000000001409000000000000000014098000000000030500010912BANCO DE LA NACION ARGENTINA  000000046800000000000000000000000000000000000000000000000000000000000000000000000000000000000000000000000000000000000000PES00010000001000000000000000000000000
202306130060000600000000000000002764000000000000000027648000000000030546666707UNIVERSIDAD NACIONAL DE LA PLA000000015580000000000000000000000000000000000000000000000000000000000000000000000000000000000000000000000000000000000000PES00010000001000000000000000000000000
202306130060000600000000000000002765000000000000000027658000000000030715471511MINISTERIO DE JEFATURA DE GABI000000435000000000000000000000000000000000000000000000000000000000000000000000000000000000000000000000000000000000000000PES00010000001000000000000000000000000
202306130060000600000000000000002766000000000000000027668000000000033637617449ADMINISTRACION NACIONAL DE LA 000000002500000000000000000000000000000000000000000000000000000000000000000000000000000000000000000000000000000000000000PES00010000001000000000000000000000000
202306140060000600000000000000002767000000000000000027678000000000030708499044INSTITUTO CULTURAL DE LA PROV 000000012050000000000000000000000000000000000000000000000000000000000000000000000000000000000000000000000000000000000000PES00010000001000000000000000020230714
202306140060000600000000000000002768000000000000000027688000000000030708499044INSTITUTO CULTURAL DE LA PROV 000000013990000000000000000000000000000000000000000000000000000000000000000000000000000000000000000000000000000000000000PES00010000001000000000000000020230714
202306150060000600000000000000002769000000000000000027698000000000033637617449ADMINISTRACION NACIONAL DE LA 000000002760000000000000000000000000000000000000000000000000000000000000000000000000000000000000000000000000000000000000PES00010000001000000000000000000000000
202306200060000600000000000000002770000000000000000027708000000000030707045031MINISTERIO DE DESARROLLO DE LA000001338750000000000000000000000000000000000000000000000000000000000000000000000000000000000000000000000000000000000000PES00010000001000000000000000000000000
202306160010000600000000000000001410000000000000000014108000000000030544640212LABORATORIO ELEA PHOENIX S A  000000020000000000000000000000000000000000000000000000000000000000000000000000000000000000000000000000000000000000000000PES00010000001000000000000000000000000
202306200060000600000000000000002771000000000000000027718000000000027139161101FERNANDEZ CLAUDIA NELIDA      000000007200000000000000000000000000000000000000000000000000000000000000000000000000000000000000000000000000000000000000PES00010000001000000000000000000000000
202306170010000600000000000000001411000000000000000014118000000000020321089675LOPEZ OSORNIO MATIAS          000000010700000000000000000000000000000000000000000000000000000000000000000000000000000000000000000000000000000000000000PES00010000001000000000000000000000000
202306170010000600000000000000001412000000000000000014128000000000033593283319CORREGIDOR SA                 000000035407710000000000000000000000000000000000000000000000000000000000000000000000000000000000000000000000000000000000PES00010000001000000000000000000000000
202306170010000600000000000000001413000000000000000014138000000000033593283319CORREGIDOR SA                 000000011400301000000000000000000000000000000000000000000000000000000000000000000000000000000000000000000000000000000000PES00010000001000000000000000000000000
202306210060000600000000000000002772000000000000000027728000000000030638438514H CAMARA DE DIPUTADOS PCIA BS 000000107936900000000000000000000000000000000000000000000000000000000000000000000000000000000000000000000000000000000000PES00010000001000000000000000000000000
202306220010000600000000000000001414000000000000000014148000000000030544640212LABORATORIO ELEA PHOENIX S A  000000028000000000000000000000000000000000000000000000000000000000000000000000000000000000000000000000000000000000000000PES00010000001000000000000000000000000
202306260060000600000000000000002773000000000000000027738000000000030627393713DIRECCION GENERAL DE CULTURA Y000000073940000000000000000000000000000000000000000000000000000000000000000000000000000000000000000000000000000000000000PES00010000001000000000000000000000000
202306260010000600000000000000001415000000000000000014158000000000030501596082LABORATORIOS CASASCO S A I C  000000013500091000000000000000000000000000000000000000000000000000000000000000000000000000000000000000000000000000000000PES00010000001000000000000000000000000
202306260060000600000000000000002774000000000000000027748000000000033637617449ADMINISTRACION NACIONAL DE LA 000000003150000000000000000000000000000000000000000000000000000000000000000000000000000000000000000000000000000000000000PES00010000001000000000000000000000000
202306290060000600000000000000002775000000000000000027758000000000033698498469ASOCIACION CIVIL POR EL DERECH000000004200000000000000000000000000000000000000000000000000000000000000000000000000000000000000000000000000000000000000PES00010000001000000000000000000000000
202306290060000600000000000000002776000000000000000027768000000000030559799536SINDICATO OBRAS SANITARIAS DE 000000061400000000000000000000000000000000000000000000000000000000000000000000000000000000000000000000000000000000000000PES00010000001000000000000000000000000
202306300010000600000000000000001416000000000000000014168000000000027225988795NINA MARIA LAURA              000000037396801000000000000000000000000000000000000000000000000000000000000000000000000000000000000000000000000000000000PES00010000001000000000000000000000000
202306300010000600000000000000001417000000000000000014178000000000033593283319CORREGIDOR SA                 000000112572000000000000000000000000000000000000000000000000000000000000000000000000000000000000000000000000000000000000PES00010000001000000000000000000000000
202306300010000600000000000000001418000000000000000014188000000000033593283319CORREGIDOR SA                 000000034115040000000000000000000000000000000000000000000000000000000000000000000000000000000000000000000000000000000000PES00010000001000000000000000000000000
202306300010000600000000000000001419000000000000000014198000000000033593283319CORREGIDOR SA                 000000011400301000000000000000000000000000000000000000000000000000000000000000000000000000000000000000000000000000000000PES00010000001000000000000000000000000
202306300060000600000000000000002777000000000000000027778000000000030627393713DIRECCION GENERAL DE CULTURA Y000000070100000000000000000000000000000000000000000000000000000000000000000000000000000000000000000000000000000000000000PES00010000001000000000000000000000000
202306300060000600000000000000002778000000000000000027788000000000030627393713DIRECCION GENERAL DE CULTURA Y000000503360000000000000000000000000000000000000000000000000000000000000000000000000000000000000000000000000000000000000PES00010000001000000000000000000000000
202306300060000600000000000000002779000000000000000027798000000000030627393713DIRECCION GENERAL DE CULTURA Y000000020800000000000000000000000000000000000000000000000000000000000000000000000000000000000000000000000000000000000000PES00010000001000000000000000000000000
202306300060000600000000000000002780000000000000000027808000000000030627393713DIRECCION GENERAL DE CULTURA Y000000060000000000000000000000000000000000000000000000000000000000000000000000000000000000000000000000000000000000000000PES00010000001000000000000000000000000
202306300060000600000000000000002781000000000000000027818000000000030627393713DIRECCION GENERAL DE CULTURA Y000000045000000000000000000000000000000000000000000000000000000000000000000000000000000000000000000000000000000000000000PES00010000001000000000000000000000000
