202501030060000600000000000000003737000000000000000037378000000000030710405863MINISTERIO DE AMBIENTE        000000057582000000000000000000000000000000000000000000000000000000000000000000000000000000000000000000000000000000000000PES00010000001000000000000000000000000
202501030060000600000000000000003738000000000000000037388000000000030710405863MINISTERIO DE AMBIENTE        000000030710400000000000000000000000000000000000000000000000000000000000000000000000000000000000000000000000000000000000PES00010000001000000000000000000000000
202501030060000600000000000000003739000000000000000037398000000000030710405863MINISTERIO DE AMBIENTE        000000057582000000000000000000000000000000000000000000000000000000000000000000000000000000000000000000000000000000000000PES00010000001000000000000000000000000
202501030060000600000000000000003740000000000000000037408000000000030710405863MINISTERIO DE AMBIENTE        000000030710400000000000000000000000000000000000000000000000000000000000000000000000000000000000000000000000000000000000PES00010000001000000000000000000000000
202501030060000600000000000000003741000000000000000037418000000000030710405863MINISTERIO DE AMBIENTE        000000057582000000000000000000000000000000000000000000000000000000000000000000000000000000000000000000000000000000000000PES00010000001000000000000000000000000
202501030060000600000000000000003742000000000000000037428000000000030710405863MINISTERIO DE AMBIENTE        000000030710400000000000000000000000000000000000000000000000000000000000000000000000000000000000000000000000000000000000PES00010000001000000000000000000000000
202501030060000600000000000000003743000000000000000037438000000000030710405863MINISTERIO DE AMBIENTE        000000057582000000000000000000000000000000000000000000000000000000000000000000000000000000000000000000000000000000000000PES00010000001000000000000000000000000
202501030060000600000000000000003744000000000000000037448000000000030710405863MINISTERIO DE AMBIENTE        000000030710400000000000000000000000000000000000000000000000000000000000000000000000000000000000000000000000000000000000PES00010000001000000000000000000000000
202501030060000600000000000000003745000000000000000037458000000000030710405863MINISTERIO DE AMBIENTE        000000057582000000000000000000000000000000000000000000000000000000000000000000000000000000000000000000000000000000000000PES00010000001000000000000000000000000
202501030060000600000000000000003746000000000000000037468000000000030710405863MINISTERIO DE AMBIENTE        000000030710400000000000000000000000000000000000000000000000000000000000000000000000000000000000000000000000000000000000PES00010000001000000000000000000000000
202501030060000600000000000000003747000000000000000037478000000000030550857061COLEGIO DE FARMACEUTICOS DE LA000000348000000000000000000000000000000000000000000000000000000000000000000000000000000000000000000000000000000000000000PES00010000001000000000000000000000000
202501030010000600000000000000001722000000000000000017228000000000030657877669EMPRESA DISTRIBUIDORA LA PLATA000000009000004000000000000000000000000000000000000000000000000000000000000000000000000000000000000000000000000000000000PES00010000001000000000000000000000000
202501030010000600000000000000001723000000000000000017238000000000030657877669EMPRESA DISTRIBUIDORA LA PLATA000000005600001000000000000000000000000000000000000000000000000000000000000000000000000000000000000000000000000000000000PES00010000001000000000000000000000000
202501030010000600000000000000001724000000000000000017248000000000030657877669EMPRESA DISTRIBUIDORA LA PLATA000000015560002000000000000000000000000000000000000000000000000000000000000000000000000000000000000000000000000000000000PES00010000001000000000000000000000000
202501030010000600000000000000001725000000000000000017258000000000030657877669EMPRESA DISTRIBUIDORA LA PLATA000000053450002000000000000000000000000000000000000000000000000000000000000000000000000000000000000000000000000000000000PES00010000001000000000000000000000000
202501060060000600000000000000003748000000000000000037488000000000030710405863MINISTERIO DE AMBIENTE        000000057582000000000000000000000000000000000000000000000000000000000000000000000000000000000000000000000000000000000000PES00010000001000000000000000000000000
202501060060000600000000000000003749000000000000000037498000000000030710405863MINISTERIO DE AMBIENTE        000000030710400000000000000000000000000000000000000000000000000000000000000000000000000000000000000000000000000000000000PES00010000002000000000000000000000000
202501060010000600000000000000001726000000000000000017268000000000030657877669EMPRESA DISTRIBUIDORA LA PLATA000000053450002000000000000000000000000000000000000000000000000000000000000000000000000000000000000000000000000000000000PES00010000001000000000000000000000000
202501090060000600000000000000003750000000000000000037508000000000030707051546MINISTERIO DE JUSTICIA Y DEREC000001649100000000000000000000000000000000000000000000000000000000000000000000000000000000000000000000000000000000000000PES00010000001000000000000000000000000
202501100060000600000000000000003751000000000000000037518000000000030999057167MINISTERIO DE PRODUCCION CIENC000000265500000000000000000000000000000000000000000000000000000000000000000000000000000000000000000000000000000000000000PES00010000001000000000000000000000000
202501100060000600000000000000003752000000000000000037528000000000030999057167MINISTERIO DE PRODUCCION CIENC000000023000000000000000000000000000000000000000000000000000000000000000000000000000000000000000000000000000000000000000PES00010000001000000000000000000000000
202501160060000600000000000000003753000000000000000037538000000000030999268346INSTITUTO PROVINCIAL DE LOTERI000000002880000000000000000000000000000000000000000000000000000000000000000000000000000000000000000000000000000000000000PES00010000001000000000000000000000000
202501160010000600000000000000001727000000000000000017278000000000027251607864COVELLO JULIETA               000000192000065000000000000000000000000000000000000000000000000000000000000000000000000000000000000000000000000000000000PES00010000001000000000000000000000000
202501160080000600000000000000000401000000000000000004018000000000030707216669PODER JUDICIAL MINISTERIO PUBL000000304000000000000000000000000000000000000000000000000000000000000000000000000000000000000000000000000000000000000000PES00010000001000000000000000000000000
202501160060000600000000000000003754000000000000000037548000000000030707216669PODER JUDICIAL MINISTERIO PUBL000000304000000000000000000000000000000000000000000000000000000000000000000000000000000000000000000000000000000000000000PES00010000001000000000000000000000000
202501160080000600000000000000000402000000000000000004028000000000030627393713DIRECCION GENERAL DE CULTURA Y000000027720000000000000000000000000000000000000000000000000000000000000000000000000000000000000000000000000000000000000PES00010000001000000000000000000000000
202501160080000600000000000000000403000000000000000004038000000000030627393713DIRECCION GENERAL DE CULTURA Y000000004344000000000000000000000000000000000000000000000000000000000000000000000000000000000000000000000000000000000000PES00010000001000000000000000000000000
202501160080000600000000000000000404000000000000000004048000000000030627393713DIRECCION GENERAL DE CULTURA Y000000137196000000000000000000000000000000000000000000000000000000000000000000000000000000000000000000000000000000000000PES00010000001000000000000000000000000
202501170080000600000000000000000405000000000000000004058000000000030627393713DIRECCION GENERAL DE CULTURA Y000000005792000000000000000000000000000000000000000000000000000000000000000000000000000000000000000000000000000000000000PES00010000001000000000000000000000000
202501170070000600000000000000000007000000000000000000078000000000030627393713DIRECCION GENERAL DE CULTURA Y000000077600000000000000000000000000000000000000000000000000000000000000000000000000000000000000000000000000000000000000PES00010000001000000000000000000000000
202501170080000600000000000000000406000000000000000004068000000000030627393713DIRECCION GENERAL DE CULTURA Y000000077600000000000000000000000000000000000000000000000000000000000000000000000000000000000000000000000000000000000000PES00010000002000000000000000000000000
202501170060000600000000000000003755000000000000000037558000000000030627393713DIRECCION GENERAL DE CULTURA Y000000077600000000000000000000000000000000000000000000000000000000000000000000000000000000000000000000000000000000000000PES00010000001000000000000000000000000
202501170070000600000000000000000008000000000000000000088000000000030710405863MINISTERIO DE AMBIENTE        000000038388000000000000000000000000000000000000000000000000000000000000000000000000000000000000000000000000000000000000PES00010000001000000000000000000000000
202501170080000600000000000000000407000000000000000004078000000000030710405863MINISTERIO DE AMBIENTE        000000038388000000000000000000000000000000000000000000000000000000000000000000000000000000000000000000000000000000000000PES00010000002000000000000000000000000
202501170060000600000000000000003756000000000000000037568000000000030710405863MINISTERIO DE AMBIENTE        000000038388000000000000000000000000000000000000000000000000000000000000000000000000000000000000000000000000000000000000PES00010000001000000000000000000000000
202501200010000600000000000000001728000000000000000017288000000000030707778365COOPERATIVA DE TRABAJO " X LA 000000016100000000000000000000000000000000000000000000000000000000000000000000000000000000000000000000000000000000000000PES00010000001000000000000000000000000
202501210060000600000000000000003757000000000000000037578000000000030643908995FUNDACION CIENCIAS EXACTAS    000000117000000000000000000000000000000000000000000000000000000000000000000000000000000000000000000000000000000000000000PES00010000001000000000000000000000000
202501230030000600000000000000000076000000000000000000768000000000033593283319CORREGIDOR SA                 000000276419910000000000000000000000000000000000000000000000000000000000000000000000000000000000000000000000000000000000PES00010000001000000000000000000000000
202501230060000600000000000000003758000000000000000037588000000000030708499044INSTITUTO CULTURAL DE LA PROV 000000701760000000000000000000000000000000000000000000000000000000000000000000000000000000000000000000000000000000000000PES00010000001000000000000000000000000
202501240060000600000000000000003759000000000000000037598000000000030715904817ORGANISMO PROVINCIAL DE INTEGR000000375000000000000000000000000000000000000000000000000000000000000000000000000000000000000000000000000000000000000000PES00010000001000000000000000020250224
202501280060000600000000000000003760000000000000000037608000000000030643908995FUNDACION CIENCIAS EXACTAS    000000060000000000000000000000000000000000000000000000000000000000000000000000000000000000000000000000000000000000000000PES00010000001000000000000000000000000
202501280080000600000000000000000408000000000000000004088000000000030643908995FUNDACION CIENCIAS EXACTAS    000000060000000000000000000000000000000000000000000000000000000000000000000000000000000000000000000000000000000000000000PES00010000001000000000000000000000000
202501280060000600000000000000003761000000000000000037618000000000030643908995FUNDACION CIENCIAS EXACTAS    000000060000000000000000000000000000000000000000000000000000000000000000000000000000000000000000000000000000000000000000PES00010000001000000000000000000000000
202501310060000600000000000000003762000000000000000037629600000000000018380592SAVOIA GISELA                 000000002500000000000000000000000000000000000000000000000000000000000000000000000000000000000000000000000000000000000000PES00010000001000000000000000000000000
202501310060000600000000000000003763000000000000000037639600000000000018380592SAVOIA GISELA                 000000002591760000000000000000000000000000000000000000000000000000000000000000000000000000000000000000000000000000000000PES00010000001000000000000000000000000
202501310080000600000000000000000409000000000000000004099600000000000018380592SAVOIA GISELA                 000000002500000000000000000000000000000000000000000000000000000000000000000000000000000000000000000000000000000000000000PES00010000001000000000000000000000000
202501310060000600000000000000003764000000000000000037648000000000030708499044INSTITUTO CULTURAL DE LA PROV 000000701760000000000000000000000000000000000000000000000000000000000000000000000000000000000000000000000000000000000000PES00010000001000000000000000000000000
202501310010000600000000000000001729000000000000000017298000000000033593283319CORREGIDOR SA                 000000276419908000000000000000000000000000000000000000000000000000000000000000000000000000000000000000000000000000000000PES00010000001000000000000000000000000
