202304010010000600000000000000001369000000000000000013698000000000030657877669EMPRESA DISTRIBUIDORA LA PLATA000000010010005000000000000000000000000000000000000000000000000000000000000000000000000000000000000000000000000000000000PES00010000001000000000000000000000000
202304010010000600000000000000001370000000000000000013708000000000030657877669EMPRESA DISTRIBUIDORA LA PLATA000000009120000000000000000000000000000000000000000000000000000000000000000000000000000000000000000000000000000000000000PES00010000001000000000000000000000000
202304030010000600000000000000001371000000000000000013718000000000030529881769AGREMIACION BONAERENSE EMPLEAD000000066000297000000000000000000000000000000000000000000000000000000000000000000000000000000000000000000000000000000000PES00010000001000000000000000000000000
202304030060000600000000000000002625000000000000000026258000000000030716742292MINISTERIO DE LAS MUJERES, POL000000005875000000000000000000000000000000000000000000000000000000000000000000000000000000000000000000000000000000000000PES00010000001000000000000000000000000
202304040060000600000000000000002626000000000000000026268000000000033684854149COMISION DE INVESTIGACIONES CI000000002628000000000000000000000000000000000000000000000000000000000000000000000000000000000000000000000000000000000000PES00010000001000000000000000000000000
202304040060000600000000000000002627000000000000000026278000000000030708499044INSTITUTO CULTURAL DE LA PROV 000000055600000000000000000000000000000000000000000000000000000000000000000000000000000000000000000000000000000000000000PES00010000001000000000000000020230504
202304040060000600000000000000002628000000000000000026288000000000030708499044INSTITUTO CULTURAL DE LA PROV 000000016190000000000000000000000000000000000000000000000000000000000000000000000000000000000000000000000000000000000000PES00010000001000000000000000020230504
202304040060000600000000000000002629000000000000000026298000000000030708499044INSTITUTO CULTURAL DE LA PROV 000000023400000000000000000000000000000000000000000000000000000000000000000000000000000000000000000000000000000000000000PES00010000001000000000000000020230504
202304040060000600000000000000002630000000000000000026308000000000030708499044INSTITUTO CULTURAL DE LA PROV 000000013110000000000000000000000000000000000000000000000000000000000000000000000000000000000000000000000000000000000000PES00010000001000000000000000020230504
202304040060000600000000000000002631000000000000000026318000000000030708499044INSTITUTO CULTURAL DE LA PROV 000000016000000000000000000000000000000000000000000000000000000000000000000000000000000000000000000000000000000000000000PES00010000001000000000000000020230504
202304040060000600000000000000002632000000000000000026328000000000030708499044INSTITUTO CULTURAL DE LA PROV 000000027985000000000000000000000000000000000000000000000000000000000000000000000000000000000000000000000000000000000000PES00010000001000000000000000020230404
202304040060000600000000000000002633000000000000000026338000000000030708499044INSTITUTO CULTURAL DE LA PROV 000000011950000000000000000000000000000000000000000000000000000000000000000000000000000000000000000000000000000000000000PES00010000001000000000000000020230504
202304040060000600000000000000002634000000000000000026348000000000033684854149COMISION DE INVESTIGACIONES CI000000003192000000000000000000000000000000000000000000000000000000000000000000000000000000000000000000000000000000000000PES00010000001000000000000000000000000
202304040080000600000000000000000223000000000000000002238000000000033684854149COMISION DE INVESTIGACIONES CI000000002628000000000000000000000000000000000000000000000000000000000000000000000000000000000000000000000000000000000000PES00010000001000000000000000000000000
202304040060000600000000000000002635000000000000000026358000000000030626983398MINISTERIO DE SALUD PCIA DE BS000000003480000000000000000000000000000000000000000000000000000000000000000000000000000000000000000000000000000000000000PES00010000001000000000000000000000000
202304050060000600000000000000002636000000000000000026368000000000030999057167MINISTERIO DE PRODUCCION CIENC000000244000000000000000000000000000000000000000000000000000000000000000000000000000000000000000000000000000000000000000PES00010000001000000000000000000000000
202304050060000600000000000000002637000000000000000026378000000000027261464778MELELLA CECILIA ELEONORA      000000005500000000000000000000000000000000000000000000000000000000000000000000000000000000000000000000000000000000000000PES00010000001000000000000000000000000
202304050010000600000000000000001372000000000000000013728000000000030657877669EMPRESA DISTRIBUIDORA LA PLATA000000019408001000000000000000000000000000000000000000000000000000000000000000000000000000000000000000000000000000000000PES00010000001000000000000000000000000
202304060060000600000000000000002638000000000000000026388000000000030546666707UNIVERSIDAD NACIONAL DE LA PLA000000009000000000000000000000000000000000000000000000000000000000000000000000000000000000000000000000000000000000000000PES00010000001000000000000000000000000
202304060010000600000000000000001373000000000000000013738000000000030657877669EMPRESA DISTRIBUIDORA LA PLATA000000016030007000000000000000000000000000000000000000000000000000000000000000000000000000000000000000000000000000000000PES00010000001000000000000000000000000
202304060010000600000000000000001374000000000000000013748000000000030657877669EMPRESA DISTRIBUIDORA LA PLATA000000022999452000000000000000000000000000000000000000000000000000000000000000000000000000000000000000000000000000000000PES00010000001000000000000000000000000
202304060010000600000000000000001375000000000000000013758000000000030657877669EMPRESA DISTRIBUIDORA LA PLATA000000022415004000000000000000000000000000000000000000000000000000000000000000000000000000000000000000000000000000000000PES00010000001000000000000000000000000
202304070010000600000000000000001376000000000000000013768000000000030657877669EMPRESA DISTRIBUIDORA LA PLATA000000021840000000000000000000000000000000000000000000000000000000000000000000000000000000000000000000000000000000000000PES00010000001000000000000000000000000
202304070010000600000000000000001377000000000000000013778000000000030657877669EMPRESA DISTRIBUIDORA LA PLATA000000021440000000000000000000000000000000000000000000000000000000000000000000000000000000000000000000000000000000000000PES00010000001000000000000000000000000
202304070010000600000000000000001378000000000000000013788000000000030657877669EMPRESA DISTRIBUIDORA LA PLATA000000026800000000000000000000000000000000000000000000000000000000000000000000000000000000000000000000000000000000000000PES00010000001000000000000000000000000
202304070010000600000000000000001379000000000000000013798000000000030657877669EMPRESA DISTRIBUIDORA LA PLATA000000026800000000000000000000000000000000000000000000000000000000000000000000000000000000000000000000000000000000000000PES00010000001000000000000000000000000
202304070010000600000000000000001380000000000000000013808000000000030657877669EMPRESA DISTRIBUIDORA LA PLATA000000020100000000000000000000000000000000000000000000000000000000000000000000000000000000000000000000000000000000000000PES00010000001000000000000000000000000
202304070060000600000000000000002639000000000000000026398000000000030708499044INSTITUTO CULTURAL DE LA PROV 000000009760000000000000000000000000000000000000000000000000000000000000000000000000000000000000000000000000000000000000PES00010000001000000000000000020230507
202304070060000600000000000000002640000000000000000026408000000000030708499044INSTITUTO CULTURAL DE LA PROV 000000010810000000000000000000000000000000000000000000000000000000000000000000000000000000000000000000000000000000000000PES00010000001000000000000000020230507
202304100060000600000000000000002641000000000000000026418000000000030638438514H CAMARA DE DIPUTADOS PCIA BS 000000153440000000000000000000000000000000000000000000000000000000000000000000000000000000000000000000000000000000000000PES00010000001000000000000000020230510
202304110060000600000000000000002642000000000000000026428000000000033638161309COLEGIO DE MAGISTRADOS Y FUNCI000000000640000000000000000000000000000000000000000000000000000000000000000000000000000000000000000000000000000000000000PES00010000001000000000000000000000000
202304120010000600000000000000001381000000000000000013818000000000030683462566DEVELOP SRL                   000000017200077000000000000000000000000000000000000000000000000000000000000000000000000000000000000000000000000000000000PES00010000001000000000000000000000000
202304120010000600000000000000001382000000000000000013828000000000030683462566DEVELOP SRL                   000000005400023000000000000000000000000000000000000000000000000000000000000000000000000000000000000000000000000000000000PES00010000001000000000000000000000000
202304120010000600000000000000001383000000000000000013838000000000030683462566DEVELOP SRL                   000000004900022000000000000000000000000000000000000000000000000000000000000000000000000000000000000000000000000000000000PES00010000001000000000000000020230412
202304130060000600000000000000002643000000000000000026438000000000033637617449ADMINISTRACION NACIONAL DE LA 000000000500000000000000000000000000000000000000000000000000000000000000000000000000000000000000000000000000000000000000PES00010000001000000000000000000000000
202304130060000600000000000000002644000000000000000026448000000000030710100140CENTRO CIENTIFICO TECNOLOGICO 000000000760000000000000000000000000000000000000000000000000000000000000000000000000000000000000000000000000000000000000PES00010000001000000000000000000000000
202304130010000600000000000000001384000000000000000013848000000000027251607864COVELLO JULIETA               000000043200001000000000000000000000000000000000000000000000000000000000000000000000000000000000000000000000000000000000PES00010000001000000000000000000000000
202304130010000600000000000000001385000000000000000013858000000000027225988795NINA MARIA LAURA              000000028800000000000000000000000000000000000000000000000000000000000000000000000000000000000000000000000000000000000000PES00010000001000000000000000000000000
202304130010000600000000000000001386000000000000000013868000000000030516155074SINTEC TUR S A                000000008400000000000000000000000000000000000000000000000000000000000000000000000000000000000000000000000000000000000000PES00010000001000000000000000000000000
202304130060000600000000000000002645000000000000000026458000000000030708499044INSTITUTO CULTURAL DE LA PROV 000000008910000000000000000000000000000000000000000000000000000000000000000000000000000000000000000000000000000000000000PES00010000001000000000000000020230513
202304130060000600000000000000002646000000000000000026468000000000030708499044INSTITUTO CULTURAL DE LA PROV 000000010350000000000000000000000000000000000000000000000000000000000000000000000000000000000000000000000000000000000000PES00010000001000000000000000020230513
202304130060000600000000000000002647000000000000000026478000000000030708499044INSTITUTO CULTURAL DE LA PROV 000000011020000000000000000000000000000000000000000000000000000000000000000000000000000000000000000000000000000000000000PES00010000001000000000000000020230513
202304130060000600000000000000002648000000000000000026488000000000030708499044INSTITUTO CULTURAL DE LA PROV 000000008910000000000000000000000000000000000000000000000000000000000000000000000000000000000000000000000000000000000000PES00010000001000000000000000020230513
202304130060000600000000000000002649000000000000000026498000000000030708499044INSTITUTO CULTURAL DE LA PROV 000000014210000000000000000000000000000000000000000000000000000000000000000000000000000000000000000000000000000000000000PES00010000001000000000000000020230513
202304130060000600000000000000002650000000000000000026508000000000030708499044INSTITUTO CULTURAL DE LA PROV 000000025870000000000000000000000000000000000000000000000000000000000000000000000000000000000000000000000000000000000000PES00010000001000000000000000020230513
202304130060000600000000000000002651000000000000000026518000000000030708499044INSTITUTO CULTURAL DE LA PROV 000000012460000000000000000000000000000000000000000000000000000000000000000000000000000000000000000000000000000000000000PES00010000001000000000000000020230513
202304130060000600000000000000002652000000000000000026528000000000030708499044INSTITUTO CULTURAL DE LA PROV 000000011020000000000000000000000000000000000000000000000000000000000000000000000000000000000000000000000000000000000000PES00010000001000000000000000020230513
202304130060000600000000000000002653000000000000000026538000000000030708499044INSTITUTO CULTURAL DE LA PROV 000000013500000000000000000000000000000000000000000000000000000000000000000000000000000000000000000000000000000000000000PES00010000001000000000000000020230513
202304130060000600000000000000002654000000000000000026548000000000030708499044INSTITUTO CULTURAL DE LA PROV 000000023150000000000000000000000000000000000000000000000000000000000000000000000000000000000000000000000000000000000000PES00010000001000000000000000020230513
202304170080000600000000000000000224000000000000000002248000000000030529881769AGREMIACION BONAERENSE EMPLEAD000000145000000000000000000000000000000000000000000000000000000000000000000000000000000000000000000000000000000000000000PES00010000001000000000000000000000000
202304170060000600000000000000002655000000000000000026558000000000030638438514H CAMARA DE DIPUTADOS PCIA BS 000000164945000000000000000000000000000000000000000000000000000000000000000000000000000000000000000000000000000000000000PES00010000001000000000000000000000000
202304170010000600000000000000001387000000000000000013878000000000030519098683FARMACIA CARUSO SOCIEDAD EN CO000000069000204000000000000000000000000000000000000000000000000000000000000000000000000000000000000000000000000000000000PES00010000001000000000000000000000000
202304170080000600000000000000000225000000000000000002258000000000030638438514H CAMARA DE DIPUTADOS PCIA BS 000000164945000000000000000000000000000000000000000000000000000000000000000000000000000000000000000000000000000000000000PES00010000001000000000000000000000000
202304170060000600000000000000002656000000000000000026568000000000030638438514H CAMARA DE DIPUTADOS PCIA BS 000000168225000000000000000000000000000000000000000000000000000000000000000000000000000000000000000000000000000000000000PES00010000001000000000000000000000000
202304180060000600000000000000002657000000000000000026578000000000030546666707UNIVERSIDAD NACIONAL DE LA PLA000000002660000000000000000000000000000000000000000000000000000000000000000000000000000000000000000000000000000000000000PES00010000001000000000000000000000000
202304180060000600000000000000002658000000000000000026588000000000030716742292MINISTERIO DE LAS MUJERES, POL000000001000000000000000000000000000000000000000000000000000000000000000000000000000000000000000000000000000000000000000PES00010000001000000000000000000000000
202304190060000600000000000000002659000000000000000026598000000000030717321231JEFATURA DE ASESORES DEL GOBER000000085000000000000000000000000000000000000000000000000000000000000000000000000000000000000000000000000000000000000000PES00010000001000000000000000000000000
202304190010000600000000000000001388000000000000000013888000000000030501152826LABORATORIOS RICHMOND SACIF   000000001320014000000000000000000000000000000000000000000000000000000000000000000000000000000000000000000000000000000000PES00010000001000000000000000000000000
202304190060000600000000000000002660000000000000000026608000000000033638161309COLEGIO DE MAGISTRADOS Y FUNCI000000002720000000000000000000000000000000000000000000000000000000000000000000000000000000000000000000000000000000000000PES00010000001000000000000000000000000
202304190080000600000000000000000226000000000000000002268000000000030717321231JEFATURA DE ASESORES DEL GOBER000000085000000000000000000000000000000000000000000000000000000000000000000000000000000000000000000000000000000000000000PES00010000001000000000000000000000000
202304190060000600000000000000002661000000000000000026618000000000030717321231JEFATURA DE ASESORES DEL GOBER000000085000000000000000000000000000000000000000000000000000000000000000000000000000000000000000000000000000000000000000PES00010000001000000000000000000000000
202304190060000600000000000000002662000000000000000026628000000000030546666707UNIVERSIDAD NACIONAL DE LA PLA000000006600000000000000000000000000000000000000000000000000000000000000000000000000000000000000000000000000000000000000PES00010000001000000000000000000000000
202304210060000600000000000000002663000000000000000026638000000000030540780028COLEGIO DE MEDICOS DE LA PROVI000000002616000000000000000000000000000000000000000000000000000000000000000000000000000000000000000000000000000000000000PES00010000001000000000000000000000000
202304210060000600000000000000002664000000000000000026648000000000030707216669PODER JUDICIAL MINISTERIO PUBL000000002100000000000000000000000000000000000000000000000000000000000000000000000000000000000000000000000000000000000000PES00010000001000000000000000000000000
202304240060000600000000000000002665000000000000000026658000000000030715124234MINISTERIO DE GOBIERNO BS.AS. 000000331800000000000000000000000000000000000000000000000000000000000000000000000000000000000000000000000000000000000000PES00010000001000000000000000000000000
202304240060000600000000000000002666000000000000000026668000000000030638438514H CAMARA DE DIPUTADOS PCIA BS 000000193325000000000000000000000000000000000000000000000000000000000000000000000000000000000000000000000000000000000000PES00010000001000000000000000000000000
202304240060000600000000000000002667000000000000000026678000000000030716742292MINISTERIO DE LAS MUJERES, POL000000004550000000000000000000000000000000000000000000000000000000000000000000000000000000000000000000000000000000000000PES00010000001000000000000000000000000
202304250060000600000000000000002668000000000000000026688000000000030546666707UNIVERSIDAD NACIONAL DE LA PLA000000012000000000000000000000000000000000000000000000000000000000000000000000000000000000000000000000000000000000000000PES00010000001000000000000000000000000
202304250080000600000000000000000227000000000000000002278000000000033684854149COMISION DE INVESTIGACIONES CI000000003192000000000000000000000000000000000000000000000000000000000000000000000000000000000000000000000000000000000000PES00010000001000000000000000000000000
202304250060000600000000000000002669000000000000000026698000000000033684854149COMISION DE INVESTIGACIONES CI000000011600000000000000000000000000000000000000000000000000000000000000000000000000000000000000000000000000000000000000PES00010000001000000000000000000000000
202304270080000600000000000000000228000000000000000002288000000000030546666707UNIVERSIDAD NACIONAL DE LA PLA000000006600000000000000000000000000000000000000000000000000000000000000000000000000000000000000000000000000000000000000PES00010000001000000000000000000000000
202304270060000600000000000000002670000000000000000026708000000000030546666707UNIVERSIDAD NACIONAL DE LA PLA000000006000000000000000000000000000000000000000000000000000000000000000000000000000000000000000000000000000000000000000PES00010000001000000000000000000000000
202304270060000600000000000000002671000000000000000026718000000000030546666707UNIVERSIDAD NACIONAL DE LA PLA000000004950000000000000000000000000000000000000000000000000000000000000000000000000000000000000000000000000000000000000PES00010000001000000000000000000000000
202304270060000600000000000000002672000000000000000026728000000000030710803273ASOCIACION MUTUAL EMPLEADOS BO000000002590000000000000000000000000000000000000000000000000000000000000000000000000000000000000000000000000000000000000PES00010000001000000000000000000000000
202304270060000600000000000000002673000000000000000026738000000000030708752297MINISTERIO DE TRABAJO DE LA PR000000206800000000000000000000000000000000000000000000000000000000000000000000000000000000000000000000000000000000000000PES00010000001000000000000000000000000
202304270010000600000000000000001389000000000000000013898000000000033593283319CORREGIDOR SA                 000000034821000000000000000000000000000000000000000000000000000000000000000000000000000000000000000000000000000000000000PES00010000001000000000000000000000000
202304280060000600000000000000002674000000000000000026748000000000033637617449ADMINISTRACION NACIONAL DE LA 000000000500000000000000000000000000000000000000000000000000000000000000000000000000000000000000000000000000000000000000PES00010000001000000000000000000000000
202304280010000600000000000000001390000000000000000013908000000000030548950704FEDERACION ODONTOLOGICA DE LA 000000002460053000000000000000000000000000000000000000000000000000000000000000000000000000000000000000000000000000000000PES00010000001000000000000000000000000
202304280060000600000000000000002675000000000000000026758000000000030708499044INSTITUTO CULTURAL DE LA PROV 000000012850000000000000000000000000000000000000000000000000000000000000000000000000000000000000000000000000000000000000PES00010000001000000000000000020230528
202304290060000600000000000000002676000000000000000026768000000000030710405863MINISTERIO DE AMBIENTE        000000028000000000000000000000000000000000000000000000000000000000000000000000000000000000000000000000000000000000000000PES00010000001000000000000000000000000
202304290060000600000000000000002677000000000000000026778000000000030710405863MINISTERIO DE AMBIENTE        000000006250000000000000000000000000000000000000000000000000000000000000000000000000000000000000000000000000000000000000PES00010000001000000000000000000000000
202304290060000600000000000000002678000000000000000026788000000000030710405863MINISTERIO DE AMBIENTE        000000006250000000000000000000000000000000000000000000000000000000000000000000000000000000000000000000000000000000000000PES00010000002000000000000000000000000
202304290060000600000000000000002679000000000000000026798000000000030710405863MINISTERIO DE AMBIENTE        000000012040000000000000000000000000000000000000000000000000000000000000000000000000000000000000000000000000000000000000PES00010000001000000000000000000000000
202304290060000600000000000000002680000000000000000026808000000000030710405863MINISTERIO DE AMBIENTE        000000012590000000000000000000000000000000000000000000000000000000000000000000000000000000000000000000000000000000000000PES00010000001000000000000000000000000
202304290060000600000000000000002681000000000000000026818000000000030715471511MINISTERIO DE JEFATURA DE GABI000000012000000000000000000000000000000000000000000000000000000000000000000000000000000000000000000000000000000000000000PES00010000001000000000000000000000000
202304290010000600000000000000001391000000000000000013918000000000030717392619COOPERATIVA COOPERATIVA DE TRA000000039000000000000000000000000000000000000000000000000000000000000000000000000000000000000000000000000000000000000000PES00010000001000000000000000000000000
202304290010000600000000000000001392000000000000000013928000000000030717392619COOPERATIVA COOPERATIVA DE TRA000000323400000000000000000000000000000000000000000000000000000000000000000000000000000000000000000000000000000000000000PES00010000001000000000000000000000000
202304290010000600000000000000001393000000000000000013938000000000030717392619COOPERATIVA COOPERATIVA DE TRA000000151200000000000000000000000000000000000000000000000000000000000000000000000000000000000000000000000000000000000000PES00010000001000000000000000000000000
202304290010000600000000000000001394000000000000000013948000000000030717392619COOPERATIVA COOPERATIVA DE TRA000000803000000000000000000000000000000000000000000000000000000000000000000000000000000000000000000000000000000000000000PES00010000001000000000000000000000000
