202409020060000600000000000000003415000000000000000034158000000000030627393713DIRECCION GENERAL DE CULTURA Y000000014635000000000000000000000000000000000000000000000000000000000000000000000000000000000000000000000000000000000000PES00010000001000000000000000000000000
202409020060000600000000000000003416000000000000000034168000000000030638438514H CAMARA DE DIPUTADOS PCIA BS 000000840600000000000000000000000000000000000000000000000000000000000000000000000000000000000000000000000000000000000000PES00010000001000000000000000000000000
202409020060000600000000000000003417000000000000000034178000000000030717321231JEFATURA DE ASESORES DEL GOBER000001182350000000000000000000000000000000000000000000000000000000000000000000000000000000000000000000000000000000000000PES00010000001000000000000000000000000
202409020060000600000000000000003418000000000000000034188000000000030627393713DIRECCION GENERAL DE CULTURA Y000000022060000000000000000000000000000000000000000000000000000000000000000000000000000000000000000000000000000000000000PES00010000001000000000000000000000000
202409020060000600000000000000003419000000000000000034198000000000030707045031MINISTERIO DE DESARROLLO DE LA000002132000000000000000000000000000000000000000000000000000000000000000000000000000000000000000000000000000000000000000PES00010000001000000000000000000000000
202409030060000600000000000000003420000000000000000034208000000000030627393713DIRECCION GENERAL DE CULTURA Y000000114430000000000000000000000000000000000000000000000000000000000000000000000000000000000000000000000000000000000000PES00010000001000000000000000000000000
202409040060000600000000000000003421000000000000000034218000000000030627393713DIRECCION GENERAL DE CULTURA Y000000014635000000000000000000000000000000000000000000000000000000000000000000000000000000000000000000000000000000000000PES00010000001000000000000000000000000
202409050060000600000000000000003422000000000000000034228000000000030627393713DIRECCION GENERAL DE CULTURA Y000000109660000000000000000000000000000000000000000000000000000000000000000000000000000000000000000000000000000000000000PES00010000001000000000000000000000000
202409060060000600000000000000003423000000000000000034238000000000030627393713DIRECCION GENERAL DE CULTURA Y000000014635000000000000000000000000000000000000000000000000000000000000000000000000000000000000000000000000000000000000PES00010000001000000000000000000000000
202409060010000600000000000000001615000000000000000016158000000000030657864281CAMUZZI GAS PAMPEANA S A      000000024400000000000000000000000000000000000000000000000000000000000000000000000000000000000000000000000000000000000000PES00010000001000000000000000000000000
202409060010000600000000000000001616000000000000000016168000000000030657864281CAMUZZI GAS PAMPEANA S A      000000014340054000000000000000000000000000000000000000000000000000000000000000000000000000000000000000000000000000000000PES00010000001000000000000000000000000
202409060060000600000000000000003424000000000000000034248000000000030708499044INSTITUTO CULTURAL DE LA PROV 000000242540000000000000000000000000000000000000000000000000000000000000000000000000000000000000000000000000000000000000PES00010000001000000000000000000000000
202409060010000600000000000000001617000000000000000016178000000000030657877669EMPRESA DISTRIBUIDORA LA PLATA000000011920017000000000000000000000000000000000000000000000000000000000000000000000000000000000000000000000000000000000PES00010000001000000000000000000000000
202409090060000600000000000000003425000000000000000034258000000000030627393713DIRECCION GENERAL DE CULTURA Y000000048106000000000000000000000000000000000000000000000000000000000000000000000000000000000000000000000000000000000000PES00010000001000000000000000000000000
202409090060000600000000000000003426000000000000000034268000000000030627393713DIRECCION GENERAL DE CULTURA Y000000125850000000000000000000000000000000000000000000000000000000000000000000000000000000000000000000000000000000000000PES00010000001000000000000000000000000
202409090060000600000000000000003427000000000000000034278000000000030627393713DIRECCION GENERAL DE CULTURA Y000000125850000000000000000000000000000000000000000000000000000000000000000000000000000000000000000000000000000000000000PES00010000001000000000000000000000000
202409090060000600000000000000003428000000000000000034288000000000030627393713DIRECCION GENERAL DE CULTURA Y000000020010000000000000000000000000000000000000000000000000000000000000000000000000000000000000000000000000000000000000PES00010000001000000000000000000000000
202409090060000600000000000000003429000000000000000034298000000000030715124234MINISTERIO DE GOBIERNO BS.AS. 000001020712000000000000000000000000000000000000000000000000000000000000000000000000000000000000000000000000000000000000PES00010000001000000000000000000000000
202409100060000600000000000000003430000000000000000034308000000000030627393713DIRECCION GENERAL DE CULTURA Y000000038550000000000000000000000000000000000000000000000000000000000000000000000000000000000000000000000000000000000000PES00010000001000000000000000000000000
202409100060000600000000000000003431000000000000000034318000000000030627393713DIRECCION GENERAL DE CULTURA Y000000057700000000000000000000000000000000000000000000000000000000000000000000000000000000000000000000000000000000000000PES00010000001000000000000000000000000
202409100060000600000000000000003432000000000000000034328000000000030627393713DIRECCION GENERAL DE CULTURA Y000000057560000000000000000000000000000000000000000000000000000000000000000000000000000000000000000000000000000000000000PES00010000001000000000000000000000000
202409100080000600000000000000000349000000000000000003498000000000030627393713DIRECCION GENERAL DE CULTURA Y000000019000000000000000000000000000000000000000000000000000000000000000000000000000000000000000000000000000000000000000PES00010000001000000000000000000000000
202409100060000600000000000000003433000000000000000034338000000000030627393713DIRECCION GENERAL DE CULTURA Y000000019000000000000000000000000000000000000000000000000000000000000000000000000000000000000000000000000000000000000000PES00010000001000000000000000020241110
202409100080000600000000000000000350000000000000000003508000000000030627393713DIRECCION GENERAL DE CULTURA Y000000038000000000000000000000000000000000000000000000000000000000000000000000000000000000000000000000000000000000000000PES00010000001000000000000000020241110
202409100060000600000000000000003434000000000000000034348000000000030627393713DIRECCION GENERAL DE CULTURA Y000000038000000000000000000000000000000000000000000000000000000000000000000000000000000000000000000000000000000000000000PES00010000001000000000000000020241110
202409110060000600000000000000003435000000000000000034358000000000033999242109BANCO DE LA PROVINCIA DE BUENO000000228690000000000000000000000000000000000000000000000000000000000000000000000000000000000000000000000000000000000000PES00010000001000000000000000020240930
202409110010000600000000000000001618000000000000000016188000000000030641040580LABORATORIO COPAHUE S A.      000000027650000000000000000000000000000000000000000000000000000000000000000000000000000000000000000000000000000000000000PES00010000001000000000000000000000000
202409110060000600000000000000003436000000000000000034368000000000030708499044INSTITUTO CULTURAL DE LA PROV 000000342888000000000000000000000000000000000000000000000000000000000000000000000000000000000000000000000000000000000000PES00010000001000000000000000000000000
202409120060000600000000000000003437000000000000000034378000000000030627393713DIRECCION GENERAL DE CULTURA Y000000102000000000000000000000000000000000000000000000000000000000000000000000000000000000000000000000000000000000000000PES00010000001000000000000000000000000
202409120060000600000000000000003438000000000000000034388000000000030627393713DIRECCION GENERAL DE CULTURA Y000000184500000000000000000000000000000000000000000000000000000000000000000000000000000000000000000000000000000000000000PES00010000001000000000000000000000000
202409120080000600000000000000000351000000000000000003518000000000030627393713DIRECCION GENERAL DE CULTURA Y000000184500000000000000000000000000000000000000000000000000000000000000000000000000000000000000000000000000000000000000PES00010000001000000000000000000000000
202409120060000600000000000000003439000000000000000034398000000000030627393713DIRECCION GENERAL DE CULTURA Y000000184500000000000000000000000000000000000000000000000000000000000000000000000000000000000000000000000000000000000000PES00010000001000000000000000000000000
202409130060000600000000000000003440000000000000000034408000000000030708499044INSTITUTO CULTURAL DE LA PROV 000000567312000000000000000000000000000000000000000000000000000000000000000000000000000000000000000000000000000000000000PES00010000001000000000000000000000000
202409130060000600000000000000003441000000000000000034418000000000030627393713DIRECCION GENERAL DE CULTURA Y000000313410000000000000000000000000000000000000000000000000000000000000000000000000000000000000000000000000000000000000PES00010000002000000000000000000000000
202409130060000600000000000000003442000000000000000034428000000000030627393713DIRECCION GENERAL DE CULTURA Y000000050304000000000000000000000000000000000000000000000000000000000000000000000000000000000000000000000000000000000000PES00010000001000000000000000000000000
202409130060000600000000000000003443000000000000000034438000000000030627393713DIRECCION GENERAL DE CULTURA Y000000024110000000000000000000000000000000000000000000000000000000000000000000000000000000000000000000000000000000000000PES00010000001000000000000000000000000
202409140060000600000000000000003444000000000000000034448000000000030627393713DIRECCION GENERAL DE CULTURA Y000000051520000000000000000000000000000000000000000000000000000000000000000000000000000000000000000000000000000000000000PES00010000001000000000000000000000000
202409160060000600000000000000003445000000000000000034458000000000030546666707UNIVERSIDAD NACIONAL DE LA PLA000000020000000000000000000000000000000000000000000000000000000000000000000000000000000000000000000000000000000000000000PES00010000001000000000000000000000000
202409160060000600000000000000003446000000000000000034468000000000030638438514H CAMARA DE DIPUTADOS PCIA BS 000000759430000000000000000000000000000000000000000000000000000000000000000000000000000000000000000000000000000000000000PES00010000001000000000000000000000000
202409180060000600000000000000003447000000000000000034478000000000030627393713DIRECCION GENERAL DE CULTURA Y000000207640000000000000000000000000000000000000000000000000000000000000000000000000000000000000000000000000000000000000PES00010000001000000000000000000000000
202409180060000600000000000000003448000000000000000034488000000000030627393713DIRECCION GENERAL DE CULTURA Y000000025465000000000000000000000000000000000000000000000000000000000000000000000000000000000000000000000000000000000000PES00010000001000000000000000000000000
202409180060000600000000000000003449000000000000000034498000000000030627393713DIRECCION GENERAL DE CULTURA Y000000077100000000000000000000000000000000000000000000000000000000000000000000000000000000000000000000000000000000000000PES00010000001000000000000000000000000
202409180060000600000000000000003450000000000000000034508000000000030717321231JEFATURA DE ASESORES DEL GOBER000000900600000000000000000000000000000000000000000000000000000000000000000000000000000000000000000000000000000000000000PES00010000002000000000000000000000000
202409180060000600000000000000003451000000000000000034518000000000030546666707UNIVERSIDAD NACIONAL DE LA PLA000000015520000000000000000000000000000000000000000000000000000000000000000000000000000000000000000000000000000000000000PES00010000001000000000000000000000000
202409180010000600000000000000001619000000000000000016198000000000030657864281CAMUZZI GAS PAMPEANA S A      000000014340054000000000000000000000000000000000000000000000000000000000000000000000000000000000000000000000000000000000PES00010000001000000000000000000000000
202409180060000600000000000000003452000000000000000034528000000000030627393713DIRECCION GENERAL DE CULTURA Y000000043550000000000000000000000000000000000000000000000000000000000000000000000000000000000000000000000000000000000000PES00010000001000000000000000000000000
202409180080000600000000000000000352000000000000000003528000000000030627393713DIRECCION GENERAL DE CULTURA Y000000050304000000000000000000000000000000000000000000000000000000000000000000000000000000000000000000000000000000000000PES00010000001000000000000000000000000
202409190030000600000000000000000067000000000000000000678000000000030657864281CAMUZZI GAS PAMPEANA S A      000000004500016000000000000000000000000000000000000000000000000000000000000000000000000000000000000000000000000000000000PES00010000001000000000000000000000000
202409190030000600000000000000000068000000000000000000688000000000030657864281CAMUZZI GAS PAMPEANA S A      000000004920019000000000000000000000000000000000000000000000000000000000000000000000000000000000000000000000000000000000PES00010000001000000000000000000000000
202409190030000600000000000000000069000000000000000000698000000000030657864281CAMUZZI GAS PAMPEANA S A      000000014340054000000000000000000000000000000000000000000000000000000000000000000000000000000000000000000000000000000000PES00010000001000000000000000000000000
202409190030000600000000000000000070000000000000000000708000000000030657864281CAMUZZI GAS PAMPEANA S A      000000024400000000000000000000000000000000000000000000000000000000000000000000000000000000000000000000000000000000000000PES00010000001000000000000000000000000
202409190010000600000000000000001620000000000000000016208000000000030657864281CAMUZZI GAS PAMPEANA S A      000000008320032000000000000000000000000000000000000000000000000000000000000000000000000000000000000000000000000000000000PES00010000001000000000000000000000000
202409200010000600000000000000001621000000000000000016218000000000030500008454BANCO SANTANDER ARGENTINA SOCI000000009020085000000000000000000000000000000000000000000000000000000000000000000000000000000000000000000000000000000000PES00010000001000000000000000000000000
202409200060000600000000000000003453000000000000000034538000000000030627393713DIRECCION GENERAL DE CULTURA Y000000042284000000000000000000000000000000000000000000000000000000000000000000000000000000000000000000000000000000000000PES00010000001000000000000000000000000
202409200060000600000000000000003454000000000000000034548000000000030627393713DIRECCION GENERAL DE CULTURA Y000000025465000000000000000000000000000000000000000000000000000000000000000000000000000000000000000000000000000000000000PES00010000001000000000000000000000000
202409200060000600000000000000003455000000000000000034558000000000030627393713DIRECCION GENERAL DE CULTURA Y000000088960000000000000000000000000000000000000000000000000000000000000000000000000000000000000000000000000000000000000PES00010000001000000000000000000000000
202409200060000600000000000000003456000000000000000034568000000000030715124234MINISTERIO DE GOBIERNO BS.AS. 000000857600000000000000000000000000000000000000000000000000000000000000000000000000000000000000000000000000000000000000PES00010000001000000000000000000000000
202409210060000600000000000000003457000000000000000034578000000000030627393713DIRECCION GENERAL DE CULTURA Y000000048106000000000000000000000000000000000000000000000000000000000000000000000000000000000000000000000000000000000000PES00010000001000000000000000000000000
202409230010000600000000000000001622000000000000000016228000000000027225988795NINA MARIA LAURA              000000066230052000000000000000000000000000000000000000000000000000000000000000000000000000000000000000000000000000000000PES00010000001000000000000000000000000
202409230060000600000000000000003458000000000000000034588000000000030627393713DIRECCION GENERAL DE CULTURA Y000000030592000000000000000000000000000000000000000000000000000000000000000000000000000000000000000000000000000000000000PES00010000001000000000000000000000000
202409240060000600000000000000003459000000000000000034598000000000030707045031MINISTERIO DE DESARROLLO DE LA000001148000000000000000000000000000000000000000000000000000000000000000000000000000000000000000000000000000000000000000PES00010000001000000000000000000000000
202409240060000600000000000000003460000000000000000034608000000000030546666707UNIVERSIDAD NACIONAL DE LA PLA000000002360000000000000000000000000000000000000000000000000000000000000000000000000000000000000000000000000000000000000PES00010000001000000000000000000000000
202409240010000600000000000000001623000000000000000016238000000000030504710412FINADIET SA COM IND FIN E INMO000000002880013000000000000000000000000000000000000000000000000000000000000000000000000000000000000000000000000000000000PES00010000001000000000000000000000000
202409250060000600000000000000003461000000000000000034618000000000030627393713DIRECCION GENERAL DE CULTURA Y000000029292000000000000000000000000000000000000000000000000000000000000000000000000000000000000000000000000000000000000PES00010000001000000000000000000000000
202409250060000600000000000000003462000000000000000034628000000000030708499044INSTITUTO CULTURAL DE LA PROV 000000372336000000000000000000000000000000000000000000000000000000000000000000000000000000000000000000000000000000000000PES00010000001000000000000000000000000
202409250010000600000000000000001624000000000000000016248000000000030519098683FARMACIA CARUSO SOCIEDAD EN CO000000376000171000000000000000000000000000000000000000000000000000000000000000000000000000000000000000000000000000000000PES00010000001000000000000000000000000
202409260060000600000000000000003463000000000000000034638000000000030627393713DIRECCION GENERAL DE CULTURA Y000000051840000000000000000000000000000000000000000000000000000000000000000000000000000000000000000000000000000000000000PES00010000001000000000000000000000000
202409260060000600000000000000003464000000000000000034648000000000030638438514H CAMARA DE DIPUTADOS PCIA BS 000000565030000000000000000000000000000000000000000000000000000000000000000000000000000000000000000000000000000000000000PES00010000001000000000000000000000000
202409270060000600000000000000003465000000000000000034658000000000030627393713DIRECCION GENERAL DE CULTURA Y000000628400000000000000000000000000000000000000000000000000000000000000000000000000000000000000000000000000000000000000PES00010000001000000000000000000000000
202409270060000600000000000000003466000000000000000034668000000000030627393713DIRECCION GENERAL DE CULTURA Y000000025465000000000000000000000000000000000000000000000000000000000000000000000000000000000000000000000000000000000000PES00010000001000000000000000000000000
202409270060000600000000000000003467000000000000000034678000000000030627393713DIRECCION GENERAL DE CULTURA Y000000232550000000000000000000000000000000000000000000000000000000000000000000000000000000000000000000000000000000000000PES00010000001000000000000000000000000
202409270080000600000000000000000353000000000000000003538000000000030627393713DIRECCION GENERAL DE CULTURA Y000000042284000000000000000000000000000000000000000000000000000000000000000000000000000000000000000000000000000000000000PES00010000001000000000000000000000000
202409270060000600000000000000003468000000000000000034688000000000030525662868EMBAJADA DE FRANCIA  CANCILLER000000020000000000000000000000000000000000000000000000000000000000000000000000000000000000000000000000000000000000000000PES00010000001000000000000000000000000
202409270060000600000000000000003469000000000000000034698000000000030627393713DIRECCION GENERAL DE CULTURA Y000000042284000000000000000000000000000000000000000000000000000000000000000000000000000000000000000000000000000000000000PES00010000001000000000000000000000000
202409270080000600000000000000000354000000000000000003548000000000030627393713DIRECCION GENERAL DE CULTURA Y000000030592000000000000000000000000000000000000000000000000000000000000000000000000000000000000000000000000000000000000PES00010000001000000000000000000000000
202409270060000600000000000000003470000000000000000034708000000000030627393713DIRECCION GENERAL DE CULTURA Y000000030592000000000000000000000000000000000000000000000000000000000000000000000000000000000000000000000000000000000000PES00010000001000000000000000000000000
