202307030060000600000000000000002782000000000000000027828000000000030707216669PODER JUDICIAL MINISTERIO PUBL000000002100000000000000000000000000000000000000000000000000000000000000000000000000000000000000000000000000000000000000PES00010000001000000000000000000000000
202307030060000600000000000000002783000000000000000027838000000000030707216669PODER JUDICIAL MINISTERIO PUBL000000004440000000000000000000000000000000000000000000000000000000000000000000000000000000000000000000000000000000000000PES00010000001000000000000000000000000
202307030010000600000000000000001420000000000000000014208000000000030529881769AGREMIACION BONAERENSE EMPLEAD000000122000000000000000000000000000000000000000000000000000000000000000000000000000000000000000000000000000000000000000PES00010000001000000000000000000000000
202307030060000600000000000000002784000000000000000027848000000000030612041268SINDICATO DEL PERSONAL DE DRAG000000178100000000000000000000000000000000000000000000000000000000000000000000000000000000000000000000000000000000000000PES00010000001000000000000000000000000
202307030060000600000000000000002785000000000000000027858000000000030716742292MINISTERIO DE LAS MUJERES, POL000000018000000000000000000000000000000000000000000000000000000000000000000000000000000000000000000000000000000000000000PES00010000001000000000000000000000000
202307030060000600000000000000002786000000000000000027868000000000030716742292MINISTERIO DE LAS MUJERES, POL000000018000000000000000000000000000000000000000000000000000000000000000000000000000000000000000000000000000000000000000PES00010000001000000000000000000000000
202307060010000600000000000000001421000000000000000014218000000000030708655011MARCELO VINCENTI CATERING S.R.000000065174773000000000000000000000000000000000000000000000000000000000000000000000000000000000000000000000000000000000PES00010000001000000000000000000000000
202307070060000600000000000000002787000000000000000027878000000000030709643874FUNDACION FACULTAD DE CIENCIAS000000001800000000000000000000000000000000000000000000000000000000000000000000000000000000000000000000000000000000000000PES00010000001000000000000000000000000
202307080060000600000000000000002788000000000000000027888000000000030707051546MINISTERIO DE JUSTICIA Y DEREC000000002585000000000000000000000000000000000000000000000000000000000000000000000000000000000000000000000000000000000000PES00010000001000000000000000000000000
202307080060000600000000000000002789000000000000000027898000000000030612041268SINDICATO DEL PERSONAL DE DRAG000000045000000000000000000000000000000000000000000000000000000000000000000000000000000000000000000000000000000000000000PES00010000001000000000000000000000000
202307100060000600000000000000002790000000000000000027909600000000000022497065SIERRA LORENA ANDREA          000000005400000000000000000000000000000000000000000000000000000000000000000000000000000000000000000000000000000000000000PES00010000001000000000000000000000000
202307100010000600000000000000001422000000000000000014228000000000030501152826LABORATORIOS RICHMOND SACIF   000000000540002000000000000000000000000000000000000000000000000000000000000000000000000000000000000000000000000000000000PES00010000001000000000000000000000000
202307110060000600000000000000002791000000000000000027918000000000033638161309COLEGIO DE MAGISTRADOS Y FUNCI000000006400000000000000000000000000000000000000000000000000000000000000000000000000000000000000000000000000000000000000PES00010000001000000000000000000000000
202307110060000600000000000000002792000000000000000027928000000000033684854149COMISION DE INVESTIGACIONES CI000000013500000000000000000000000000000000000000000000000000000000000000000000000000000000000000000000000000000000000000PES00010000001000000000000000000000000
202307110060000600000000000000002793000000000000000027938000000000030715471511MINISTERIO DE JEFATURA DE GABI000000150000000000000000000000000000000000000000000000000000000000000000000000000000000000000000000000000000000000000000PES00010000001000000000000000000000000
202307120060000600000000000000002794000000000000000027948000000000030707045031MINISTERIO DE DESARROLLO DE LA000001496250000000000000000000000000000000000000000000000000000000000000000000000000000000000000000000000000000000000000PES00010000001000000000000000000000000
202307120030000600000000000000000057000000000000000000578000000000030657864281CAMUZZI GAS PAMPEANA S A      000000013420002000000000000000000000000000000000000000000000000000000000000000000000000000000000000000000000000000000000PES00010000001000000000000000000000000
202307120010000600000000000000001423000000000000000014238000000000030657864281CAMUZZI GAS PAMPEANA S A      000000012171037000000000000000000000000000000000000000000000000000000000000000000000000000000000000000000000000000000000PES00010000001000000000000000000000000
202307120060000600000000000000002795000000000000000027958000000000030707051546MINISTERIO DE JUSTICIA Y DEREC000000084000000000000000000000000000000000000000000000000000000000000000000000000000000000000000000000000000000000000000PES00010000001000000000000000000000000
202307130010000600000000000000001424000000000000000014248000000000030501152826LABORATORIOS RICHMOND SACIF   000000001500001000000000000000000000000000000000000000000000000000000000000000000000000000000000000000000000000000000000PES00010000001000000000000000000000000
202307130060000600000000000000002796000000000000000027968000000000030717321231JEFATURA DE ASESORES DEL GOBER000000050000000000000000000000000000000000000000000000000000000000000000000000000000000000000000000000000000000000000000PES00010000001000000000000000000000000
202307130060000600000000000000002797000000000000000027978000000000030707216669PODER JUDICIAL MINISTERIO PUBL000000014700000000000000000000000000000000000000000000000000000000000000000000000000000000000000000000000000000000000000PES00010000001000000000000000000000000
202307130010000600000000000000001425000000000000000014258000000000033593283319CORREGIDOR SA                 000000076320000000000000000000000000000000000000000000000000000000000000000000000000000000000000000000000000000000000000PES00010000001000000000000000000000000
202307130060000600000000000000002798000000000000000027988000000000030546666707UNIVERSIDAD NACIONAL DE LA PLA000000003200000000000000000000000000000000000000000000000000000000000000000000000000000000000000000000000000000000000000PES00010000001000000000000000000000000
202307130060000600000000000000002799000000000000000027998000000000030540780028COLEGIO DE MEDICOS DE LA PROVI000000012660000000000000000000000000000000000000000000000000000000000000000000000000000000000000000000000000000000000000PES00010000001000000000000000000000000
202307130060000600000000000000002800000000000000000028008000000000034546671471PODER JUDICIAL CONSEJO DE LA M000000001500000000000000000000000000000000000000000000000000000000000000000000000000000000000000000000000000000000000000PES00010000001000000000000000000000000
202307140060000600000000000000002801000000000000000028018000000000030546666707UNIVERSIDAD NACIONAL DE LA PLA000000001410000000000000000000000000000000000000000000000000000000000000000000000000000000000000000000000000000000000000PES00010000001000000000000000000000000
202307140060000600000000000000002802000000000000000028028000000000030546666707UNIVERSIDAD NACIONAL DE LA PLA000000042500000000000000000000000000000000000000000000000000000000000000000000000000000000000000000000000000000000000000PES00010000001000000000000000000000000
202307140060000600000000000000002803000000000000000028038000000000033684854149COMISION DE INVESTIGACIONES CI000000009300000000000000000000000000000000000000000000000000000000000000000000000000000000000000000000000000000000000000PES00010000001000000000000000000000000
202307140080000600000000000000000240000000000000000002408000000000033684854149COMISION DE INVESTIGACIONES CI000000009300000000000000000000000000000000000000000000000000000000000000000000000000000000000000000000000000000000000000PES00010000001000000000000000000000000
202307140060000600000000000000002804000000000000000028048000000000033684854149COMISION DE INVESTIGACIONES CI000000007750000000000000000000000000000000000000000000000000000000000000000000000000000000000000000000000000000000000000PES00010000001000000000000000000000000
202307140080000600000000000000000241000000000000000002418000000000033684854149COMISION DE INVESTIGACIONES CI000000007750000000000000000000000000000000000000000000000000000000000000000000000000000000000000000000000000000000000000PES00010000001000000000000000000000000
202307140060000600000000000000002805000000000000000028058000000000033684854149COMISION DE INVESTIGACIONES CI000000007750000000000000000000000000000000000000000000000000000000000000000000000000000000000000000000000000000000000000PES00010000001000000000000000000000000
202307140060000600000000000000002806000000000000000028068000000000030546666707UNIVERSIDAD NACIONAL DE LA PLA000000002520000000000000000000000000000000000000000000000000000000000000000000000000000000000000000000000000000000000000PES00010000001000000000000000000000000
202307140010000600000000000000001426000000000000000014268000000000027225988795NINA MARIA LAURA              000000062400000000000000000000000000000000000000000000000000000000000000000000000000000000000000000000000000000000000000PES00010000001000000000000000000000000
202307140060000600000000000000002807000000000000000028078000000000030627393713DIRECCION GENERAL DE CULTURA Y000000120000000000000000000000000000000000000000000000000000000000000000000000000000000000000000000000000000000000000000PES00010000001000000000000000000000000
202307140060000600000000000000002808000000000000000028088000000000030627393713DIRECCION GENERAL DE CULTURA Y000000237400000000000000000000000000000000000000000000000000000000000000000000000000000000000000000000000000000000000000PES00010000001000000000000000000000000
202307140060000600000000000000002809000000000000000028098000000000030627393713DIRECCION GENERAL DE CULTURA Y000000591240000000000000000000000000000000000000000000000000000000000000000000000000000000000000000000000000000000000000PES00010000001000000000000000000000000
202307140060000600000000000000002810000000000000000028108000000000030627393713DIRECCION GENERAL DE CULTURA Y000000198900000000000000000000000000000000000000000000000000000000000000000000000000000000000000000000000000000000000000PES00010000001000000000000000000000000
202307170060000600000000000000002811000000000000000028118000000000030715124234MINISTERIO DE GOBIERNO BS.AS. 000000329400000000000000000000000000000000000000000000000000000000000000000000000000000000000000000000000000000000000000PES00010000001000000000000000000000000
202307170060000600000000000000002812000000000000000028128000000000030715124234MINISTERIO DE GOBIERNO BS.AS. 000000246300000000000000000000000000000000000000000000000000000000000000000000000000000000000000000000000000000000000000PES00010000001000000000000000000000000
202307170060000600000000000000002813000000000000000028138000000000030999057167MINISTERIO DE PRODUCCION CIENC000000018000000000000000000000000000000000000000000000000000000000000000000000000000000000000000000000000000000000000000PES00010000001000000000000000000000000
202307170080000600000000000000000242000000000000000002428000000000030999057167MINISTERIO DE PRODUCCION CIENC000000018000000000000000000000000000000000000000000000000000000000000000000000000000000000000000000000000000000000000000PES00010000001000000000000000000000000
202307170060000600000000000000002814000000000000000028148000000000030999057167MINISTERIO DE PRODUCCION CIENC000000018000000000000000000000000000000000000000000000000000000000000000000000000000000000000000000000000000000000000000PES00010000001000000000000000000000000
202307170010000600000000000000001427000000000000000014278000000000030657864281CAMUZZI GAS PAMPEANA S A      000000004375000000000000000000000000000000000000000000000000000000000000000000000000000000000000000000000000000000000000PES00010000001000000000000000000000000
202307180010000600000000000000001428000000000000000014288000000000030657864281CAMUZZI GAS PAMPEANA S A      000000001660004000000000000000000000000000000000000000000000000000000000000000000000000000000000000000000000000000000000PES00010000001000000000000000000000000
202307180010000600000000000000001429000000000000000014298000000000030657877669EMPRESA DISTRIBUIDORA LA PLATA000000027955005000000000000000000000000000000000000000000000000000000000000000000000000000000000000000000000000000000000PES00010000001000000000000000000000000
202307180010000600000000000000001430000000000000000014308000000000030657877669EMPRESA DISTRIBUIDORA LA PLATA000000027520001000000000000000000000000000000000000000000000000000000000000000000000000000000000000000000000000000000000PES00010000001000000000000000000000000
202307180010000600000000000000001431000000000000000014318000000000030657877669EMPRESA DISTRIBUIDORA LA PLATA000000020290001000000000000000000000000000000000000000000000000000000000000000000000000000000000000000000000000000000000PES00010000001000000000000000000000000
202307180030000600000000000000000058000000000000000000588000000000030657877669EMPRESA DISTRIBUIDORA LA PLATA000000027520010000000000000000000000000000000000000000000000000000000000000000000000000000000000000000000000000000000000PES00010000001000000000000000000000000
202307180010000600000000000000001432000000000000000014328000000000030657877669EMPRESA DISTRIBUIDORA LA PLATA000000025805001000000000000000000000000000000000000000000000000000000000000000000000000000000000000000000000000000000000PES00010000001000000000000000000000000
202307180010000600000000000000001433000000000000000014338000000000030707400710CORPORACION BUENOS AIRES SUR S000000471900000000000000000000000000000000000000000000000000000000000000000000000000000000000000000000000000000000000000PES00010000001000000000000000000000000
202307180060000600000000000000002815000000000000000028158000000000030716742292MINISTERIO DE LAS MUJERES, POL000000005600000000000000000000000000000000000000000000000000000000000000000000000000000000000000000000000000000000000000PES00010000001000000000000000020230718
202307180060000600000000000000002816000000000000000028168000000000030716742292MINISTERIO DE LAS MUJERES, POL000000006860000000000000000000000000000000000000000000000000000000000000000000000000000000000000000000000000000000000000PES00010000001000000000000000020230718
202307180080000600000000000000000243000000000000000002438000000000030627393713DIRECCION GENERAL DE CULTURA Y000000073940000000000000000000000000000000000000000000000000000000000000000000000000000000000000000000000000000000000000PES00010000001000000000000000000000000
202307180060000600000000000000002817000000000000000028178000000000030710405863MINISTERIO DE AMBIENTE        000000073940000000000000000000000000000000000000000000000000000000000000000000000000000000000000000000000000000000000000PES00010000001000000000000000000000000
202307180060000600000000000000002818000000000000000028188000000000030715471511MINISTERIO DE JEFATURA DE GABI000000150000000000000000000000000000000000000000000000000000000000000000000000000000000000000000000000000000000000000000PES00010000001000000000000000000000000
202307180010000600000000000000001434000000000000000014348000000000020181354640LOPRESTI MARCELO OMAR         000000034850000000000000000000000000000000000000000000000000000000000000000000000000000000000000000000000000000000000000PES00010000001000000000000000000000000
202307180010000600000000000000001435000000000000000014358000000000020181354640LOPRESTI MARCELO OMAR         000000025700001000000000000000000000000000000000000000000000000000000000000000000000000000000000000000000000000000000000PES00010000001000000000000000000000000
202307180010000600000000000000001436000000000000000014368000000000030529881769AGREMIACION BONAERENSE EMPLEAD000000161520000000000000000000000000000000000000000000000000000000000000000000000000000000000000000000000000000000000000PES00010000001000000000000000000000000
202307190060000600000000000000002819000000000000000028198000000000030716742292MINISTERIO DE LAS MUJERES, POL000000031850000000000000000000000000000000000000000000000000000000000000000000000000000000000000000000000000000000000000PES00010000001000000000000000020230719
202307190080000600000000000000000244000000000000000002448000000000030716742292MINISTERIO DE LAS MUJERES, POL000000006860000000000000000000000000000000000000000000000000000000000000000000000000000000000000000000000000000000000000PES00010000001000000000000000020230719
202307190080000600000000000000000245000000000000000002458000000000030716742292MINISTERIO DE LAS MUJERES, POL000000005600000000000000000000000000000000000000000000000000000000000000000000000000000000000000000000000000000000000000PES00010000001000000000000000020230719
202307190080000600000000000000000246000000000000000002468000000000030716742292MINISTERIO DE LAS MUJERES, POL000000031850000000000000000000000000000000000000000000000000000000000000000000000000000000000000000000000000000000000000PES00010000001000000000000000020230719
202307190060000600000000000000002820000000000000000028208000000000030716742292MINISTERIO DE LAS MUJERES, POL000000006860000000000000000000000000000000000000000000000000000000000000000000000000000000000000000000000000000000000000PES00010000001000000000000000020230719
202307190060000600000000000000002821000000000000000028218000000000030716742292MINISTERIO DE LAS MUJERES, POL000000005600000000000000000000000000000000000000000000000000000000000000000000000000000000000000000000000000000000000000PES00010000001000000000000000020230719
202307190060000600000000000000002822000000000000000028228000000000030716742292MINISTERIO DE LAS MUJERES, POL000000031850000000000000000000000000000000000000000000000000000000000000000000000000000000000000000000000000000000000000PES00010000001000000000000000020230719
202307200060000600000000000000002823000000000000000028238000000000030708499044INSTITUTO CULTURAL DE LA PROV 000000012310000000000000000000000000000000000000000000000000000000000000000000000000000000000000000000000000000000000000PES00010000001000000000000000020230820
202307200060000600000000000000002824000000000000000028248000000000030708499044INSTITUTO CULTURAL DE LA PROV 000000012010000000000000000000000000000000000000000000000000000000000000000000000000000000000000000000000000000000000000PES00010000001000000000000000020230720
202307200060000600000000000000002825000000000000000028258000000000030708499044INSTITUTO CULTURAL DE LA PROV 000000023200000000000000000000000000000000000000000000000000000000000000000000000000000000000000000000000000000000000000PES00010000001000000000000000020230820
202307200060000600000000000000002826000000000000000028268000000000030708499044INSTITUTO CULTURAL DE LA PROV 000000014500000000000000000000000000000000000000000000000000000000000000000000000000000000000000000000000000000000000000PES00010000001000000000000000020230820
202307200060000600000000000000002827000000000000000028278000000000030708499044INSTITUTO CULTURAL DE LA PROV 000000010597000000000000000000000000000000000000000000000000000000000000000000000000000000000000000000000000000000000000PES00010000001000000000000000020230820
202307200060000600000000000000002828000000000000000028288000000000030708499044INSTITUTO CULTURAL DE LA PROV 000000014500000000000000000000000000000000000000000000000000000000000000000000000000000000000000000000000000000000000000PES00010000001000000000000000020230820
202307200060000600000000000000002829000000000000000028298000000000030708499044INSTITUTO CULTURAL DE LA PROV 000000014500000000000000000000000000000000000000000000000000000000000000000000000000000000000000000000000000000000000000PES00010000001000000000000000020230820
202307200060000600000000000000002830000000000000000028308000000000030708499044INSTITUTO CULTURAL DE LA PROV 000000014500000000000000000000000000000000000000000000000000000000000000000000000000000000000000000000000000000000000000PES00010000001000000000000000020230820
202307200060000600000000000000002831000000000000000028318000000000030708499044INSTITUTO CULTURAL DE LA PROV 000000016200000000000000000000000000000000000000000000000000000000000000000000000000000000000000000000000000000000000000PES00010000001000000000000000020230820
202307200060000600000000000000002832000000000000000028328000000000030716742292MINISTERIO DE LAS MUJERES, POL000000005200000000000000000000000000000000000000000000000000000000000000000000000000000000000000000000000000000000000000PES00010000001000000000000000000000000
202307200080000600000000000000000247000000000000000002478000000000030627393713DIRECCION GENERAL DE CULTURA Y000000591240000000000000000000000000000000000000000000000000000000000000000000000000000000000000000000000000000000000000PES00010000001000000000000000000000000
202307200060000600000000000000002833000000000000000028338000000000030627393713DIRECCION GENERAL DE CULTURA Y000000591240000000000000000000000000000000000000000000000000000000000000000000000000000000000000000000000000000000000000PES00010000001000000000000000000000000
202307210010000600000000000000001437000000000000000014378000000000020233257991BOONSTRA GUSTAVO JAVIER       000000312000000000000000000000000000000000000000000000000000000000000000000000000000000000000000000000000000000000000000PES00010000001000000000000000000000000
202307240060000600000000000000002834000000000000000028348000000000030716742292MINISTERIO DE LAS MUJERES, POL000000004800000000000000000000000000000000000000000000000000000000000000000000000000000000000000000000000000000000000000PES00010000001000000000000000020230824
202307250060000600000000000000002835000000000000000028358000000000030716742292MINISTERIO DE LAS MUJERES, POL000000031850000000000000000000000000000000000000000000000000000000000000000000000000000000000000000000000000000000000000PES00010000001000000000000000000000000
202307250080000600000000000000000248000000000000000002488000000000030716742292MINISTERIO DE LAS MUJERES, POL000000031850000000000000000000000000000000000000000000000000000000000000000000000000000000000000000000000000000000000000PES00010000001000000000000000000000000
202307260060000600000000000000002836000000000000000028368000000000030550857061COLEGIO DE FARMACEUTICOS DE LA000000049960000000000000000000000000000000000000000000000000000000000000000000000000000000000000000000000000000000000000PES00010000001000000000000000000000000
202307260060000600000000000000002837000000000000000028378000000000030708499044INSTITUTO CULTURAL DE LA PROV 000000019750000000000000000000000000000000000000000000000000000000000000000000000000000000000000000000000000000000000000PES00010000001000000000000000020230826
202307260060000600000000000000002838000000000000000028388000000000030708499044INSTITUTO CULTURAL DE LA PROV 000000002880000000000000000000000000000000000000000000000000000000000000000000000000000000000000000000000000000000000000PES00010000001000000000000000020230826
202307260060000600000000000000002839000000000000000028398000000000030708499044INSTITUTO CULTURAL DE LA PROV 000000014590000000000000000000000000000000000000000000000000000000000000000000000000000000000000000000000000000000000000PES00010000001000000000000000020230826
202307260060000600000000000000002840000000000000000028408000000000030708499044INSTITUTO CULTURAL DE LA PROV 000000047390000000000000000000000000000000000000000000000000000000000000000000000000000000000000000000000000000000000000PES00010000001000000000000000020230826
202307270060000600000000000000002841000000000000000028418000000000033684854149COMISION DE INVESTIGACIONES CI000000007750000000000000000000000000000000000000000000000000000000000000000000000000000000000000000000000000000000000000PES00010000001000000000000000000000000
202307270060000600000000000000002842000000000000000028428000000000033684854149COMISION DE INVESTIGACIONES CI000000013500000000000000000000000000000000000000000000000000000000000000000000000000000000000000000000000000000000000000PES00010000001000000000000000000000000
202307270080000600000000000000000249000000000000000002498000000000033684854149COMISION DE INVESTIGACIONES CI000000007750000000000000000000000000000000000000000000000000000000000000000000000000000000000000000000000000000000000000PES00010000001000000000000000000000000
202307270080000600000000000000000250000000000000000002508000000000033684854149COMISION DE INVESTIGACIONES CI000000013500000000000000000000000000000000000000000000000000000000000000000000000000000000000000000000000000000000000000PES00010000001000000000000000000000000
202307270060000600000000000000002843000000000000000028438000000000030716742292MINISTERIO DE LAS MUJERES, POL000000004800000000000000000000000000000000000000000000000000000000000000000000000000000000000000000000000000000000000000PES00010000001000000000000000000000000
202307280080000600000000000000000251000000000000000002518000000000030716742292MINISTERIO DE LAS MUJERES, POL000000004800000000000000000000000000000000000000000000000000000000000000000000000000000000000000000000000000000000000000PES00010000001000000000000000000000000
202307280060000600000000000000002844000000000000000028448000000000030716742292MINISTERIO DE LAS MUJERES, POL000000004800000000000000000000000000000000000000000000000000000000000000000000000000000000000000000000000000000000000000PES00010000001000000000000000000000000
202307280060000600000000000000002845000000000000000028458000000000030716742292MINISTERIO DE LAS MUJERES, POL000000004800000000000000000000000000000000000000000000000000000000000000000000000000000000000000000000000000000000000000PES00010000001000000000000000020230828
202307280080000600000000000000000252000000000000000002528000000000030716742292MINISTERIO DE LAS MUJERES, POL000000004800000000000000000000000000000000000000000000000000000000000000000000000000000000000000000000000000000000000000PES00010000001000000000000000000000000
202307280060000600000000000000002846000000000000000028468000000000030716742292MINISTERIO DE LAS MUJERES, POL000000129000000000000000000000000000000000000000000000000000000000000000000000000000000000000000000000000000000000000000PES00010000001000000000000000020230728
202307310060000600000000000000002847000000000000000028478000000000030715904817ORGANISMO PROVINCIAL DE INTEGR000000320000000000000000000000000000000000000000000000000000000000000000000000000000000000000000000000000000000000000000PES00010000001000000000000000020230731
202307310080000600000000000000000253000000000000000002538000000000030715904817ORGANISMO PROVINCIAL DE INTEGR000000320000000000000000000000000000000000000000000000000000000000000000000000000000000000000000000000000000000000000000PES00010000001000000000000000020230731
202307310060000600000000000000002848000000000000000028488000000000030715904817ORGANISMO PROVINCIAL DE INTEGR000000320000000000000000000000000000000000000000000000000000000000000000000000000000000000000000000000000000000000000000PES00010000001000000000000000020230831
