202408010060000600000000000000003375000000000000000033758000000000030710405863MINISTERIO DE AMBIENTE        000000046920000000000000000000000000000000000000000000000000000000000000000000000000000000000000000000000000000000000000PES00010000001000000000000000000000000
202408010060000600000000000000003376000000000000000033768000000000030710405863MINISTERIO DE AMBIENTE        000000046920000000000000000000000000000000000000000000000000000000000000000000000000000000000000000000000000000000000000PES00010000001000000000000000000000000
202408010060000600000000000000003377000000000000000033778000000000030710405863MINISTERIO DE AMBIENTE        000000046920000000000000000000000000000000000000000000000000000000000000000000000000000000000000000000000000000000000000PES00010000001000000000000000000000000
202408010060000600000000000000003378000000000000000033788000000000030710405863MINISTERIO DE AMBIENTE        000000046920000000000000000000000000000000000000000000000000000000000000000000000000000000000000000000000000000000000000PES00010000001000000000000000000000000
202408010080000600000000000000000343000000000000000003438000000000030710405863MINISTERIO DE AMBIENTE        000000046920000000000000000000000000000000000000000000000000000000000000000000000000000000000000000000000000000000000000PES00010000001000000000000000000000000
202408060060000600000000000000003379000000000000000033798000000000030627393713DIRECCION GENERAL DE CULTURA Y000000100500000000000000000000000000000000000000000000000000000000000000000000000000000000000000000000000000000000000000PES00010000001000000000000000020241006
202408060060000600000000000000003380000000000000000033808000000000030627393713DIRECCION GENERAL DE CULTURA Y000000036000000000000000000000000000000000000000000000000000000000000000000000000000000000000000000000000000000000000000PES00010000001000000000000000020241006
202408060060000600000000000000003381000000000000000033818000000000030627393713DIRECCION GENERAL DE CULTURA Y000000135000000000000000000000000000000000000000000000000000000000000000000000000000000000000000000000000000000000000000PES00010000001000000000000000020241006
202408070010000600000000000000001598000000000000000015988000000000030516155074SINTEC TUR S A                000000160000000000000000000000000000000000000000000000000000000000000000000000000000000000000000000000000000000000000000PES00010000001000000000000000000000000
202408080060000600000000000000003382000000000000000033828000000000030715124234MINISTERIO DE GOBIERNO BS.AS. 000000670000000000000000000000000000000000000000000000000000000000000000000000000000000000000000000000000000000000000000PES00010000001000000000000000000000000
202408080060000600000000000000003383000000000000000033838000000000033691349719ASOCIACION DE REUMATOLOGIA DE 000000201600000000000000000000000000000000000000000000000000000000000000000000000000000000000000000000000000000000000000PES00010000001000000000000000000000000
202408080060000600000000000000003384000000000000000033848000000000030626983398MINISTERIO DE SALUD PCIA DE BS000000068000000000000000000000000000000000000000000000000000000000000000000000000000000000000000000000000000000000000000PES00010000001000000000000000000000000
202408080060000600000000000000003385000000000000000033858000000000030627393713DIRECCION GENERAL DE CULTURA Y000000090000000000000000000000000000000000000000000000000000000000000000000000000000000000000000000000000000000000000000PES00010000001000000000000000020241008
202408080060000600000000000000003386000000000000000033868000000000030627393713DIRECCION GENERAL DE CULTURA Y000000232200000000000000000000000000000000000000000000000000000000000000000000000000000000000000000000000000000000000000PES00010000001000000000000000020241008
202408080060000600000000000000003387000000000000000033878000000000030627393713DIRECCION GENERAL DE CULTURA Y000000379240000000000000000000000000000000000000000000000000000000000000000000000000000000000000000000000000000000000000PES00010000001000000000000000020241008
202408100080000600000000000000000344000000000000000003448000000000030715124234MINISTERIO DE GOBIERNO BS.AS. 000000670000000000000000000000000000000000000000000000000000000000000000000000000000000000000000000000000000000000000000PES00010000001000000000000000000000000
202408100060000600000000000000003388000000000000000033888000000000030715124234MINISTERIO DE GOBIERNO BS.AS. 000000670000000000000000000000000000000000000000000000000000000000000000000000000000000000000000000000000000000000000000PES00010000001000000000000000000000000
202408120010000600000000000000001599000000000000000015998000000000027225988795NINA MARIA LAURA              000000059150034000000000000000000000000000000000000000000000000000000000000000000000000000000000000000000000000000000000PES00010000001000000000000000000000000
202408160010000600000000000000001600000000000000000016008000000000027225988795NINA MARIA LAURA              000000018000008000000000000000000000000000000000000000000000000000000000000000000000000000000000000000000000000000000000PES00010000001000000000000000000000000
202408160010000600000000000000001601000000000000000016018000000000020181354640LOPRESTI MARCELO OMAR         000000121420008000000000000000000000000000000000000000000000000000000000000000000000000000000000000000000000000000000000PES00010000001000000000000000000000000
202408160010000600000000000000001602000000000000000016028000000000027231046270SPAÑOL NATALIA                000000033830019000000000000000000000000000000000000000000000000000000000000000000000000000000000000000000000000000000000PES00010000001000000000000000000000000
202408160010000600000000000000001603000000000000000016038000000000027225988795NINA MARIA LAURA              000000073390057000000000000000000000000000000000000000000000000000000000000000000000000000000000000000000000000000000000PES00010000001000000000000000000000000
202408160010000600000000000000001604000000000000000016048000000000030520912963TAIUTI CONSTRUCCIONES S C A   000000107930064000000000000000000000000000000000000000000000000000000000000000000000000000000000000000000000000000000000PES00010000001000000000000000000000000
202408160010000600000000000000001605000000000000000016058000000000027251607864COVELLO JULIETA               000000099600037000000000000000000000000000000000000000000000000000000000000000000000000000000000000000000000000000000000PES00010000001000000000000000000000000
202408160010000600000000000000001606000000000000000016068000000000030501152826LABORATORIOS RICHMOND SACIF S.000000006000000000000000000000000000000000000000000000000000000000000000000000000000000000000000000000000000000000000000PES00010000001000000000000000000000000
202408190060000600000000000000003389000000000000000033898000000000030715124234MINISTERIO DE GOBIERNO BS.AS. 000000490000000000000000000000000000000000000000000000000000000000000000000000000000000000000000000000000000000000000000PES00010000001000000000000000000000000
202408190060000600000000000000003390000000000000000033908000000000030716742292MINISTERIO DE MUJERES Y DIVERS000000030000000000000000000000000000000000000000000000000000000000000000000000000000000000000000000000000000000000000000PES00010000001000000000000000020241019
202408200060000600000000000000003391000000000000000033918000000000030999057167MINISTERIO DE PRODUCCION CIENC000000153510000000000000000000000000000000000000000000000000000000000000000000000000000000000000000000000000000000000000PES00010000001000000000000000000000000
202408200010000600000000000000001607000000000000000016078000000000030657864281CAMUZZI GAS PAMPEANA S A      000000008320025000000000000000000000000000000000000000000000000000000000000000000000000000000000000000000000000000000000PES00010000001000000000000000000000000
202408200010000600000000000000001608000000000000000016088000000000030657864281CAMUZZI GAS PAMPEANA S A      000000020000007000000000000000000000000000000000000000000000000000000000000000000000000000000000000000000000000000000000PES00010000001000000000000000000000000
202408200030000600000000000000000064000000000000000000648000000000030657864281CAMUZZI GAS PAMPEANA S A      000000024400000000000000000000000000000000000000000000000000000000000000000000000000000000000000000000000000000000000000PES00010000001000000000000000000000000
202408200030000600000000000000000065000000000000000000658000000000030657864281CAMUZZI GAS PAMPEANA S A      000000020000007000000000000000000000000000000000000000000000000000000000000000000000000000000000000000000000000000000000PES00010000001000000000000000000000000
202408200010000600000000000000001609000000000000000016098000000000030657864281CAMUZZI GAS PAMPEANA S A      000000020000066000000000000000000000000000000000000000000000000000000000000000000000000000000000000000000000000000000000PES00010000001000000000000000000000000
202408200010000600000000000000001610000000000000000016108000000000030657864281CAMUZZI GAS PAMPEANA S A      000000007620029000000000000000000000000000000000000000000000000000000000000000000000000000000000000000000000000000000000PES00010000001000000000000000000000000
202408200010000600000000000000001611000000000000000016118000000000030657864281CAMUZZI GAS PAMPEANA S A      000000004920019000000000000000000000000000000000000000000000000000000000000000000000000000000000000000000000000000000000PES00010000001000000000000000000000000
202408200010000600000000000000001612000000000000000016128000000000030657864281CAMUZZI GAS PAMPEANA S A      000000004500016000000000000000000000000000000000000000000000000000000000000000000000000000000000000000000000000000000000PES00010000001000000000000000000000000
202408200010000600000000000000001613000000000000000016138000000000030657864281CAMUZZI GAS PAMPEANA S A      000000024400000000000000000000000000000000000000000000000000000000000000000000000000000000000000000000000000000000000000PES00010000001000000000000000000000000
202408210060000600000000000000003392000000000000000033928000000000030626983398MINISTERIO DE SALUD PCIA DE BS000001179200000000000000000000000000000000000000000000000000000000000000000000000000000000000000000000000000000000000000PES00010000002000000000000000000000000
202408220010000600000000000000001614000000000000000016148000000000030516155074SINTEC TUR S A                000000160000000000000000000000000000000000000000000000000000000000000000000000000000000000000000000000000000000000000000PES00010000001000000000000000000000000
202408230080000600000000000000000345000000000000000003458000000000030627393713DIRECCION GENERAL DE CULTURA Y000000379240000000000000000000000000000000000000000000000000000000000000000000000000000000000000000000000000000000000000PES00010000001000000000000000020241010
202408230060000600000000000000003393000000000000000033938000000000030627393713DIRECCION GENERAL DE CULTURA Y000000379240000000000000000000000000000000000000000000000000000000000000000000000000000000000000000000000000000000000000PES00010000001000000000000000020241023
202408230030000600000000000000000066000000000000000000668000000000030516155074SINTEC TUR S A                000000160000000000000000000000000000000000000000000000000000000000000000000000000000000000000000000000000000000000000000PES00010000001000000000000000000000000
202408230060000600000000000000003394000000000000000033948000000000030627393713DIRECCION GENERAL DE CULTURA Y000000010800000000000000000000000000000000000000000000000000000000000000000000000000000000000000000000000000000000000000PES00010000001000000000000000000000000
202408260060000600000000000000003395000000000000000033958000000000030708499044INSTITUTO CULTURAL DE LA PROV 000000029000000000000000000000000000000000000000000000000000000000000000000000000000000000000000000000000000000000000000PES00010000001000000000000000020240926
202408260060000600000000000000003396000000000000000033968000000000030708499044INSTITUTO CULTURAL DE LA PROV 000000032000000000000000000000000000000000000000000000000000000000000000000000000000000000000000000000000000000000000000PES00010000001000000000000000020241001
202408260080000600000000000000000346000000000000000003468000000000030716742292MINISTERIO DE MUJERES Y DIVERS000000030000000000000000000000000000000000000000000000000000000000000000000000000000000000000000000000000000000000000000PES00010000001000000000000000020240826
202408260060000600000000000000003397000000000000000033978000000000030716742292MINISTERIO DE MUJERES Y DIVERS000000030000000000000000000000000000000000000000000000000000000000000000000000000000000000000000000000000000000000000000PES00010000001000000000000000020240926
202408260080000600000000000000000347000000000000000003478000000000030716742292MINISTERIO DE MUJERES Y DIVERS000000030000000000000000000000000000000000000000000000000000000000000000000000000000000000000000000000000000000000000000PES00010000001000000000000000020240826
202408260060000600000000000000003398000000000000000033988000000000030716742292MINISTERIO DE MUJERES Y DIVERS000000030000000000000000000000000000000000000000000000000000000000000000000000000000000000000000000000000000000000000000PES00010000001000000000000000020240926
202408270060000600000000000000003399000000000000000033998000000000030716742292MINISTERIO DE MUJERES Y DIVERS000000034850000000000000000000000000000000000000000000000000000000000000000000000000000000000000000000000000000000000000PES00010000001000000000000000000000000
202408270060000600000000000000003400000000000000000034008000000000030715124234MINISTERIO DE GOBIERNO BS.AS. 000000536000000000000000000000000000000000000000000000000000000000000000000000000000000000000000000000000000000000000000PES00010000001000000000000000000000000
202408280060000600000000000000003401000000000000000034018000000000030717321231JEFATURA DE ASESORES DEL GOBER000000058890000000000000000000000000000000000000000000000000000000000000000000000000000000000000000000000000000000000000PES00010000001000000000000000000000000
202408290060000600000000000000003402000000000000000034028000000000030627393713DIRECCION GENERAL DE CULTURA Y000000427500000000000000000000000000000000000000000000000000000000000000000000000000000000000000000000000000000000000000PES00010000001000000000000000000000000
202408300060000600000000000000003403000000000000000034038000000000030627393713DIRECCION GENERAL DE CULTURA Y000000070860000000000000000000000000000000000000000000000000000000000000000000000000000000000000000000000000000000000000PES00010000001000000000000000000000000
202408300060000600000000000000003404000000000000000034048000000000030627393713DIRECCION GENERAL DE CULTURA Y000000067400000000000000000000000000000000000000000000000000000000000000000000000000000000000000000000000000000000000000PES00010000001000000000000000000000000
202408300060000600000000000000003405000000000000000034058000000000030627393713DIRECCION GENERAL DE CULTURA Y000000048004000000000000000000000000000000000000000000000000000000000000000000000000000000000000000000000000000000000000PES00010000001000000000000000000000000
202408300060000600000000000000003406000000000000000034068000000000030627393713DIRECCION GENERAL DE CULTURA Y000000366730000000000000000000000000000000000000000000000000000000000000000000000000000000000000000000000000000000000000PES00010000001000000000000000000000000
202408300060000600000000000000003407000000000000000034078000000000030627393713DIRECCION GENERAL DE CULTURA Y000000163020000000000000000000000000000000000000000000000000000000000000000000000000000000000000000000000000000000000000PES00010000001000000000000000000000000
202408300060000600000000000000003408000000000000000034088000000000030627393713DIRECCION GENERAL DE CULTURA Y000000014635000000000000000000000000000000000000000000000000000000000000000000000000000000000000000000000000000000000000PES00010000001000000000000000000000000
202408310060000600000000000000003409000000000000000034098000000000030627393713DIRECCION GENERAL DE CULTURA Y000000034850000000000000000000000000000000000000000000000000000000000000000000000000000000000000000000000000000000000000PES00010000001000000000000000000000000
202408310060000600000000000000003410000000000000000034108000000000030716742292MINISTERIO DE MUJERES Y DIVERS000000034850000000000000000000000000000000000000000000000000000000000000000000000000000000000000000000000000000000000000PES00010000001000000000000000000000000
202408310080000600000000000000000348000000000000000003488000000000030627393713DIRECCION GENERAL DE CULTURA Y000000034850000000000000000000000000000000000000000000000000000000000000000000000000000000000000000000000000000000000000PES00010000001000000000000000000000000
202408310060000600000000000000003411000000000000000034118000000000030716742292MINISTERIO DE MUJERES Y DIVERS000000027160000000000000000000000000000000000000000000000000000000000000000000000000000000000000000000000000000000000000PES00010000001000000000000000000000000
202408310060000600000000000000003412000000000000000034128000000000030708499044INSTITUTO CULTURAL DE LA PROV 000000158260000000000000000000000000000000000000000000000000000000000000000000000000000000000000000000000000000000000000PES00010000001000000000000000000000000
202408310060000600000000000000003413000000000000000034138000000000030716742292MINISTERIO DE MUJERES Y DIVERS000000034850000000000000000000000000000000000000000000000000000000000000000000000000000000000000000000000000000000000000PES00010000001000000000000000000000000
202408310060000600000000000000003414000000000000000034148000000000030708499044INSTITUTO CULTURAL DE LA PROV 000000007500000000000000000000000000000000000000000000000000000000000000000000000000000000000000000000000000000000000000PES00010000001000000000000000020240930
