202308030060000600000000000000002849000000000000000028498000000000030717321231JEFATURA DE ASESORES DEL GOBER000000119000000000000000000000000000000000000000000000000000000000000000000000000000000000000000000000000000000000000000PES00010000001000000000000000000000000
202308030060000600000000000000002850000000000000000028508000000000030716742292MINISTERIO DE LAS MUJERES, POL000000005500000000000000000000000000000000000000000000000000000000000000000000000000000000000000000000000000000000000000PES00010000001000000000000000020230903
202308030060000600000000000000002851000000000000000028518000000000030716742292MINISTERIO DE LAS MUJERES, POL000000002500000000000000000000000000000000000000000000000000000000000000000000000000000000000000000000000000000000000000PES00010000001000000000000000020230903
202308030060000600000000000000002852000000000000000028528000000000030638438514H CAMARA DE DIPUTADOS PCIA BS 000001411750000000000000000000000000000000000000000000000000000000000000000000000000000000000000000000000000000000000000PES00010000001000000000000000000000000
202308030080000600000000000000000254000000000000000002548000000000030638438514H CAMARA DE DIPUTADOS PCIA BS 000001411750000000000000000000000000000000000000000000000000000000000000000000000000000000000000000000000000000000000000PES00010000001000000000000000000000000
202308030060000600000000000000002853000000000000000028538000000000030638438514H CAMARA DE DIPUTADOS PCIA BS 000000160260000000000000000000000000000000000000000000000000000000000000000000000000000000000000000000000000000000000000PES00010000002000000000000000000000000
202308050060000600000000000000002854000000000000000028548000000000033691349719ASOCIACION DE REUMATOLOGIA DE 000000045000000000000000000000000000000000000000000000000000000000000000000000000000000000000000000000000000000000000000PES00010000001000000000000000000000000
202308070060000600000000000000002855000000000000000028558000000000030708499044INSTITUTO CULTURAL DE LA PROV 000000014500000000000000000000000000000000000000000000000000000000000000000000000000000000000000000000000000000000000000PES00010000001000000000000000020230907
202308070060000600000000000000002856000000000000000028568000000000030708499044INSTITUTO CULTURAL DE LA PROV 000000014500000000000000000000000000000000000000000000000000000000000000000000000000000000000000000000000000000000000000PES00010000001000000000000000020230907
202308070080000600000000000000000255000000000000000002558000000000030708499044INSTITUTO CULTURAL DE LA PROV 000000014500000000000000000000000000000000000000000000000000000000000000000000000000000000000000000000000000000000000000PES00010000001000000000000000020230807
202308070080000600000000000000000256000000000000000002568000000000030708499044INSTITUTO CULTURAL DE LA PROV 000000014500000000000000000000000000000000000000000000000000000000000000000000000000000000000000000000000000000000000000PES00010000001000000000000000020230807
202308070060000600000000000000002857000000000000000028578000000000030717321231JEFATURA DE ASESORES DEL GOBER000000119000000000000000000000000000000000000000000000000000000000000000000000000000000000000000000000000000000000000000PES00010000001000000000000000000000000
202308080060000600000000000000002858000000000000000028588000000000030546666707UNIVERSIDAD NACIONAL DE LA PLA000000004000000000000000000000000000000000000000000000000000000000000000000000000000000000000000000000000000000000000000PES00010000001000000000000000000000000
202308090060000600000000000000002859000000000000000028598000000000030638438514H CAMARA DE DIPUTADOS PCIA BS 000000173652500000000000000000000000000000000000000000000000000000000000000000000000000000000000000000000000000000000000PES00010000001000000000000000000000000
202308100080000600000000000000000257000000000000000002578000000000030717321231JEFATURA DE ASESORES DEL GOBER000000119000000000000000000000000000000000000000000000000000000000000000000000000000000000000000000000000000000000000000PES00010000001000000000000000000000000
202308100060000600000000000000002860000000000000000028608000000000030717321231JEFATURA DE ASESORES DEL GOBER000000119000000000000000000000000000000000000000000000000000000000000000000000000000000000000000000000000000000000000000PES00010000001000000000000000000000000
202308100060000600000000000000002861000000000000000028618000000000027219300226FERRARI MARIA LUJAN           000000023400000000000000000000000000000000000000000000000000000000000000000000000000000000000000000000000000000000000000PES00010000001000000000000000000000000
202308100080000600000000000000000258000000000000000002588000000000027219300226FERRARI MARIA LUJAN           000000023400000000000000000000000000000000000000000000000000000000000000000000000000000000000000000000000000000000000000PES00010000001000000000000000000000000
202308100060000600000000000000002862000000000000000028628000000000027219300226FERRARI MARIA LUJAN           000000023400000000000000000000000000000000000000000000000000000000000000000000000000000000000000000000000000000000000000PES00010000001000000000000000000000000
202308100060000600000000000000002863000000000000000028638000000000030711122369INSTITUTO DE INVESTIGACIONES E000000002035000000000000000000000000000000000000000000000000000000000000000000000000000000000000000000000000000000000000PES00010000001000000000000000000000000
202308150060000600000000000000002864000000000000000028648000000000030643908995FUNDACION CIENCIAS EXACTAS    000000005720000000000000000000000000000000000000000000000000000000000000000000000000000000000000000000000000000000000000PES00010000001000000000000000000000000
202308160060000600000000000000002865000000000000000028658600000000027181352219REGA HEREDIA MARIA EUGENIA    000000005500000000000000000000000000000000000000000000000000000000000000000000000000000000000000000000000000000000000000PES00010000001000000000000000000000000
202308160060000600000000000000002866000000000000000028668000000000030707045031MINISTERIO DE DESARROLLO DE LA000001128750000000000000000000000000000000000000000000000000000000000000000000000000000000000000000000000000000000000000PES00010000001000000000000000000000000
202308160060000600000000000000002867000000000000000028678000000000030638438514H CAMARA DE DIPUTADOS PCIA BS 000000137316500000000000000000000000000000000000000000000000000000000000000000000000000000000000000000000000000000000000PES00010000001000000000000000000000000
202308160060000600000000000000002868000000000000000028688000000000030708499044INSTITUTO CULTURAL DE LA PROV 000000026180000000000000000000000000000000000000000000000000000000000000000000000000000000000000000000000000000000000000PES00010000001000000000000000020230916
202308160060000600000000000000002869000000000000000028698000000000030627393713DIRECCION GENERAL DE CULTURA Y000000018000000000000000000000000000000000000000000000000000000000000000000000000000000000000000000000000000000000000000PES00010000001000000000000000000000000
202308170010000600000000000000001438000000000000000014388000000000030519098683FARMACIA CARUSO SOCIEDAD EN CO000000079280098000000000000000000000000000000000000000000000000000000000000000000000000000000000000000000000000000000000PES00010000001000000000000000000000000
202308180060000600000000000000002870000000000000000028708000000000030638438514H CAMARA DE DIPUTADOS PCIA BS 000000134919500000000000000000000000000000000000000000000000000000000000000000000000000000000000000000000000000000000000PES00010000001000000000000000000000000
202308180080000600000000000000000259000000000000000002598000000000030638438514H CAMARA DE DIPUTADOS PCIA BS 000000137316500000000000000000000000000000000000000000000000000000000000000000000000000000000000000000000000000000000000PES00010000001000000000000000000000000
202308180060000600000000000000002871000000000000000028718000000000030716742292MINISTERIO DE LAS MUJERES, POL000000002700000000000000000000000000000000000000000000000000000000000000000000000000000000000000000000000000000000000000PES00010000001000000000000000020230918
202308220080000600000000000000000260000000000000000002608000000000030546666707UNIVERSIDAD NACIONAL DE LA PLA000000004000000000000000000000000000000000000000000000000000000000000000000000000000000000000000000000000000000000000000PES00010000001000000000000000000000000
202308220060000600000000000000002872000000000000000028728000000000030546666707UNIVERSIDAD NACIONAL DE LA PLA000000004400000000000000000000000000000000000000000000000000000000000000000000000000000000000000000000000000000000000000PES00010000001000000000000000000000000
202308230060000600000000000000002873000000000000000028738000000000030665708825TRIBUNAL DE CUENTAS DE LA PROV000000059850000000000000000000000000000000000000000000000000000000000000000000000000000000000000000000000000000000000000PES00010000001000000000000000000000000
202308230080000600000000000000000261000000000000000002618000000000030665708825TRIBUNAL DE CUENTAS DE LA PROV000000059850000000000000000000000000000000000000000000000000000000000000000000000000000000000000000000000000000000000000PES00010000001000000000000000000000000
202308230060000600000000000000002874000000000000000028748000000000030665708825TRIBUNAL DE CUENTAS DE LA PROV000000059850000000000000000000000000000000000000000000000000000000000000000000000000000000000000000000000000000000000000PES00010000001000000000000000000000000
202308230060000600000000000000002875000000000000000028758000000000030627393713DIRECCION GENERAL DE CULTURA Y000000068300000000000000000000000000000000000000000000000000000000000000000000000000000000000000000000000000000000000000PES00010000001000000000000000000000000
202308230060000600000000000000002876000000000000000028768000000000030627393713DIRECCION GENERAL DE CULTURA Y000000178400000000000000000000000000000000000000000000000000000000000000000000000000000000000000000000000000000000000000PES00010000001000000000000000000000000
202308240060000600000000000000002877000000000000000028778000000000030638438514H CAMARA DE DIPUTADOS PCIA BS 000000103141500000000000000000000000000000000000000000000000000000000000000000000000000000000000000000000000000000000000PES00010000001000000000000000000000000
202308240060000600000000000000002878000000000000000028788000000000030707045031MINISTERIO DE DESARROLLO DE LA000001286250000000000000000000000000000000000000000000000000000000000000000000000000000000000000000000000000000000000000PES00010000001000000000000000000000000
202308250060000600000000000000002879000000000000000028798000000000030546666707UNIVERSIDAD NACIONAL DE LA PLA000000011100000000000000000000000000000000000000000000000000000000000000000000000000000000000000000000000000000000000000PES00010000001000000000000000000000000
202308280060000600000000000000002880000000000000000028808000000000030677972463JUNTA ELECTORAL PCIA DE BUENOS000000028080000000000000000000000000000000000000000000000000000000000000000000000000000000000000000000000000000000000000PES00010000001000000000000000000000000
202308280060000600000000000000002881000000000000000028818000000000030716742292MINISTERIO DE LAS MUJERES, POL000000005400000000000000000000000000000000000000000000000000000000000000000000000000000000000000000000000000000000000000PES00010000001000000000000000000000000
202308280060000600000000000000002882000000000000000028828000000000030716742292MINISTERIO DE LAS MUJERES, POL000000003800000000000000000000000000000000000000000000000000000000000000000000000000000000000000000000000000000000000000PES00010000001000000000000000000000000
202308280060000600000000000000002883000000000000000028838000000000030716742292MINISTERIO DE LAS MUJERES, POL000000010500000000000000000000000000000000000000000000000000000000000000000000000000000000000000000000000000000000000000PES00010000001000000000000000020230928
202308280080000600000000000000000262000000000000000002628000000000030716742292MINISTERIO DE LAS MUJERES, POL000000010500000000000000000000000000000000000000000000000000000000000000000000000000000000000000000000000000000000000000PES00010000001000000000000000000000000
202308280080000600000000000000000263000000000000000002638000000000030716742292MINISTERIO DE LAS MUJERES, POL000000005400000000000000000000000000000000000000000000000000000000000000000000000000000000000000000000000000000000000000PES00010000001000000000000000000000000
202308280080000600000000000000000264000000000000000002648000000000030716742292MINISTERIO DE LAS MUJERES, POL000000003800000000000000000000000000000000000000000000000000000000000000000000000000000000000000000000000000000000000000PES00010000001000000000000000000000000
202308280060000600000000000000002884000000000000000028848000000000030716742292MINISTERIO DE LAS MUJERES, POL000000010500000000000000000000000000000000000000000000000000000000000000000000000000000000000000000000000000000000000000PES00010000001000000000000000020230828
202308280060000600000000000000002885000000000000000028858000000000030716742292MINISTERIO DE LAS MUJERES, POL000000005400000000000000000000000000000000000000000000000000000000000000000000000000000000000000000000000000000000000000PES00010000001000000000000000020230828
202308290060000600000000000000002886000000000000000028868000000000030716742292MINISTERIO DE LAS MUJERES, POL000000003000000000000000000000000000000000000000000000000000000000000000000000000000000000000000000000000000000000000000PES00010000001000000000000000020230829
202308290060000600000000000000002887000000000000000028878000000000030716742292MINISTERIO DE LAS MUJERES, POL000000003800000000000000000000000000000000000000000000000000000000000000000000000000000000000000000000000000000000000000PES00010000002000000000000000020230829
202308290060000600000000000000002888000000000000000028888000000000030716742292MINISTERIO DE LAS MUJERES, POL000000022400000000000000000000000000000000000000000000000000000000000000000000000000000000000000000000000000000000000000PES00010000001000000000000000020230829
202308300010000600000000000000001439000000000000000014398000000000030624196208CLINICA PRIVADA DR J J VACCARI000000002940002000000000000000000000000000000000000000000000000000000000000000000000000000000000000000000000000000000000PES00010000001000000000000000000000000
202308310010000600000000000000001440000000000000000014408000000000027225988795NINA MARIA LAURA              000000015400000000000000000000000000000000000000000000000000000000000000000000000000000000000000000000000000000000000000PES00010000001000000000000000000000000
202308310060000600000000000000002889000000000000000028898000000000030638438514H CAMARA DE DIPUTADOS PCIA BS 000000104353000000000000000000000000000000000000000000000000000000000000000000000000000000000000000000000000000000000000PES00010000001000000000000000000000000
