202509010060000600000000000000004078000000000000000040788000000000030550857061COLEGIO DE FARMACEUTICOS DE LA000000136500000000000000000000000000000000000000000000000000000000000000000000000000000000000000000000000000000000000000PES00010000001000000000000000000000000
202509020060000600000000000000004079000000000000000040798000000000030627393713DIRECCION GENERAL DE CULTURA Y000000074000000000000000000000000000000000000000000000000000000000000000000000000000000000000000000000000000000000000000PES00010000001000000000000000000000000
202509040010000600000000000000001872000000000000000018728000000000030657877669EMPRESA DISTRIBUIDORA LA PLATA000000200000053000000000000000000000000000000000000000000000000000000000000000000000000000000000000000000000000000000000PES00010000001000000000000000000000000
202509040010000600000000000000001873000000000000000018738000000000030657877669EMPRESA DISTRIBUIDORA LA PLATA000000062000001000000000000000000000000000000000000000000000000000000000000000000000000000000000000000000000000000000000PES00010000001000000000000000000000000
202509040060000600000000000000004080000000000000000040808000000000030627393713DIRECCION GENERAL DE CULTURA Y000000057720000000000000000000000000000000000000000000000000000000000000000000000000000000000000000000000000000000000000PES00010000001000000000000000000000000
202509080060000600000000000000004081000000000000000040818000000000030715124234MINISTERIO DE GOBIERNO BS.AS. 000000990000000000000000000000000000000000000000000000000000000000000000000000000000000000000000000000000000000000000000PES00010000001000000000000000000000000
202509090060000600000000000000004082000000000000000040828000000000030546666707UNIVERSIDAD NACIONAL DE LA PLA000000015000000000000000000000000000000000000000000000000000000000000000000000000000000000000000000000000000000000000000PES00010000001000000000000000000000000
202509100010000600000000000000001874000000000000000018748000000000030707919902AGUAS BONAERENSES S.A.        000000010900000000000000000000000000000000000000000000000000000000000000000000000000000000000000000000000000000000000000PES00010000001000000000000000000000000
202509100060000600000000000000004083000000000000000040838000000000030717321231JEFATURA DE ASESORES DEL GOBER000000029400000000000000000000000000000000000000000000000000000000000000000000000000000000000000000000000000000000000000PES00010000001000000000000000000000000
202509110060000600000000000000004084000000000000000040848000000000030546666707UNIVERSIDAD NACIONAL DE LA PLA000000039500000000000000000000000000000000000000000000000000000000000000000000000000000000000000000000000000000000000000PES00010000001000000000000000000000000
202509150060000600000000000000004085000000000000000040858000000000030710405863MINISTERIO DE AMBIENTE        000000087000000000000000000000000000000000000000000000000000000000000000000000000000000000000000000000000000000000000000PES00010000001000000000000000000000000
202509150060000600000000000000004086000000000000000040868000000000030627393713DIRECCION GENERAL DE CULTURA Y000000096800000000000000000000000000000000000000000000000000000000000000000000000000000000000000000000000000000000000000PES00010000001000000000000000000000000
202509150060000600000000000000004087000000000000000040878000000000030550857061COLEGIO DE FARMACEUTICOS DE LA000000325000000000000000000000000000000000000000000000000000000000000000000000000000000000000000000000000000000000000000PES00010000001000000000000000000000000
202509160010000600000000000000001875000000000000000018758000000000030559880120JOSE ANACLETO E HIJOS S A     000000680400000000000000000000000000000000000000000000000000000000325000000000000000000000000000000000000000000325000000PES00010000001000000000000000000000000
202509160060000600000000000000004088000000000000000040888000000000030546666707UNIVERSIDAD NACIONAL DE LA PLA000000022000000000000000000000000000000000000000000000000000000000000000000000000000000000000000000000000000000000000000PES00010000001000000000000000000000000
202509160060000600000000000000004089000000000000000040898000000000030627393713DIRECCION GENERAL DE CULTURA Y000000079170000000000000000000000000000000000000000000000000000000000000000000000000000000000000000000000000000000000000PES00010000001000000000000000000000000
202509170030000600000000000000000082000000000000000000828000000000030559880120JOSE ANACLETO E HIJOS S A     000000680400000000000000000000000000000000000000000000000000000000325000000000000000000000000000000000000000000325000000PES00010000001000000000000000000000000
202509170010000600000000000000001876000000000000000018768000000000030559880120JOSE ANACLETO E HIJOS S A     000000030400001000000000000000000000000000000000000000000000000000000000000000000000000000000000000000000000000000000000PES00010000001000000000000000000000000
202509180060000600000000000000004090000000000000000040908000000000030627393713DIRECCION GENERAL DE CULTURA Y000000191100000000000000000000000000000000000000000000000000000000000000000000000000000000000000000000000000000000000000PES00010000001000000000000000000000000
202509190060000600000000000000004091000000000000000040918000000000033638161309COLEGIO DE MAGISTRADOS Y FUNCI000000007980000000000000000000000000000000000000000000000000000000000000000000000000000000000000000000000000000000000000PES00010000001000000000000000000000000
202509190060000600000000000000004092000000000000000040928000000000030627393713DIRECCION GENERAL DE CULTURA Y000000122850000000000000000000000000000000000000000000000000000000000000000000000000000000000000000000000000000000000000PES00010000001000000000000000000000000
202509190060000600000000000000004093000000000000000040938000000000030627393713DIRECCION GENERAL DE CULTURA Y000000059200000000000000000000000000000000000000000000000000000000000000000000000000000000000000000000000000000000000000PES00010000001000000000000000000000000
202509190060000600000000000000004094000000000000000040948000000000030627393713DIRECCION GENERAL DE CULTURA Y000000163205000000000000000000000000000000000000000000000000000000000000000000000000000000000000000000000000000000000000PES00010000001000000000000000000000000
202509220060000600000000000000004095000000000000000040958000000000030627393713DIRECCION GENERAL DE CULTURA Y000000494400000000000000000000000000000000000000000000000000000000000000000000000000000000000000000000000000000000000000PES00010000001000000000000000000000000
202509220060000600000000000000004096000000000000000040968000000000030559799536SINDICATO OBRAS SANITARIAS DE 000000193100000000000000000000000000000000000000000000000000000000000000000000000000000000000000000000000000000000000000PES00010000001000000000000000000000000
202509220080000600000000000000000467000000000000000004678000000000030627393713DIRECCION GENERAL DE CULTURA Y000000027660000000000000000000000000000000000000000000000000000000000000000000000000000000000000000000000000000000000000PES00010000001000000000000000000000000
202509220060000600000000000000004097000000000000000040978000000000030627393713DIRECCION GENERAL DE CULTURA Y000000027660000000000000000000000000000000000000000000000000000000000000000000000000000000000000000000000000000000000000PES00010000001000000000000000000000000
202509240010000600000000000000001877000000000000000018778000000000030707919902AGUAS BONAERENSES S.A.        000000008740028000000000000000000000000000000000000000000000000000000000000000000000000000000000000000000000000000000000PES00010000001000000000000000000000000
202509240060000600000000000000004098000000000000000040988000000000030627393713DIRECCION GENERAL DE CULTURA Y000000228900000000000000000000000000000000000000000000000000000000000000000000000000000000000000000000000000000000000000PES00010000001000000000000000000000000
202509240010000600000000000000001878000000000000000018788000000000030707845488MARKETING EVENTS & TRAVEL GROU000000062000001000000000000000000000000000000000000000000000000000000000000000000000000000000000000000000000000000000000PES00010000001000000000000000000000000
202509240060000600000000000000004099000000000000000040998000000000030546666561UNIVERSIDAD DE BUENOS AIRES   000000101500000000000000000000000000000000000000000000000000000000000000000000000000000000000000000000000000000000000000PES00010000001000000000000000000000000
202509240060000600000000000000004100000000000000000041008000000000030546666561UNIVERSIDAD DE BUENOS AIRES   000000101500000000000000000000000000000000000000000000000000000000000000000000000000000000000000000000000000000000000000PES00010000001000000000000000000000000
202509240080000600000000000000000468000000000000000004688000000000030546666561UNIVERSIDAD DE BUENOS AIRES   000000101500000000000000000000000000000000000000000000000000000000000000000000000000000000000000000000000000000000000000PES00010000001000000000000000000000000
202509260060000600000000000000004101000000000000000041018000000000030546666707UNIVERSIDAD NACIONAL DE LA PLA000000021700000000000000000000000000000000000000000000000000000000000000000000000000000000000000000000000000000000000000PES00010000001000000000000000000000000
202509260060000600000000000000004102000000000000000041028000000000030716742292MINISTERIO DE MUJERES Y DIVERS000000063150000000000000000000000000000000000000000000000000000000000000000000000000000000000000000000000000000000000000PES00010000001000000000000000000000000
202509260010000600000000000000001879000000000000000018798000000000030707845488MARKETING EVENTS & TRAVEL GROU000000064000001000000000000000000000000000000000000000000000000000000000000000000000000000000000000000000000000000000000PES00010000001000000000000000000000000
202509260060000600000000000000004103000000000000000041038000000000030707051546MINISTERIO DE JUSTICIA Y DEREC000000008800000000000000000000000000000000000000000000000000000000000000000000000000000000000000000000000000000000000000PES00010000001000000000000000000000000
202509270060000600000000000000004104000000000000000041048000000000030627393713DIRECCION GENERAL DE CULTURA Y000000125580000000000000000000000000000000000000000000000000000000000000000000000000000000000000000000000000000000000000PES00010000001000000000000000000000000
202509270060000600000000000000004105000000000000000041058000000000030627393713DIRECCION GENERAL DE CULTURA Y000000110260000000000000000000000000000000000000000000000000000000000000000000000000000000000000000000000000000000000000PES00010000001000000000000000000000000
202509270060000600000000000000004106000000000000000041068000000000030627393713DIRECCION GENERAL DE CULTURA Y000000125580000000000000000000000000000000000000000000000000000000000000000000000000000000000000000000000000000000000000PES00010000001000000000000000000000000
202509290060000600000000000000004107000000000000000041078000000000030626983398MINISTERIO DE SALUD PCIA DE BS000000561600000000000000000000000000000000000000000000000000000000000000000000000000000000000000000000000000000000000000PES00010000001000000000000000000000000
202509300010000600000000000000001880000000000000000018808000000000030657877669EMPRESA DISTRIBUIDORA LA PLATA000000058000001000000000000000000000000000000000000000000000000000000000000000000000000000000000000000000000000000000000PES00010000001000000000000000000000000
202509300010000600000000000000001881000000000000000018818000000000030657877669EMPRESA DISTRIBUIDORA LA PLATA000000009800001000000000000000000000000000000000000000000000000000000000000000000000000000000000000000000000000000000000PES00010000001000000000000000000000000
202509300010000600000000000000001882000000000000000018828000000000030657877669EMPRESA DISTRIBUIDORA LA PLATA000000016600002000000000000000000000000000000000000000000000000000000000000000000000000000000000000000000000000000000000PES00010000001000000000000000000000000
202509300010000600000000000000001883000000000000000018838000000000030657877669EMPRESA DISTRIBUIDORA LA PLATA000000030000003000000000000000000000000000000000000000000000000000000000000000000000000000000000000000000000000000000000PES00010000001000000000000000000000000
202509300010000600000000000000001884000000000000000018848000000000030657877669EMPRESA DISTRIBUIDORA LA PLATA000000012000002000000000000000000000000000000000000000000000000000000000000000000000000000000000000000000000000000000000PES00010000001000000000000000000000000
202509300010000600000000000000001885000000000000000018858000000000030657877669EMPRESA DISTRIBUIDORA LA PLATA000000009200000000000000000000000000000000000000000000000000000000000000000000000000000000000000000000000000000000000000PES00010000001000000000000000000000000
202509300010000600000000000000001886000000000000000018868000000000030657877669EMPRESA DISTRIBUIDORA LA PLATA000000007000000000000000000000000000000000000000000000000000000000000000000000000000000000000000000000000000000000000000PES00010000001000000000000000000000000
202509300010000600000000000000001887000000000000000018878000000000030657877669EMPRESA DISTRIBUIDORA LA PLATA000000009000001000000000000000000000000000000000000000000000000000000000000000000000000000000000000000000000000000000000PES00010000001000000000000000000000000
202509300010000600000000000000001888000000000000000018888000000000030657877669EMPRESA DISTRIBUIDORA LA PLATA000000012000001000000000000000000000000000000000000000000000000000000000000000000000000000000000000000000000000000000000PES00010000001000000000000000000000000
202509300010000600000000000000001889000000000000000018898000000000030657877669EMPRESA DISTRIBUIDORA LA PLATA000000004400000000000000000000000000000000000000000000000000000000000000000000000000000000000000000000000000000000000000PES00010000001000000000000000000000000
202509300010000600000000000000001890000000000000000018908000000000030657877669EMPRESA DISTRIBUIDORA LA PLATA000000002400005000000000000000000000000000000000000000000000000000000000000000000000000000000000000000000000000000000000PES00010000001000000000000000000000000
202509300010000600000000000000001891000000000000000018918000000000030657877669EMPRESA DISTRIBUIDORA LA PLATA000000016400001000000000000000000000000000000000000000000000000000000000000000000000000000000000000000000000000000000000PES00010000001000000000000000000000000
202509300060000600000000000000004108000000000000000041088000000000030546666707UNIVERSIDAD NACIONAL DE LA PLA000000096480000000000000000000000000000000000000000000000000000000000000000000000000000000000000000000000000000000000000PES00010000001000000000000000000000000
202509300010000600000000000000001892000000000000000018928000000000033593283319CORREGIDOR SA                 000000328789201000000000000000000000000000000000000000000000000000000000000000000000000000000000000000000000000000000000PES00010000001000000000000000000000000
202509300010000600000000000000001893000000000000000018938000000000027225988795NINA MARIA LAURA              000000022400004000000000000000000000000000000000000000000000000000000000000000000000000000000000000000000000000000000000PES00010000001000000000000000000000000
202509300010000600000000000000001894000000000000000018948000000000027225988795NINA MARIA LAURA              000000192000186000000000000000000000000000000000000000000000000000000000000000000000000000000000000000000000000000000000PES00010000001000000000000000000000000
