202311010080000600000000000000000286000000000000000002868000000000030716742292MINISTERIO DE LAS MUJERES, POL000000042000000000000000000000000000000000000000000000000000000000000000000000000000000000000000000000000000000000000000PES00010000001000000000000000000000000
202311010080000600000000000000000287000000000000000002878000000000030716742292MINISTERIO DE LAS MUJERES, POL000000002900000000000000000000000000000000000000000000000000000000000000000000000000000000000000000000000000000000000000PES00010000001000000000000000000000000
202311010060000600000000000000003036000000000000000030368000000000034546671471PODER JUDICIAL CONSEJO DE LA M000000000650000000000000000000000000000000000000000000000000000000000000000000000000000000000000000000000000000000000000PES00010000001000000000000000000000000
202311010060000600000000000000003037000000000000000030378000000000030627393713DIRECCION GENERAL DE CULTURA Y000000049500000000000000000000000000000000000000000000000000000000000000000000000000000000000000000000000000000000000000PES00010000001000000000000000000000000
202311010060000600000000000000003038000000000000000030388000000000030716742292MINISTERIO DE LAS MUJERES, POL000000087400000000000000000000000000000000000000000000000000000000000000000000000000000000000000000000000000000000000000PES00010000001000000000000000020231101
202311010060000600000000000000003039000000000000000030398000000000030717462021ORGANISMO PROVINCIAL DE LA NIÑ000000054000000000000000000000000000000000000000000000000000000000000000000000000000000000000000000000000000000000000000PES00010000001000000000000000000000000
202311020060000600000000000000003040000000000000000030408000000000030500147497COLEGIO DE ESCRIBANOS DE LA PR000000007250000000000000000000000000000000000000000000000000000000000000000000000000000000000000000000000000000000000000PES00010000001000000000000000000000000
202311020010000600000000000000001468000000000000000014688000000000030544640212LABORATORIO ELEA PHOENIX S A  000000020000000000000000000000000000000000000000000000000000000000000000000000000000000000000000000000000000000000000000PES00010000001000000000000000000000000
202311020060000600000000000000003041000000000000000030418000000000030710405863MINISTERIO DE AMBIENTE        000000008250000000000000000000000000000000000000000000000000000000000000000000000000000000000000000000000000000000000000PES00010000001000000000000000000000000
202311020060000600000000000000003042000000000000000030428000000000030710405863MINISTERIO DE AMBIENTE        000000033000000000000000000000000000000000000000000000000000000000000000000000000000000000000000000000000000000000000000PES00010000001000000000000000000000000
202311030060000600000000000000003043000000000000000030438000000000030707045031MINISTERIO DE DESARROLLO DE LA000001837500000000000000000000000000000000000000000000000000000000000000000000000000000000000000000000000000000000000000PES00010000001000000000000000000000000
202311030080000600000000000000000288000000000000000002888000000000030716742292MINISTERIO DE LAS MUJERES, POL000000004800000000000000000000000000000000000000000000000000000000000000000000000000000000000000000000000000000000000000PES00010000001000000000000000000000000
202311030060000600000000000000003044000000000000000030448000000000030716742292MINISTERIO DE LAS MUJERES, POL000000004800000000000000000000000000000000000000000000000000000000000000000000000000000000000000000000000000000000000000PES00010000001000000000000000000000000
202311060060000600000000000000003045000000000000000030458000000000030546666707UNIVERSIDAD NACIONAL DE LA PLA000000004860000000000000000000000000000000000000000000000000000000000000000000000000000000000000000000000000000000000000PES00010000001000000000000000000000000
202311060060000600000000000000003046000000000000000030468000000000030546666707UNIVERSIDAD NACIONAL DE LA PLA000000002400000000000000000000000000000000000000000000000000000000000000000000000000000000000000000000000000000000000000PES00010000001000000000000000000000000
202311060080000600000000000000000289000000000000000002898000000000030716742292MINISTERIO DE LAS MUJERES, POL000000004800000000000000000000000000000000000000000000000000000000000000000000000000000000000000000000000000000000000000PES00010000001000000000000000000000000
202311060060000600000000000000003047000000000000000030478000000000030716742292MINISTERIO DE LAS MUJERES, POL000000004800000000000000000000000000000000000000000000000000000000000000000000000000000000000000000000000000000000000000PES00010000001000000000000000000000000
202311070060000600000000000000003048000000000000000030488000000000030546666707UNIVERSIDAD NACIONAL DE LA PLA000000003035000000000000000000000000000000000000000000000000000000000000000000000000000000000000000000000000000000000000PES00010000001000000000000000000000000
202311070060000600000000000000003049000000000000000030498000000000033684854149COMISION DE INVESTIGACIONES CI000000108000000000000000000000000000000000000000000000000000000000000000000000000000000000000000000000000000000000000000PES00010000001000000000000000000000000
202311080010000600000000000000001469000000000000000014698000000000030544640212LABORATORIO ELEA PHOENIX S A  000000003900001000000000000000000000000000000000000000000000000000000000000000000000000000000000000000000000000000000000PES00010000001000000000000000000000000
202311080010000600000000000000001470000000000000000014708000000000030710434421FARMACIA ZORICH DE PAULA CRIST000000011400015000000000000000000000000000000000000000000000000000000000000000000000000000000000000000000000000000000000PES00010000001000000000000000000000000
202311080060000600000000000000003050000000000000000030508000000000030707216669PODER JUDICIAL MINISTERIO PUBL000000019250000000000000000000000000000000000000000000000000000000000000000000000000000000000000000000000000000000000000PES00010000001000000000000000000000000
202311080060000600000000000000003051000000000000000030518000000000030707216669PODER JUDICIAL MINISTERIO PUBL000000017640000000000000000000000000000000000000000000000000000000000000000000000000000000000000000000000000000000000000PES00010000001000000000000000000000000
202311080010000600000000000000001471000000000000000014718000000000030700743140MONTE VERDE S A               000000005000001000000000000000000000000000000000000000000000000000000000000000000000000000000000000000000000000000000000PES00010000001000000000000000000000000
202311080060000600000000000000003052000000000000000030528000000000030708499044INSTITUTO CULTURAL DE LA PROV 000000011847000000000000000000000000000000000000000000000000000000000000000000000000000000000000000000000000000000000000PES00010000001000000000000000020231208
202311080060000600000000000000003053000000000000000030538000000000030708499044INSTITUTO CULTURAL DE LA PROV 000000048000000000000000000000000000000000000000000000000000000000000000000000000000000000000000000000000000000000000000PES00010000001000000000000000020231208
202311080060000600000000000000003054000000000000000030548000000000030708499044INSTITUTO CULTURAL DE LA PROV 000000031519000000000000000000000000000000000000000000000000000000000000000000000000000000000000000000000000000000000000PES00010000001000000000000000020231208
202311080060000600000000000000003055000000000000000030558000000000030708499044INSTITUTO CULTURAL DE LA PROV 000000023520000000000000000000000000000000000000000000000000000000000000000000000000000000000000000000000000000000000000PES00010000001000000000000000020231208
202311080060000600000000000000003056000000000000000030568000000000030708499044INSTITUTO CULTURAL DE LA PROV 000000024468000000000000000000000000000000000000000000000000000000000000000000000000000000000000000000000000000000000000PES00010000001000000000000000020231208
202311080010000600000000000000001472000000000000000014728000000000030657864281CAMUZZI GAS PAMPEANA S A      000000012836026000000000000000000000000000000000000000000000000000000000000000000000000000000000000000000000000000000000PES00010000001000000000000000000000000
202311080010000600000000000000001473000000000000000014738000000000030657864281CAMUZZI GAS PAMPEANA S A      000000012000054000000000000000000000000000000000000000000000000000000000000000000000000000000000000000000000000000000000PES00010000001000000000000000000000000
202311080010000600000000000000001474000000000000000014748000000000030657864281CAMUZZI GAS PAMPEANA S A      000000009375117000000000000000000000000000000000000000000000000000000000000000000000000000000000000000000000000000000000PES00010000001000000000000000000000000
202311080010000600000000000000001475000000000000000014758000000000030657864281CAMUZZI GAS PAMPEANA S A      000000009420137000000000000000000000000000000000000000000000000000000000000000000000000000000000000000000000000000000000PES00010000001000000000000000000000000
202311080010000600000000000000001476000000000000000014768000000000030657864281CAMUZZI GAS PAMPEANA S A      000000006870117000000000000000000000000000000000000000000000000000000000000000000000000000000000000000000000000000000000PES00010000001000000000000000000000000
202311090060000600000000000000003057000000000000000030578000000000030707216669PODER JUDICIAL MINISTERIO PUBL000000017100000000000000000000000000000000000000000000000000000000000000000000000000000000000000000000000000000000000000PES00010000001000000000000000000000000
202311110060000600000000000000003058000000000000000030588000000000030707216650PODER JUDICIAL ADMINISTRACION 000000059000000000000000000000000000000000000000000000000000000000000000000000000000000000000000000000000000000000000000PES00010000001000000000000000000000000
202311130080000600000000000000000290000000000000000002908000000000030707216650PODER JUDICIAL ADMINISTRACION 000000059000000000000000000000000000000000000000000000000000000000000000000000000000000000000000000000000000000000000000PES00010000001000000000000000000000000
202311130060000600000000000000003059000000000000000030598000000000030627393713DIRECCION GENERAL DE CULTURA Y000000015200000000000000000000000000000000000000000000000000000000000000000000000000000000000000000000000000000000000000PES00010000001000000000000000000000000
202311130060000600000000000000003060000000000000000030608000000000030627393713DIRECCION GENERAL DE CULTURA Y000000022800000000000000000000000000000000000000000000000000000000000000000000000000000000000000000000000000000000000000PES00010000001000000000000000000000000
202311130060000600000000000000003061000000000000000030618000000000030627393713DIRECCION GENERAL DE CULTURA Y000000408500000000000000000000000000000000000000000000000000000000000000000000000000000000000000000000000000000000000000PES00010000001000000000000000000000000
202311140060000600000000000000003062000000000000000030628000000000030707216669PODER JUDICIAL MINISTERIO PUBL000000059000000000000000000000000000000000000000000000000000000000000000000000000000000000000000000000000000000000000000PES00010000001000000000000000000000000
202311140060000600000000000000003063000000000000000030638000000000030627393713DIRECCION GENERAL DE CULTURA Y000000108000000000000000000000000000000000000000000000000000000000000000000000000000000000000000000000000000000000000000PES00010000001000000000000000000000000
202311140060000600000000000000003064000000000000000030648000000000030546666707UNIVERSIDAD NACIONAL DE LA PLA000000119400000000000000000000000000000000000000000000000000000000000000000000000000000000000000000000000000000000000000PES00010000001000000000000000000000000
202311140060000600000000000000003065000000000000000030658000000000030627393713DIRECCION GENERAL DE CULTURA Y000000013000000000000000000000000000000000000000000000000000000000000000000000000000000000000000000000000000000000000000PES00010000001000000000000000000000000
202311150060000600000000000000003066000000000000000030668000000000033637617449ADMINISTRACION NACIONAL DE LA 000000005240000000000000000000000000000000000000000000000000000000000000000000000000000000000000000000000000000000000000PES00010000001000000000000000000000000
202311150060000600000000000000003067000000000000000030678000000000030654207689FUNDACION DEL HOSPITAL DEL NI#000000016600000000000000000000000000000000000000000000000000000000000000000000000000000000000000000000000000000000000000PES00010000001000000000000000000000000
202311150010000600000000000000001477000000000000000014778000000000030657864281CAMUZZI GAS PAMPEANA S A      000000003190037000000000000000000000000000000000000000000000000000000000000000000000000000000000000000000000000000000000PES00010000001000000000000000000000000
202311150010000600000000000000001478000000000000000014788000000000030657864281CAMUZZI GAS PAMPEANA S A      000000001730005000000000000000000000000000000000000000000000000000000000000000000000000000000000000000000000000000000000PES00010000001000000000000000000000000
202311160060000600000000000000003068000000000000000030688000000000030546666707UNIVERSIDAD NACIONAL DE LA PLA000000012000000000000000000000000000000000000000000000000000000000000000000000000000000000000000000000000000000000000000PES00010000001000000000000000000000000
202311160060000600000000000000003069000000000000000030698000000000030638438514H CAMARA DE DIPUTADOS PCIA BS 000000210645000000000000000000000000000000000000000000000000000000000000000000000000000000000000000000000000000000000000PES00010000001000000000000000000000000
202311160060000600000000000000003070000000000000000030708000000000030708499044INSTITUTO CULTURAL DE LA PROV 000000014500000000000000000000000000000000000000000000000000000000000000000000000000000000000000000000000000000000000000PES00010000001000000000000000020231216
202311170060000600000000000000003071000000000000000030718000000000030715904817ORGANISMO PROVINCIAL DE INTEGR000000032200000000000000000000000000000000000000000000000000000000000000000000000000000000000000000000000000000000000000PES00010000001000000000000000000000000
202311170060000600000000000000003072000000000000000030728000000000030546666707UNIVERSIDAD NACIONAL DE LA PLA000000001380000000000000000000000000000000000000000000000000000000000000000000000000000000000000000000000000000000000000PES00010000001000000000000000000000000
202311210060000600000000000000003073000000000000000030738000000000030627393713DIRECCION GENERAL DE CULTURA Y000000137250000000000000000000000000000000000000000000000000000000000000000000000000000000000000000000000000000000000000PES00010000001000000000000000000000000
202311210060000600000000000000003074000000000000000030748000000000030627393713DIRECCION GENERAL DE CULTURA Y000000056000000000000000000000000000000000000000000000000000000000000000000000000000000000000000000000000000000000000000PES00010000001000000000000000000000000
202311220010000600000000000000001479000000000000000014798000000000030529881769AGREMIACION BONAERENSE EMPLEAD000000100000000000000000000000000000000000000000000000000000000000000000000000000000000000000000000000000000000000000000PES00010000001000000000000000000000000
202311230060000600000000000000003075000000000000000030758000000000030627393713DIRECCION GENERAL DE CULTURA Y000000063000000000000000000000000000000000000000000000000000000000000000000000000000000000000000000000000000000000000000PES00010000001000000000000000000000000
202311230060000600000000000000003076000000000000000030768000000000030710100140CENTRO CIENTIFICO TECNOLOGICO 000000025000000000000000000000000000000000000000000000000000000000000000000000000000000000000000000000000000000000000000PES00010000001000000000000000000000000
202311230080000600000000000000000291000000000000000002918000000000030627393713DIRECCION GENERAL DE CULTURA Y000000056000000000000000000000000000000000000000000000000000000000000000000000000000000000000000000000000000000000000000PES00010000001000000000000000000000000
202311230060000600000000000000003077000000000000000030778000000000030627393713DIRECCION GENERAL DE CULTURA Y000000056000000000000000000000000000000000000000000000000000000000000000000000000000000000000000000000000000000000000000PES00010000001000000000000000000000000
202311230060000600000000000000003078000000000000000030788000000000030546666707UNIVERSIDAD NACIONAL DE LA PLA000000002160000000000000000000000000000000000000000000000000000000000000000000000000000000000000000000000000000000000000PES00010000001000000000000000000000000
202311240060000600000000000000003079000000000000000030798000000000030546666707UNIVERSIDAD NACIONAL DE LA PLA000000039600000000000000000000000000000000000000000000000000000000000000000000000000000000000000000000000000000000000000PES00010000001000000000000000000000000
202311240060000600000000000000003080000000000000000030808000000000030638438514H CAMARA DE DIPUTADOS PCIA BS 000000223651000000000000000000000000000000000000000000000000000000000000000000000000000000000000000000000000000000000000PES00010000001000000000000000000000000
202311240060000600000000000000003081000000000000000030818000000000030999057167MINISTERIO DE PRODUCCION CIENC000000180000000000000000000000000000000000000000000000000000000000000000000000000000000000000000000000000000000000000000PES00010000001000000000000000000000000
202311250010000600000000000000001480000000000000000014808000000000030529881769AGREMIACION BONAERENSE EMPLEAD000000344800000000000000000000000000000000000000000000000000000000000000000000000000000000000000000000000000000000000000PES00010000001000000000000000000000000
202311270060000600000000000000003082000000000000000030828000000000030717321231JEFATURA DE ASESORES DEL GOBER000000047946290000000000000000000000000000000000000000000000000000000000000000000000000000000000000000000000000000000000PES00010000001000000000000000000000000
202311270060000600000000000000003083000000000000000030838000000000030710100140CENTRO CIENTIFICO TECNOLOGICO 000000004800000000000000000000000000000000000000000000000000000000000000000000000000000000000000000000000000000000000000PES00010000001000000000000000000000000
202311280060000600000000000000003084000000000000000030848000000000030627393713DIRECCION GENERAL DE CULTURA Y000000056000000000000000000000000000000000000000000000000000000000000000000000000000000000000000000000000000000000000000PES00010000001000000000000000000000000
202311280010000600000000000000001481000000000000000014818000000000030544640212LABORATORIO ELEA PHOENIX S A  000000015000000000000000000000000000000000000000000000000000000000000000000000000000000000000000000000000000000000000000PES00010000001000000000000000000000000
202311280060000600000000000000003085000000000000000030858000000000030708499044INSTITUTO CULTURAL DE LA PROV 000000012310000000000000000000000000000000000000000000000000000000000000000000000000000000000000000000000000000000000000PES00010000001000000000000000020231228
202311280060000600000000000000003086000000000000000030868000000000030708499044INSTITUTO CULTURAL DE LA PROV 000000013110000000000000000000000000000000000000000000000000000000000000000000000000000000000000000000000000000000000000PES00010000001000000000000000020231128
202311280080000600000000000000000292000000000000000002928000000000030708499044INSTITUTO CULTURAL DE LA PROV 000000013110000000000000000000000000000000000000000000000000000000000000000000000000000000000000000000000000000000000000PES00010000001000000000000000020231128
202311280080000600000000000000000293000000000000000002938000000000030708499044INSTITUTO CULTURAL DE LA PROV 000000013110000000000000000000000000000000000000000000000000000000000000000000000000000000000000000000000000000000000000PES00010000001000000000000000020231128
202311300060000600000000000000003087000000000000000030878000000000030546666707UNIVERSIDAD NACIONAL DE LA PLA000000012000000000000000000000000000000000000000000000000000000000000000000000000000000000000000000000000000000000000000PES00010000001000000000000000000000000
