202508040010000600000000000000001849000000000000000018498000000000033684877319IDYTAC SA                     000000020000000000000000000000000000000000000000000000000000000000000000000000000000000000000000000000000000000000000000PES00010000001000000000000000000000000
202508050060000600000000000000004028000000000000000040288000000000030627393713DIRECCION GENERAL DE CULTURA Y000000275500000000000000000000000000000000000000000000000000000000000000000000000000000000000000000000000000000000000000PES00010000001000000000000000000000000
202508050010000600000000000000001850000000000000000018508000000000030657864281CAMUZZI GAS PAMPEANA S A      000000017120019000000000000000000000000000000000000000000000000000000000000000000000000000000000000000000000000000000000PES00010000001000000000000000000000000
202508050060000600000000000000004029000000000000000040298000000000030546666707UNIVERSIDAD NACIONAL DE LA PLA000000028100000000000000000000000000000000000000000000000000000000000000000000000000000000000000000000000000000000000000PES00010000001000000000000000000000000
202508050060000600000000000000004030000000000000000040308000000000030677980032FUNDACION DE LA FACULTAD DE IN000000003240000000000000000000000000000000000000000000000000000000000000000000000000000000000000000000000000000000000000PES00010000001000000000000000000000000
202508050010000600000000000000001851000000000000000018518000000000020161796981SAUCEDO MARCELO GABRIEL       000000011000001000000000000000000000000000000000000000000000000000000000000000000000000000000000000000000000000000000000PES00010000001000000000000000000000000
202508060060000600000000000000004031000000000000000040318000000000030627393713DIRECCION GENERAL DE CULTURA Y000000089100000000000000000000000000000000000000000000000000000000000000000000000000000000000000000000000000000000000000PES00010000001000000000000000000000000
202508060060000600000000000000004032000000000000000040328000000000030627393713DIRECCION GENERAL DE CULTURA Y000000074000000000000000000000000000000000000000000000000000000000000000000000000000000000000000000000000000000000000000PES00010000001000000000000000000000000
202508060060000600000000000000004033000000000000000040338000000000030546666707UNIVERSIDAD NACIONAL DE LA PLA000000037500000000000000000000000000000000000000000000000000000000000000000000000000000000000000000000000000000000000000PES00010000001000000000000000000000000
202508060060000600000000000000004034000000000000000040348000000000030546666707UNIVERSIDAD NACIONAL DE LA PLA000000055000000000000000000000000000000000000000000000000000000000000000000000000000000000000000000000000000000000000000PES00010000001000000000000000000000000
202508060010000600000000000000001852000000000000000018528000000000020247717081JARISZ CHRISTIAN IVAN         000000213260553000000000000000000000000000000000000000000000000000000000000000000000000000000000000000000000000000000000PES00010000001000000000000000000000000
202508070080000600000000000000000464000000000000000004648000000000030627393713DIRECCION GENERAL DE CULTURA Y000000074000000000000000000000000000000000000000000000000000000000000000000000000000000000000000000000000000000000000000PES00010000001000000000000000000000000
202508070060000600000000000000004035000000000000000040358000000000030627393713DIRECCION GENERAL DE CULTURA Y000000074000000000000000000000000000000000000000000000000000000000000000000000000000000000000000000000000000000000000000PES00010000001000000000000000000000000
202508070060000600000000000000004036000000000000000040368000000000030677980032FUNDACION DE LA FACULTAD DE IN000000009720000000000000000000000000000000000000000000000000000000000000000000000000000000000000000000000000000000000000PES00010000001000000000000000000000000
202508070060000600000000000000004037000000000000000040378000000000030546666707UNIVERSIDAD NACIONAL DE LA PLA000000003200000000000000000000000000000000000000000000000000000000000000000000000000000000000000000000000000000000000000PES00010000001000000000000000000000000
202508080060000600000000000000004038000000000000000040388000000000030716742292MINISTERIO DE MUJERES Y DIVERS000000065100000000000000000000000000000000000000000000000000000000000000000000000000000000000000000000000000000000000000PES00010000001000000000000000000000000
202508080060000600000000000000004039000000000000000040398000000000030546666707UNIVERSIDAD NACIONAL DE LA PLA000000040000000000000000000000000000000000000000000000000000000000000000000000000000000000000000000000000000000000000000PES00010000001000000000000000000000000
202508080060000600000000000000004040000000000000000040408000000000030627393713DIRECCION GENERAL DE CULTURA Y000000791800000000000000000000000000000000000000000000000000000000000000000000000000000000000000000000000000000000000000PES00010000001000000000000000000000000
202508090060000600000000000000004041000000000000000040418000000000030715124234MINISTERIO DE GOBIERNO BS.AS. 000000165000000000000000000000000000000000000000000000000000000000000000000000000000000000000000000000000000000000000000PES00010000001000000000000000000000000
202508090060000600000000000000004042000000000000000040428000000000030715124234MINISTERIO DE GOBIERNO BS.AS. 000000249700000000000000000000000000000000000000000000000000000000000000000000000000000000000000000000000000000000000000PES00010000001000000000000000000000000
202508090060000600000000000000004043000000000000000040438000000000030715124234MINISTERIO DE GOBIERNO BS.AS. 000000600000000000000000000000000000000000000000000000000000000000000000000000000000000000000000000000000000000000000000PES00010000001000000000000000000000000
202508090060000600000000000000004044000000000000000040448000000000030627393713DIRECCION GENERAL DE CULTURA Y000000072500000000000000000000000000000000000000000000000000000000000000000000000000000000000000000000000000000000000000PES00010000001000000000000000000000000
202508110060000600000000000000004045000000000000000040458000000000030627393713DIRECCION GENERAL DE CULTURA Y000000217800000000000000000000000000000000000000000000000000000000000000000000000000000000000000000000000000000000000000PES00010000001000000000000000000000000
202508110060000600000000000000004046000000000000000040468000000000033638161309COLEGIO DE MAGISTRADOS Y FUNCI000000047200000000000000000000000000000000000000000000000000000000000000000000000000000000000000000000000000000000000000PES00010000001000000000000000000000000
202508120060000600000000000000004047000000000000000040478000000000030715124234MINISTERIO DE GOBIERNO BS.AS. 000000520000000000000000000000000000000000000000000000000000000000000000000000000000000000000000000000000000000000000000PES00010000001000000000000000000000000
202508130060000600000000000000004048000000000000000040488000000000030707216650PODER JUDICIAL ADMINISTRACION 000000018900000000000000000000000000000000000000000000000000000000000000000000000000000000000000000000000000000000000000PES00010000001000000000000000000000000
202508130060000600000000000000004049000000000000000040498000000000030715124234MINISTERIO DE GOBIERNO BS.AS. 000001507836452000000000000000000000000000000000000000000000000000000000000000000000000000000000000000000000000000000000PES00010000001000000000000000000000000
202508140060000600000000000000004050000000000000000040508000000000030550857061COLEGIO DE FARMACEUTICOS DE LA000000016760000000000000000000000000000000000000000000000000000000000000000000000000000000000000000000000000000000000000PES00010000001000000000000000000000000
202508140060000600000000000000004051000000000000000040518000000000030999268346INSTITUTO PROVINCIAL DE LOTERI000000024000000000000000000000000000000000000000000000000000000000000000000000000000000000000000000000000000000000000000PES00010000001000000000000000000000000
202508180060000600000000000000004052000000000000000040529600000000000031105041CORTES EMILIANO               000000582718600000000000000000000000000000000000000000000000000000000000000000000000000000000000000000000000000000000000PES00010000001000000000000000000000000
202508180080000600000000000000000465000000000000000004659600000000000031105041CORTES EMILIANO               000000582718600000000000000000000000000000000000000000000000000000000000000000000000000000000000000000000000000000000000PES00010000001000000000000000000000000
202508180060000600000000000000004053000000000000000040539600000000000031105041CORTES EMILIANO               000000582718600000000000000000000000000000000000000000000000000000000000000000000000000000000000000000000000000000000000PES00010000001000000000000000000000000
202508190060000600000000000000004054000000000000000040548000000000030546666707UNIVERSIDAD NACIONAL DE LA PLA000000008560000000000000000000000000000000000000000000000000000000000000000000000000000000000000000000000000000000000000PES00010000001000000000000000000000000
202508190060000600000000000000004055000000000000000040558000000000030654207689FUNDACION DEL HOSPITAL DEL NI#000000008500000000000000000000000000000000000000000000000000000000000000000000000000000000000000000000000000000000000000PES00010000001000000000000000000000000
202508190060000600000000000000004056000000000000000040568000000000030627393713DIRECCION GENERAL DE CULTURA Y000000263250000000000000000000000000000000000000000000000000000000000000000000000000000000000000000000000000000000000000PES00010000001000000000000000000000000
202508190060000600000000000000004057000000000000000040578000000000030627393713DIRECCION GENERAL DE CULTURA Y000000315000000000000000000000000000000000000000000000000000000000000000000000000000000000000000000000000000000000000000PES00010000001000000000000000000000000
202508190060000600000000000000004058000000000000000040588000000000030627393713DIRECCION GENERAL DE CULTURA Y000000072500000000000000000000000000000000000000000000000000000000000000000000000000000000000000000000000000000000000000PES00010000001000000000000000000000000
202508190060000600000000000000004059000000000000000040598000000000030627393713DIRECCION GENERAL DE CULTURA Y000000055500000000000000000000000000000000000000000000000000000000000000000000000000000000000000000000000000000000000000PES00010000001000000000000000000000000
202508200010000600000000000000001853000000000000000018538000000000030657877669EMPRESA DISTRIBUIDORA LA PLATA000000015400033000000000000000000000000000000000000000000000000000000000000000000000000000000000000000000000000000000000PES00010000001000000000000000000000000
202508200010000600000000000000001854000000000000000018548000000000030657877669EMPRESA DISTRIBUIDORA LA PLATA000000007080000000000000000000000000000000000000000000000000000000000000000000000000000000000000000000000000000000000000PES00010000001000000000000000000000000
202508200010000600000000000000001855000000000000000018558000000000030657877669EMPRESA DISTRIBUIDORA LA PLATA000000004860001000000000000000000000000000000000000000000000000000000000000000000000000000000000000000000000000000000000PES00010000001000000000000000000000000
202508200010000600000000000000001856000000000000000018568000000000030657877669EMPRESA DISTRIBUIDORA LA PLATA000000007400003000000000000000000000000000000000000000000000000000000000000000000000000000000000000000000000000000000000PES00010000001000000000000000000000000
202508200010000600000000000000001857000000000000000018578000000000030657877669EMPRESA DISTRIBUIDORA LA PLATA000000004500000000000000000000000000000000000000000000000000000000000000000000000000000000000000000000000000000000000000PES00010000001000000000000000000000000
202508200010000600000000000000001858000000000000000018588000000000030657877669EMPRESA DISTRIBUIDORA LA PLATA000000008000000000000000000000000000000000000000000000000000000000000000000000000000000000000000000000000000000000000000PES00010000001000000000000000000000000
202508200010000600000000000000001859000000000000000018598000000000030657877669EMPRESA DISTRIBUIDORA LA PLATA000000004500000000000000000000000000000000000000000000000000000000000000000000000000000000000000000000000000000000000000PES00010000001000000000000000000000000
202508200010000600000000000000001860000000000000000018608000000000030657877669EMPRESA DISTRIBUIDORA LA PLATA000000009100000000000000000000000000000000000000000000000000000000000000000000000000000000000000000000000000000000000000PES00010000001000000000000000000000000
202508200060000600000000000000004060000000000000000040608000000000030627393713DIRECCION GENERAL DE CULTURA Y000000079200000000000000000000000000000000000000000000000000000000000000000000000000000000000000000000000000000000000000PES00010000001000000000000000000000000
202508200060000600000000000000004061000000000000000040618000000000030546666707UNIVERSIDAD NACIONAL DE LA PLA000000040000000000000000000000000000000000000000000000000000000000000000000000000000000000000000000000000000000000000000PES00010000001000000000000000000000000
202508200060000600000000000000004062000000000000000040628000000000030707216669PODER JUDICIAL MINISTERIO PUBL000000028800000000000000000000000000000000000000000000000000000000000000000000000000000000000000000000000000000000000000PES00010000001000000000000000000000000
202508200010000600000000000000001861000000000000000018618000000000030657864281CAMUZZI GAS PAMPEANA S. A.    000000024000078000000000000000000000000000000000000000000000000000000000000000000000000000000000000000000000000000000000PES00010000001000000000000000000000000
202508200010000600000000000000001862000000000000000018628000000000030707919902AGUAS BONAERENSES S.A.        000000008500000000000000000000000000000000000000000000000000000000000000000000000000000000000000000000000000000000000000PES00010000001000000000000000000000000
202508210060000600000000000000004063000000000000000040638000000000030627393713DIRECCION GENERAL DE CULTURA Y000000044400000000000000000000000000000000000000000000000000000000000000000000000000000000000000000000000000000000000000PES00010000001000000000000000000000000
202508210060000600000000000000004064000000000000000040648000000000030627393713DIRECCION GENERAL DE CULTURA Y000000260000000000000000000000000000000000000000000000000000000000000000000000000000000000000000000000000000000000000000PES00010000001000000000000000000000000
202508210010000600000000000000001863000000000000000018638000000000030559880120JOSE ANACLETO E HIJOS S A     000000055180210000000000000000000000000000000000000000000000000000000000000000000000000000000000000000000000000000000000PES00010000001000000000000000000000000
202508210010000600000000000000001864000000000000000018648000000000030709449601INTEL SOFTWARE DE ARGENTINA S.000000192000090000000000000000000000000000000000000000000000000000000000000000000000000000000000000000000000000000000000PES00010000001000000000000000000000000
202508220060000600000000000000004065000000000000000040658000000000030707216669PODER JUDICIAL MINISTERIO PUBL000000048000000000000000000000000000000000000000000000000000000000000000000000000000000000000000000000000000000000000000PES00010000001000000000000000000000000
202508220060000600000000000000004066000000000000000040668000000000030707216669PODER JUDICIAL MINISTERIO PUBL000000057000000000000000000000000000000000000000000000000000000000000000000000000000000000000000000000000000000000000000PES00010000001000000000000000000000000
202508230060000600000000000000004067000000000000000040678000000000030627393713DIRECCION GENERAL DE CULTURA Y000000213440000000000000000000000000000000000000000000000000000000000000000000000000000000000000000000000000000000000000PES00010000001000000000000000000000000
202508230060000600000000000000004068000000000000000040688000000000030627393713DIRECCION GENERAL DE CULTURA Y000000214180000000000000000000000000000000000000000000000000000000000000000000000000000000000000000000000000000000000000PES00010000001000000000000000000000000
202508230060000600000000000000004069000000000000000040698000000000030627393713DIRECCION GENERAL DE CULTURA Y000000072500000000000000000000000000000000000000000000000000000000000000000000000000000000000000000000000000000000000000PES00010000001000000000000000000000000
202508230010000600000000000000001865000000000000000018658000000000027225988795NINA MARIA LAURA              000000067500009000000000000000000000000000000000000000000000000000000000000000000000000000000000000000000000000000000000PES00010000001000000000000000000000000
202508230010000600000000000000001866000000000000000018668000000000027225988795NINA MARIA LAURA              000000076800026000000000000000000000000000000000000000000000000000000000000000000000000000000000000000000000000000000000PES00010000001000000000000000000000000
202508250060000600000000000000004070000000000000000040708000000000030546666561UNIVERSIDAD DE BUENOS AIRES   000000168000000000000000000000000000000000000000000000000000000000000000000000000000000000000000000000000000000000000000PES00010000001000000000000000000000000
202508250060000600000000000000004071000000000000000040719600000000000031105041CORTES EMILIANO               000000582718600000000000000000000000000000000000000000000000000000000000000000000000000000000000000000000000000000000000PES00010000001000000000000000000000000
202508250080000600000000000000000466000000000000000004669600000000000031105041CORTES EMILIANO               000000582718600000000000000000000000000000000000000000000000000000000000000000000000000000000000000000000000000000000000PES00010000001000000000000000000000000
202508250010000600000000000000001867000000000000000018678000000000030657864281CAMUZZI GAS PAMPEANA S. A.    000000029100088000000000000000000000000000000000000000000000000000000000000000000000000000000000000000000000000000000000PES00010000001000000000000000000000000
202508250010000600000000000000001868000000000000000018688000000000030657864281CAMUZZI GAS PAMPEANA S. A.    000000032600105000000000000000000000000000000000000000000000000000000000000000000000000000000000000000000000000000000000PES00010000001000000000000000000000000
202508250060000600000000000000004072000000000000000040728000000000030627393713DIRECCION GENERAL DE CULTURA Y000000101600000000000000000000000000000000000000000000000000000000000000000000000000000000000000000000000000000000000000PES00010000001000000000000000000000000
202508260060000600000000000000004073000000000000000040738000000000030546666707UNIVERSIDAD NACIONAL DE LA PLA000000006560000000000000000000000000000000000000000000000000000000000000000000000000000000000000000000000000000000000000PES00010000001000000000000000000000000
202508260060000600000000000000004074000000000000000040748000000000033638161309COLEGIO DE MAGISTRADOS Y FUNCI000000007480000000000000000000000000000000000000000000000000000000000000000000000000000000000000000000000000000000000000PES00010000001000000000000000000000000
202508270060000600000000000000004075000000000000000040758000000000030627393713DIRECCION GENERAL DE CULTURA Y000000694700000000000000000000000000000000000000000000000000000000000000000000000000000000000000000000000000000000000000PES00010000001000000000000000000000000
202508270060000600000000000000004076000000000000000040768000000000030716742292MINISTERIO DE MUJERES Y DIVERS000000042000000000000000000000000000000000000000000000000000000000000000000000000000000000000000000000000000000000000000PES00010000001000000000000000020250926
202508270010000600000000000000001869000000000000000018698000000000033593283319CORREGIDOR SA                 000000137337600000000000000000000000000000000000000000000000000000000000000000000000000000000000000000000000000000000000PES00010000001000000000000000000000000
202508280060000600000000000000004077000000000000000040778000000000030717462021ORGANISMO PROVINCIAL DE LA NIÑ000000030000000000000000000000000000000000000000000000000000000000000000000000000000000000000000000000000000000000000000PES00010000001000000000000000000000000
202508280010000600000000000000001870000000000000000018708000000000027225988795NINA MARIA LAURA              000000128000044000000000000000000000000000000000000000000000000000000000000000000000000000000000000000000000000000000000PES00010000001000000000000000000000000
202508290030000600000000000000000081000000000000000000818000000000030559880120JOSE ANACLETO E HIJOS S A     000000055180210000000000000000000000000000000000000000000000000000000000000000000000000000000000000000000000000000000000PES00010000001000000000000000000000000
202508290010000600000000000000001871000000000000000018718000000000030540721722ROWA S A                      000000055180210000000000000000000000000000000000000000000000000000000000000000000000000000000000000000000000000000000000PES00010000001000000000000000000000000
