202510010060000600000000000000004109000000000000000041098000000000030550857061COLEGIO DE FARMACEUTICOS DE LA000000237750000000000000000000000000000000000000000000000000000000000000000000000000000000000000000000000000000000000000PES00010000001000000000000000000000000
202510010060000600000000000000004110000000000000000041108000000000030677972463JUNTA ELECTORAL PCIA DE BUENOS000000186000000000000000000000000000000000000000000000000000000000000000000000000000000000000000000000000000000000000000PES00010000001000000000000000000000000
202510010060000600000000000000004111000000000000000041118000000000030627393713DIRECCION GENERAL DE CULTURA Y000001716400000000000000000000000000000000000000000000000000000000000000000000000000000000000000000000000000000000000000PES00010000001000000000000000000000000
202510010060000600000000000000004112000000000000000041128000000000030627393713DIRECCION GENERAL DE CULTURA Y000000181300000000000000000000000000000000000000000000000000000000000000000000000000000000000000000000000000000000000000PES00010000001000000000000000000000000
202510010060000600000000000000004113000000000000000041138000000000030627393713DIRECCION GENERAL DE CULTURA Y000000059200000000000000000000000000000000000000000000000000000000000000000000000000000000000000000000000000000000000000PES00010000001000000000000000000000000
202510020010000600000000000000001895000000000000000018958000000000027206366279VILLAVERDE LAURA SILVINA      000000090000001000000000000000000000000000000000000000000000000000000000000000000000000000000000000000000000000000000000PES00010000001000000000000000000000000
202510030060000600000000000000004114000000000000000041148000000000030677972463JUNTA ELECTORAL PCIA DE BUENOS000000005400000000000000000000000000000000000000000000000000000000000000000000000000000000000000000000000000000000000000PES00010000001000000000000000000000000
202510040060000600000000000000004115000000000000000041158000000000030627393713DIRECCION GENERAL DE CULTURA Y000000188300000000000000000000000000000000000000000000000000000000000000000000000000000000000000000000000000000000000000PES00010000001000000000000000000000000
202510040060000600000000000000004116000000000000000041168000000000030627393713DIRECCION GENERAL DE CULTURA Y000000086080000000000000000000000000000000000000000000000000000000000000000000000000000000000000000000000000000000000000PES00010000001000000000000000000000000
202510040060000600000000000000004117000000000000000041178000000000030627393713DIRECCION GENERAL DE CULTURA Y000000033040000000000000000000000000000000000000000000000000000000000000000000000000000000000000000000000000000000000000PES00010000001000000000000000000000000
202510040060000600000000000000004118000000000000000041188000000000030627393713DIRECCION GENERAL DE CULTURA Y000000096000000000000000000000000000000000000000000000000000000000000000000000000000000000000000000000000000000000000000PES00010000001000000000000000000000000
202510040060000600000000000000004119000000000000000041198000000000030627393713DIRECCION GENERAL DE CULTURA Y000000288000000000000000000000000000000000000000000000000000000000000000000000000000000000000000000000000000000000000000PES00010000001000000000000000000000000
202510060060000600000000000000004120000000000000000041208000000000030546666707UNIVERSIDAD NACIONAL DE LA PLA000000001600000000000000000000000000000000000000000000000000000000000000000000000000000000000000000000000000000000000000PES00010000001000000000000000000000000
202510110060000600000000000000004121000000000000000041218000000000030626983398MINISTERIO DE SALUD PCIA DE BS000000713000000000000000000000000000000000000000000000000000000000000000000000000000000000000000000000000000000000000000PES00010000001000000000000000000000000
202510130080000600000000000000000469000000000000000004698000000000030546666707UNIVERSIDAD NACIONAL DE LA PLA000000096480000000000000000000000000000000000000000000000000000000000000000000000000000000000000000000000000000000000000PES00010000001000000000000000000000000
202510130060000600000000000000004122000000000000000041228000000000030546666707UNIVERSIDAD NACIONAL DE LA PLA000000036480000000000000000000000000000000000000000000000000000000000000000000000000000000000000000000000000000000000000PES00010000001000000000000000000000000
202510140060000600000000000000004123000000000000000041238000000000030627393713DIRECCION GENERAL DE CULTURA Y000001443600000000000000000000000000000000000000000000000000000000000000000000000000000000000000000000000000000000000000PES00010000001000000000000000000000000
202510150060000600000000000000004124000000000000000041248000000000030627393713DIRECCION GENERAL DE CULTURA Y000000118030000000000000000000000000000000000000000000000000000000000000000000000000000000000000000000000000000000000000PES00010000001000000000000000000000000
202510150060000600000000000000004125000000000000000041258000000000030627393713DIRECCION GENERAL DE CULTURA Y000000033830000000000000000000000000000000000000000000000000000000000000000000000000000000000000000000000000000000000000PES00010000001000000000000000000000000
202510150010000600000000000000001896000000000000000018968000000000027225988795NINA MARIA LAURA              000000361400027000000000000000000000000000000000000000000000000000000000000000000000000000000000000000000000000000000000PES00010000001000000000000000000000000
202510150060000600000000000000004126000000000000000041268000000000030627393713DIRECCION GENERAL DE CULTURA Y000001050000000000000000000000000000000000000000000000000000000000000000000000000000000000000000000000000000000000000000PES00010000001000000000000000000000000
202510150010000600000000000000001897000000000000000018978000000000030707919902AGUAS BONAERENSES S.A.        000000012000027000000000000000000000000000000000000000000000000000000000000000000000000000000000000000000000000000000000PES00010000001000000000000000000000000
202510150010000600000000000000001898000000000000000018988000000000030707919902AGUAS BONAERENSES S.A.        000000012000027000000000000000000000000000000000000000000000000000000000000000000000000000000000000000000000000000000000PES00010000001000000000000000000000000
202510150060000600000000000000004127000000000000000041278000000000030627393713DIRECCION GENERAL DE CULTURA Y000000147200000000000000000000000000000000000000000000000000000000000000000000000000000000000000000000000000000000000000PES00010000001000000000000000000000000
202510150060000600000000000000004128000000000000000041288000000000030627393713DIRECCION GENERAL DE CULTURA Y000000162435000000000000000000000000000000000000000000000000000000000000000000000000000000000000000000000000000000000000PES00010000001000000000000000000000000
202510150060000600000000000000004129000000000000000041298000000000030627393713DIRECCION GENERAL DE CULTURA Y000000072500000000000000000000000000000000000000000000000000000000000000000000000000000000000000000000000000000000000000PES00010000001000000000000000000000000
202510150060000600000000000000004130000000000000000041308000000000030627393713DIRECCION GENERAL DE CULTURA Y000000141000000000000000000000000000000000000000000000000000000000000000000000000000000000000000000000000000000000000000PES00010000001000000000000000000000000
202510150080000600000000000000000470000000000000000004708000000000030627393713DIRECCION GENERAL DE CULTURA Y000000288000000000000000000000000000000000000000000000000000000000000000000000000000000000000000000000000000000000000000PES00010000001000000000000000000000000
202510150060000600000000000000004131000000000000000041318000000000030627393713DIRECCION GENERAL DE CULTURA Y000000288000000000000000000000000000000000000000000000000000000000000000000000000000000000000000000000000000000000000000PES00010000001000000000000000000000000
202510150060000600000000000000004132000000000000000041328000000000030627393713DIRECCION GENERAL DE CULTURA Y000000168000000000000000000000000000000000000000000000000000000000000000000000000000000000000000000000000000000000000000PES00010000001000000000000000000000000
202510160060000600000000000000004133000000000000000041338000000000030627393713DIRECCION GENERAL DE CULTURA Y000000118400000000000000000000000000000000000000000000000000000000000000000000000000000000000000000000000000000000000000PES00010000001000000000000000000000000
202510170060000600000000000000004134000000000000000041348000000000030654207689FUNDACION DEL HOSPITAL DEL NI#000000013500000000000000000000000000000000000000000000000000000000000000000000000000000000000000000000000000000000000000PES00010000001000000000000000000000000
202510200080000600000000000000000471000000000000000004718000000000030627393713DIRECCION GENERAL DE CULTURA Y000000125580000000000000000000000000000000000000000000000000000000000000000000000000000000000000000000000000000000000000PES00010000001000000000000000000000000
202510200060000600000000000000004135000000000000000041358000000000030627393713DIRECCION GENERAL DE CULTURA Y000000125580000000000000000000000000000000000000000000000000000000000000000000000000000000000000000000000000000000000000PES00010000001000000000000000000000000
202510200060000600000000000000004136000000000000000041368000000000030715124234MINISTERIO DE GOBIERNO BS.AS. 000000875000000000000000000000000000000000000000000000000000000000000000000000000000000000000000000000000000000000000000PES00010000001000000000000000000000000
202510200060000600000000000000004137000000000000000041378000000000030546666707UNIVERSIDAD NACIONAL DE LA PLA000000168000000000000000000000000000000000000000000000000000000000000000000000000000000000000000000000000000000000000000PES00010000001000000000000000000000000
202510200060000600000000000000004138000000000000000041388000000000030715904817ORGANISMO PROVINCIAL DE INTEGR000000092000000000000000000000000000000000000000000000000000000000000000000000000000000000000000000000000000000000000000PES00010000001000000000000000000000000
202510200060000600000000000000004139000000000000000041398000000000030715904817ORGANISMO PROVINCIAL DE INTEGR000000116000000000000000000000000000000000000000000000000000000000000000000000000000000000000000000000000000000000000000PES00010000001000000000000000000000000
202510200060000600000000000000004140000000000000000041408000000000030716742292MINISTERIO DE MUJERES Y DIVERS000000013500000000000000000000000000000000000000000000000000000000000000000000000000000000000000000000000000000000000000PES00010000001000000000000000000000000
202510200060000600000000000000004141000000000000000041418000000000030707216669PODER JUDICIAL MINISTERIO PUBL000000080000000000000000000000000000000000000000000000000000000000000000000000000000000000000000000000000000000000000000PES00010000001000000000000000000000000
202510210010000600000000000000001899000000000000000018998000000000030520912963TAIUTI CONSTRUCCIONES S C A   000000151685100000000000000000000000000000000000000000000000000000000000000000000000000000000000000000000000000000000000PES00010000001000000000000000000000000
202510220060000600000000000000004142000000000000000041428000000000030643908995FUNDACION CIENCIAS EXACTAS    000000752000000000000000000000000000000000000000000000000000000000000000000000000000000000000000000000000000000000000000PES00010000001000000000000000000000000
202510220010000600000000000000001900000000000000000019008000000000030588092468ENRIQUE MARTIN ROSSI S A      000000050000000000000000000000000000000000000000000000000000000000000000000000000000000000000000000000000000000000000000PES00010000001000000000000000000000000
202510230060000600000000000000004143000000000000000041438000000000030627393713DIRECCION GENERAL DE CULTURA Y000000168000000000000000000000000000000000000000000000000000000000000000000000000000000000000000000000000000000000000000PES00010000001000000000000000000000000
202510230060000600000000000000004144000000000000000041448000000000030627393713DIRECCION GENERAL DE CULTURA Y000000409200000000000000000000000000000000000000000000000000000000000000000000000000000000000000000000000000000000000000PES00010000001000000000000000000000000
202510230060000600000000000000004145000000000000000041458000000000030715124234MINISTERIO DE GOBIERNO BS.AS. 000001400000000000000000000000000000000000000000000000000000000000000000000000000000000000000000000000000000000000000000PES00010000001000000000000000000000000
202510230060000600000000000000004146000000000000000041468000000000030622978268COLEGIO DE TECNICOS DE LA PROV000000144000000000000000000000000000000000000000000000000000000000000000000000000000000000000000000000000000000000000000PES00010000001000000000000000000000000
202510230060000600000000000000004147000000000000000041478000000000030550857061COLEGIO DE FARMACEUTICOS DE LA000000325000000000000000000000000000000000000000000000000000000000000000000000000000000000000000000000000000000000000000PES00010000001000000000000000000000000
202510230060000600000000000000004148000000000000000041488000000000030627393713DIRECCION GENERAL DE CULTURA Y000000858600000000000000000000000000000000000000000000000000000000000000000000000000000000000000000000000000000000000000PES00010000001000000000000000000000000
202510240080000600000000000000000472000000000000000004728000000000030716742292MINISTERIO DE MUJERES Y DIVERS000000013500000000000000000000000000000000000000000000000000000000000000000000000000000000000000000000000000000000000000PES00010000001000000000000000000000000
202510240060000600000000000000004149000000000000000041498000000000030716742292MINISTERIO DE MUJERES Y DIVERS000000013500000000000000000000000000000000000000000000000000000000000000000000000000000000000000000000000000000000000000PES00010000001000000000000000000000000
202510240010000600000000000000001901000000000000000019018000000000027225988795NINA MARIA LAURA              000000025600009000000000000000000000000000000000000000000000000000000000000000000000000000000000000000000000000000000000PES00010000001000000000000000000000000
202510240010000600000000000000001902000000000000000019028000000000027225988795NINA MARIA LAURA              000000134400082000000000000000000000000000000000000000000000000000000000000000000000000000000000000000000000000000000000PES00010000001000000000000000000000000
202510240060000600000000000000004150000000000000000041508000000000030627393713DIRECCION GENERAL DE CULTURA Y000000076692820000000000000000000000000000000000000000000000000000000000000000000000000000000000000000000000000000000000PES00010000001000000000000000000000000
202510270060000600000000000000004151000000000000000041518000000000030546666707UNIVERSIDAD NACIONAL DE LA PLA000000007200000000000000000000000000000000000000000000000000000000000000000000000000000000000000000000000000000000000000PES00010000001000000000000000000000000
202510270060000600000000000000004152000000000000000041528000000000030999268346INSTITUTO PROVINCIAL DE LOTERI000000024000000000000000000000000000000000000000000000000000000000000000000000000000000000000000000000000000000000000000PES00010000001000000000000000000000000
202510270010000600000000000000001903000000000000000019038000000000030709314978CIRUGIA J.F. S.A.             000000092400043000000000000000000000000000000000000000000000000000000000000000000000000000000000000000000000000000000000PES00010000001000000000000000000000000
202510270080000600000000000000000473000000000000000004738000000000030627393713DIRECCION GENERAL DE CULTURA Y000000181300000000000000000000000000000000000000000000000000000000000000000000000000000000000000000000000000000000000000PES00010000001000000000000000000000000
202510270080000600000000000000000474000000000000000004748000000000030627393713DIRECCION GENERAL DE CULTURA Y000000163205000000000000000000000000000000000000000000000000000000000000000000000000000000000000000000000000000000000000PES00010000001000000000000000000000000
202510270060000600000000000000004153000000000000000041538000000000030627393713DIRECCION GENERAL DE CULTURA Y000000344505000000000000000000000000000000000000000000000000000000000000000000000000000000000000000000000000000000000000PES00010000001000000000000000000000000
202510280080000600000000000000000475000000000000000004758000000000030627393713DIRECCION GENERAL DE CULTURA Y000000079170000000000000000000000000000000000000000000000000000000000000000000000000000000000000000000000000000000000000PES00010000001000000000000000000000000
202510280060000600000000000000004154000000000000000041548000000000030627393713DIRECCION GENERAL DE CULTURA Y000000079170000000000000000000000000000000000000000000000000000000000000000000000000000000000000000000000000000000000000PES00010000001000000000000000000000000
202510280060000600000000000000004155000000000000000041559600000000000018432738ALVAREZ FABIANA EDITH         000000019000000000000000000000000000000000000000000000000000000000000000000000000000000000000000000000000000000000000000PES00010000001000000000000000000000000
202510300060000600000000000000004156000000000000000041568000000000030715124234MINISTERIO DE GOBIERNO BS.AS. 000001670685000000000000000000000000000000000000000000000000000000000000000000000000000000000000000000000000000000000000PES00010000001000000000000000000000000
202510300010000600000000000000001904000000000000000019048000000000030657877669EMPRESA DISTRIBUIDORA LA PLATA000000052040002000000000000000000000000000000000000000000000000000000000000000000000000000000000000000000000000000000000PES00010000001000000000000000000000000
202510300010000600000000000000001905000000000000000019058000000000030657877669EMPRESA DISTRIBUIDORA LA PLATA000000107600003000000000000000000000000000000000000000000000000000000000000000000000000000000000000000000000000000000000PES00010000001000000000000000000000000
202510300010000600000000000000001906000000000000000019068000000000030657877669EMPRESA DISTRIBUIDORA LA PLATA000000158500004000000000000000000000000000000000000000000000000000000000000000000000000000000000000000000000000000000000PES00010000001000000000000000000000000
202510300060000600000000000000004157000000000000000041578000000000030707216669PODER JUDICIAL MINISTERIO PUBL000000024750000000000000000000000000000000000000000000000000000000000000000000000000000000000000000000000000000000000000PES00010000001000000000000000000000000
202510300030000600000000000000000083000000000000000000838000000000030657877669EMPRESA DISTRIBUIDORA LA PLATA000000052040002000000000000000000000000000000000000000000000000000000000000000000000000000000000000000000000000000000000PES00010000001000000000000000000000000
202510300010000600000000000000001907000000000000000019078000000000030657877669EMPRESA DISTRIBUIDORA LA PLATA000000040040001000000000000000000000000000000000000000000000000000000000000000000000000000000000000000000000000000000000PES00010000001000000000000000000000000
202510300080000600000000000000000476000000000000000004768000000000030626983398MINISTERIO DE SALUD PCIA DE BS000000713000000000000000000000000000000000000000000000000000000000000000000000000000000000000000000000000000000000000000PES00010000001000000000000000000000000
202510300060000600000000000000004158000000000000000041588000000000030626983398MINISTERIO DE SALUD PCIA DE BS000000713000000000000000000000000000000000000000000000000000000000000000000000000000000000000000000000000000000000000000PES00010000001000000000000000000000000
202510300060000600000000000000004159000000000000000041598000000000030627393713DIRECCION GENERAL DE CULTURA Y000000076692820000000000000000000000000000000000000000000000000000000000000000000000000000000000000000000000000000000000PES00010000001000000000000000000000000
202510300060000600000000000000004160000000000000000041608000000000030627393713DIRECCION GENERAL DE CULTURA Y000001310166898000000000000000000000000000000000000000000000000000000000000000000000000000000000000000000000000000000000PES00010000001000000000000000000000000
202510300060000600000000000000004161000000000000000041618000000000030627393713DIRECCION GENERAL DE CULTURA Y000000316567251000000000000000000000000000000000000000000000000000000000000000000000000000000000000000000000000000000000PES00010000001000000000000000000000000
202510300060000600000000000000004162000000000000000041628000000000030627393713DIRECCION GENERAL DE CULTURA Y000000656400000000000000000000000000000000000000000000000000000000000000000000000000000000000000000000000000000000000000PES00010000001000000000000000000000000
202510310060000600000000000000004163000000000000000041638000000000030627393713DIRECCION GENERAL DE CULTURA Y000000193648560000000000000000000000000000000000000000000000000000000000000000000000000000000000000000000000000000000000PES00010000001000000000000000000000000
202510310060000600000000000000004164000000000000000041648000000000030627393713DIRECCION GENERAL DE CULTURA Y000000316567251000000000000000000000000000000000000000000000000000000000000000000000000000000000000000000000000000000000PES00010000001000000000000000000000000
202510310060000600000000000000004165000000000000000041658000000000030627393713DIRECCION GENERAL DE CULTURA Y000000300000000000000000000000000000000000000000000000000000000000000000000000000000000000000000000000000000000000000000PES00010000001000000000000000000000000
202510310060000600000000000000004166000000000000000041668000000000030546666707UNIVERSIDAD NACIONAL DE LA PLA000000038000000000000000000000000000000000000000000000000000000000000000000000000000000000000000000000000000000000000000PES00010000001000000000000000000000000
202510310060000600000000000000004167000000000000000041678000000000030546666707UNIVERSIDAD NACIONAL DE LA PLA000000039500000000000000000000000000000000000000000000000000000000000000000000000000000000000000000000000000000000000000PES00010000001000000000000000000000000
202510310030000600000000000000000084000000000000000000848000000000027225988795NINA MARIA LAURA              000000361400027000000000000000000000000000000000000000000000000000000000000000000000000000000000000000000000000000000000PES00010000001000000000000000000000000
202510310010000600000000000000001908000000000000000019088000000000027225988795NINA MARIA LAURA              000000309400096000000000000000000000000000000000000000000000000000000000000000000000000000000000000000000000000000000000PES00010000001000000000000000000000000
202510310010000600000000000000001909000000000000000019098000000000027225988795NINA MARIA LAURA              000000124800039000000000000000000000000000000000000000000000000000000000000000000000000000000000000000000000000000000000PES00010000001000000000000000000000000
202510310010000600000000000000001910000000000000000019108000000000027225988795NINA MARIA LAURA              000000119600037000000000000000000000000000000000000000000000000000000000000000000000000000000000000000000000000000000000PES00010000001000000000000000000000000
202510310010000600000000000000001911000000000000000019118000000000033593283319CORREGIDOR SA                 000000071654400000000000000000000000000000000000000000000000000000000000000000000000000000000000000000000000000000000000PES00010000001000000000000000000000000
202510310010000600000000000000001912000000000000000019128000000000033593283319CORREGIDOR SA                 000000177643200000000000000000000000000000000000000000000000000000000000000000000000000000000000000000000000000000000000PES00010000001000000000000000000000000
202510310060000600000000000000004168000000000000000041688000000000030708499044INSTITUTO CULTURAL DE LA PROV 000000168000000000000000000000000000000000000000000000000000000000000000000000000000000000000000000000000000000000000000PES00010000001000000000000000020251130
202510310060000600000000000000004169000000000000000041698000000000030708499044INSTITUTO CULTURAL DE LA PROV 000000060000000000000000000000000000000000000000000000000000000000000000000000000000000000000000000000000000000000000000PES00010000001000000000000000020251130
202510310060000600000000000000004170000000000000000041708000000000030708499044INSTITUTO CULTURAL DE LA PROV 000000328780000000000000000000000000000000000000000000000000000000000000000000000000000000000000000000000000000000000000PES00010000001000000000000000020251130
202510310010000600000000000000001913000000000000000019138000000000027225988795NINA MARIA LAURA              000000054000003000000000000000000000000000000000000000000000000000000000000000000000000000000000000000000000000000000000PES00010000001000000000000000000000000
