202511040060000600000000000000004171000000000000000041718000000000030716742292MINISTERIO DE MUJERES Y DIVERS000000083000000000000000000000000000000000000000000000000000000000000000000000000000000000000000000000000000000000000000PES00010000001000000000000000000000000
202511040080000600000000000000000477000000000000000004778000000000030627393713DIRECCION GENERAL DE CULTURA Y000000344505000000000000000000000000000000000000000000000000000000000000000000000000000000000000000000000000000000000000PES00010000001000000000000000000000000
202511040060000600000000000000004172000000000000000041728000000000030627393713DIRECCION GENERAL DE CULTURA Y000000344505000000000000000000000000000000000000000000000000000000000000000000000000000000000000000000000000000000000000PES00010000001000000000000000000000000
202511040010000600000000000000001914000000000000000019148000000000030691618389COLOPLAST DE ARGENTINA S A    000000036000001000000000000000000000000000000000000000000000000000000000000000000000000000000000000000000000000000000000PES00010000001000000000000000000000000
202511040060000600000000000000004173000000000000000041738000000000033999242109BANCO DE LA PROVINCIA DE BUENO000000110000000000000000000000000000000000000000000000000000000000000000000000000000000000000000000000000000000000000000PES00010000001000000000000000000000000
202511040060000600000000000000004174000000000000000041748000000000030643908995FUNDACION CIENCIAS EXACTAS    000000150500000000000000000000000000000000000000000000000000000000000000000000000000000000000000000000000000000000000000PES00010000001000000000000000000000000
202511050010000600000000000000001915000000000000000019158000000000030559880120JOSE ANACLETO E HIJOS S A     000000012000001000000000000000000000000000000000000000000000000000000000000000000000000000000000000000000000000000000000PES00010000001000000000000000000000000
202511050060000600000000000000004175000000000000000041758000000000030550857061COLEGIO DE FARMACEUTICOS DE LA000000204800000000000000000000000000000000000000000000000000000000000000000000000000000000000000000000000000000000000000PES00010000001000000000000000000000000
202511050010000600000000000000001916000000000000000019168000000000030707297472TERUMO BCT LATIN AMERICA S.A. 000000105000001000000000000000000000000000000000000000000000000000000000000000000000000000000000000000000000000000000000PES00010000001000000000000000000000000
202511050060000600000000000000004176000000000000000041768000000000030708499044INSTITUTO CULTURAL DE LA PROV 000000111949600000000000000000000000000000000000000000000000000000000000000000000000000000000000000000000000000000000000PES00010000001000000000000000000000000
202511050010000600000000000000001917000000000000000019178000000000030500008454BANCO SANTANDER ARGENTINA SOCI000000019000001000000000000000000000000000000000000000000000000000000000000000000000000000000000000000000000000000000000PES00010000001000000000000000000000000
202511050060000600000000000000004177000000000000000041778000000000030717458342MINISTERIO DE HABITAT Y DESARR000000415150000000000000000000000000000000000000000000000000000000000000000000000000000000000000000000000000000000000000PES00010000001000000000000000000000000
202511050080000600000000000000000478000000000000000004788000000000030643908995FUNDACION CIENCIAS EXACTAS    000000150500000000000000000000000000000000000000000000000000000000000000000000000000000000000000000000000000000000000000PES00010000001000000000000000000000000
202511050060000600000000000000004178000000000000000041788000000000030643908995FUNDACION CIENCIAS EXACTAS    000000100000000000000000000000000000000000000000000000000000000000000000000000000000000000000000000000000000000000000000PES00010000001000000000000000000000000
202511050060000600000000000000004179000000000000000041798000000000030546666707UNIVERSIDAD NACIONAL DE LA PLA000000050000000000000000000000000000000000000000000000000000000000000000000000000000000000000000000000000000000000000000PES00010000001000000000000000000000000
202511050060000600000000000000004180000000000000000041808000000000030546666707UNIVERSIDAD NACIONAL DE LA PLA000000005000000000000000000000000000000000000000000000000000000000000000000000000000000000000000000000000000000000000000PES00010000001000000000000000000000000
202511050060000600000000000000004181000000000000000041818000000000030711581495ASOCIACION ARGENTINA DE RETORI000000036000000000000000000000000000000000000000000000000000000000000000000000000000000000000000000000000000000000000000PES00010000001000000000000000000000000
202511050060000600000000000000004182000000000000000041828000000000030559799536SINDICATO OBRAS SANITARIAS DE 000000147000000000000000000000000000000000000000000000000000000000000000000000000000000000000000000000000000000000000000PES00010000001000000000000000000000000
202511060010000600000000000000001918000000000000000019188000000000030580873274TERAPIA RADIANTE SOCIEDAD ANON000000052000000000000000000000000000000000000000000000000000000000000000000000000000000000000000000000000000000000000000PES00010000001000000000000000000000000
202511070060000600000000000000004183000000000000000041839600000000000018432738ALVAREZ FABIANA EDITH         000000025000000000000000000000000000000000000000000000000000000000000000000000000000000000000000000000000000000000000000PES00010000001000000000000000000000000
202511080080000600000000000000000479000000000000000004798000000000030627393713DIRECCION GENERAL DE CULTURA Y000000344505000000000000000000000000000000000000000000000000000000000000000000000000000000000000000000000000000000000000PES00010000001000000000000000000000000
202511080060000600000000000000004184000000000000000041848000000000030627393713DIRECCION GENERAL DE CULTURA Y000000344505000000000000000000000000000000000000000000000000000000000000000000000000000000000000000000000000000000000000PES00010000001000000000000000000000000
202511080010000600000000000000001919000000000000000019198000000000033593283319CORREGIDOR SA                 000000129873600000000000000000000000000000000000000000000000000000000000000000000000000000000000000000000000000000000000PES00010000001000000000000000000000000
202511080010000600000000000000001920000000000000000019208000000000033593283319CORREGIDOR SA                 000000983848500000000000000000000000000000000000000000000000000000000000000000000000000000000000000000000000000000000000PES00010000001000000000000000000000000
202511080080000600000000000000000480000000000000000004808000000000030627393713DIRECCION GENERAL DE CULTURA Y000000076692820000000000000000000000000000000000000000000000000000000000000000000000000000000000000000000000000000000000PES00010000001000000000000000000000000
202511080010000600000000000000001921000000000000000019218000000000027225988795NINA MARIA LAURA              000000155999976000000000000000000000000000000000000000000000000000000000000000000000000000000000000000000000000000000000PES00010000001000000000000000000000000
202511080010000600000000000000001922000000000000000019228000000000030520912963TAIUTI CONSTRUCCIONES S C A   000000114988817000000000000000000000000000000000000000000000000000000000000000000000000000000000000000000000000000000000PES00010000001000000000000000000000000
202511080060000600000000000000004185000000000000000041858000000000030627393713DIRECCION GENERAL DE CULTURA Y000001411200000000000000000000000000000000000000000000000000000000000000000000000000000000000000000000000000000000000000PES00010000001000000000000000000000000
202511110060000600000000000000004186000000000000000041868000000000030546666561UNIVERSIDAD DE BUENOS AIRES   000000094500000000000000000000000000000000000000000000000000000000000000000000000000000000000000000000000000000000000000PES00010000001000000000000000000000000
202511110060000600000000000000004187000000000000000041878000000000030546666561UNIVERSIDAD DE BUENOS AIRES   000000094500000000000000000000000000000000000000000000000000000000000000000000000000000000000000000000000000000000000000PES00010000001000000000000000000000000
202511140060000600000000000000004188000000000000000041888000000000030716742292MINISTERIO DE MUJERES Y DIVERS000000027500000000000000000000000000000000000000000000000000000000000000000000000000000000000000000000000000000000000000PES00010000001000000000000000000000000
202511140060000600000000000000004189000000000000000041898000000000030716742292MINISTERIO DE MUJERES Y DIVERS000000028000000000000000000000000000000000000000000000000000000000000000000000000000000000000000000000000000000000000000PES00010000001000000000000000000000000
202511140060000600000000000000004190000000000000000041908000000000030627393713DIRECCION GENERAL DE CULTURA Y000000120011416000000000000000000000000000000000000000000000000000000000000000000000000000000000000000000000000000000000PES00010000001000000000000000000000000
202511150060000600000000000000004191000000000000000041918000000000030627393713DIRECCION GENERAL DE CULTURA Y000000205327831000000000000000000000000000000000000000000000000000000000000000000000000000000000000000000000000000000000PES00010000001000000000000000000000000
202511150060000600000000000000004192000000000000000041928000000000030627393713DIRECCION GENERAL DE CULTURA Y000000197647440000000000000000000000000000000000000000000000000000000000000000000000000000000000000000000000000000000000PES00010000001000000000000000000000000
202511170010000600000000000000001923000000000000000019238000000000030710787022AMERICA VIRTUAL S. A.         000000075000011000000000000000000000000000000000000000000000000000000000000000000000000000000000000000000000000000000000PES00010000001000000000000000000000000
202511170030000600000000000000000085000000000000000000858000000000030710787022AMERICA VIRTUAL S. A.         000000075000011000000000000000000000000000000000000000000000000000000000000000000000000000000000000000000000000000000000PES00010000001000000000000000000000000
202511170010000600000000000000001924000000000000000019248000000000030710787022AMERICA VIRTUAL S. A.         000000062500009000000000000000000000000000000000000000000000000000000000000000000000000000000000000000000000000000000000PES00010000001000000000000000000000000
202511170060000600000000000000004193000000000000000041938000000000030546666707UNIVERSIDAD NACIONAL DE LA PLA000000024500000000000000000000000000000000000000000000000000000000000000000000000000000000000000000000000000000000000000PES00010000001000000000000000000000000
202511170060000600000000000000004194000000000000000041948000000000030643908995FUNDACION CIENCIAS EXACTAS    000000100000000000000000000000000000000000000000000000000000000000000000000000000000000000000000000000000000000000000000PES00010000001000000000000000000000000
202511170060000600000000000000004195000000000000000041958000000000030546666707UNIVERSIDAD NACIONAL DE LA PLA000000005000000000000000000000000000000000000000000000000000000000000000000000000000000000000000000000000000000000000000PES00010000001000000000000000000000000
202511170010000600000000000000001925000000000000000019258000000000030710787022AMERICA VIRTUAL S. A.         000000062500009000000000000000000000000000000000000000000000000000000000000000000000000000000000000000000000000000000000PES00010000001000000000000000000000000
202511170010000600000000000000001926000000000000000019268000000000030657877669EMPRESA DISTRIBUIDORA LA PLATA000000013900000000000000000000000000000000000000000000000000000000000000000000000000000000000000000000000000000000000000PES00010000001000000000000000000000000
202511170010000600000000000000001927000000000000000019278000000000030657877669EMPRESA DISTRIBUIDORA LA PLATA000000006900000000000000000000000000000000000000000000000000000000000000000000000000000000000000000000000000000000000000PES00010000001000000000000000000000000
202511170010000600000000000000001928000000000000000019288000000000030657877669EMPRESA DISTRIBUIDORA LA PLATA000000056700001000000000000000000000000000000000000000000000000000000000000000000000000000000000000000000000000000000000PES00010000001000000000000000000000000
202511170010000600000000000000001929000000000000000019298000000000030657877669EMPRESA DISTRIBUIDORA LA PLATA000000012500001000000000000000000000000000000000000000000000000000000000000000000000000000000000000000000000000000000000PES00010000001000000000000000000000000
202511170010000600000000000000001930000000000000000019308000000000030657877669EMPRESA DISTRIBUIDORA LA PLATA000000008300000000000000000000000000000000000000000000000000000000000000000000000000000000000000000000000000000000000000PES00010000001000000000000000000000000
202511180010000600000000000000001931000000000000000019318000000000030638432192AGROSUMA  SOCIEDAD DE RESPONSA000000151250000000000000000000000000000000000000000000000000000000000000000000000000000000000000000000000000000000000000PES00010000001000000000000000000000000
202511180010000600000000000000001932000000000000000019328000000000030541416540RATTO HNOS SA CFIA            000000151250000000000000000000000000000000000000000000000000000000000000000000000000000000000000000000000000000000000000PES00010000001000000000000000000000000
202511180010000600000000000000001933000000000000000019338000000000030708070617FARM CHEMICALS ARGENTINA S.R.L000000151250000000000000000000000000000000000000000000000000000000000000000000000000000000000000000000000000000000000000PES00010000001000000000000000000000000
202511180010000600000000000000001934000000000000000019348000000000030680682085HM. CLAUSE ARGENTINA S.A.     000000609030027000000000000000000000000000000000000000000000000000000000000000000000000000000000000000000000000000000000PES00010000001000000000000000000000000
202511180060000600000000000000004196000000000000000041968000000000030546666707UNIVERSIDAD NACIONAL DE LA PLA000000029400000000000000000000000000000000000000000000000000000000000000000000000000000000000000000000000000000000000000PES00010000001000000000000000000000000
202511180060000600000000000000004197000000000000000041978000000000030715124234MINISTERIO DE GOBIERNO BS.AS. 000000245000000000000000000000000000000000000000000000000000000000000000000000000000000000000000000000000000000000000000PES00010000001000000000000000000000000
202511180060000600000000000000004198000000000000000041988000000000030546666707UNIVERSIDAD NACIONAL DE LA PLA000000055000000000000000000000000000000000000000000000000000000000000000000000000000000000000000000000000000000000000000PES00010000001000000000000000000000000
202511180010000600000000000000001935000000000000000019358000000000033593283319CORREGIDOR SA                 000000203020800000000000000000000000000000000000000000000000000000000000000000000000000000000000000000000000000000000000PES00010000001000000000000000000000000
202511180010000600000000000000001936000000000000000019368000000000033593283319CORREGIDOR SA                 000000032841600000000000000000000000000000000000000000000000000000000000000000000000000000000000000000000000000000000000PES00010000001000000000000000000000000
202511190060000600000000000000004199000000000000000041998000000000030627393713DIRECCION GENERAL DE CULTURA Y000000271587542000000000000000000000000000000000000000000000000000000000000000000000000000000000000000000000000000000000PES00010000001000000000000000000000000
202511190060000600000000000000004200000000000000000042008000000000030627393713DIRECCION GENERAL DE CULTURA Y000000470198224000000000000000000000000000000000000000000000000000000000000000000000000000000000000000000000000000000000PES00010000001000000000000000000000000
202511190060000600000000000000004201000000000000000042018000000000030627393713DIRECCION GENERAL DE CULTURA Y000000092972110000000000000000000000000000000000000000000000000000000000000000000000000000000000000000000000000000000000PES00010000001000000000000000000000000
202511190060000600000000000000004202000000000000000042028000000000030627393713DIRECCION GENERAL DE CULTURA Y000000321167550000000000000000000000000000000000000000000000000000000000000000000000000000000000000000000000000000000000PES00010000001000000000000000000000000
202511190010000600000000000000001937000000000000000019378000000000027225988795NINA MARIA LAURA              000000144000049000000000000000000000000000000000000000000000000000000000000000000000000000000000000000000000000000000000PES00010000001000000000000000000000000
202511190060000600000000000000004203000000000000000042038000000000030627393713DIRECCION GENERAL DE CULTURA Y000000362500000000000000000000000000000000000000000000000000000000000000000000000000000000000000000000000000000000000000PES00010000001000000000000000000000000
202511190010000600000000000000001938000000000000000019388000000000030520912963TAIUTI CONSTRUCCIONES S C A   000000084231028000000000000000000000000000000000000000000000000000000000000000000000000000000000000000000000000000000000PES00010000001000000000000000000000000
202511190010000600000000000000001939000000000000000019398000000000030520912963TAIUTI CONSTRUCCIONES S C A   000000064231011000000000000000000000000000000000000000000000000000000000000000000000000000000000000000000000000000000000PES00010000001000000000000000000000000
202511190030000600000000000000000086000000000000000000868000000000030520912963TAIUTI CONSTRUCCIONES S C A   000000114988817000000000000000000000000000000000000000000000000000000000000000000000000000000000000000000000000000000000PES00010000001000000000000000000000000
202511190010000600000000000000001940000000000000000019408000000000030520912963TAIUTI CONSTRUCCIONES S C A   000000115569617000000000000000000000000000000000000000000000000000000000000000000000000000000000000000000000000000000000PES00010000001000000000000000000000000
202511190010000600000000000000001941000000000000000019418000000000027225988795NINA MARIA LAURA              000000171000007000000000000000000000000000000000000000000000000000000000000000000000000000000000000000000000000000000000PES00010000001000000000000000000000000
202511190010000600000000000000001942000000000000000019428000000000027225988795NINA MARIA LAURA              000000220999972000000000000000000000000000000000000000000000000000000000000000000000000000000000000000000000000000000000PES00010000001000000000000000000000000
202511190010000600000000000000001943000000000000000019438000000000027225988795NINA MARIA LAURA              000000098999974000000000000000000000000000000000000000000000000000000000000000000000000000000000000000000000000000000000PES00010000001000000000000000000000000
202511190060000600000000000000004204000000000000000042048000000000030627393713DIRECCION GENERAL DE CULTURA Y000000216000000000000000000000000000000000000000000000000000000000000000000000000000000000000000000000000000000000000000PES00010000001000000000000000000000000
202511200060000600000000000000004205000000000000000042058000000000030627393713DIRECCION GENERAL DE CULTURA Y000000156733125000000000000000000000000000000000000000000000000000000000000000000000000000000000000000000000000000000000PES00010000001000000000000000000000000
202511200010000600000000000000001944000000000000000019448000000000030691402394DIAGMED S A                   000000060000000000000000000000000000000000000000000000000000000000000000000000000000000000000000000000000000000000000000PES00010000001000000000000000000000000
202511200060000600000000000000004206000000000000000042068000000000030716386631SOCIEDAD ARGENTINA DE RADIOLOG000000022000000000000000000000000000000000000000000000000000000000000000000000000000000000000000000000000000000000000000PES00010000001000000000000000000000000
202511200060000600000000000000004207000000000000000042078000000000030702705521ASOCIACION AMADA ASOCIACION ME000000062400000000000000000000000000000000000000000000000000000000000000000000000000000000000000000000000000000000000000PES00010000001000000000000000000000000
202511200060000600000000000000004208000000000000000042088000000000030718692608ASOCIACION CIVIL ARGENTINA DE 000000025000000000000000000000000000000000000000000000000000000000000000000000000000000000000000000000000000000000000000PES00010000001000000000000000000000000
202511200060000600000000000000004209000000000000000042098000000000030627393713DIRECCION GENERAL DE CULTURA Y000000327800000000000000000000000000000000000000000000000000000000000000000000000000000000000000000000000000000000000000PES00010000001000000000000000000000000
202511200060000600000000000000004210000000000000000042108000000000033638161309COLEGIO DE MAGISTRADOS Y FUNCI000000042600000000000000000000000000000000000000000000000000000000000000000000000000000000000000000000000000000000000000PES00010000001000000000000000000000000
202511210060000600000000000000004211000000000000000042118000000000030627393713DIRECCION GENERAL DE CULTURA Y000000133400000000000000000000000000000000000000000000000000000000000000000000000000000000000000000000000000000000000000PES00010000001000000000000000000000000
202511220010000600000000000000001945000000000000000019458000000000030520912963TAIUTI CONSTRUCCIONES S C A   000000185228431000000000000000000000000000000000000000000000000000000000000000000000000000000000000000000000000000000000PES00010000001000000000000000000000000
202511220010000600000000000000001946000000000000000019468000000000030520912963TAIUTI CONSTRUCCIONES S C A   000000073720813000000000000000000000000000000000000000000000000000000000000000000000000000000000000000000000000000000000PES00010000001000000000000000000000000
202511220010000600000000000000001947000000000000000019478000000000030520912963TAIUTI CONSTRUCCIONES S C A   000000167736056000000000000000000000000000000000000000000000000000000000000000000000000000000000000000000000000000000000PES00010000001000000000000000000000000
202511220060000600000000000000004212000000000000000042128000000000030626983398MINISTERIO DE SALUD PCIA DE BS000000561600000000000000000000000000000000000000000000000000000000000000000000000000000000000000000000000000000000000000PES00010000001000000000000000000000000
202511220010000600000000000000001948000000000000000019488000000000030714248258ONCE ESTRELLAS BROKER SRL     000000180000001000000000000000000000000000000000000000000000000000000000000000000000000000000000000000000000000000000000PES00010000001000000000000000000000000
202511250060000600000000000000004213000000000000000042138000000000030708499044INSTITUTO CULTURAL DE LA PROV 000000120646385000000000000000000000000000000000000000000000000000000000000000000000000000000000000000000000000000000000PES00010000001000000000000000000000000
202511260060000600000000000000004214000000000000000042148000000000030627393713DIRECCION GENERAL DE CULTURA Y000000203677600000000000000000000000000000000000000000000000000000000000000000000000000000000000000000000000000000000000PES00010000001000000000000000000000000
202511260010000600000000000000001949000000000000000019498000000000030691618389COLOPLAST DE ARGENTINA S A    000000067200000000000000000000000000000000000000000000000000000000000000000000000000000000000000000000000000000000000000PES00010000001000000000000000000000000
202511260060000600000000000000004215000000000000000042158000000000030627393713DIRECCION GENERAL DE CULTURA Y000000203677600000000000000000000000000000000000000000000000000000000000000000000000000000000000000000000000000000000000PES00010000001000000000000000000000000
202511260080000600000000000000000481000000000000000004818000000000030627393713DIRECCION GENERAL DE CULTURA Y000000203677600000000000000000000000000000000000000000000000000000000000000000000000000000000000000000000000000000000000PES00010000001000000000000000000000000
202511260060000600000000000000004216000000000000000042168000000000030627393713DIRECCION GENERAL DE CULTURA Y000000429553198000000000000000000000000000000000000000000000000000000000000000000000000000000000000000000000000000000000PES00010000001000000000000000000000000
202511260060000600000000000000004217000000000000000042178000000000030627393713DIRECCION GENERAL DE CULTURA Y000000295043774000000000000000000000000000000000000000000000000000000000000000000000000000000000000000000000000000000000PES00010000001000000000000000000000000
202511260060000600000000000000004218000000000000000042188000000000030627393713DIRECCION GENERAL DE CULTURA Y000000132932520000000000000000000000000000000000000000000000000000000000000000000000000000000000000000000000000000000000PES00010000001000000000000000000000000
202511260080000600000000000000000482000000000000000004828000000000030627393713DIRECCION GENERAL DE CULTURA Y000000470198224000000000000000000000000000000000000000000000000000000000000000000000000000000000000000000000000000000000PES00010000001000000000000000000000000
202511260060000600000000000000004219000000000000000042198000000000030627393713DIRECCION GENERAL DE CULTURA Y000000470198224000000000000000000000000000000000000000000000000000000000000000000000000000000000000000000000000000000000PES00010000001000000000000000000000000
202511270060000600000000000000004220000000000000000042208000000000030627393713DIRECCION GENERAL DE CULTURA Y000000300957212000000000000000000000000000000000000000000000000000000000000000000000000000000000000000000000000000000000PES00010000001000000000000000000000000
202511270060000600000000000000004221000000000000000042218000000000030627393713DIRECCION GENERAL DE CULTURA Y000000825000000000000000000000000000000000000000000000000000000000000000000000000000000000000000000000000000000000000000PES00010000001000000000000000000000000
202511270060000600000000000000004222000000000000000042228000000000030627393713DIRECCION GENERAL DE CULTURA Y000000010000000000000000000000000000000000000000000000000000000000000000000000000000000000000000000000000000000000000000PES00010000001000000000000000000000000
202511270060000600000000000000004223000000000000000042238000000000030627393713DIRECCION GENERAL DE CULTURA Y000000010000000000000000000000000000000000000000000000000000000000000000000000000000000000000000000000000000000000000000PES00010000001000000000000000000000000
202511270060000600000000000000004224000000000000000042248000000000030708499044INSTITUTO CULTURAL DE LA PROV 000000983738895000000000000000000000000000000000000000000000000000000000000000000000000000000000000000000000000000000000PES00010000001000000000000000000000000
202511270080000600000000000000000483000000000000000004838000000000030627393713DIRECCION GENERAL DE CULTURA Y000000010000000000000000000000000000000000000000000000000000000000000000000000000000000000000000000000000000000000000000PES00010000001000000000000000000000000
202511270060000600000000000000004225000000000000000042258000000000030627393713DIRECCION GENERAL DE CULTURA Y000000006000000000000000000000000000000000000000000000000000000000000000000000000000000000000000000000000000000000000000PES00010000001000000000000000000000000
202511280060000600000000000000004226000000000000000042268000000000030550857061COLEGIO DE FARMACEUTICOS DE LA000000015600000000000000000000000000000000000000000000000000000000000000000000000000000000000000000000000000000000000000PES00010000001000000000000000000000000
202511280060000600000000000000004227000000000000000042278000000000030643233343MINISTERIO DE ECONOMIA - PBA  000000068000000000000000000000000000000000000000000000000000000000000000000000000000000000000000000000000000000000000000PES00010000001000000000000000000000000
202511280060000600000000000000004228000000000000000042288000000000030627393713DIRECCION GENERAL DE CULTURA Y000000010000000000000000000000000000000000000000000000000000000000000000000000000000000000000000000000000000000000000000PES00010000001000000000000000000000000
202511280060000600000000000000004229000000000000000042298000000000030627393713DIRECCION GENERAL DE CULTURA Y000000010000000000000000000000000000000000000000000000000000000000000000000000000000000000000000000000000000000000000000PES00010000001000000000000000000000000
202511280010000600000000000000001950000000000000000019508000000000033593283319CORREGIDOR SA                 000000260120400000000000000000000000000000000000000000000000000000000000000000000000000000000000000000000000000000000000PES00010000001000000000000000000000000
202511280010000600000000000000001951000000000000000019518000000000030520912963TAIUTI CONSTRUCCIONES S C A   000000167736056000000000000000000000000000000000000000000000000000000000000000000000000000000000000000000000000000000000PES00010000001000000000000000000000000
202511300060000600000000000000004230000000000000000042309600000000000031105041CORTES EMILIANO               000000640553367000000000000000000000000000000000000000000000000000000000000000000000000000000000000000000000000000000000PES00010000001000000000000000000000000
