202411040010000600000000000000001662000000000000000016628000000000030710718594RAMIROQUAI S.A.               000000015609000000000000000000000000000000000000000000000000000000000000000000000000000000000000000000000000000000000000PES00010000001000000000000000020241104
202411040060000600000000000000003521000000000000000035218000000000030716742292MINISTERIO DE MUJERES Y DIVERS000000004500000000000000000000000000000000000000000000000000000000000000000000000000000000000000000000000000000000000000PES00010000001000000000000000000000000
202411040060000600000000000000003522000000000000000035228000000000030627393713DIRECCION GENERAL DE CULTURA Y000000046972000000000000000000000000000000000000000000000000000000000000000000000000000000000000000000000000000000000000PES00010000001000000000000000000000000
202411050060000600000000000000003523000000000000000035238000000000030716742292MINISTERIO DE MUJERES Y DIVERS000000004500000000000000000000000000000000000000000000000000000000000000000000000000000000000000000000000000000000000000PES00010000001000000000000000000000000
202411050080000600000000000000000363000000000000000003638000000000030716742292MINISTERIO DE MUJERES Y DIVERS000000004500000000000000000000000000000000000000000000000000000000000000000000000000000000000000000000000000000000000000PES00010000001000000000000000000000000
202411050060000600000000000000003524000000000000000035248000000000030654207689FUNDACION DEL HOSPITAL DEL NI#000000004630000000000000000000000000000000000000000000000000000000000000000000000000000000000000000000000000000000000000PES00010000001000000000000000000000000
202411050030000600000000000000000072000000000000000000728000000000030657877669EMPRESA DISTRIBUIDORA LA PLATA000000082160089000000000000000000000000000000000000000000000000000000000000000000000000000000000000000000000000000000000PES00010000001000000000000000000000000
202411050010000600000000000000001663000000000000000016638000000000030657877669EMPRESA DISTRIBUIDORA LA PLATA000000023660001000000000000000000000000000000000000000000000000000000000000000000000000000000000000000000000000000000000PES00010000001000000000000000000000000
202411050010000600000000000000001664000000000000000016648000000000030657877669EMPRESA DISTRIBUIDORA LA PLATA000000135520000000000000000000000000000000000000000000000000000000000000000000000000000000000000000000000000000000000000PES00010000001000000000000000000000000
202411060060000600000000000000003525000000000000000035258000000000030550857061COLEGIO DE FARMACEUTICOS DE LA000000580000000000000000000000000000000000000000000000000000000000000000000000000000000000000000000000000000000000000000PES00010000001000000000000000000000000
202411070060000600000000000000003526000000000000000035268000000000030638438514H CAMARA DE DIPUTADOS PCIA BS 000000314900000000000000000000000000000000000000000000000000000000000000000000000000000000000000000000000000000000000000PES00010000001000000000000000000000000
202411070060000600000000000000003527000000000000000035278000000000030707216669PODER JUDICIAL MINISTERIO PUBL000000047000000000000000000000000000000000000000000000000000000000000000000000000000000000000000000000000000000000000000PES00010000001000000000000000000000000
202411070060000600000000000000003528000000000000000035288000000000030627393713DIRECCION GENERAL DE CULTURA Y000000151568000000000000000000000000000000000000000000000000000000000000000000000000000000000000000000000000000000000000PES00010000001000000000000000000000000
202411070060000600000000000000003529000000000000000035298000000000030627393713DIRECCION GENERAL DE CULTURA Y000000055806000000000000000000000000000000000000000000000000000000000000000000000000000000000000000000000000000000000000PES00010000001000000000000000000000000
202411070060000600000000000000003530000000000000000035308000000000030627393713DIRECCION GENERAL DE CULTURA Y000000057138000000000000000000000000000000000000000000000000000000000000000000000000000000000000000000000000000000000000PES00010000001000000000000000000000000
202411070060000600000000000000003531000000000000000035318000000000030627393713DIRECCION GENERAL DE CULTURA Y000000044308000000000000000000000000000000000000000000000000000000000000000000000000000000000000000000000000000000000000PES00010000001000000000000000000000000
202411070060000600000000000000003532000000000000000035328000000000030627393713DIRECCION GENERAL DE CULTURA Y000000081582000000000000000000000000000000000000000000000000000000000000000000000000000000000000000000000000000000000000PES00010000001000000000000000000000000
202411070060000600000000000000003533000000000000000035338000000000030627393713DIRECCION GENERAL DE CULTURA Y000000133800000000000000000000000000000000000000000000000000000000000000000000000000000000000000000000000000000000000000PES00010000002000000000000000000000000
202411070060000600000000000000003534000000000000000035348000000000030627393713DIRECCION GENERAL DE CULTURA Y000000046972000000000000000000000000000000000000000000000000000000000000000000000000000000000000000000000000000000000000PES00010000001000000000000000000000000
202411070060000600000000000000003535000000000000000035358000000000030627393713DIRECCION GENERAL DE CULTURA Y000000084560000000000000000000000000000000000000000000000000000000000000000000000000000000000000000000000000000000000000PES00010000001000000000000000000000000
202411070060000600000000000000003536000000000000000035368000000000030627393713DIRECCION GENERAL DE CULTURA Y000000427560000000000000000000000000000000000000000000000000000000000000000000000000000000000000000000000000000000000000PES00010000001000000000000000000000000
202411120060000600000000000000003537000000000000000035378000000000023184327384ALVAREZ FABIANA EDITH         000000048000000000000000000000000000000000000000000000000000000000000000000000000000000000000000000000000000000000000000PES00010000001000000000000000000000000
202411130060000600000000000000003538000000000000000035388000000000030546666707UNIVERSIDAD NACIONAL DE LA PLA000000004680000000000000000000000000000000000000000000000000000000000000000000000000000000000000000000000000000000000000PES00010000001000000000000000000000000
202411130060000600000000000000003539000000000000000035398000000000030638438514H CAMARA DE DIPUTADOS PCIA BS 000000686760000000000000000000000000000000000000000000000000000000000000000000000000000000000000000000000000000000000000PES00010000001000000000000000000000000
202411130010000600000000000000001665000000000000000016658000000000030707201505TECNOLOGIA DEL COLOR S A      000000016200000000000000000000000000000000000000000000000000000000000000000000000000000000000000000000000000000000000000PES00010000001000000000000000000000000
202411140060000600000000000000003540000000000000000035408000000000030717495620MINISTERIO DE TRANSPORTE O. P.000001078000000000000000000000000000000000000000000000000000000000000000000000000000000000000000000000000000000000000000PES00010000001000000000000000000000000
202411140060000600000000000000003541000000000000000035418000000000030708499044INSTITUTO CULTURAL DE LA PROV 000000197560000000000000000000000000000000000000000000000000000000000000000000000000000000000000000000000000000000000000PES00010000001000000000000000000000000
202411140060000600000000000000003542000000000000000035428000000000030708499044INSTITUTO CULTURAL DE LA PROV 000000065056000000000000000000000000000000000000000000000000000000000000000000000000000000000000000000000000000000000000PES00010000001000000000000000000000000
202411140060000600000000000000003543000000000000000035438000000000030627393713DIRECCION GENERAL DE CULTURA Y000000860209000000000000000000000000000000000000000000000000000000000000000000000000000000000000000000000000000000000000PES00010000001000000000000000000000000
202411150060000600000000000000003544000000000000000035448000000000030708499044INSTITUTO CULTURAL DE LA PROV 000000860209000000000000000000000000000000000000000000000000000000000000000000000000000000000000000000000000000000000000PES00010000001000000000000000000000000
202411180060000600000000000000003545000000000000000035458000000000030627393713DIRECCION GENERAL DE CULTURA Y000000176792000000000000000000000000000000000000000000000000000000000000000000000000000000000000000000000000000000000000PES00010000001000000000000000000000000
202411180060000600000000000000003546000000000000000035468000000000030627393713DIRECCION GENERAL DE CULTURA Y000000046972000000000000000000000000000000000000000000000000000000000000000000000000000000000000000000000000000000000000PES00010000001000000000000000000000000
202411180060000600000000000000003547000000000000000035478000000000030627393713DIRECCION GENERAL DE CULTURA Y000000077600000000000000000000000000000000000000000000000000000000000000000000000000000000000000000000000000000000000000PES00010000002000000000000000000000000
202411180060000600000000000000003548000000000000000035488000000000030627393713DIRECCION GENERAL DE CULTURA Y000000115910000000000000000000000000000000000000000000000000000000000000000000000000000000000000000000000000000000000000PES00010000001000000000000000000000000
202411180060000600000000000000003549000000000000000035498000000000030627393713DIRECCION GENERAL DE CULTURA Y000000077600000000000000000000000000000000000000000000000000000000000000000000000000000000000000000000000000000000000000PES00010000002000000000000000000000000
202411180060000600000000000000003550000000000000000035508000000000030627393713DIRECCION GENERAL DE CULTURA Y000000027720000000000000000000000000000000000000000000000000000000000000000000000000000000000000000000000000000000000000PES00010000001000000000000000020241118
202411180060000600000000000000003551000000000000000035518000000000030627393713DIRECCION GENERAL DE CULTURA Y000000035795000000000000000000000000000000000000000000000000000000000000000000000000000000000000000000000000000000000000PES00010000001000000000000000000000000
202411180060000600000000000000003552000000000000000035528000000000030627393713DIRECCION GENERAL DE CULTURA Y000000729680000000000000000000000000000000000000000000000000000000000000000000000000000000000000000000000000000000000000PES00010000001000000000000000000000000
202411180060000600000000000000003553000000000000000035538000000000030627393713DIRECCION GENERAL DE CULTURA Y000000610084000000000000000000000000000000000000000000000000000000000000000000000000000000000000000000000000000000000000PES00010000001000000000000000020241118
202411180060000600000000000000003554000000000000000035548000000000030627393713DIRECCION GENERAL DE CULTURA Y000000065910000000000000000000000000000000000000000000000000000000000000000000000000000000000000000000000000000000000000PES00010000001000000000000000000000000
202411180060000600000000000000003555000000000000000035558000000000030627393713DIRECCION GENERAL DE CULTURA Y000000722832900000000000000000000000000000000000000000000000000000000000000000000000000000000000000000000000000000000000PES00010000001000000000000000000000000
202411180080000600000000000000000364000000000000000003648000000000030627393713DIRECCION GENERAL DE CULTURA Y000000860209000000000000000000000000000000000000000000000000000000000000000000000000000000000000000000000000000000000000PES00010000001000000000000000020241118
202411180060000600000000000000003556000000000000000035568000000000030627393713DIRECCION GENERAL DE CULTURA Y000000048108000000000000000000000000000000000000000000000000000000000000000000000000000000000000000000000000000000000000PES00010000001000000000000000000000000
202411190010000600000000000000001666000000000000000016668000000000030707845488MARKETING EVENTS & TRAVEL GROU000000020450001000000000000000000000000000000000000000000000000000000000000000000000000000000000000000000000000000000000PES00010000001000000000000000000000000
202411190030000600000000000000000073000000000000000000738000000000030707845488MARKETING EVENTS & TRAVEL GROU000000020450001000000000000000000000000000000000000000000000000000000000000000000000000000000000000000000000000000000000PES00010000001000000000000000000000000
202411190010000600000000000000001667000000000000000016678000000000030500006613BANCO PATAGONIA SOCIEDAD ANONI000000026500001000000000000000000000000000000000000000000000000000000000000000000000000000000000000000000000000000000000PES00010000001000000000000000000000000
202411190010000600000000000000001668000000000000000016688000000000030500006613BANCO PATAGONIA SOCIEDAD ANONI000000025000000000000000000000000000000000000000000000000000000000000000000000000000000000000000000000000000000000000000PES00010000001000000000000000000000000
202411190060000600000000000000003557000000000000000035578000000000030717321231JEFATURA DE ASESORES DEL GOBER000000050400000000000000000000000000000000000000000000000000000000000000000000000000000000000000000000000000000000000000PES00010000001000000000000000000000000
202411190010000600000000000000001669000000000000000016698000000000027225988795NINA MARIA LAURA              000000092750058000000000000000000000000000000000000000000000000000000000000000000000000000000000000000000000000000000000PES00010000001000000000000000000000000
202411190060000600000000000000003558000000000000000035588000000000030500147497COLEGIO DE ESCRIBANOS DE LA PR000000026000000000000000000000000000000000000000000000000000000000000000000000000000000000000000000000000000000000000000PES00010000001000000000000000000000000
202411190080000600000000000000000365000000000000000003658000000000030627393713DIRECCION GENERAL DE CULTURA Y000000157210000000000000000000000000000000000000000000000000000000000000000000000000000000000000000000000000000000000000PES00010000001000000000000000000000000
202411190060000600000000000000003559000000000000000035598000000000030627393713DIRECCION GENERAL DE CULTURA Y000000157210000000000000000000000000000000000000000000000000000000000000000000000000000000000000000000000000000000000000PES00010000001000000000000000000000000
202411190060000600000000000000003560000000000000000035608000000000030627393713DIRECCION GENERAL DE CULTURA Y000000694116000000000000000000000000000000000000000000000000000000000000000000000000000000000000000000000000000000000000PES00010000001000000000000000000000000
202411190060000600000000000000003561000000000000000035618000000000030627393713DIRECCION GENERAL DE CULTURA Y000000798346000000000000000000000000000000000000000000000000000000000000000000000000000000000000000000000000000000000000PES00010000001000000000000000000000000
202411190060000600000000000000003562000000000000000035628000000000030627393713DIRECCION GENERAL DE CULTURA Y000000747686000000000000000000000000000000000000000000000000000000000000000000000000000000000000000000000000000000000000PES00010000001000000000000000000000000
202411190060000600000000000000003563000000000000000035638000000000030627393713DIRECCION GENERAL DE CULTURA Y000000747686000000000000000000000000000000000000000000000000000000000000000000000000000000000000000000000000000000000000PES00010000001000000000000000000000000
202411190060000600000000000000003564000000000000000035648000000000030710405863MINISTERIO DE AMBIENTE        000000038388000000000000000000000000000000000000000000000000000000000000000000000000000000000000000000000000000000000000PES00010000001000000000000000000000000
202411210060000600000000000000003565000000000000000035658000000000030715124234MINISTERIO DE GOBIERNO BS.AS. 000000630000000000000000000000000000000000000000000000000000000000000000000000000000000000000000000000000000000000000000PES00010000001000000000000000000000000
202411210060000600000000000000003566000000000000000035668000000000033684854149COMISION DE INVESTIGACIONES CI000000145500000000000000000000000000000000000000000000000000000000000000000000000000000000000000000000000000000000000000PES00010000001000000000000000000000000
202411220060000600000000000000003567000000000000000035678000000000030708499044INSTITUTO CULTURAL DE LA PROV 000001442630000000000000000000000000000000000000000000000000000000000000000000000000000000000000000000000000000000000000PES00010000001000000000000000000000000
202411220060000600000000000000003568000000000000000035688000000000030546666707UNIVERSIDAD NACIONAL DE LA PLA000000039000000000000000000000000000000000000000000000000000000000000000000000000000000000000000000000000000000000000000PES00010000001000000000000000000000000
202411220010000600000000000000001670000000000000000016708000000000030657877669EMPRESA DISTRIBUIDORA LA PLATA000000010800097000000000000000000000000000000000000000000000000000000000000000000000000000000000000000000000000000000000PES00010000001000000000000000000000000
202411220030000600000000000000000074000000000000000000748000000000030657877669EMPRESA DISTRIBUIDORA LA PLATA000000010800097000000000000000000000000000000000000000000000000000000000000000000000000000000000000000000000000000000000PES00010000001000000000000000000000000
202411220010000600000000000000001671000000000000000016718000000000030657877669EMPRESA DISTRIBUIDORA LA PLATA000000054000000000000000000000000000000000000000000000000000000000000000000000000000000000000000000000000000000000000000PES00010000001000000000000000000000000
202411220010000600000000000000001672000000000000000016728000000000030657877669EMPRESA DISTRIBUIDORA LA PLATA000000004920000000000000000000000000000000000000000000000000000000000000000000000000000000000000000000000000000000000000PES00010000001000000000000000000000000
202411220010000600000000000000001673000000000000000016738000000000030657877669EMPRESA DISTRIBUIDORA LA PLATA000000021840000000000000000000000000000000000000000000000000000000000000000000000000000000000000000000000000000000000000PES00010000001000000000000000000000000
202411220010000600000000000000001674000000000000000016748000000000030708070617FARM CHEMICALS ARGENTINA S.R.L000000100000000000000000000000000000000000000000000000000000000000000000000000000000000000000000000000000000000000000000PES00010000001000000000000000000000000
202411220010000600000000000000001675000000000000000016758000000000030638432192AGROSUMA  SOCIEDAD DE RESPONSA000000100000000000000000000000000000000000000000000000000000000000000000000000000000000000000000000000000000000000000000PES00010000001000000000000000000000000
202411220010000600000000000000001676000000000000000016768000000000030541416540RATTO HNOS SA CFIA            000000100000000000000000000000000000000000000000000000000000000000000000000000000000000000000000000000000000000000000000PES00010000001000000000000000000000000
202411220010000600000000000000001677000000000000000016778000000000030680682085HM. CLAUSE ARGENTINA S.A.     000000100000000000000000000000000000000000000000000000000000000000000000000000000000000000000000000000000000000000000000PES00010000001000000000000000000000000
202411230060000600000000000000003569000000000000000035698000000000030710405863MINISTERIO DE AMBIENTE        000000038388000000000000000000000000000000000000000000000000000000000000000000000000000000000000000000000000000000000000PES00010000002000000000000000000000000
202411230060000600000000000000003570000000000000000035708000000000030710405863MINISTERIO DE AMBIENTE        000000038388000000000000000000000000000000000000000000000000000000000000000000000000000000000000000000000000000000000000PES00010000001000000000000000000000000
202411230060000600000000000000003571000000000000000035718000000000030710405863MINISTERIO DE AMBIENTE        000000038388000000000000000000000000000000000000000000000000000000000000000000000000000000000000000000000000000000000000PES00010000001000000000000000000000000
202411230010000600000000000000001678000000000000000016788000000000027251607864COVELLO JULIETA               000000090000000000000000000000000000000000000000000000000000000000000000000000000000000000000000000000000000000000000000PES00010000001000000000000000000000000
202411250060000600000000000000003572000000000000000035728000000000030627393713DIRECCION GENERAL DE CULTURA Y000000316800000000000000000000000000000000000000000000000000000000000000000000000000000000000000000000000000000000000000PES00010000001000000000000000000000000
202411250060000600000000000000003573000000000000000035738000000000030710405863MINISTERIO DE AMBIENTE        000000038388000000000000000000000000000000000000000000000000000000000000000000000000000000000000000000000000000000000000PES00010000001000000000000000000000000
202411260060000600000000000000003574000000000000000035748000000000030708499044INSTITUTO CULTURAL DE LA PROV 000002003579000000000000000000000000000000000000000000000000000000000000000000000000000000000000000000000000000000000000PES00010000001000000000000000000000000
202411260010000600000000000000001679000000000000000016798000000000030710911378CT BARRAGAN S.A.              000000032200218000000000000000000000000000000000000000000000000000000000000000000000000000000000000000000000000000000000PES00010000001000000000000000000000000
202411260060000600000000000000003575000000000000000035758000000000033638161309COLEGIO DE MAGISTRADOS Y FUNCI000000027360000000000000000000000000000000000000000000000000000000000000000000000000000000000000000000000000000000000000PES00010000001000000000000000000000000
202411270010000600000000000000001680000000000000000016808000000000033593283319CORREGIDOR SA                 000000227397840000000000000000000000000000000000000000000000000000000000000000000000000000000000000000000000000000000000PES00010000001000000000000000000000000
202411270010000600000000000000001681000000000000000016818000000000033593283319CORREGIDOR SA                 000000116674932000000000000000000000000000000000000000000000000000000000000000000000000000000000000000000000000000000000PES00010000001000000000000000000000000
202411270060000600000000000000003576000000000000000035768000000000030627393713DIRECCION GENERAL DE CULTURA Y000000273450000000000000000000000000000000000000000000000000000000000000000000000000000000000000000000000000000000000000PES00010000001000000000000000000000000
202411270010000600000000000000001682000000000000000016828000000000030661728597LABORATORIO LKM S.A.          000000001700050000000000000000000000000000000000000000000000000000000000000000000000000000000000000000000000000000000000PES00010000001000000000000000000000000
202411270010000600000000000000001683000000000000000016838000000000030661728597LABORATORIO LKM S.A.          000000136000128000000000000000000000000000000000000000000000000000000000000000000000000000000000000000000000000000000000PES00010000001000000000000000000000000
202411280060000600000000000000003577000000000000000035778000000000030607464363ASOCIACION ARGENTINA DE MICROB000000057600000000000000000000000000000000000000000000000000000000000000000000000000000000000000000000000000000000000000PES00010000001000000000000000000000000
202411280060000600000000000000003578000000000000000035788000000000030546666707UNIVERSIDAD NACIONAL DE LA PLA000000037000000000000000000000000000000000000000000000000000000000000000000000000000000000000000000000000000000000000000PES00010000001000000000000000000000000
202411280060000600000000000000003579000000000000000035798000000000030546666707UNIVERSIDAD NACIONAL DE LA PLA000000039000000000000000000000000000000000000000000000000000000000000000000000000000000000000000000000000000000000000000PES00010000001000000000000000000000000
202411280060000600000000000000003580000000000000000035808000000000030546666707UNIVERSIDAD NACIONAL DE LA PLA000000039500000000000000000000000000000000000000000000000000000000000000000000000000000000000000000000000000000000000000PES00010000001000000000000000000000000
202411280060000600000000000000003581000000000000000035818000000000030546666707UNIVERSIDAD NACIONAL DE LA PLA000000011880000000000000000000000000000000000000000000000000000000000000000000000000000000000000000000000000000000000000PES00010000001000000000000000000000000
202411280060000600000000000000003582000000000000000035828000000000030999057167MINISTERIO DE PRODUCCION CIENC000000150000000000000000000000000000000000000000000000000000000000000000000000000000000000000000000000000000000000000000PES00010000001000000000000000000000000
202411280060000600000000000000003583000000000000000035838000000000030627393713DIRECCION GENERAL DE CULTURA Y000000148360000000000000000000000000000000000000000000000000000000000000000000000000000000000000000000000000000000000000PES00010000001000000000000000000000000
202411280060000600000000000000003584000000000000000035848000000000030627393713DIRECCION GENERAL DE CULTURA Y000000201240000000000000000000000000000000000000000000000000000000000000000000000000000000000000000000000000000000000000PES00010000001000000000000000000000000
202411280080000600000000000000000366000000000000000003668000000000030627393713DIRECCION GENERAL DE CULTURA Y000000157210000000000000000000000000000000000000000000000000000000000000000000000000000000000000000000000000000000000000PES00010000001000000000000000000000000
202411280060000600000000000000003585000000000000000035858000000000030627393713DIRECCION GENERAL DE CULTURA Y000000157210000000000000000000000000000000000000000000000000000000000000000000000000000000000000000000000000000000000000PES00010000001000000000000000000000000
202411290060000600000000000000003586000000000000000035868000000000030627393713DIRECCION GENERAL DE CULTURA Y000000027720000000000000000000000000000000000000000000000000000000000000000000000000000000000000000000000000000000000000PES00010000001000000000000000000000000
202411290060000600000000000000003587000000000000000035878000000000030638438514H CAMARA DE DIPUTADOS PCIA BS 000000764860000000000000000000000000000000000000000000000000000000000000000000000000000000000000000000000000000000000000PES00010000001000000000000000000000000
202411290060000600000000000000003588000000000000000035888000000000030627393713DIRECCION GENERAL DE CULTURA Y000000213660000000000000000000000000000000000000000000000000000000000000000000000000000000000000000000000000000000000000PES00010000001000000000000000000000000
202411290010000600000000000000001684000000000000000016848000000000030544640212LABORATORIO ELEA PHOENIX S A  000000120000017000000000000000000000000000000000000000000000000000000000000000000000000000000000000000000000000000000000PES00010000001000000000000000000000000
