202310020060000600000000000000002961000000000000000029618000000000030559799536SINDICATO OBRAS SANITARIAS DE 000000091330000000000000000000000000000000000000000000000000000000000000000000000000000000000000000000000000000000000000PES00010000001000000000000000020231102
202310020010000600000000000000001455000000000000000014558000000000030657864281CAMUZZI GAS PAMPEANA S A      000000011398200000000000000000000000000000000000000000000000000000000000000000000000000000000000000000000000000000000000PES00010000001000000000000000000000000
202310020010000600000000000000001456000000000000000014568000000000030657864281CAMUZZI GAS PAMPEANA S A      000000001694000000000000000000000000000000000000000000000000000000000000000000000000000000000000000000000000000000000000PES00010000001000000000000000000000000
202310030060000600000000000000002962000000000000000029628000000000030624944182MUNICIPALIDAD DE LA PLATA     000000018000000000000000000000000000000000000000000000000000000000000000000000000000000000000000000000000000000000000000PES00010000001000000000000000000000000
202310030060000600000000000000002963000000000000000029638000000000030624944182MUNICIPALIDAD DE LA PLATA     000000022900000000000000000000000000000000000000000000000000000000000000000000000000000000000000000000000000000000000000PES00010000001000000000000000000000000
202310030060000600000000000000002964000000000000000029648000000000030624944182MUNICIPALIDAD DE LA PLATA     000000040800000000000000000000000000000000000000000000000000000000000000000000000000000000000000000000000000000000000000PES00010000001000000000000000000000000
202310030060000600000000000000002965000000000000000029658000000000030624944182MUNICIPALIDAD DE LA PLATA     000000007000000000000000000000000000000000000000000000000000000000000000000000000000000000000000000000000000000000000000PES00010000001000000000000000000000000
202310030060000600000000000000002966000000000000000029668000000000030717321231JEFATURA DE ASESORES DEL GOBER000000185500000000000000000000000000000000000000000000000000000000000000000000000000000000000000000000000000000000000000PES00010000001000000000000000000000000
202310040080000600000000000000000280000000000000000002808000000000030716742292MINISTERIO DE LAS MUJERES, POL000000025600000000000000000000000000000000000000000000000000000000000000000000000000000000000000000000000000000000000000PES00010000001000000000000000000000000
202310040060000600000000000000002967000000000000000029678000000000030716742292MINISTERIO DE LAS MUJERES, POL000000025600000000000000000000000000000000000000000000000000000000000000000000000000000000000000000000000000000000000000PES00010000001000000000000000020231004
202310040060000600000000000000002968000000000000000029688000000000030710405863MINISTERIO DE AMBIENTE        000000112000000000000000000000000000000000000000000000000000000000000000000000000000000000000000000000000000000000000000PES00010000001000000000000000020231104
202310040060000600000000000000002969000000000000000029698000000000030709643874FUNDACION FACULTAD DE CIENCIAS000000000660000000000000000000000000000000000000000000000000000000000000000000000000000000000000000000000000000000000000PES00010000001000000000000000000000000
202310040060000600000000000000002970000000000000000029708000000000030627393713DIRECCION GENERAL DE CULTURA Y000000328820000000000000000000000000000000000000000000000000000000000000000000000000000000000000000000000000000000000000PES00010000001000000000000000000000000
202310090060000600000000000000002971000000000000000029718000000000030638438514H CAMARA DE DIPUTADOS PCIA BS 000000172573500000000000000000000000000000000000000000000000000000000000000000000000000000000000000000000000000000000000PES00010000002000000000000000000000000
202310090060000600000000000000002972000000000000000029728000000000030627393713DIRECCION GENERAL DE CULTURA Y000000705300000000000000000000000000000000000000000000000000000000000000000000000000000000000000000000000000000000000000PES00010000001000000000000000000000000
202310090060000600000000000000002973000000000000000029738000000000030627393713DIRECCION GENERAL DE CULTURA Y000000256000000000000000000000000000000000000000000000000000000000000000000000000000000000000000000000000000000000000000PES00010000001000000000000000000000000
202310090060000600000000000000002974000000000000000029748000000000030627393713DIRECCION GENERAL DE CULTURA Y000000197750000000000000000000000000000000000000000000000000000000000000000000000000000000000000000000000000000000000000PES00010000001000000000000000000000000
202310090060000600000000000000002975000000000000000029758000000000030627393713DIRECCION GENERAL DE CULTURA Y000000061200000000000000000000000000000000000000000000000000000000000000000000000000000000000000000000000000000000000000PES00010000001000000000000000000000000
202310100010000600000000000000001457000000000000000014578000000000030709928534L.F.R.CONSTRUCTORA VIAL S.A   000000016940000000000000000000000000000000000000000000000000000000000000000000000000000000000000000000000000000000000000PES00010000001000000000000000000000000
202310100060000600000000000000002976000000000000000029768000000000030626983398MINISTERIO DE SALUD PCIA DE BS000000005380000000000000000000000000000000000000000000000000000000000000000000000000000000000000000000000000000000000000PES00010000001000000000000000000000000
202310100060000600000000000000002977000000000000000029778000000000030550857061COLEGIO DE FARMACEUTICOS DE LA000000300000000000000000000000000000000000000000000000000000000000000000000000000000000000000000000000000000000000000000PES00010000001000000000000000000000000
202310100060000600000000000000002978000000000000000029788000000000030710405863MINISTERIO DE AMBIENTE        000000062400000000000000000000000000000000000000000000000000000000000000000000000000000000000000000000000000000000000000PES00010000001000000000000000020231110
202310102010000600000000000000000001000000000000000000018000000000030657877669EMPRESA DISTRIBUIDORA LA PLATA000000097500000000000000000000000000000000000000000000000000000000000000000000000000000000000000000000000000000000000000PES00010000001000000000000000020231110
202310100060000600000000000000002979000000000000000029798000000000030707045031MINISTERIO DE DESARROLLO DE LA000002520000000000000000000000000000000000000000000000000000000000000000000000000000000000000000000000000000000000000000PES00010000001000000000000000000000000
202310100060000600000000000000002980000000000000000029808000000000030626983398MINISTERIO DE SALUD PCIA DE BS000000106400000000000000000000000000000000000000000000000000000000000000000000000000000000000000000000000000000000000000PES00010000001000000000000000000000000
202310100060000600000000000000002981000000000000000029818000000000030626983398MINISTERIO DE SALUD PCIA DE BS000000110200000000000000000000000000000000000000000000000000000000000000000000000000000000000000000000000000000000000000PES00010000002000000000000000000000000
202310100060000600000000000000002982000000000000000029828000000000030711122369INSTITUTO DE INVESTIGACIONES E000000000137500000000000000000000000000000000000000000000000000000000000000000000000000000000000000000000000000000000000PES00010000001000000000000000000000000
202310100060000600000000000000002983000000000000000029838000000000030711122369INSTITUTO DE INVESTIGACIONES E000000000540000000000000000000000000000000000000000000000000000000000000000000000000000000000000000000000000000000000000PES00010000001000000000000000000000000
202310100060000600000000000000002984000000000000000029848000000000030711122369INSTITUTO DE INVESTIGACIONES E000000001200000000000000000000000000000000000000000000000000000000000000000000000000000000000000000000000000000000000000PES00010000001000000000000000000000000
202310100010000600000000000000001458000000000000000014588000000000033593283319CORREGIDOR SA                 000000002862000000000000000000000000000000000000000000000000000000000000000000000000000000000000000000000000000000000000PES00010000001000000000000000000000000
202310100010000600000000000000001459000000000000000014598000000000033593283319CORREGIDOR SA                 000000041966460000000000000000000000000000000000000000000000000000000000000000000000000000000000000000000000000000000000PES00010000001000000000000000000000000
202310100010000600000000000000001460000000000000000014608000000000033593283319CORREGIDOR SA                 000000021627179000000000000000000000000000000000000000000000000000000000000000000000000000000000000000000000000000000000PES00010000001000000000000000000000000
202310110060000600000000000000002985000000000000000029858000000000033692101419OCEBA ORGANISMO DE CONTROL DE 000000007420000000000000000000000000000000000000000000000000000000000000000000000000000000000000000000000000000000000000PES00010000001000000000000000000000000
202310110060000600000000000000002986000000000000000029868000000000030708499044INSTITUTO CULTURAL DE LA PROV 000000041509000000000000000000000000000000000000000000000000000000000000000000000000000000000000000000000000000000000000PES00010000001000000000000000020231111
202310110060000600000000000000002987000000000000000029878000000000030708499044INSTITUTO CULTURAL DE LA PROV 000000044000000000000000000000000000000000000000000000000000000000000000000000000000000000000000000000000000000000000000PES00010000001000000000000000020231111
202310110060000600000000000000002988000000000000000029888000000000030708499044INSTITUTO CULTURAL DE LA PROV 000000018700000000000000000000000000000000000000000000000000000000000000000000000000000000000000000000000000000000000000PES00010000001000000000000000020231111
202310110060000600000000000000002989000000000000000029898000000000030708499044INSTITUTO CULTURAL DE LA PROV 000000012310000000000000000000000000000000000000000000000000000000000000000000000000000000000000000000000000000000000000PES00010000001000000000000000020231111
202310120010000600000000000000001461000000000000000014618000000000030601290592AGREMIACION ODONTOLOGICA DE BE000000028000000000000000000000000000000000000000000000000000000000000000000000000000000000000000000000000000000000000000PES00010000001000000000000000000000000
202310120060000600000000000000002990000000000000000029908000000000030550008021INSTITUTO INTERAMERICANO DE CO000000495000000000000000000000000000000000000000000000000000000000000000000000000000000000000000000000000000000000000000PES00010000001000000000000000000000000
202310140060000600000000000000002991000000000000000029918000000000030627393713DIRECCION GENERAL DE CULTURA Y000000051350000000000000000000000000000000000000000000000000000000000000000000000000000000000000000000000000000000000000PES00010000001000000000000000000000000
202310170060000600000000000000002992000000000000000029928000000000030605234794CAJA DE PREVISION SOCIAL PARA 000000004100000000000000000000000000000000000000000000000000000000000000000000000000000000000000000000000000000000000000PES00010000001000000000000000000000000
202310170080000600000000000000000281000000000000000002818000000000030711122369INSTITUTO DE INVESTIGACIONES E000000000137500000000000000000000000000000000000000000000000000000000000000000000000000000000000000000000000000000000000PES00010000001000000000000000000000000
202310170080000600000000000000000282000000000000000002828000000000030711122369INSTITUTO DE INVESTIGACIONES E000000000540000000000000000000000000000000000000000000000000000000000000000000000000000000000000000000000000000000000000PES00010000001000000000000000000000000
202310170080000600000000000000000283000000000000000002838000000000030711122369INSTITUTO DE INVESTIGACIONES E000000001200000000000000000000000000000000000000000000000000000000000000000000000000000000000000000000000000000000000000PES00010000001000000000000000000000000
202310170060000600000000000000002993000000000000000029938000000000030710100140CENTRO CIENTIFICO TECNOLOGICO 000000000677500000000000000000000000000000000000000000000000000000000000000000000000000000000000000000000000000000000000PES00010000001000000000000000000000000
202310170060000600000000000000002994000000000000000029948000000000030710100140CENTRO CIENTIFICO TECNOLOGICO 000000001200000000000000000000000000000000000000000000000000000000000000000000000000000000000000000000000000000000000000PES00010000001000000000000000000000000
202310170060000600000000000000002995000000000000000029958000000000030710100140CENTRO CIENTIFICO TECNOLOGICO 000000000360000000000000000000000000000000000000000000000000000000000000000000000000000000000000000000000000000000000000PES00010000001000000000000000000000000
202310170060000600000000000000002996000000000000000029968000000000030710100140CENTRO CIENTIFICO TECNOLOGICO 000000000953000000000000000000000000000000000000000000000000000000000000000000000000000000000000000000000000000000000000PES00010000001000000000000000000000000
202310180060000600000000000000002997000000000000000029978000000000030999057167MINISTERIO DE PRODUCCION CIENC000000022000000000000000000000000000000000000000000000000000000000000000000000000000000000000000000000000000000000000000PES00010000001000000000000000000000000
202310180060000600000000000000002998000000000000000029988000000000030710100140CENTRO CIENTIFICO TECNOLOGICO 000000000550000000000000000000000000000000000000000000000000000000000000000000000000000000000000000000000000000000000000PES00010000001000000000000000000000000
202310180060000600000000000000002999000000000000000029998000000000030550857061COLEGIO DE FARMACEUTICOS DE LA000000002500000000000000000000000000000000000000000000000000000000000000000000000000000000000000000000000000000000000000PES00010000001000000000000000000000000
202310180060000600000000000000003000000000000000000030008000000000030550857061COLEGIO DE FARMACEUTICOS DE LA000000001800000000000000000000000000000000000000000000000000000000000000000000000000000000000000000000000000000000000000PES00010000001000000000000000000000000
202310180060000600000000000000003001000000000000000030018000000000030717321231JEFATURA DE ASESORES DEL GOBER000000260000000000000000000000000000000000000000000000000000000000000000000000000000000000000000000000000000000000000000PES00010000001000000000000000000000000
202310180010000600000000000000001462000000000000000014628000000000030501257954QUIMICA ARISTON S A I C       000000003880001000000000000000000000000000000000000000000000000000000000000000000000000000000000000000000000000000000000PES00010000001000000000000000000000000
202310180060000600000000000000003002000000000000000030028000000000030571909290ORGANIZACION INTERNACIONAL PAR000000011616000000000000000000000000000000000000000000000000000000000000000000000000000000000000000000000000000000000000PES00010000001000000000000000000000000
202310180060000600000000000000003003000000000000000030038000000000030715471511MINISTERIO DE JEFATURA DE GABI000000170000000000000000000000000000000000000000000000000000000000000000000000000000000000000000000000000000000000000000PES00010000001000000000000000000000000
202310180060000600000000000000003004000000000000000030048000000000030708499044INSTITUTO CULTURAL DE LA PROV 000000061275000000000000000000000000000000000000000000000000000000000000000000000000000000000000000000000000000000000000PES00010000001000000000000000020231118
202310180060000600000000000000003005000000000000000030058000000000030708499044INSTITUTO CULTURAL DE LA PROV 000000037480000000000000000000000000000000000000000000000000000000000000000000000000000000000000000000000000000000000000PES00010000001000000000000000020231118
202310180060000600000000000000003006000000000000000030068000000000030708499044INSTITUTO CULTURAL DE LA PROV 000000031680000000000000000000000000000000000000000000000000000000000000000000000000000000000000000000000000000000000000PES00010000001000000000000000020231118
202310180060000600000000000000003007000000000000000030078000000000030708499044INSTITUTO CULTURAL DE LA PROV 000000023755000000000000000000000000000000000000000000000000000000000000000000000000000000000000000000000000000000000000PES00010000001000000000000000020231118
202310180060000600000000000000003008000000000000000030088000000000030708499044INSTITUTO CULTURAL DE LA PROV 000000043674000000000000000000000000000000000000000000000000000000000000000000000000000000000000000000000000000000000000PES00010000001000000000000000020231118
202310190060000600000000000000003009000000000000000030098000000000030709643874FUNDACION FACULTAD DE CIENCIAS000000000780000000000000000000000000000000000000000000000000000000000000000000000000000000000000000000000000000000000000PES00010000001000000000000000000000000
202310190060000600000000000000003010000000000000000030108000000000030708752297MINISTERIO DE TRABAJO DE LA PR000000324600000000000000000000000000000000000000000000000000000000000000000000000000000000000000000000000000000000000000PES00010000001000000000000000000000000
202310190060000600000000000000003011000000000000000030118000000000030716742292MINISTERIO DE LAS MUJERES, POL000000004800000000000000000000000000000000000000000000000000000000000000000000000000000000000000000000000000000000000000PES00010000001000000000000000020231019
202310190060000600000000000000003012000000000000000030128000000000030716742292MINISTERIO DE LAS MUJERES, POL000000042000000000000000000000000000000000000000000000000000000000000000000000000000000000000000000000000000000000000000PES00010000001000000000000000020231019
202310190060000600000000000000003013000000000000000030138000000000030716742292MINISTERIO DE LAS MUJERES, POL000000002900000000000000000000000000000000000000000000000000000000000000000000000000000000000000000000000000000000000000PES00010000001000000000000000020231019
202310200060000600000000000000003014000000000000000030148000000000030707216650PODER JUDICIAL ADMINISTRACION 000000017640000000000000000000000000000000000000000000000000000000000000000000000000000000000000000000000000000000000000PES00010000001000000000000000000000000
202310200060000600000000000000003015000000000000000030158000000000030707216650PODER JUDICIAL ADMINISTRACION 000000019250000000000000000000000000000000000000000000000000000000000000000000000000000000000000000000000000000000000000PES00010000001000000000000000000000000
202310200060000600000000000000003016000000000000000030168000000000030717462021ORGANISMO PROVINCIAL DE LA NIÑ000000180000000000000000000000000000000000000000000000000000000000000000000000000000000000000000000000000000000000000000PES00010000001000000000000000000000000
202310200060000600000000000000003017000000000000000030178000000000030708499044INSTITUTO CULTURAL DE LA PROV 000000014500000000000000000000000000000000000000000000000000000000000000000000000000000000000000000000000000000000000000PES00010000001000000000000000020231120
202310200080000600000000000000000284000000000000000002848000000000030708499044INSTITUTO CULTURAL DE LA PROV 000000014500000000000000000000000000000000000000000000000000000000000000000000000000000000000000000000000000000000000000PES00010000001000000000000000000000000
202310230060000600000000000000003018000000000000000030188000000000030710100140CENTRO CIENTIFICO TECNOLOGICO 000000001500000000000000000000000000000000000000000000000000000000000000000000000000000000000000000000000000000000000000PES00010000001000000000000000000000000
202310230010000600000000000000001463000000000000000014638000000000030501152826LABORATORIOS RICHMOND SACIF   000000003600000000000000000000000000000000000000000000000000000000000000000000000000000000000000000000000000000000000000PES00010000001000000000000000000000000
202310240060000600000000000000003019000000000000000030198000000000033638161309COLEGIO DE MAGISTRADOS Y FUNCI000000001740000000000000000000000000000000000000000000000000000000000000000000000000000000000000000000000000000000000000PES00010000001000000000000000000000000
202310240060000600000000000000003020000000000000000030208000000000030707051546MINISTERIO DE JUSTICIA Y DEREC000000324000000000000000000000000000000000000000000000000000000000000000000000000000000000000000000000000000000000000000PES00010000001000000000000000000000000
202310250010000600000000000000001464000000000000000014648000000000033593283319CORREGIDOR SA                 000000002175120000000000000000000000000000000000000000000000000000000000000000000000000000000000000000000000000000000000PES00010000001000000000000000000000000
202310250010000600000000000000001465000000000000000014658000000000033593283319CORREGIDOR SA                 000000001908001000000000000000000000000000000000000000000000000000000000000000000000000000000000000000000000000000000000PES00010000001000000000000000000000000
202310250010000600000000000000001466000000000000000014668000000000033593283319CORREGIDOR SA                 000000001908001000000000000000000000000000000000000000000000000000000000000000000000000000000000000000000000000000000000PES00010000001000000000000000000000000
202310250010000600000000000000001467000000000000000014678000000000033593283319CORREGIDOR SA                 000000016790400000000000000000000000000000000000000000000000000000000000000000000000000000000000000000000000000000000000PES00010000001000000000000000000000000
202310250060000600000000000000003021000000000000000030218000000000030627393713DIRECCION GENERAL DE CULTURA Y000000102000000000000000000000000000000000000000000000000000000000000000000000000000000000000000000000000000000000000000PES00010000001000000000000000000000000
202310250060000600000000000000003022000000000000000030228000000000030627393713DIRECCION GENERAL DE CULTURA Y000000027500000000000000000000000000000000000000000000000000000000000000000000000000000000000000000000000000000000000000PES00010000001000000000000000000000000
202310250060000600000000000000003023000000000000000030238000000000030627393713DIRECCION GENERAL DE CULTURA Y000000023760000000000000000000000000000000000000000000000000000000000000000000000000000000000000000000000000000000000000PES00010000001000000000000000000000000
202310250060000600000000000000003024000000000000000030248000000000030627393713DIRECCION GENERAL DE CULTURA Y000000272480000000000000000000000000000000000000000000000000000000000000000000000000000000000000000000000000000000000000PES00010000001000000000000000000000000
202310250060000600000000000000003025000000000000000030258000000000030627393713DIRECCION GENERAL DE CULTURA Y000000066560000000000000000000000000000000000000000000000000000000000000000000000000000000000000000000000000000000000000PES00010000001000000000000000000000000
202310250060000600000000000000003026000000000000000030268000000000030627393713DIRECCION GENERAL DE CULTURA Y000000050000000000000000000000000000000000000000000000000000000000000000000000000000000000000000000000000000000000000000PES00010000001000000000000000000000000
202310250060000600000000000000003027000000000000000030278000000000030627393713DIRECCION GENERAL DE CULTURA Y000000034200000000000000000000000000000000000000000000000000000000000000000000000000000000000000000000000000000000000000PES00010000001000000000000000000000000
202310260060000600000000000000003028000000000000000030288000000000030546666707UNIVERSIDAD NACIONAL DE LA PLA000000002400000000000000000000000000000000000000000000000000000000000000000000000000000000000000000000000000000000000000PES00010000001000000000000000000000000
202310280060000600000000000000003029000000000000000030298000000000030613348677ASOCIACION DE FONIATRIA AUDIOL000000001800000000000000000000000000000000000000000000000000000000000000000000000000000000000000000000000000000000000000PES00010000001000000000000000000000000
202310300080000600000000000000000285000000000000000002858000000000030627393713DIRECCION GENERAL DE CULTURA Y000000066560000000000000000000000000000000000000000000000000000000000000000000000000000000000000000000000000000000000000PES00010000001000000000000000000000000
202310300060000600000000000000003030000000000000000030308000000000030627393713DIRECCION GENERAL DE CULTURA Y000000066560000000000000000000000000000000000000000000000000000000000000000000000000000000000000000000000000000000000000PES00010000001000000000000000000000000
202310300060000600000000000000003031000000000000000030318000000000030708693045CONSEJO PROFESIONAL DE CIENCIA000000004080000000000000000000000000000000000000000000000000000000000000000000000000000000000000000000000000000000000000PES00010000001000000000000000000000000
202310310060000600000000000000003032000000000000000030328000000000030715124234MINISTERIO DE GOBIERNO BS.AS. 000000327000000000000000000000000000000000000000000000000000000000000000000000000000000000000000000000000000000000000000PES00010000001000000000000000000000000
202310310060000600000000000000003033000000000000000030338000000000030627393713DIRECCION GENERAL DE CULTURA Y000000035400000000000000000000000000000000000000000000000000000000000000000000000000000000000000000000000000000000000000PES00010000001000000000000000000000000
202310310060000600000000000000003034000000000000000030348000000000030677972463JUNTA ELECTORAL PCIA DE BUENOS000000038400000000000000000000000000000000000000000000000000000000000000000000000000000000000000000000000000000000000000PES00010000001000000000000000000000000
202310310060000600000000000000003035000000000000000030358000000000030627393713DIRECCION GENERAL DE CULTURA Y000000176400000000000000000000000000000000000000000000000000000000000000000000000000000000000000000000000000000000000000PES00010000001000000000000000000000000
