202412010060000600000000000000003589000000000000000035898000000000030707045031MINISTERIO DE DESARROLLO DE LA000000400400000000000000000000000000000000000000000000000000000000000000000000000000000000000000000000000000000000000000PES00010000001000000000000000000000000
202412010060000600000000000000003590000000000000000035908000000000030665658313MINISTERIO DE INFRAESTRUCTURA 000000030500000000000000000000000000000000000000000000000000000000000000000000000000000000000000000000000000000000000000PES00010000001000000000000000000000000
202412020060000600000000000000003591000000000000000035918000000000030716694352ASOCIACION CIVIL PSICOANALITIC000000024000000000000000000000000000000000000000000000000000000000000000000000000000000000000000000000000000000000000000PES00010000001000000000000000000000000
202412020080000600000000000000000367000000000000000003678000000000030627393713DIRECCION GENERAL DE CULTURA Y000000077600000000000000000000000000000000000000000000000000000000000000000000000000000000000000000000000000000000000000PES00010000001000000000000000000000000
202412020060000600000000000000003592000000000000000035928000000000030627393713DIRECCION GENERAL DE CULTURA Y000000077600000000000000000000000000000000000000000000000000000000000000000000000000000000000000000000000000000000000000PES00010000001000000000000000000000000
202412020080000600000000000000000368000000000000000003688000000000030627393713DIRECCION GENERAL DE CULTURA Y000000077600000000000000000000000000000000000000000000000000000000000000000000000000000000000000000000000000000000000000PES00010000001000000000000000000000000
202412020060000600000000000000003593000000000000000035938000000000030627393713DIRECCION GENERAL DE CULTURA Y000000077600000000000000000000000000000000000000000000000000000000000000000000000000000000000000000000000000000000000000PES00010000001000000000000000000000000
202412020080000600000000000000000369000000000000000003698000000000030710405863MINISTERIO DE AMBIENTE        000000038388000000000000000000000000000000000000000000000000000000000000000000000000000000000000000000000000000000000000PES00010000001000000000000000000000000
202412020060000600000000000000003594000000000000000035948000000000030710405863MINISTERIO DE AMBIENTE        000000038388000000000000000000000000000000000000000000000000000000000000000000000000000000000000000000000000000000000000PES00010000001000000000000000000000000
202412020080000600000000000000000370000000000000000003708000000000030627393713DIRECCION GENERAL DE CULTURA Y000000108776000000000000000000000000000000000000000000000000000000000000000000000000000000000000000000000000000000000000PES00010000001000000000000000000000000
202412020060000600000000000000003595000000000000000035958000000000030627393713DIRECCION GENERAL DE CULTURA Y000000101600000000000000000000000000000000000000000000000000000000000000000000000000000000000000000000000000000000000000PES00010000001000000000000000000000000
202412020060000600000000000000003596000000000000000035968000000000030627393713DIRECCION GENERAL DE CULTURA Y000000273450000000000000000000000000000000000000000000000000000000000000000000000000000000000000000000000000000000000000PES00010000001000000000000000000000000
202412020060000600000000000000003597000000000000000035978000000000030716742292MINISTERIO DE MUJERES Y DIVERS000000024000000000000000000000000000000000000000000000000000000000000000000000000000000000000000000000000000000000000000PES00010000001000000000000000000000000
202412020060000600000000000000003598000000000000000035988000000000030716742292MINISTERIO DE MUJERES Y DIVERS000000009000000000000000000000000000000000000000000000000000000000000000000000000000000000000000000000000000000000000000PES00010000001000000000000000000000000
202412020060000600000000000000003599000000000000000035998000000000030715124234MINISTERIO DE GOBIERNO BS.AS. 000000510000000000000000000000000000000000000000000000000000000000000000000000000000000000000000000000000000000000000000PES00010000001000000000000000000000000
202412030010000600000000000000001685000000000000000016858000000000020218325697CASAL FABIAN HORACIO          000001000000144000000000000000000000000000000000000000000000000000000000000000000000000000000000000000000000000000000000PES00010000001000000000000000000000000
202412030060000600000000000000003600000000000000000036008000000000030627393713DIRECCION GENERAL DE CULTURA Y000000273450000000000000000000000000000000000000000000000000000000000000000000000000000000000000000000000000000000000000PES00010000001000000000000000000000000
202412030060000600000000000000003601000000000000000036018000000000030627393713DIRECCION GENERAL DE CULTURA Y000000148360000000000000000000000000000000000000000000000000000000000000000000000000000000000000000000000000000000000000PES00010000001000000000000000000000000
202412030060000600000000000000003602000000000000000036028000000000030627393713DIRECCION GENERAL DE CULTURA Y000000144750000000000000000000000000000000000000000000000000000000000000000000000000000000000000000000000000000000000000PES00010000001000000000000000000000000
202412040080000600000000000000000371000000000000000003718000000000033638161309COLEGIO DE MAGISTRADOS Y FUNCI000000027360000000000000000000000000000000000000000000000000000000000000000000000000000000000000000000000000000000000000PES00010000001000000000000000000000000
202412040060000600000000000000003603000000000000000036038000000000033638161309COLEGIO DE MAGISTRADOS Y FUNCI000000013680000000000000000000000000000000000000000000000000000000000000000000000000000000000000000000000000000000000000PES00010000001000000000000000000000000
202412040060000600000000000000003604000000000000000036048000000000030665658313MINISTERIO DE INFRAESTRUCTURA 000000030500000000000000000000000000000000000000000000000000000000000000000000000000000000000000000000000000000000000000PES00010000001000000000000000000000000
202412040060000600000000000000003605000000000000000036058000000000030665658313MINISTERIO DE INFRAESTRUCTURA 000000030500000000000000000000000000000000000000000000000000000000000000000000000000000000000000000000000000000000000000PES00010000001000000000000000000000000
202412040060000600000000000000003606000000000000000036068000000000030707045031MINISTERIO DE DESARROLLO DE LA000000400400000000000000000000000000000000000000000000000000000000000000000000000000000000000000000000000000000000000000PES00010000001000000000000000000000000
202412040010000600000000000000001686000000000000000016868000000000030516645543ELEPRINT S A                  000000228002720000000000000000000000000000000000000000000000000000000000000000000000000000000000000000000000000000000000PES00010000001000000000000000000000000
202412040060000600000000000000003607000000000000000036078000000000030550857061COLEGIO DE FARMACEUTICOS DE LA000000580000000000000000000000000000000000000000000000000000000000000000000000000000000000000000000000000000000000000000PES00010000001000000000000000000000000
202412040010000600000000000000001687000000000000000016878000000000030578459118LOS TILOS INVERSIONES Y SERVIC000000007900000000000000000000000000000000000000000000000000000000000000000000000000000000000000000000000000000000000000PES00010000001000000000000000000000000
202412040060000600000000000000003608000000000000000036088000000000030999057167MINISTERIO DE PRODUCCION CIENC000000081839000000000000000000000000000000000000000000000000000000000000000000000000000000000000000000000000000000000000PES00010000001000000000000000000000000
202412040010000600000000000000001688000000000000000016888000000000030657864281CAMUZZI GAS PAMPEANA S A      000000026438137000000000000000000000000000000000000000000000000000000000000000000000000000000000000000000000000000000000PES00010000001000000000000000000000000
202412040010000600000000000000001689000000000000000016898000000000030657864281CAMUZZI GAS PAMPEANA S A      000000001200005000000000000000000000000000000000000000000000000000000000000000000000000000000000000000000000000000000000PES00010000001000000000000000000000000
202412040060000600000000000000003609000000000000000036098000000000030708499044INSTITUTO CULTURAL DE LA PROV 000000460400000000000000000000000000000000000000000000000000000000000000000000000000000000000000000000000000000000000000PES00010000001000000000000000000000000
202412040060000600000000000000003610000000000000000036108000000000030627393713DIRECCION GENERAL DE CULTURA Y000000201240000000000000000000000000000000000000000000000000000000000000000000000000000000000000000000000000000000000000PES00010000001000000000000000020241204
202412050010000600000000000000001690000000000000000016908000000000030714246751ENJOYLOGY S.R.L. S. R. L.     000000035800004000000000000000000000000000000000000000000000000000000000000000000000000000000000000000000000000000000000PES00010000001000000000000000000000000
202412050060000600000000000000003611000000000000000036118000000000030627393713DIRECCION GENERAL DE CULTURA Y000000083600000000000000000000000000000000000000000000000000000000000000000000000000000000000000000000000000000000000000PES00010000001000000000000000000000000
202412050080000600000000000000000372000000000000000003728000000000030627393713DIRECCION GENERAL DE CULTURA Y000000027720000000000000000000000000000000000000000000000000000000000000000000000000000000000000000000000000000000000000PES00010000001000000000000000000000000
202412050060000600000000000000003612000000000000000036128000000000030715124234MINISTERIO DE GOBIERNO BS.AS. 000000065000000000000000000000000000000000000000000000000000000000000000000000000000000000000000000000000000000000000000PES00010000001000000000000000000000000
202412050010000600000000000000001691000000000000000016918000000000027225988795NINA MARIA LAURA              000000007800003000000000000000000000000000000000000000000000000000000000000000000000000000000000000000000000000000000000PES00010000001000000000000000000000000
202412050010000600000000000000001692000000000000000016928000000000027225988795NINA MARIA LAURA              000000072800023000000000000000000000000000000000000000000000000000000000000000000000000000000000000000000000000000000000PES00010000001000000000000000000000000
202412050060000600000000000000003613000000000000000036138000000000030627393713DIRECCION GENERAL DE CULTURA Y000000027720000000000000000000000000000000000000000000000000000000000000000000000000000000000000000000000000000000000000PES00010000001000000000000000000000000
202412050060000600000000000000003614000000000000000036148000000000030627393713DIRECCION GENERAL DE CULTURA Y000000213660000000000000000000000000000000000000000000000000000000000000000000000000000000000000000000000000000000000000PES00010000001000000000000000000000000
202412050060000600000000000000003615000000000000000036158000000000030627393713DIRECCION GENERAL DE CULTURA Y000000246820000000000000000000000000000000000000000000000000000000000000000000000000000000000000000000000000000000000000PES00010000001000000000000000000000000
202412050060000600000000000000003616000000000000000036168000000000030627393713DIRECCION GENERAL DE CULTURA Y000000201240000000000000000000000000000000000000000000000000000000000000000000000000000000000000000000000000000000000000PES00010000001000000000000000000000000
202412050060000600000000000000003617000000000000000036178000000000030627393713DIRECCION GENERAL DE CULTURA Y000000210600000000000000000000000000000000000000000000000000000000000000000000000000000000000000000000000000000000000000PES00010000001000000000000000000000000
202412060060000600000000000000003618000000000000000036188000000000030710405863MINISTERIO DE AMBIENTE        000000038388000000000000000000000000000000000000000000000000000000000000000000000000000000000000000000000000000000000000PES00010000001000000000000000000000000
202412060060000600000000000000003619000000000000000036198000000000030710405863MINISTERIO DE AMBIENTE        000000038388000000000000000000000000000000000000000000000000000000000000000000000000000000000000000000000000000000000000PES00010000001000000000000000000000000
202412060060000600000000000000003620000000000000000036208000000000030710405863MINISTERIO DE AMBIENTE        000000038388000000000000000000000000000000000000000000000000000000000000000000000000000000000000000000000000000000000000PES00010000001000000000000000000000000
202412060060000600000000000000003621000000000000000036218000000000030710405863MINISTERIO DE AMBIENTE        000000060800000000000000000000000000000000000000000000000000000000000000000000000000000000000000000000000000000000000000PES00010000001000000000000000000000000
202412060060000600000000000000003622000000000000000036228000000000030710405863MINISTERIO DE AMBIENTE        000000046102000000000000000000000000000000000000000000000000000000000000000000000000000000000000000000000000000000000000PES00010000001000000000000000000000000
202412060060000600000000000000003623000000000000000036238000000000030710405863MINISTERIO DE AMBIENTE        000000046102000000000000000000000000000000000000000000000000000000000000000000000000000000000000000000000000000000000000PES00010000001000000000000000000000000
202412060060000600000000000000003624000000000000000036248000000000030710405863MINISTERIO DE AMBIENTE        000000038388000000000000000000000000000000000000000000000000000000000000000000000000000000000000000000000000000000000000PES00010000001000000000000000000000000
202412060060000600000000000000003625000000000000000036258000000000030710405863MINISTERIO DE AMBIENTE        000000038388000000000000000000000000000000000000000000000000000000000000000000000000000000000000000000000000000000000000PES00010000001000000000000000000000000
202412060060000600000000000000003626000000000000000036268000000000030710405863MINISTERIO DE AMBIENTE        000000038388000000000000000000000000000000000000000000000000000000000000000000000000000000000000000000000000000000000000PES00010000001000000000000000000000000
202412060060000600000000000000003627000000000000000036278000000000030710405863MINISTERIO DE AMBIENTE        000000046102000000000000000000000000000000000000000000000000000000000000000000000000000000000000000000000000000000000000PES00010000001000000000000000000000000
202412060060000600000000000000003628000000000000000036288000000000030546666707UNIVERSIDAD NACIONAL DE LA PLA000000004050000000000000000000000000000000000000000000000000000000000000000000000000000000000000000000000000000000000000PES00010000001000000000000000000000000
202412060060000600000000000000003629000000000000000036298000000000030707045031MINISTERIO DE DESARROLLO DE LA000001656825000000000000000000000000000000000000000000000000000000000000000000000000000000000000000000000000000000000000PES00010000001000000000000000000000000
202412060060000600000000000000003630000000000000000036308000000000030546666707UNIVERSIDAD NACIONAL DE LA PLA000000004050000000000000000000000000000000000000000000000000000000000000000000000000000000000000000000000000000000000000PES00010000001000000000000000000000000
202412060060000600000000000000003631000000000000000036318000000000030627393713DIRECCION GENERAL DE CULTURA Y000000820220000000000000000000000000000000000000000000000000000000000000000000000000000000000000000000000000000000000000PES00010000001000000000000000000000000
202412060060000600000000000000003632000000000000000036328000000000030710405863MINISTERIO DE AMBIENTE        000000038388000000000000000000000000000000000000000000000000000000000000000000000000000000000000000000000000000000000000PES00010000001000000000000000000000000
202412060060000600000000000000003633000000000000000036338000000000030715124234MINISTERIO DE GOBIERNO BS.AS. 000000676000000000000000000000000000000000000000000000000000000000000000000000000000000000000000000000000000000000000000PES00010000001000000000000000000000000
202412070060000600000000000000003634000000000000000036348000000000030627393713DIRECCION GENERAL DE CULTURA Y000000336800000000000000000000000000000000000000000000000000000000000000000000000000000000000000000000000000000000000000PES00010000001000000000000000000000000
202412070060000600000000000000003635000000000000000036358000000000030627393713DIRECCION GENERAL DE CULTURA Y000000163380000000000000000000000000000000000000000000000000000000000000000000000000000000000000000000000000000000000000PES00010000001000000000000000000000000
202412070060000600000000000000003636000000000000000036368000000000030627393713DIRECCION GENERAL DE CULTURA Y000000334864000000000000000000000000000000000000000000000000000000000000000000000000000000000000000000000000000000000000PES00010000001000000000000000000000000
202412070060000600000000000000003637000000000000000036378000000000030627393713DIRECCION GENERAL DE CULTURA Y000000548560000000000000000000000000000000000000000000000000000000000000000000000000000000000000000000000000000000000000PES00010000001000000000000000000000000
202412090060000600000000000000003638000000000000000036388000000000030715124234MINISTERIO DE GOBIERNO BS.AS. 000001150200000000000000000000000000000000000000000000000000000000000000000000000000000000000000000000000000000000000000PES00010000001000000000000000000000000
202412100060000600000000000000003639000000000000000036398000000000030708499044INSTITUTO CULTURAL DE LA PROV 000000460400000000000000000000000000000000000000000000000000000000000000000000000000000000000000000000000000000000000000PES00010000001000000000000000000000000
202412110060000600000000000000003640000000000000000036408000000000030627393713DIRECCION GENERAL DE CULTURA Y000000185840000000000000000000000000000000000000000000000000000000000000000000000000000000000000000000000000000000000000PES00010000001000000000000000000000000
202412110060000600000000000000003641000000000000000036418000000000030999057167MINISTERIO DE PRODUCCION CIENC000000150000000000000000000000000000000000000000000000000000000000000000000000000000000000000000000000000000000000000000PES00010000001000000000000000000000000
202412110060000600000000000000003642000000000000000036428000000000030716742292MINISTERIO DE MUJERES Y DIVERS000000049000000000000000000000000000000000000000000000000000000000000000000000000000000000000000000000000000000000000000PES00010000001000000000000000000000000
202412110060000600000000000000003643000000000000000036438000000000030716742292MINISTERIO DE MUJERES Y DIVERS000000049000000000000000000000000000000000000000000000000000000000000000000000000000000000000000000000000000000000000000PES00010000001000000000000000000000000
202412110060000600000000000000003644000000000000000036448000000000030716742292MINISTERIO DE MUJERES Y DIVERS000000032000000000000000000000000000000000000000000000000000000000000000000000000000000000000000000000000000000000000000PES00010000001000000000000000000000000
202412110060000600000000000000003645000000000000000036458000000000030716742292MINISTERIO DE MUJERES Y DIVERS000000030000000000000000000000000000000000000000000000000000000000000000000000000000000000000000000000000000000000000000PES00010000001000000000000000000000000
202412120080000600000000000000000373000000000000000003738000000000030627393713DIRECCION GENERAL DE CULTURA Y000000005792000000000000000000000000000000000000000000000000000000000000000000000000000000000000000000000000000000000000PES00010000001000000000000000000000000
202412120080000600000000000000000374000000000000000003748000000000030627393713DIRECCION GENERAL DE CULTURA Y000000005792000000000000000000000000000000000000000000000000000000000000000000000000000000000000000000000000000000000000PES00010000001000000000000000000000000
202412120060000600000000000000003646000000000000000036468000000000030627393713DIRECCION GENERAL DE CULTURA Y000000005792000000000000000000000000000000000000000000000000000000000000000000000000000000000000000000000000000000000000PES00010000001000000000000000000000000
202412120060000600000000000000003647000000000000000036478000000000030627393713DIRECCION GENERAL DE CULTURA Y000000005792000000000000000000000000000000000000000000000000000000000000000000000000000000000000000000000000000000000000PES00010000001000000000000000000000000
202412120060000600000000000000003648000000000000000036488000000000030710405863MINISTERIO DE AMBIENTE        000000038388000000000000000000000000000000000000000000000000000000000000000000000000000000000000000000000000000000000000PES00010000001000000000000000000000000
202412120060000600000000000000003649000000000000000036498000000000030710405863MINISTERIO DE AMBIENTE        000000038388000000000000000000000000000000000000000000000000000000000000000000000000000000000000000000000000000000000000PES00010000001000000000000000000000000
202412120060000600000000000000003650000000000000000036508000000000030710405863MINISTERIO DE AMBIENTE        000000038388000000000000000000000000000000000000000000000000000000000000000000000000000000000000000000000000000000000000PES00010000001000000000000000000000000
202412120060000600000000000000003651000000000000000036518000000000030710405863MINISTERIO DE AMBIENTE        000000046102000000000000000000000000000000000000000000000000000000000000000000000000000000000000000000000000000000000000PES00010000001000000000000000000000000
202412120060000600000000000000003652000000000000000036528000000000030710405863MINISTERIO DE AMBIENTE        000000046102000000000000000000000000000000000000000000000000000000000000000000000000000000000000000000000000000000000000PES00010000001000000000000000000000000
202412120060000600000000000000003653000000000000000036538000000000030710405863MINISTERIO DE AMBIENTE        000000038388000000000000000000000000000000000000000000000000000000000000000000000000000000000000000000000000000000000000PES00010000001000000000000000000000000
202412120060000600000000000000003654000000000000000036548000000000030715124234MINISTERIO DE GOBIERNO BS.AS. 000000870000000000000000000000000000000000000000000000000000000000000000000000000000000000000000000000000000000000000000PES00010000001000000000000000000000000
202412120060000600000000000000003655000000000000000036558000000000030627393713DIRECCION GENERAL DE CULTURA Y000000030800000000000000000000000000000000000000000000000000000000000000000000000000000000000000000000000000000000000000PES00010000001000000000000000000000000
202412120060000600000000000000003656000000000000000036568000000000030627393713DIRECCION GENERAL DE CULTURA Y000000122720000000000000000000000000000000000000000000000000000000000000000000000000000000000000000000000000000000000000PES00010000001000000000000000000000000
202412120060000600000000000000003657000000000000000036578000000000030627393713DIRECCION GENERAL DE CULTURA Y000000156912000000000000000000000000000000000000000000000000000000000000000000000000000000000000000000000000000000000000PES00010000001000000000000000000000000
202412130080000600000000000000000375000000000000000003758000000000030627393713DIRECCION GENERAL DE CULTURA Y000000078560000000000000000000000000000000000000000000000000000000000000000000000000000000000000000000000000000000000000PES00010000001000000000000000000000000
202412130060000600000000000000003658000000000000000036588000000000030627393713DIRECCION GENERAL DE CULTURA Y000000412530000000000000000000000000000000000000000000000000000000000000000000000000000000000000000000000000000000000000PES00010000001000000000000000000000000
202412130060000600000000000000003659000000000000000036598000000000030710405863MINISTERIO DE AMBIENTE        000000046102000000000000000000000000000000000000000000000000000000000000000000000000000000000000000000000000000000000000PES00010000001000000000000000000000000
202412130010000600000000000000001693000000000000000016938000000000033593283319CORREGIDOR SA                 000000088005249000000000000000000000000000000000000000000000000000000000000000000000000000000000000000000000000000000000PES00010000001000000000000000000000000
202412130010000600000000000000001694000000000000000016948000000000033593283319CORREGIDOR SA                 000000276419924000000000000000000000000000000000000000000000000000000000000000000000000000000000000000000000000000000000PES00010000001000000000000000000000000
202412140080000600000000000000000376000000000000000003768000000000030627393713DIRECCION GENERAL DE CULTURA Y000000005792000000000000000000000000000000000000000000000000000000000000000000000000000000000000000000000000000000000000PES00010000001000000000000000000000000
202412140010000600000000000000001695000000000000000016958000000000020936441832SUCESION DE HERMIDA MANUEL PER000000040000000000000000000000000000000000000000000000000000000000000000000000000000000000000000000000000000000000000000PES00010000001000000000000000000000000
202412140080000600000000000000000377000000000000000003778000000000030627393713DIRECCION GENERAL DE CULTURA Y000000820220000000000000000000000000000000000000000000000000000000000000000000000000000000000000000000000000000000000000PES00010000001000000000000000000000000
202412140060000600000000000000003660000000000000000036608000000000030638438514H CAMARA DE DIPUTADOS PCIA BS 000001446250000000000000000000000000000000000000000000000000000000000000000000000000000000000000000000000000000000000000PES00010000001000000000000000000000000
202412140060000600000000000000003661000000000000000036618000000000030709643874FUNDACION FACULTAD DE CIENCIAS000000015480000000000000000000000000000000000000000000000000000000000000000000000000000000000000000000000000000000000000PES00010000001000000000000000000000000
202412160060000600000000000000003662000000000000000036628000000000030716742292MINISTERIO DE MUJERES Y DIVERS000000024000000000000000000000000000000000000000000000000000000000000000000000000000000000000000000000000000000000000000PES00010000001000000000000000000000000
202412160060000600000000000000003663000000000000000036638000000000030716742292MINISTERIO DE MUJERES Y DIVERS000000032000000000000000000000000000000000000000000000000000000000000000000000000000000000000000000000000000000000000000PES00010000001000000000000000000000000
202412160060000600000000000000003664000000000000000036648000000000030716742292MINISTERIO DE MUJERES Y DIVERS000000049000000000000000000000000000000000000000000000000000000000000000000000000000000000000000000000000000000000000000PES00010000001000000000000000000000000
202412160080000600000000000000000378000000000000000003788000000000030716742292MINISTERIO DE MUJERES Y DIVERS000000032000000000000000000000000000000000000000000000000000000000000000000000000000000000000000000000000000000000000000PES00010000001000000000000000000000000
202412160080000600000000000000000379000000000000000003798000000000030716742292MINISTERIO DE MUJERES Y DIVERS000000049000000000000000000000000000000000000000000000000000000000000000000000000000000000000000000000000000000000000000PES00010000001000000000000000000000000
202412160080000600000000000000000380000000000000000003808000000000030716742292MINISTERIO DE MUJERES Y DIVERS000000024000000000000000000000000000000000000000000000000000000000000000000000000000000000000000000000000000000000000000PES00010000001000000000000000000000000
202412160070000600000000000000000004000000000000000000048000000000030627393713DIRECCION GENERAL DE CULTURA Y000000077600000000000000000000000000000000000000000000000000000000000000000000000000000000000000000000000000000000000000PES00010000001000000000000000000000000
202412160080000600000000000000000381000000000000000003818000000000030627393713DIRECCION GENERAL DE CULTURA Y000000077600000000000000000000000000000000000000000000000000000000000000000000000000000000000000000000000000000000000000PES00010000001000000000000000000000000
202412160060000600000000000000003665000000000000000036658000000000030716742292MINISTERIO DE MUJERES Y DIVERS000000030000000000000000000000000000000000000000000000000000000000000000000000000000000000000000000000000000000000000000PES00010000001000000000000000000000000
202412160060000600000000000000003666000000000000000036668000000000030716742292MINISTERIO DE MUJERES Y DIVERS000000024000000000000000000000000000000000000000000000000000000000000000000000000000000000000000000000000000000000000000PES00010000001000000000000000000000000
202412160080000600000000000000000382000000000000000003828000000000030716742292MINISTERIO DE MUJERES Y DIVERS000000030000000000000000000000000000000000000000000000000000000000000000000000000000000000000000000000000000000000000000PES00010000001000000000000000000000000
202412160060000600000000000000003667000000000000000036678000000000030716742292MINISTERIO DE MUJERES Y DIVERS000000030000000000000000000000000000000000000000000000000000000000000000000000000000000000000000000000000000000000000000PES00010000001000000000000000000000000
202412160060000600000000000000003668000000000000000036688000000000030716742292MINISTERIO DE MUJERES Y DIVERS000000032000000000000000000000000000000000000000000000000000000000000000000000000000000000000000000000000000000000000000PES00010000001000000000000000000000000
202412160060000600000000000000003669000000000000000036698000000000030716742292MINISTERIO DE MUJERES Y DIVERS000000049000000000000000000000000000000000000000000000000000000000000000000000000000000000000000000000000000000000000000PES00010000001000000000000000000000000
202412160080000600000000000000000383000000000000000003838000000000030716742292MINISTERIO DE MUJERES Y DIVERS000000049000000000000000000000000000000000000000000000000000000000000000000000000000000000000000000000000000000000000000PES00010000001000000000000000000000000
202412160080000600000000000000000384000000000000000003848000000000030716742292MINISTERIO DE MUJERES Y DIVERS000000032000000000000000000000000000000000000000000000000000000000000000000000000000000000000000000000000000000000000000PES00010000001000000000000000000000000
202412160080000600000000000000000385000000000000000003858000000000030716742292MINISTERIO DE MUJERES Y DIVERS000000024000000000000000000000000000000000000000000000000000000000000000000000000000000000000000000000000000000000000000PES00010000001000000000000000000000000
202412160080000600000000000000000386000000000000000003868000000000030716742292MINISTERIO DE MUJERES Y DIVERS000000030000000000000000000000000000000000000000000000000000000000000000000000000000000000000000000000000000000000000000PES00010000001000000000000000000000000
202412170060000600000000000000003670000000000000000036708000000000030627393713DIRECCION GENERAL DE CULTURA Y000000195600000000000000000000000000000000000000000000000000000000000000000000000000000000000000000000000000000000000000PES00010000001000000000000000000000000
202412170060000600000000000000003671000000000000000036718000000000030627393713DIRECCION GENERAL DE CULTURA Y000000850000000000000000000000000000000000000000000000000000000000000000000000000000000000000000000000000000000000000000PES00010000001000000000000000000000000
202412180060000600000000000000003672000000000000000036728000000000030710405863MINISTERIO DE AMBIENTE        000000038388000000000000000000000000000000000000000000000000000000000000000000000000000000000000000000000000000000000000PES00010000001000000000000000000000000
202412180060000600000000000000003673000000000000000036738000000000030710405863MINISTERIO DE AMBIENTE        000000038388000000000000000000000000000000000000000000000000000000000000000000000000000000000000000000000000000000000000PES00010000001000000000000000000000000
202412180060000600000000000000003674000000000000000036748000000000030710405863MINISTERIO DE AMBIENTE        000000046102000000000000000000000000000000000000000000000000000000000000000000000000000000000000000000000000000000000000PES00010000001000000000000000000000000
202412180060000600000000000000003675000000000000000036758000000000030710405863MINISTERIO DE AMBIENTE        000000138000000000000000000000000000000000000000000000000000000000000000000000000000000000000000000000000000000000000000PES00010000001000000000000000000000000
202412180060000600000000000000003676000000000000000036768000000000030710405863MINISTERIO DE AMBIENTE        000000046102000000000000000000000000000000000000000000000000000000000000000000000000000000000000000000000000000000000000PES00010000001000000000000000000000000
202412180060000600000000000000003677000000000000000036778000000000030710405863MINISTERIO DE AMBIENTE        000000138000000000000000000000000000000000000000000000000000000000000000000000000000000000000000000000000000000000000000PES00010000001000000000000000000000000
202412180060000600000000000000003678000000000000000036788000000000030710405863MINISTERIO DE AMBIENTE        000000038388000000000000000000000000000000000000000000000000000000000000000000000000000000000000000000000000000000000000PES00010000001000000000000000000000000
202412180060000600000000000000003679000000000000000036798000000000030710405863MINISTERIO DE AMBIENTE        000000046102000000000000000000000000000000000000000000000000000000000000000000000000000000000000000000000000000000000000PES00010000001000000000000000000000000
202412180060000600000000000000003680000000000000000036808000000000030715124234MINISTERIO DE GOBIERNO BS.AS. 000000282000000000000000000000000000000000000000000000000000000000000000000000000000000000000000000000000000000000000000PES00010000001000000000000000000000000
202412180010000600000000000000001696000000000000000016968000000000033593283319CORREGIDOR SA                 000000088005225000000000000000000000000000000000000000000000000000000000000000000000000000000000000000000000000000000000PES00010000001000000000000000000000000
202412180010000600000000000000001697000000000000000016978000000000033593283319CORREGIDOR SA                 000000276419910000000000000000000000000000000000000000000000000000000000000000000000000000000000000000000000000000000000PES00010000001000000000000000000000000
202412180010000600000000000000001698000000000000000016988000000000033593283319CORREGIDOR SA                 000000164030730000000000000000000000000000000000000000000000000000000000000000000000000000000000000000000000000000000000PES00010000001000000000000000000000000
202412180060000600000000000000003681000000000000000036818000000000030546666707UNIVERSIDAD NACIONAL DE LA PLA000000039000000000000000000000000000000000000000000000000000000000000000000000000000000000000000000000000000000000000000PES00010000001000000000000000000000000
202412180010000600000000000000001699000000000000000016998000000000030544640212LABORATORIO ELEA PHOENIX S A  000000134000000000000000000000000000000000000000000000000000000000000000000000000000000000000000000000000000000000000000PES00010000001000000000000000000000000
202412180060000600000000000000003682000000000000000036828000000000030717321231JEFATURA DE ASESORES DEL GOBER000001182350000000000000000000000000000000000000000000000000000000000000000000000000000000000000000000000000000000000000PES00010000001000000000000000000000000
202412180010000600000000000000001700000000000000000017008000000000030519098683FARMACIA CARUSO SOCIEDAD EN CO000000472000361000000000000000000000000000000000000000000000000000000000000000000000000000000000000000000000000000000000PES00010000001000000000000000000000000
202412190060000600000000000000003683000000000000000036838000000000030546666707UNIVERSIDAD NACIONAL DE LA PLA000000305000000000000000000000000000000000000000000000000000000000000000000000000000000000000000000000000000000000000000PES00010000001000000000000000000000000
202412190060000600000000000000003684000000000000000036848000000000030546666707UNIVERSIDAD NACIONAL DE LA PLA000000010000000000000000000000000000000000000000000000000000000000000000000000000000000000000000000000000000000000000000PES00010000001000000000000000000000000
202412190080000600000000000000000387000000000000000003878000000000030715904817ORGANISMO PROVINCIAL DE INTEGR000000098400000000000000000000000000000000000000000000000000000000000000000000000000000000000000000000000000000000000000PES00010000001000000000000000000000000
202412190060000600000000000000003685000000000000000036858000000000030715904817ORGANISMO PROVINCIAL DE INTEGR000000098400000000000000000000000000000000000000000000000000000000000000000000000000000000000000000000000000000000000000PES00010000001000000000000000020250119
202412190060000600000000000000003686000000000000000036868000000000033684854149COMISION DE INVESTIGACIONES CI000000145500000000000000000000000000000000000000000000000000000000000000000000000000000000000000000000000000000000000000PES00010000001000000000000000020250119
202412190060000600000000000000003687000000000000000036878000000000030627393713DIRECCION GENERAL DE CULTURA Y000000216165000000000000000000000000000000000000000000000000000000000000000000000000000000000000000000000000000000000000PES00010000001000000000000000000000000
202412200060000600000000000000003688000000000000000036888000000000030638438514H CAMARA DE DIPUTADOS PCIA BS 000000774850000000000000000000000000000000000000000000000000000000000000000000000000000000000000000000000000000000000000PES00010000001000000000000000000000000
202412200060000600000000000000003689000000000000000036898000000000030716742292MINISTERIO DE MUJERES Y DIVERS000000007800000000000000000000000000000000000000000000000000000000000000000000000000000000000000000000000000000000000000PES00010000001000000000000000000000000
202412200060000600000000000000003690000000000000000036908000000000030716742292MINISTERIO DE MUJERES Y DIVERS000000007800000000000000000000000000000000000000000000000000000000000000000000000000000000000000000000000000000000000000PES00010000001000000000000000000000000
202412200060000600000000000000003691000000000000000036918000000000030716742292MINISTERIO DE MUJERES Y DIVERS000000006800000000000000000000000000000000000000000000000000000000000000000000000000000000000000000000000000000000000000PES00010000001000000000000000000000000
202412200060000600000000000000003692000000000000000036928000000000030716742292MINISTERIO DE MUJERES Y DIVERS000000022000000000000000000000000000000000000000000000000000000000000000000000000000000000000000000000000000000000000000PES00010000001000000000000000000000000
202412200060000600000000000000003693000000000000000036938000000000030716742292MINISTERIO DE MUJERES Y DIVERS000000007800000000000000000000000000000000000000000000000000000000000000000000000000000000000000000000000000000000000000PES00010000001000000000000000000000000
202412200060000600000000000000003694000000000000000036948000000000030716742292MINISTERIO DE MUJERES Y DIVERS000000007800000000000000000000000000000000000000000000000000000000000000000000000000000000000000000000000000000000000000PES00010000001000000000000000000000000
202412200060000600000000000000003695000000000000000036958000000000030716742292MINISTERIO DE MUJERES Y DIVERS000000006800000000000000000000000000000000000000000000000000000000000000000000000000000000000000000000000000000000000000PES00010000001000000000000000000000000
202412220010000600000000000000001701000000000000000017018000000000030548950704FEDERACION ODONTOLOGICA DE LA 000000035720000000000000000000000000000000000000000000000000000000000000000000000000000000000000000000000000000000000000PES00010000001000000000000000000000000
202412220060000600000000000000003696000000000000000036968000000000030627393713DIRECCION GENERAL DE CULTURA Y000000086580000000000000000000000000000000000000000000000000000000000000000000000000000000000000000000000000000000000000PES00010000001000000000000000000000000
202412220060000600000000000000003697000000000000000036978000000000030627393713DIRECCION GENERAL DE CULTURA Y000000137196000000000000000000000000000000000000000000000000000000000000000000000000000000000000000000000000000000000000PES00010000001000000000000000000000000
202412220060000600000000000000003698000000000000000036988000000000030627393713DIRECCION GENERAL DE CULTURA Y000000292400000000000000000000000000000000000000000000000000000000000000000000000000000000000000000000000000000000000000PES00010000001000000000000000000000000
202412220060000600000000000000003699000000000000000036998000000000030627393713DIRECCION GENERAL DE CULTURA Y000000704000000000000000000000000000000000000000000000000000000000000000000000000000000000000000000000000000000000000000PES00010000001000000000000000000000000
202412230060000600000000000000003700000000000000000037008000000000030665658313MINISTERIO DE INFRAESTRUCTURA 000000024000000000000000000000000000000000000000000000000000000000000000000000000000000000000000000000000000000000000000PES00010000001000000000000000000000000
202412230060000600000000000000003701000000000000000037018000000000030665658313MINISTERIO DE INFRAESTRUCTURA 000000004800000000000000000000000000000000000000000000000000000000000000000000000000000000000000000000000000000000000000PES00010000001000000000000000000000000
202412230060000600000000000000003702000000000000000037028000000000033546288639UNION TRANVIARIOS AUTOMOTOR U 000000202500000000000000000000000000000000000000000000000000000000000000000000000000000000000000000000000000000000000000PES00010000001000000000000000000000000
202412230060000600000000000000003703000000000000000037038000000000030707216669PODER JUDICIAL MINISTERIO PUBL000000095000000000000000000000000000000000000000000000000000000000000000000000000000000000000000000000000000000000000000PES00010000001000000000000000000000000
202412230060000600000000000000003704000000000000000037048000000000030627393713DIRECCION GENERAL DE CULTURA Y000000120750000000000000000000000000000000000000000000000000000000000000000000000000000000000000000000000000000000000000PES00010000001000000000000000000000000
202412230010000600000000000000001702000000000000000017028000000000033593283319CORREGIDOR SA                 000000100577400000000000000000000000000000000000000000000000000000000000000000000000000000000000000000000000000000000000PES00010000001000000000000000000000000
202412230010000600000000000000001703000000000000000017038000000000033593283319CORREGIDOR SA                 000000156464101000000000000000000000000000000000000000000000000000000000000000000000000000000000000000000000000000000000PES00010000001000000000000000000000000
202412230010000600000000000000001704000000000000000017048000000000033593283319CORREGIDOR SA                 000000031722000000000000000000000000000000000000000000000000000000000000000000000000000000000000000000000000000000000000PES00010000001000000000000000000000000
202412230080000600000000000000000388000000000000000003888000000000030627393713DIRECCION GENERAL DE CULTURA Y000000005792000000000000000000000000000000000000000000000000000000000000000000000000000000000000000000000000000000000000PES00010000001000000000000000000000000
202412230070000600000000000000000005000000000000000000058000000000030627393713DIRECCION GENERAL DE CULTURA Y000000688324000000000000000000000000000000000000000000000000000000000000000000000000000000000000000000000000000000000000PES00010000001000000000000000000000000
202412230080000600000000000000000389000000000000000003898000000000030627393713DIRECCION GENERAL DE CULTURA Y000000005792000000000000000000000000000000000000000000000000000000000000000000000000000000000000000000000000000000000000PES00010000001000000000000000000000000
202412230080000600000000000000000390000000000000000003908000000000030627393713DIRECCION GENERAL DE CULTURA Y000000005792000000000000000000000000000000000000000000000000000000000000000000000000000000000000000000000000000000000000PES00010000001000000000000000000000000
202412230060000600000000000000003705000000000000000037058000000000030707051546MINISTERIO DE JUSTICIA Y DEREC000001280801000000000000000000000000000000000000000000000000000000000000000000000000000000000000000000000000000000000000PES00010000001000000000000000000000000
202412230060000600000000000000003706000000000000000037068000000000030707216669PODER JUDICIAL MINISTERIO PUBL000000304000000000000000000000000000000000000000000000000000000000000000000000000000000000000000000000000000000000000000PES00010000001000000000000000000000000
202412230060000600000000000000003707000000000000000037078000000000030546666707UNIVERSIDAD NACIONAL DE LA PLA000000039500000000000000000000000000000000000000000000000000000000000000000000000000000000000000000000000000000000000000PES00010000001000000000000000000000000
202412240060000600000000000000003708000000000000000037088000000000030627393713DIRECCION GENERAL DE CULTURA Y000000005792000000000000000000000000000000000000000000000000000000000000000000000000000000000000000000000000000000000000PES00010000001000000000000000000000000
202412240060000600000000000000003709000000000000000037098000000000030627393713DIRECCION GENERAL DE CULTURA Y000000005792000000000000000000000000000000000000000000000000000000000000000000000000000000000000000000000000000000000000PES00010000001000000000000000000000000
202412240060000600000000000000003710000000000000000037108000000000030627393713DIRECCION GENERAL DE CULTURA Y000000005792000000000000000000000000000000000000000000000000000000000000000000000000000000000000000000000000000000000000PES00010000001000000000000000000000000
202412240060000600000000000000003711000000000000000037118000000000030627393713DIRECCION GENERAL DE CULTURA Y000000005792000000000000000000000000000000000000000000000000000000000000000000000000000000000000000000000000000000000000PES00010000001000000000000000000000000
202412240060000600000000000000003712000000000000000037128000000000030677972463JUNTA ELECTORAL PCIA DE BUENOS000000036000000000000000000000000000000000000000000000000000000000000000000000000000000000000000000000000000000000000000PES00010000001000000000000000000000000
202412240060000600000000000000003713000000000000000037138000000000030710405863MINISTERIO DE AMBIENTE        000001888000000000000000000000000000000000000000000000000000000000000000000000000000000000000000000000000000000000000000PES00010000001000000000000000000000000
202412240060000600000000000000003714000000000000000037148000000000030710405863MINISTERIO DE AMBIENTE        000000046102000000000000000000000000000000000000000000000000000000000000000000000000000000000000000000000000000000000000PES00010000001000000000000000000000000
202412240010000600000000000000001705000000000000000017058000000000033659591699INSTITUTO MEDICO DEAN FUNES S 000000030000014000000000000000000000000000000000000000000000000000000000000000000000000000000000000000000000000000000000PES00010000001000000000000000000000000
202412240010000600000000000000001706000000000000000017068000000000030580873274TERAPIA RADIANTE SOCIEDAD ANON000000060000028000000000000000000000000000000000000000000000000000000000000000000000000000000000000000000000000000000000PES00010000001000000000000000000000000
202412240010000600000000000000001707000000000000000017078000000000030580873274TERAPIA RADIANTE SOCIEDAD ANON000000028800057000000000000000000000000000000000000000000000000000000000000000000000000000000000000000000000000000000000PES00010000001000000000000000000000000
202412260060000600000000000000003715000000000000000037158000000000030707216669PODER JUDICIAL MINISTERIO PUBL000000031500000000000000000000000000000000000000000000000000000000000000000000000000000000000000000000000000000000000000PES00010000001000000000000000000000000
202412260060000600000000000000003716000000000000000037168000000000030707216669PODER JUDICIAL MINISTERIO PUBL000000346000000000000000000000000000000000000000000000000000000000000000000000000000000000000000000000000000000000000000PES00010000001000000000000000000000000
202412260060000600000000000000003717000000000000000037178000000000030627393713DIRECCION GENERAL DE CULTURA Y000000137196000000000000000000000000000000000000000000000000000000000000000000000000000000000000000000000000000000000000PES00010000001000000000000000000000000
202412260080000600000000000000000391000000000000000003918000000000030627393713DIRECCION GENERAL DE CULTURA Y000000137196000000000000000000000000000000000000000000000000000000000000000000000000000000000000000000000000000000000000PES00010000001000000000000000000000000
202412260060000600000000000000003718000000000000000037188000000000030716742292MINISTERIO DE MUJERES Y DIVERS000000044600000000000000000000000000000000000000000000000000000000000000000000000000000000000000000000000000000000000000PES00010000001000000000000000000000000
202412260060000600000000000000003719000000000000000037198000000000030643233343MINISTERIO DE ECONOMIA - PBA  000000254000000000000000000000000000000000000000000000000000000000000000000000000000000000000000000000000000000000000000PES00010000001000000000000000000000000
202412260080000600000000000000000392000000000000000003928000000000030716742292MINISTERIO DE MUJERES Y DIVERS000000044600000000000000000000000000000000000000000000000000000000000000000000000000000000000000000000000000000000000000PES00010000001000000000000000000000000
202412260060000600000000000000003720000000000000000037208000000000030716742292MINISTERIO DE MUJERES Y DIVERS000000044600000000000000000000000000000000000000000000000000000000000000000000000000000000000000000000000000000000000000PES00010000001000000000000000000000000
202412260060000600000000000000003721000000000000000037218000000000030717495620MINISTERIO DE TRANSPORTE O. P.000000294000000000000000000000000000000000000000000000000000000000000000000000000000000000000000000000000000000000000000PES00010000001000000000000000000000000
202412260080000600000000000000000393000000000000000003938000000000030716742292MINISTERIO DE MUJERES Y DIVERS000000044600000000000000000000000000000000000000000000000000000000000000000000000000000000000000000000000000000000000000PES00010000001000000000000000000000000
202412260060000600000000000000003722000000000000000037228000000000030716742292MINISTERIO DE MUJERES Y DIVERS000000044600000000000000000000000000000000000000000000000000000000000000000000000000000000000000000000000000000000000000PES00010000001000000000000000020241226
202412260010000600000000000000001708000000000000000017088000000000027225988795NINA MARIA LAURA              000000098600000000000000000000000000000000000000000000000000000000000000000000000000000000000000000000000000000000000000PES00010000001000000000000000000000000
202412260010000600000000000000001709000000000000000017098000000000027225988795NINA MARIA LAURA              000000027200000000000000000000000000000000000000000000000000000000000000000000000000000000000000000000000000000000000000PES00010000001000000000000000000000000
202412260010000600000000000000001710000000000000000017108000000000027225988795NINA MARIA LAURA              000000176000001000000000000000000000000000000000000000000000000000000000000000000000000000000000000000000000000000000000PES00010000001000000000000000000000000
202412260010000600000000000000001711000000000000000017118000000000027225988795NINA MARIA LAURA              000000096000000000000000000000000000000000000000000000000000000000000000000000000000000000000000000000000000000000000000PES00010000001000000000000000000000000
202412260060000600000000000000003723000000000000000037238000000000030710405863MINISTERIO DE AMBIENTE        000000038388000000000000000000000000000000000000000000000000000000000000000000000000000000000000000000000000000000000000PES00010000001000000000000000000000000
202412260060000600000000000000003724000000000000000037248000000000030715904817ORGANISMO PROVINCIAL DE INTEGR000001125000000000000000000000000000000000000000000000000000000000000000000000000000000000000000000000000000000000000000PES00010000001000000000000000020250126
202412270060000600000000000000003725000000000000000037258000000000030638438514H CAMARA DE DIPUTADOS PCIA BS 000000352040000000000000000000000000000000000000000000000000000000000000000000000000000000000000000000000000000000000000PES00010000001000000000000000000000000
202412270080000600000000000000000394000000000000000003948000000000030643233343MINISTERIO DE ECONOMIA - PBA  000000254000000000000000000000000000000000000000000000000000000000000000000000000000000000000000000000000000000000000000PES00010000001000000000000000000000000
202412270060000600000000000000003726000000000000000037268000000000030999057167MINISTERIO DE PRODUCCION CIENC000000089166000000000000000000000000000000000000000000000000000000000000000000000000000000000000000000000000000000000000PES00010000001000000000000000000000000
202412270060000600000000000000003727000000000000000037278000000000030643233343MINISTERIO DE ECONOMIA - PBA  000000254000000000000000000000000000000000000000000000000000000000000000000000000000000000000000000000000000000000000000PES00010000001000000000000000000000000
202412270060000600000000000000003728000000000000000037288000000000030708752297MINISTERIO DE TRABAJO DE LA PR000001092500000000000000000000000000000000000000000000000000000000000000000000000000000000000000000000000000000000000000PES00010000001000000000000000000000000
202412270060000600000000000000003729000000000000000037298000000000030665708825TRIBUNAL DE CUENTAS DE LA PROV000000500000000000000000000000000000000000000000000000000000000000000000000000000000000000000000000000000000000000000000PES00010000001000000000000000000000000
202412270060000600000000000000003730000000000000000037308000000000030708499044INSTITUTO CULTURAL DE LA PROV 000000506200000000000000000000000000000000000000000000000000000000000000000000000000000000000000000000000000000000000000PES00010000001000000000000000000000000
202412270060000600000000000000003731000000000000000037318000000000030715124234MINISTERIO DE GOBIERNO BS.AS. 000000282000000000000000000000000000000000000000000000000000000000000000000000000000000000000000000000000000000000000000PES00010000001000000000000000000000000
202412270080000600000000000000000395000000000000000003958000000000030715124234MINISTERIO DE GOBIERNO BS.AS. 000000282000000000000000000000000000000000000000000000000000000000000000000000000000000000000000000000000000000000000000PES00010000001000000000000000000000000
202412280060000600000000000000003732000000000000000037328000000000030715904817ORGANISMO PROVINCIAL DE INTEGR000000312000000000000000000000000000000000000000000000000000000000000000000000000000000000000000000000000000000000000000PES00010000001000000000000000000000000
202412280080000600000000000000000396000000000000000003968000000000030715904817ORGANISMO PROVINCIAL DE INTEGR000000312000000000000000000000000000000000000000000000000000000000000000000000000000000000000000000000000000000000000000PES00010000001000000000000000000000000
202412280060000600000000000000003733000000000000000037338000000000030715904817ORGANISMO PROVINCIAL DE INTEGR000000312000000000000000000000000000000000000000000000000000000000000000000000000000000000000000000000000000000000000000PES00010000001000000000000000000000000
202412280010000600000000000000001712000000000000000017128000000000030717172104MARIN CONSTRUCCIONES S.A.-CONS000000020160091000000000000000000000000000000000000000000000000000000000000000000000000000000000000000000000000000000000PES00010000001000000000000000000000000
202412280010000600000000000000001713000000000000000017138000000000030646558391MARIN CONSTRUCCIONES S A      000000044040198000000000000000000000000000000000000000000000000000000000000000000000000000000000000000000000000000000000PES00010000001000000000000000000000000
202412280010000600000000000000001714000000000000000017148000000000030520912963TAIUTI CONSTRUCCIONES S C A   000000089437600000000000000000000000000000000000000000000000000000000000000000000000000000000000000000000000000000000000PES00010000001000000000000000000000000
202412280010000600000000000000001715000000000000000017158000000000030520912963TAIUTI CONSTRUCCIONES S C A   000000156970000000000000000000000000000000000000000000000000000000000000000000000000000000000000000000000000000000000000PES00010000001000000000000000000000000
202412280010000600000000000000001716000000000000000017168000000000030520912963TAIUTI CONSTRUCCIONES S C A   000000040812200000000000000000000000000000000000000000000000000000000000000000000000000000000000000000000000000000000000PES00010000001000000000000000000000000
202412280010000600000000000000001717000000000000000017178000000000030520912963TAIUTI CONSTRUCCIONES S C A   000000156970000000000000000000000000000000000000000000000000000000000000000000000000000000000000000000000000000000000000PES00010000001000000000000000000000000
202412280010000600000000000000001718000000000000000017188000000000030520912963TAIUTI CONSTRUCCIONES S C A   000000188364000000000000000000000000000000000000000000000000000000000000000000000000000000000000000000000000000000000000PES00010000001000000000000000000000000
202412280010000600000000000000001719000000000000000017198000000000030520912963TAIUTI CONSTRUCCIONES S C A   000000043269600000000000000000000000000000000000000000000000000000000000000000000000000000000000000000000000000000000000PES00010000001000000000000000000000000
202412300080000600000000000000000397000000000000000003978000000000030627393713DIRECCION GENERAL DE CULTURA Y000000004344100000000000000000000000000000000000000000000000000000000000000000000000000000000000000000000000000000000000PES00010000001000000000000000000000000
202412300060000600000000000000003734000000000000000037348000000000030627393713DIRECCION GENERAL DE CULTURA Y000000004344000000000000000000000000000000000000000000000000000000000000000000000000000000000000000000000000000000000000PES00010000001000000000000000000000000
202412300080000600000000000000000398000000000000000003988000000000030627393713DIRECCION GENERAL DE CULTURA Y000000004344000000000000000000000000000000000000000000000000000000000000000000000000000000000000000000000000000000000000PES00010000001000000000000000000000000
202412300060000600000000000000003735000000000000000037358000000000030546666707UNIVERSIDAD NACIONAL DE LA PLA000000058500000000000000000000000000000000000000000000000000000000000000000000000000000000000000000000000000000000000000PES00010000001000000000000000000000000
202412300070000600000000000000000006000000000000000000068000000000030627393713DIRECCION GENERAL DE CULTURA Y000000004344100000000000000000000000000000000000000000000000000000000000000000000000000000000000000000000000000000000000PES00010000001000000000000000000000000
202412300080000600000000000000000399000000000000000003998000000000030710405863MINISTERIO DE AMBIENTE        000000230510000000000000000000000000000000000000000000000000000000000000000000000000000000000000000000000000000000000000PES00010000001000000000000000000000000
202412300080000600000000000000000400000000000000000004008000000000030710405863MINISTERIO DE AMBIENTE        000000184408000000000000000000000000000000000000000000000000000000000000000000000000000000000000000000000000000000000000PES00010000001000000000000000000000000
202412300030000600000000000000000075000000000000000000758000000000033593283319CORREGIDOR SA                 000000364425172000000000000000000000000000000000000000000000000000000000000000000000000000000000000000000000000000000000PES00010000001000000000000000000000000
202412300010000600000000000000001720000000000000000017208000000000030520912963TAIUTI CONSTRUCCIONES S C A   000000290000000000000000000000000000000000000000000000000000000000000000000000000000000000000000000000000000000000000000PES00010000001000000000000000000000000
202412300010000600000000000000001721000000000000000017218000000000030520912963TAIUTI CONSTRUCCIONES S C A   000000183895800000000000000000000000000000000000000000000000000000000000000000000000000000000000000000000000000000000000PES00010000001000000000000000000000000
202412310060000600000000000000003736000000000000000037368000000000030520918694ASOCIACION EMPLEADOS DE LA DIR000000113750000000000000000000000000000000000000000000000000000000000000000000000000000000000000000000000000000000000000PES00010000001000000000000000000000000
