202506030060000600000000000000003936000000000000000039368000000000030627393713DIRECCION GENERAL DE CULTURA Y000000034020000000000000000000000000000000000000000000000000000000000000000000000000000000000000000000000000000000000000PES00010000001000000000000000000000000
202506030060000600000000000000003937000000000000000039378000000000033684854149COMISION DE INVESTIGACIONES CI000000145500000000000000000000000000000000000000000000000000000000000000000000000000000000000000000000000000000000000000PES00010000001000000000000000000000000
202506030080000600000000000000000439000000000000000004398000000000030627393713DIRECCION GENERAL DE CULTURA Y000000034020000000000000000000000000000000000000000000000000000000000000000000000000000000000000000000000000000000000000PES00010000001000000000000000000000000
202506030060000600000000000000003938000000000000000039388000000000030708499044INSTITUTO CULTURAL DE LA PROV 000000034020000000000000000000000000000000000000000000000000000000000000000000000000000000000000000000000000000000000000PES00010000001000000000000000000000000
202506030080000600000000000000000440000000000000000004408000000000030627393713DIRECCION GENERAL DE CULTURA Y000000053350000000000000000000000000000000000000000000000000000000000000000000000000000000000000000000000000000000000000PES00010000001000000000000000000000000
202506030060000600000000000000003939000000000000000039398000000000030627393713DIRECCION GENERAL DE CULTURA Y000000053350000000000000000000000000000000000000000000000000000000000000000000000000000000000000000000000000000000000000PES00010000001000000000000000000000000
202506040080000600000000000000000441000000000000000004418000000000030627393713DIRECCION GENERAL DE CULTURA Y000000354420000000000000000000000000000000000000000000000000000000000000000000000000000000000000000000000000000000000000PES00010000001000000000000000000000000
202506040060000600000000000000003940000000000000000039408000000000030627393713DIRECCION GENERAL DE CULTURA Y000000087268000000000000000000000000000000000000000000000000000000000000000000000000000000000000000000000000000000000000PES00010000001000000000000000000000000
202506040060000600000000000000003941000000000000000039418000000000030626983398MINISTERIO DE SALUD PCIA DE BS000000016000000000000000000000000000000000000000000000000000000000000000000000000000000000000000000000000000000000000000PES00010000001000000000000000000000000
202506040010000600000000000000001796000000000000000017968000000000030657864281CAMUZZI GAS PAMPEANA S A      000000003240036000000000000000000000000000000000000000000000000000000000000000000000000000000000000000000000000000000000PES00010000001000000000000000000000000
202506050060000600000000000000003942000000000000000039428000000000030677980032FUNDACION DE LA FACULTAD DE IN000000009000000000000000000000000000000000000000000000000000000000000000000000000000000000000000000000000000000000000000PES00010000001000000000000000000000000
202506050010000600000000000000001797000000000000000017978000000000027225988795NINA MARIA LAURA              000000056000035000000000000000000000000000000000000000000000000000000000000000000000000000000000000000000000000000000000PES00010000001000000000000000000000000
202506050060000600000000000000003943000000000000000039438000000000030715904817ORGANISMO PROVINCIAL DE INTEGR000000967750000000000000000000000000000000000000000000000000000000000000000000000000000000000000000000000000000000000000PES00010000001000000000000000000000000
202506050060000600000000000000003944000000000000000039449600000000000018432738ALVAREZ FABIANA EDITH         000000024000000000000000000000000000000000000000000000000000000000000000000000000000000000000000000000000000000000000000PES00010000001000000000000000000000000
202506050060000600000000000000003945000000000000000039458000000000030999057167MINISTERIO DE PRODUCCION CIENC000000231700000000000000000000000000000000000000000000000000000000000000000000000000000000000000000000000000000000000000PES00010000001000000000000000000000000
202506050080000600000000000000000442000000000000000004428000000000030626983398MINISTERIO DE SALUD PCIA DE BS000000016000000000000000000000000000000000000000000000000000000000000000000000000000000000000000000000000000000000000000PES00010000001000000000000000000000000
202506050060000600000000000000003946000000000000000039468000000000030626983398MINISTERIO DE SALUD PCIA DE BS000000016000000000000000000000000000000000000000000000000000000000000000000000000000000000000000000000000000000000000000PES00010000001000000000000000000000000
202506050080000600000000000000000443000000000000000004438000000000030627393713DIRECCION GENERAL DE CULTURA Y000000087268000000000000000000000000000000000000000000000000000000000000000000000000000000000000000000000000000000000000PES00010000001000000000000000000000000
202506060060000600000000000000003947000000000000000039478000000000030627393713DIRECCION GENERAL DE CULTURA Y000000438940000000000000000000000000000000000000000000000000000000000000000000000000000000000000000000000000000000000000PES00010000001000000000000000000000000
202506060060000600000000000000003948000000000000000039488000000000030627393713DIRECCION GENERAL DE CULTURA Y000000174404000000000000000000000000000000000000000000000000000000000000000000000000000000000000000000000000000000000000PES00010000001000000000000000000000000
202506060060000600000000000000003949000000000000000039498000000000030627393713DIRECCION GENERAL DE CULTURA Y000000324150000000000000000000000000000000000000000000000000000000000000000000000000000000000000000000000000000000000000PES00010000001000000000000000000000000
202506060060000600000000000000003950000000000000000039508000000000030627393713DIRECCION GENERAL DE CULTURA Y000000176088000000000000000000000000000000000000000000000000000000000000000000000000000000000000000000000000000000000000PES00010000001000000000000000000000000
202506060060000600000000000000003951000000000000000039518000000000030716742292MINISTERIO DE MUJERES Y DIVERS000000075000000000000000000000000000000000000000000000000000000000000000000000000000000000000000000000000000000000000000PES00010000001000000000000000000000000
202506090060000600000000000000003952000000000000000039528000000000030708499044INSTITUTO CULTURAL DE LA PROV 000000079720000000000000000000000000000000000000000000000000000000000000000000000000000000000000000000000000000000000000PES00010000001000000000000000000000000
202506090060000600000000000000003953000000000000000039538000000000030627393713DIRECCION GENERAL DE CULTURA Y000000010000000000000000000000000000000000000000000000000000000000000000000000000000000000000000000000000000000000000000PES00010000001000000000000000000000000
202506090060000600000000000000003954000000000000000039548000000000030627393713DIRECCION GENERAL DE CULTURA Y000000010000000000000000000000000000000000000000000000000000000000000000000000000000000000000000000000000000000000000000PES00010000001000000000000000000000000
202506090080000600000000000000000444000000000000000004448000000000030627393713DIRECCION GENERAL DE CULTURA Y000000010000000000000000000000000000000000000000000000000000000000000000000000000000000000000000000000000000000000000000PES00010000001000000000000000000000000
202506090060000600000000000000003955000000000000000039558000000000030627393713DIRECCION GENERAL DE CULTURA Y000000440000000000000000000000000000000000000000000000000000000000000000000000000000000000000000000000000000000000000000PES00010000001000000000000000000000000
202506090060000600000000000000003956000000000000000039568000000000030627393713DIRECCION GENERAL DE CULTURA Y000000048500100000000000000000000000000000000000000000000000000000000000000000000000000000000000000000000000000000000000PES00010000001000000000000000000000000
202506090060000600000000000000003957000000000000000039579600000000000042360812BAUER MAXIMO                  000000061820000000000000000000000000000000000000000000000000000000000000000000000000000000000000000000000000000000000000PES00010000002000000000000000000000000
202506100080000600000000000000000445000000000000000004458000000000030627393713DIRECCION GENERAL DE CULTURA Y000000048500000000000000000000000000000000000000000000000000000000000000000000000000000000000000000000000000000000000000PES00010000001000000000000000000000000
202506100060000600000000000000003958000000000000000039588000000000030627393713DIRECCION GENERAL DE CULTURA Y000000048500000000000000000000000000000000000000000000000000000000000000000000000000000000000000000000000000000000000000PES00010000001000000000000000000000000
202506100060000600000000000000003959000000000000000039598000000000030710405863MINISTERIO DE AMBIENTE        000000134085000000000000000000000000000000000000000000000000000000000000000000000000000000000000000000000000000000000000PES00010000001000000000000000000000000
202506110010000600000000000000001798000000000000000017988000000000030601290592AGREMIACION ODONTOLOGICA DE BE000000093520290000000000000000000000000000000000000000000000000000000000000000000000000000000000000000000000000000000000PES00010000001000000000000000000000000
202506110010000600000000000000001799000000000000000017998000000000030707919902AGUAS BONAERENSES S.A.        000000007320049000000000000000000000000000000000000000000000000000000000000000000000000000000000000000000000000000000000PES00010000001000000000000000000000000
202506110010000600000000000000001800000000000000000018008000000000027225988795NINA MARIA LAURA              000000032400015000000000000000000000000000000000000000000000000000000000000000000000000000000000000000000000000000000000PES00010000001000000000000000000000000
202506120060000600000000000000003960000000000000000039608000000000030651727754FUNDACION DE ESTUDIOS PARA LA 000000300000000000000000000000000000000000000000000000000000000000000000000000000000000000000000000000000000000000000000PES00010000001000000000000000000000000
202506120010000600000000000000001801000000000000000018018000000000033593283319CORREGIDOR SA                 000000088672320000000000000000000000000000000000000000000000000000000000000000000000000000000000000000000000000000000000PES00010000001000000000000000000000000
202506130060000600000000000000003961000000000000000039618000000000030708499044INSTITUTO CULTURAL DE LA PROV 000000019880000000000000000000000000000000000000000000000000000000000000000000000000000000000000000000000000000000000000PES00010000001000000000000000000000000
202506130060000600000000000000003962000000000000000039628000000000030627393713DIRECCION GENERAL DE CULTURA Y000000500888000000000000000000000000000000000000000000000000000000000000000000000000000000000000000000000000000000000000PES00010000001000000000000000000000000
202506130060000600000000000000003963000000000000000039638000000000030710404611AGENCIA DE RECAUDACION DE LA P000000026920000000000000000000000000000000000000000000000000000000000000000000000000000000000000000000000000000000000000PES00010000001000000000000000000000000
202506130010000600000000000000001802000000000000000018028000000000030717506428TKTK TECHNOLOGIES S.A.U.      000000119000001000000000000000000000000000000000000000000000000000000000000000000000000000000000000000000000000000000000PES00010000001000000000000000000000000
202506130060000600000000000000003964000000000000000039648000000000030627393713DIRECCION GENERAL DE CULTURA Y000000354420000000000000000000000000000000000000000000000000000000000000000000000000000000000000000000000000000000000000PES00010000001000000000000000000000000
202506130010000600000000000000001803000000000000000018038000000000027225988795NINA MARIA LAURA              000000176400092000000000000000000000000000000000000000000000000000000000000000000000000000000000000000000000000000000000PES00010000001000000000000000000000000
202506170060000600000000000000003965000000000000000039658000000000030627393713DIRECCION GENERAL DE CULTURA Y000000048500000000000000000000000000000000000000000000000000000000000000000000000000000000000000000000000000000000000000PES00010000001000000000000000000000000
202506170060000600000000000000003966000000000000000039668000000000030627393713DIRECCION GENERAL DE CULTURA Y000000175500000000000000000000000000000000000000000000000000000000000000000000000000000000000000000000000000000000000000PES00010000001000000000000000000000000
202506170080000600000000000000000446000000000000000004468000000000030715904817ORGANISMO PROVINCIAL DE INTEGR000000849400000000000000000000000000000000000000000000000000000000000000000000000000000000000000000000000000000000000000PES00010000001000000000000000000000000
202506180060000600000000000000003967000000000000000039678000000000030708499044INSTITUTO CULTURAL DE LA PROV 000000038050000000000000000000000000000000000000000000000000000000000000000000000000000000000000000000000000000000000000PES00010000001000000000000000000000000
202506180060000600000000000000003968000000000000000039688000000000030715124234MINISTERIO DE GOBIERNO BS.AS. 000000034200000000000000000000000000000000000000000000000000000000000000000000000000000000000000000000000000000000000000PES00010000001000000000000000000000000
202506180010000600000000000000001804000000000000000018048000000000027225988795NINA MARIA LAURA              000000019600004000000000000000000000000000000000000000000000000000000000000000000000000000000000000000000000000000000000PES00010000001000000000000000000000000
202506180060000600000000000000003969000000000000000039698000000000030627393713DIRECCION GENERAL DE CULTURA Y000000079720000000000000000000000000000000000000000000000000000000000000000000000000000000000000000000000000000000000000PES00010000001000000000000000000000000
202506180080000600000000000000000447000000000000000004478000000000030708499044INSTITUTO CULTURAL DE LA PROV 000000079720000000000000000000000000000000000000000000000000000000000000000000000000000000000000000000000000000000000000PES00010000001000000000000000000000000
202506190010000600000000000000001805000000000000000018058000000000030707919902AGUAS BONAERENSES S.A.        000000007320049000000000000000000000000000000000000000000000000000000000000000000000000000000000000000000000000000000000PES00010000001000000000000000000000000
202506190060000600000000000000003970000000000000000039708000000000030716742292MINISTERIO DE MUJERES Y DIVERS000000056000000000000000000000000000000000000000000000000000000000000000000000000000000000000000000000000000000000000000PES00010000001000000000000000000000000
202506190010000600000000000000001806000000000000000018068000000000030707919902AGUAS BONAERENSES S.A.        000000007320049000000000000000000000000000000000000000000000000000000000000000000000000000000000000000000000000000000000PES00010000001000000000000000000000000
202506210010000600000000000000001807000000000000000018078000000000030717506428TKTK TECHNOLOGIES S.A.U.      000000341000000000000000000000000000000000000000000000000000000000000000000000000000000000000000000000000000000000000000PES00010000001000000000000000000000000
202506230060000600000000000000003971000000000000000039718000000000030627393713DIRECCION GENERAL DE CULTURA Y000000265700000000000000000000000000000000000000000000000000000000000000000000000000000000000000000000000000000000000000PES00010000001000000000000000000000000
202506230080000600000000000000000448000000000000000004488000000000030627393713DIRECCION GENERAL DE CULTURA Y000000265700000000000000000000000000000000000000000000000000000000000000000000000000000000000000000000000000000000000000PES00010000001000000000000000000000000
202506240060000600000000000000003972000000000000000039728000000000030716742292MINISTERIO DE MUJERES Y DIVERS000000024000000000000000000000000000000000000000000000000000000000000000000000000000000000000000000000000000000000000000PES00010000001000000000000000000000000
202506260080000600000000000000000449000000000000000004498000000000030717462021ORGANISMO PROVINCIAL DE LA NIÑ000000144727500000000000000000000000000000000000000000000000000000000000000000000000000000000000000000000000000000000000PES00010000001000000000000000000000000
202506260080000600000000000000000450000000000000000004508000000000030717462021ORGANISMO PROVINCIAL DE LA NIÑ000000144727500000000000000000000000000000000000000000000000000000000000000000000000000000000000000000000000000000000000PES00010000001000000000000000000000000
202506260080000600000000000000000451000000000000000004518000000000030717462021ORGANISMO PROVINCIAL DE LA NIÑ000000144727500000000000000000000000000000000000000000000000000000000000000000000000000000000000000000000000000000000000PES00010000001000000000000000000000000
202506260080000600000000000000000452000000000000000004528000000000030717462021ORGANISMO PROVINCIAL DE LA NIÑ000000144727500000000000000000000000000000000000000000000000000000000000000000000000000000000000000000000000000000000000PES00010000001000000000000000000000000
202506260060000600000000000000003973000000000000000039738000000000030717462021ORGANISMO PROVINCIAL DE LA NIÑ000000271600000000000000000000000000000000000000000000000000000000000000000000000000000000000000000000000000000000000000PES00010000001000000000000000000000000
202506260010000600000000000000001808000000000000000018088000000000030657877669EMPRESA DISTRIBUIDORA LA PLATA000000060930000000000000000000000000000000000000000000000000000000000000000000000000000000000000000000000000000000000000PES00010000001000000000000000000000000
202506260010000600000000000000001809000000000000000018098000000000030657877669EMPRESA DISTRIBUIDORA LA PLATA000000025360000000000000000000000000000000000000000000000000000000000000000000000000000000000000000000000000000000000000PES00010000001000000000000000000000000
202506260010000600000000000000001810000000000000000018108000000000030657877669EMPRESA DISTRIBUIDORA LA PLATA000000005280001000000000000000000000000000000000000000000000000000000000000000000000000000000000000000000000000000000000PES00010000001000000000000000000000000
202506260010000600000000000000001811000000000000000018118000000000030657877669EMPRESA DISTRIBUIDORA LA PLATA000000010600001000000000000000000000000000000000000000000000000000000000000000000000000000000000000000000000000000000000PES00010000001000000000000000000000000
202506260010000600000000000000001812000000000000000018128000000000030657877669EMPRESA DISTRIBUIDORA LA PLATA000000012420000000000000000000000000000000000000000000000000000000000000000000000000000000000000000000000000000000000000PES00010000001000000000000000000000000
202506260010000600000000000000001813000000000000000018138000000000030657877669EMPRESA DISTRIBUIDORA LA PLATA000000044000001000000000000000000000000000000000000000000000000000000000000000000000000000000000000000000000000000000000PES00010000001000000000000000000000000
202506270060000600000000000000003974000000000000000039748000000000030710405863MINISTERIO DE AMBIENTE        000000401162000000000000000000000000000000000000000000000000000000000000000000000000000000000000000000000000000000000000PES00010000001000000000000000000000000
202506270080000600000000000000000453000000000000000004538000000000030710405863MINISTERIO DE AMBIENTE        000000001000000000000000000000000000000000000000000000000000000000000000000000000000000000000000000000000000000000000000PES00010000001000000000000000000000000
202506270010000600000000000000001814000000000000000018148000000000030657864281CAMUZZI GAS PAMPEANA S A      000000043400137000000000000000000000000000000000000000000000000000000000000000000000000000000000000000000000000000000000PES00010000001000000000000000000000000
202506270010000600000000000000001815000000000000000018158000000000030657864281CAMUZZI GAS PAMPEANA S A      000000022530132000000000000000000000000000000000000000000000000000000000000000000000000000000000000000000000000000000000PES00010000001000000000000000000000000
202506270060000600000000000000003975000000000000000039758000000000030999057167MINISTERIO DE PRODUCCION CIENC000000084000000000000000000000000000000000000000000000000000000000000000000000000000000000000000000000000000000000000000PES00010000001000000000000000000000000
202506280010000600000000000000001816000000000000000018168000000000027225988795NINA MARIA LAURA              000000224000136000000000000000000000000000000000000000000000000000000000000000000000000000000000000000000000000000000000PES00010000001000000000000000000000000
202506300060000600000000000000003976000000000000000039768000000000030627393713DIRECCION GENERAL DE CULTURA Y000000112500000000000000000000000000000000000000000000000000000000000000000000000000000000000000000000000000000000000000PES00010000001000000000000000000000000
202506300060000600000000000000003977000000000000000039778000000000030627393713DIRECCION GENERAL DE CULTURA Y000000070676000000000000000000000000000000000000000000000000000000000000000000000000000000000000000000000000000000000000PES00010000001000000000000000000000000
202506300060000600000000000000003978000000000000000039788000000000030627393713DIRECCION GENERAL DE CULTURA Y000000140000000000000000000000000000000000000000000000000000000000000000000000000000000000000000000000000000000000000000PES00010000001000000000000000000000000
202506300060000600000000000000003979000000000000000039798000000000030627393713DIRECCION GENERAL DE CULTURA Y000000048500000000000000000000000000000000000000000000000000000000000000000000000000000000000000000000000000000000000000PES00010000001000000000000000000000000
202506300060000600000000000000003980000000000000000039808000000000030627393713DIRECCION GENERAL DE CULTURA Y000000027660000000000000000000000000000000000000000000000000000000000000000000000000000000000000000000000000000000000000PES00010000001000000000000000000000000
202506300060000600000000000000003981000000000000000039818000000000030627393713DIRECCION GENERAL DE CULTURA Y000000205000000000000000000000000000000000000000000000000000000000000000000000000000000000000000000000000000000000000000PES00010000001000000000000000000000000
