202312010060000600000000000000003088000000000000000030888000000000030546666707UNIVERSIDAD NACIONAL DE LA PLA000000011950000000000000000000000000000000000000000000000000000000000000000000000000000000000000000000000000000000000000PES00010000001000000000000000000000000
202312010060000600000000000000003089000000000000000030898000000000030546666707UNIVERSIDAD NACIONAL DE LA PLA000000011100000000000000000000000000000000000000000000000000000000000000000000000000000000000000000000000000000000000000PES00010000001000000000000000000000000
202312010060000600000000000000003090000000000000000030908000000000030550857061COLEGIO DE FARMACEUTICOS DE LA000000439500000000000000000000000000000000000000000000000000000000000000000000000000000000000000000000000000000000000000PES00010000001000000000000000000000000
202312010060000600000000000000003091000000000000000030918000000000030518171700UNIVERSIDAD NOTARIAL ARGENTINA000000046600000000000000000000000000000000000000000000000000000000000000000000000000000000000000000000000000000000000000PES00010000001000000000000000000000000
202312020060000600000000000000003092000000000000000030928000000000030626983398MINISTERIO DE SALUD PCIA DE BS000000328000000000000000000000000000000000000000000000000000000000000000000000000000000000000000000000000000000000000000PES00010000001000000000000000020250102
202312020060000600000000000000003093000000000000000030938000000000030626983398MINISTERIO DE SALUD PCIA DE BS000000600000000000000000000000000000000000000000000000000000000000000000000000000000000000000000000000000000000000000000PES00010000001000000000000000000000000
202312020060000600000000000000003094000000000000000030948000000000030626983398MINISTERIO DE SALUD PCIA DE BS000000323000000000000000000000000000000000000000000000000000000000000000000000000000000000000000000000000000000000000000PES00010000001000000000000000000000000
202312040060000600000000000000003095000000000000000030958000000000030546666707UNIVERSIDAD NACIONAL DE LA PLA000000011900000000000000000000000000000000000000000000000000000000000000000000000000000000000000000000000000000000000000PES00010000001000000000000000000000000
202312040060000600000000000000003096000000000000000030968000000000030638438514H CAMARA DE DIPUTADOS PCIA BS 000000202942000000000000000000000000000000000000000000000000000000000000000000000000000000000000000000000000000000000000PES00010000002000000000000000000000000
202312040060000600000000000000003097000000000000000030978000000000034546671471PODER JUDICIAL CONSEJO DE LA M000000001725000000000000000000000000000000000000000000000000000000000000000000000000000000000000000000000000000000000000PES00010000001000000000000000000000000
202312050010000600000000000000001482000000000000000014828000000000027251607864COVELLO JULIETA               000000035150001000000000000000000000000000000000000000000000000000000000000000000000000000000000000000000000000000000000PES00010000001000000000000000000000000
202312050060000600000000000000003098000000000000000030988000000000030999057167MINISTERIO DE PRODUCCION CIENC000000321126000000000000000000000000000000000000000000000000000000000000000000000000000000000000000000000000000000000000PES00010000001000000000000000000000000
202312050010000600000000000000001483000000000000000014838000000000030601290592AGREMIACION ODONTOLOGICA DE BE000000056250026000000000000000000000000000000000000000000000000000000000000000000000000000000000000000000000000000000000PES00010000001000000000000000000000000
202312050060000600000000000000003099000000000000000030998000000000034546671471PODER JUDICIAL CONSEJO DE LA M000000000975000000000000000000000000000000000000000000000000000000000000000000000000000000000000000000000000000000000000PES00010000001000000000000000000000000
202312060060000600000000000000003100000000000000000031008000000000030627393713DIRECCION GENERAL DE CULTURA Y000000721500000000000000000000000000000000000000000000000000000000000000000000000000000000000000000000000000000000000000PES00010000001000000000000000000000000
202312060060000600000000000000003101000000000000000031018000000000030627393713DIRECCION GENERAL DE CULTURA Y000001133300000000000000000000000000000000000000000000000000000000000000000000000000000000000000000000000000000000000000PES00010000001000000000000000000000000
202312060060000600000000000000003102000000000000000031028000000000030627393713DIRECCION GENERAL DE CULTURA Y000000093600000000000000000000000000000000000000000000000000000000000000000000000000000000000000000000000000000000000000PES00010000001000000000000000000000000
202312060060000600000000000000003103000000000000000031038000000000030627393713DIRECCION GENERAL DE CULTURA Y000000058500000000000000000000000000000000000000000000000000000000000000000000000000000000000000000000000000000000000000PES00010000001000000000000000000000000
202312070060000600000000000000003104000000000000000031048000000000030638438514H CAMARA DE DIPUTADOS PCIA BS 000000183689000000000000000000000000000000000000000000000000000000000000000000000000000000000000000000000000000000000000PES00010000001000000000000000000000000
202312070060000600000000000000003105000000000000000031058000000000030717495620MINISTERIO DE TRANSPORTE O. P.000000321126000000000000000000000000000000000000000000000000000000000000000000000000000000000000000000000000000000000000PES00010000001000000000000000000000000
202312110060000600000000000000003106000000000000000031068000000000030627393713DIRECCION GENERAL DE CULTURA Y000000193050000000000000000000000000000000000000000000000000000000000000000000000000000000000000000000000000000000000000PES00010000001000000000000000000000000
202312120060000600000000000000003107000000000000000031078000000000030677972463JUNTA ELECTORAL PCIA DE BUENOS000000008880000000000000000000000000000000000000000000000000000000000000000000000000000000000000000000000000000000000000PES00010000001000000000000000000000000
202312120060000600000000000000003108000000000000000031088000000000030707216650PODER JUDICIAL ADMINISTRACION 000000085000000000000000000000000000000000000000000000000000000000000000000000000000000000000000000000000000000000000000PES00010000001000000000000000000000000
202312120060000600000000000000003109000000000000000031098000000000030546666707UNIVERSIDAD NACIONAL DE LA PLA000000012000000000000000000000000000000000000000000000000000000000000000000000000000000000000000000000000000000000000000PES00010000001000000000000000000000000
202312120060000600000000000000003110000000000000000031108000000000030717321231JEFATURA DE ASESORES DEL GOBER000000100000000000000000000000000000000000000000000000000000000000000000000000000000000000000000000000000000000000000000PES00010000001000000000000000000000000
202312120060000600000000000000003111000000000000000031118000000000030534820352SOCIEDAD MEDICA DE LA PLATA   000000002880000000000000000000000000000000000000000000000000000000000000000000000000000000000000000000000000000000000000PES00010000001000000000000000000000000
202312120060000600000000000000003112000000000000000031128000000000030627393713DIRECCION GENERAL DE CULTURA Y000000272480000000000000000000000000000000000000000000000000000000000000000000000000000000000000000000000000000000000000PES00010000001000000000000000000000000
202312120080000600000000000000000294000000000000000002948000000000030627393713DIRECCION GENERAL DE CULTURA Y000000272480000000000000000000000000000000000000000000000000000000000000000000000000000000000000000000000000000000000000PES00010000001000000000000000000000000
202312130060000600000000000000003113000000000000000031138000000000030546666707UNIVERSIDAD NACIONAL DE LA PLA000000012000000000000000000000000000000000000000000000000000000000000000000000000000000000000000000000000000000000000000PES00010000001000000000000000000000000
202312130060000600000000000000003114000000000000000031148000000000030999057167MINISTERIO DE PRODUCCION CIENC000000013000000000000000000000000000000000000000000000000000000000000000000000000000000000000000000000000000000000000000PES00010000001000000000000000000000000
202312130060000600000000000000003115000000000000000031158000000000030999057167MINISTERIO DE PRODUCCION CIENC000000104500000000000000000000000000000000000000000000000000000000000000000000000000000000000000000000000000000000000000PES00010000001000000000000000000000000
202312130060000600000000000000003116000000000000000031168000000000033633178009INSTITUTO DE PREVISION SOCIAL 000000171600000000000000000000000000000000000000000000000000000000000000000000000000000000000000000000000000000000000000PES00010000001000000000000000000000000
202312150060000600000000000000003117000000000000000031178000000000030707216650PODER JUDICIAL ADMINISTRACION 000000019500000000000000000000000000000000000000000000000000000000000000000000000000000000000000000000000000000000000000PES00010000001000000000000000000000000
202312150060000600000000000000003118000000000000000031188000000000030707045031MINISTERIO DE DESARROLLO DE LA000001837500000000000000000000000000000000000000000000000000000000000000000000000000000000000000000000000000000000000000PES00010000001000000000000000000000000
202312150060000600000000000000003119000000000000000031198000000000030710100140CENTRO CIENTIFICO TECNOLOGICO 000000011520000000000000000000000000000000000000000000000000000000000000000000000000000000000000000000000000000000000000PES00010000001000000000000000000000000
202312150060000600000000000000003120000000000000000031208000000000030654207689FUNDACION DEL HOSPITAL DEL NI#000000007800000000000000000000000000000000000000000000000000000000000000000000000000000000000000000000000000000000000000PES00010000001000000000000000000000000
202312150060000600000000000000003121000000000000000031218000000000030546666707UNIVERSIDAD NACIONAL DE LA PLA000000012000000000000000000000000000000000000000000000000000000000000000000000000000000000000000000000000000000000000000PES00010000001000000000000000000000000
202312150060000600000000000000003122000000000000000031228000000000030630102282SINDICATO UNIFICADO DE TRABAJA000000018000000000000000000000000000000000000000000000000000000000000000000000000000000000000000000000000000000000000000PES00010000001000000000000000000000000
202312180060000600000000000000003123000000000000000031238000000000030626983398MINISTERIO DE SALUD PCIA DE BS000000010000000000000000000000000000000000000000000000000000000000000000000000000000000000000000000000000000000000000000PES00010000001000000000000000000000000
202312180060000600000000000000003124000000000000000031248000000000030546666707UNIVERSIDAD NACIONAL DE LA PLA000000005700000000000000000000000000000000000000000000000000000000000000000000000000000000000000000000000000000000000000PES00010000001000000000000000000000000
202312180060000600000000000000003125000000000000000031258000000000030717462021ORGANISMO PROVINCIAL DE LA NIÑ000000054000000000000000000000000000000000000000000000000000000000000000000000000000000000000000000000000000000000000000PES00010000001000000000000000000000000
202312180060000600000000000000003126000000000000000031268000000000030717462021ORGANISMO PROVINCIAL DE LA NIÑ000000036000000000000000000000000000000000000000000000000000000000000000000000000000000000000000000000000000000000000000PES00010000001000000000000000000000000
202312180080000600000000000000000295000000000000000002958000000000030707216650PODER JUDICIAL ADMINISTRACION 000000085000000000000000000000000000000000000000000000000000000000000000000000000000000000000000000000000000000000000000PES00010000001000000000000000000000000
202312180060000600000000000000003127000000000000000031278000000000030707216669PODER JUDICIAL MINISTERIO PUBL000000085000000000000000000000000000000000000000000000000000000000000000000000000000000000000000000000000000000000000000PES00010000001000000000000000000000000
202312190080000600000000000000000296000000000000000002968000000000030546666707UNIVERSIDAD NACIONAL DE LA PLA000000005700000000000000000000000000000000000000000000000000000000000000000000000000000000000000000000000000000000000000PES00010000001000000000000000000000000
202312190060000600000000000000003128000000000000000031288000000000030546666707UNIVERSIDAD NACIONAL DE LA PLA000000006840000000000000000000000000000000000000000000000000000000000000000000000000000000000000000000000000000000000000PES00010000001000000000000000000000000
202312190060000600000000000000003129000000000000000031298000000000030716742292MINISTERIO DE LAS MUJERES, POL000000092100000000000000000000000000000000000000000000000000000000000000000000000000000000000000000000000000000000000000PES00010000001000000000000000020240119
202312190060000600000000000000003130000000000000000031308000000000030716742292MINISTERIO DE LAS MUJERES, POL000000006000000000000000000000000000000000000000000000000000000000000000000000000000000000000000000000000000000000000000PES00010000001000000000000000020240119
202312190010000600000000000000001484000000000000000014848000000000030544640212LABORATORIO ELEA PHOENIX S A  000000014300000000000000000000000000000000000000000000000000000000000000000000000000000000000000000000000000000000000000PES00010000001000000000000000000000000
202312190060000600000000000000003131000000000000000031318000000000030665708825TRIBUNAL DE CUENTAS DE LA PROV000000006400000000000000000000000000000000000000000000000000000000000000000000000000000000000000000000000000000000000000PES00010000001000000000000000000000000
202312190060000600000000000000003132000000000000000031328000000000030665708825TRIBUNAL DE CUENTAS DE LA PROV000000066000000000000000000000000000000000000000000000000000000000000000000000000000000000000000000000000000000000000000PES00010000001000000000000000000000000
202312190060000600000000000000003133000000000000000031338000000000030665708825TRIBUNAL DE CUENTAS DE LA PROV000000031140000000000000000000000000000000000000000000000000000000000000000000000000000000000000000000000000000000000000PES00010000001000000000000000000000000
202312190060000600000000000000003134000000000000000031348000000000030665708825TRIBUNAL DE CUENTAS DE LA PROV000000224000000000000000000000000000000000000000000000000000000000000000000000000000000000000000000000000000000000000000PES00010000001000000000000000000000000
202312200060000600000000000000003135000000000000000031358000000000030648200338FEDERACION DE  ENTIDADES DE CO000000059400000000000000000000000000000000000000000000000000000000000000000000000000000000000000000000000000000000000000PES00010000001000000000000000000000000
202312200060000600000000000000003136000000000000000031368000000000030638438514H CAMARA DE DIPUTADOS PCIA BS 000000196973000000000000000000000000000000000000000000000000000000000000000000000000000000000000000000000000000000000000PES00010000001000000000000000000000000
202312200010000600000000000000001485000000000000000014858000000000030544640212LABORATORIO ELEA PHOENIX S A  000000011500000000000000000000000000000000000000000000000000000000000000000000000000000000000000000000000000000000000000PES00010000001000000000000000000000000
202312200060000600000000000000003137000000000000000031378000000000030627393713DIRECCION GENERAL DE CULTURA Y000000112000000000000000000000000000000000000000000000000000000000000000000000000000000000000000000000000000000000000000PES00010000001000000000000000000000000
202312200010000600000000000000001486000000000000000014868000000000030544640212LABORATORIO ELEA PHOENIX S A  000000007800000000000000000000000000000000000000000000000000000000000000000000000000000000000000000000000000000000000000PES00010000001000000000000000000000000
202312200080000600000000000000000297000000000000000002978000000000030627393713DIRECCION GENERAL DE CULTURA Y000000056000000000000000000000000000000000000000000000000000000000000000000000000000000000000000000000000000000000000000PES00010000001000000000000000000000000
202312200080000600000000000000000298000000000000000002988000000000030627393713DIRECCION GENERAL DE CULTURA Y000000056000000000000000000000000000000000000000000000000000000000000000000000000000000000000000000000000000000000000000PES00010000001000000000000000000000000
202312200060000600000000000000003138000000000000000031388000000000030710405863MINISTERIO DE AMBIENTE        000000873600000000000000000000000000000000000000000000000000000000000000000000000000000000000000000000000000000000000000PES00010000001000000000000000000000000
202312210080000600000000000000000299000000000000000002998000000000030716742292MINISTERIO DE LAS MUJERES, POL000000092100000000000000000000000000000000000000000000000000000000000000000000000000000000000000000000000000000000000000PES00010000001000000000000000000000000
202312210080000600000000000000000300000000000000000003008000000000030716742292MINISTERIO DE LAS MUJERES, POL000000006000000000000000000000000000000000000000000000000000000000000000000000000000000000000000000000000000000000000000PES00010000001000000000000000000000000
202312210060000600000000000000003139000000000000000031398000000000030716742292MINISTERIO DE LAS MUJERES, POL000000092100000000000000000000000000000000000000000000000000000000000000000000000000000000000000000000000000000000000000PES00010000001000000000000000020240121
202312210060000600000000000000003140000000000000000031408000000000030716742292MINISTERIO DE LAS MUJERES, POL000000006000000000000000000000000000000000000000000000000000000000000000000000000000000000000000000000000000000000000000PES00010000001000000000000000020240121
202312210010000600000000000000001487000000000000000014878000000000033659591699INSTITUTO MEDICO DEAN FUNES S 000000020000017000000000000000000000000000000000000000000000000000000000000000000000000000000000000000000000000000000000PES00010000001000000000000000000000000
202312210010000600000000000000001488000000000000000014888000000000030580873274TERAPIA RADIANTE SOCIEDAD ANON000000040000035000000000000000000000000000000000000000000000000000000000000000000000000000000000000000000000000000000000PES00010000001000000000000000000000000
202312210060000600000000000000003141000000000000000031418000000000033633178009INSTITUTO DE PREVISION SOCIAL 000000326650000000000000000000000000000000000000000000000000000000000000000000000000000000000000000000000000000000000000PES00010000001000000000000000000000000
202312210080000600000000000000000301000000000000000003018000000000030716742292MINISTERIO DE LAS MUJERES, POL000000006000000000000000000000000000000000000000000000000000000000000000000000000000000000000000000000000000000000000000PES00010000001000000000000000020240121
202312210060000600000000000000003142000000000000000031428000000000030716742292MINISTERIO DE LAS MUJERES, POL000000006000000000000000000000000000000000000000000000000000000000000000000000000000000000000000000000000000000000000000PES00010000001000000000000000020240121
202312210060000600000000000000003143000000000000000031438000000000034546671471PODER JUDICIAL CONSEJO DE LA M000000003200000000000000000000000000000000000000000000000000000000000000000000000000000000000000000000000000000000000000PES00010000001000000000000000000000000
202312210010000600000000000000001489000000000000000014898000000000027225988795NINA MARIA LAURA              000000100000000000000000000000000000000000000000000000000000000000000000000000000000000000000000000000000000000000000000PES00010000001000000000000000000000000
202312210010000600000000000000001490000000000000000014908000000000033593283319CORREGIDOR SA                 000000049426739000000000000000000000000000000000000000000000000000000000000000000000000000000000000000000000000000000000PES00010000001000000000000000000000000
202312210010000600000000000000001491000000000000000014918000000000033593283319CORREGIDOR SA                 000000035488800000000000000000000000000000000000000000000000000000000000000000000000000000000000000000000000000000000000PES00010000001000000000000000000000000
202312210010000600000000000000001492000000000000000014928000000000033593283319CORREGIDOR SA                 000000003482100000000000000000000000000000000000000000000000000000000000000000000000000000000000000000000000000000000000PES00010000001000000000000000000000000
202312210060000600000000000000003144000000000000000031448000000000030712306757DIRECCION PROVINCIAL DE ACCION000000175000000000000000000000000000000000000000000000000000000000000000000000000000000000000000000000000000000000000000PES00010000001000000000000000000000000
202312210060000600000000000000003145000000000000000031458000000000030546666707UNIVERSIDAD NACIONAL DE LA PLA000000184000000000000000000000000000000000000000000000000000000000000000000000000000000000000000000000000000000000000000PES00010000001000000000000000000000000
202312220060000600000000000000003146000000000000000031468000000000030546666707UNIVERSIDAD NACIONAL DE LA PLA000000011900000000000000000000000000000000000000000000000000000000000000000000000000000000000000000000000000000000000000PES00010000001000000000000000000000000
202312220060000600000000000000003147000000000000000031478000000000033546288639UNION TRANVIARIOS AUTOMOTOR U 000000160000000000000000000000000000000000000000000000000000000000000000000000000000000000000000000000000000000000000000PES00010000001000000000000000000000000
202312220060000600000000000000003148000000000000000031488000000000030520918694ASOCIACION EMPLEADOS DE LA DIR000000084000000000000000000000000000000000000000000000000000000000000000000000000000000000000000000000000000000000000000PES00010000001000000000000000000000000
202312220060000600000000000000003149000000000000000031498000000000030520918694ASOCIACION EMPLEADOS DE LA DIR000000014100000000000000000000000000000000000000000000000000000000000000000000000000000000000000000000000000000000000000PES00010000001000000000000000000000000
202312260010000600000000000000001493000000000000000014938000000000030709533009N.C.N. NUEVA CLINICA DEL NIÑO 000000040000000000000000000000000000000000000000000000000000000000000000000000000000000000000000000000000000000000000000PES00010000001000000000000000000000000
202312270060000600000000000000003150000000000000000031508000000000030715124234MINISTERIO DE GOBIERNO BS.AS. 000000326620000000000000000000000000000000000000000000000000000000000000000000000000000000000000000000000000000000000000PES00010000001000000000000000000000000
202312270060000600000000000000003151000000000000000031518000000000030717321231JEFATURA DE ASESORES DEL GOBER000000050329500000000000000000000000000000000000000000000000000000000000000000000000000000000000000000000000000000000000PES00010000001000000000000000000000000
202312270060000600000000000000003152000000000000000031528000000000030708499044INSTITUTO CULTURAL DE LA PROV 000000022500000000000000000000000000000000000000000000000000000000000000000000000000000000000000000000000000000000000000PES00010000001000000000000000020240127
202312270080000600000000000000000302000000000000000003028000000000030715904817ORGANISMO PROVINCIAL DE INTEGR000000032200000000000000000000000000000000000000000000000000000000000000000000000000000000000000000000000000000000000000PES00010000001000000000000000000000000
202312270060000600000000000000003153000000000000000031538000000000030715904817ORGANISMO PROVINCIAL DE INTEGR000000064400000000000000000000000000000000000000000000000000000000000000000000000000000000000000000000000000000000000000PES00010000001000000000000000020240127
202312270060000600000000000000003154000000000000000031548000000000030716742292MINISTERIO DE LAS MUJERES, POL000000055200000000000000000000000000000000000000000000000000000000000000000000000000000000000000000000000000000000000000PES00010000001000000000000000000000000
202312270060000600000000000000003155000000000000000031558000000000030716742292MINISTERIO DE LAS MUJERES, POL000000029000000000000000000000000000000000000000000000000000000000000000000000000000000000000000000000000000000000000000PES00010000001000000000000000000000000
202312270060000600000000000000003156000000000000000031568000000000030627393713DIRECCION GENERAL DE CULTURA Y000000021505000000000000000000000000000000000000000000000000000000000000000000000000000000000000000000000000000000000000PES00010000001000000000000000000000000
202312280060000600000000000000003157000000000000000031578000000000030716742292MINISTERIO DE LAS MUJERES, POL000000098000000000000000000000000000000000000000000000000000000000000000000000000000000000000000000000000000000000000000PES00010000001000000000000000000000000
202312280010000600000000000000001494000000000000000014948000000000020181558653VARGAS SERGIO RAUL            000000009600007000000000000000000000000000000000000000000000000000000000000000000000000000000000000000000000000000000000PES00010000001000000000000000000000000
202312280080000600000000000000000303000000000000000003038000000000030716742292MINISTERIO DE LAS MUJERES, POL000000055200000000000000000000000000000000000000000000000000000000000000000000000000000000000000000000000000000000000000PES00010000001000000000000000000000000
202312280080000600000000000000000304000000000000000003048000000000030716742292MINISTERIO DE LAS MUJERES, POL000000029000000000000000000000000000000000000000000000000000000000000000000000000000000000000000000000000000000000000000PES00010000001000000000000000000000000
202312280080000600000000000000000305000000000000000003058000000000030716742292MINISTERIO DE LAS MUJERES, POL000000098000000000000000000000000000000000000000000000000000000000000000000000000000000000000000000000000000000000000000PES00010000001000000000000000000000000
202312280060000600000000000000003158000000000000000031588000000000030716742292MINISTERIO DE LAS MUJERES, POL000000182200000000000000000000000000000000000000000000000000000000000000000000000000000000000000000000000000000000000000PES00010000001000000000000000000000000
202312280080000600000000000000000306000000000000000003068000000000030716742292MINISTERIO DE LAS MUJERES, POL000000182200000000000000000000000000000000000000000000000000000000000000000000000000000000000000000000000000000000000000PES00010000001000000000000000000000000
202312280060000600000000000000003159000000000000000031598000000000030716742292MINISTERIO DE LAS MUJERES, POL000000182200000000000000000000000000000000000000000000000000000000000000000000000000000000000000000000000000000000000000PES00010000001000000000000000000000000
202312280060000600000000000000003160000000000000000031608000000000030707045031MINISTERIO DE DESARROLLO DE LA000000262500000000000000000000000000000000000000000000000000000000000000000000000000000000000000000000000000000000000000PES00010000001000000000000000000000000
202312280060000600000000000000003161000000000000000031618000000000030559799536SINDICATO OBRAS SANITARIAS DE 000000260960000000000000000000000000000000000000000000000000000000000000000000000000000000000000000000000000000000000000PES00010000001000000000000000000000000
202312280010000600000000000000001495000000000000000014958000000000030657877669EMPRESA DISTRIBUIDORA LA PLATA000000016400024000000000000000000000000000000000000000000000000000000000000000000000000000000000000000000000000000000000PES00010000001000000000000000000000000
202312280010000600000000000000001496000000000000000014968000000000030657877669EMPRESA DISTRIBUIDORA LA PLATA000000031540005000000000000000000000000000000000000000000000000000000000000000000000000000000000000000000000000000000000PES00010000001000000000000000000000000
202312280010000600000000000000001497000000000000000014978000000000030657877669EMPRESA DISTRIBUIDORA LA PLATA000000038750000000000000000000000000000000000000000000000000000000000000000000000000000000000000000000000000000000000000PES00010000001000000000000000000000000
202312280010000600000000000000001498000000000000000014988000000000030657877669EMPRESA DISTRIBUIDORA LA PLATA000000006450002000000000000000000000000000000000000000000000000000000000000000000000000000000000000000000000000000000000PES00010000001000000000000000000000000
202312290010000600000000000000001499000000000000000014998000000000030657877669EMPRESA DISTRIBUIDORA LA PLATA000000037910059000000000000000000000000000000000000000000000000000000000000000000000000000000000000000000000000000000000PES00010000001000000000000000000000000
202312290010000600000000000000001500000000000000000015008000000000030657864281CAMUZZI GAS PAMPEANA S A      000000031920277000000000000000000000000000000000000000000000000000000000000000000000000000000000000000000000000000000000PES00010000001000000000000000000000000
202312290010000600000000000000001501000000000000000015018000000000030657864281CAMUZZI GAS PAMPEANA S A      000000003190036000000000000000000000000000000000000000000000000000000000000000000000000000000000000000000000000000000000PES00010000001000000000000000000000000
202312290030000600000000000000000061000000000000000000618000000000030657864281CAMUZZI GAS PAMPEANA S A      000000003190036000000000000000000000000000000000000000000000000000000000000000000000000000000000000000000000000000000000PES00010000001000000000000000000000000
202312290010000600000000000000001502000000000000000015028000000000030657864281CAMUZZI GAS PAMPEANA S A      000000003190036000000000000000000000000000000000000000000000000000000000000000000000000000000000000000000000000000000000PES00010000001000000000000000000000000
202312290010000600000000000000001503000000000000000015038000000000030657864281CAMUZZI GAS PAMPEANA S A      000000001730070000000000000000000000000000000000000000000000000000000000000000000000000000000000000000000000000000000000PES00010000001000000000000000000000000
202312290010000600000000000000001504000000000000000015048000000000030657864281CAMUZZI GAS PAMPEANA S A      000000002790054000000000000000000000000000000000000000000000000000000000000000000000000000000000000000000000000000000000PES00010000001000000000000000000000000
202312290010000600000000000000001505000000000000000015058000000000030657877669EMPRESA DISTRIBUIDORA LA PLATA000000052800000000000000000000000000000000000000000000000000000000000000000000000000000000000000000000000000000000000000PES00010000001000000000000000000000000
202312290010000600000000000000001506000000000000000015068000000000030657877669EMPRESA DISTRIBUIDORA LA PLATA000000026150000000000000000000000000000000000000000000000000000000000000000000000000000000000000000000000000000000000000PES00010000001000000000000000000000000
202312290010000600000000000000001507000000000000000015078000000000030657877669EMPRESA DISTRIBUIDORA LA PLATA000000032000011000000000000000000000000000000000000000000000000000000000000000000000000000000000000000000000000000000000PES00010000001000000000000000000000000
202312290010000600000000000000001508000000000000000015088000000000030657877669EMPRESA DISTRIBUIDORA LA PLATA000000032000011000000000000000000000000000000000000000000000000000000000000000000000000000000000000000000000000000000000PES00010000001000000000000000000000000
202312290010000600000000000000001509000000000000000015098000000000030657877669EMPRESA DISTRIBUIDORA LA PLATA000000036280011000000000000000000000000000000000000000000000000000000000000000000000000000000000000000000000000000000000PES00010000001000000000000000000000000
202312290010000600000000000000001510000000000000000015108000000000030657877669EMPRESA DISTRIBUIDORA LA PLATA000000047180042000000000000000000000000000000000000000000000000000000000000000000000000000000000000000000000000000000000PES00010000001000000000000000000000000
202312290010000600000000000000001511000000000000000015118000000000030657877669EMPRESA DISTRIBUIDORA LA PLATA000000029000010000000000000000000000000000000000000000000000000000000000000000000000000000000000000000000000000000000000PES00010000001000000000000000000000000
202312290010000600000000000000001512000000000000000015128000000000030657877669EMPRESA DISTRIBUIDORA LA PLATA000000017310018000000000000000000000000000000000000000000000000000000000000000000000000000000000000000000000000000000000PES00010000001000000000000000000000000
202312300010000600000000000000001513000000000000000015138000000000030717392619COOPERATIVA DE TRABAJO GASTRON000000058500001000000000000000000000000000000000000000000000000000000000000000000000000000000000000000000000000000000000PES00010000001000000000000000000000000
202312300010000600000000000000001514000000000000000015148000000000030717392619COOPERATIVA DE TRABAJO GASTRON000000066420000000000000000000000000000000000000000000000000000000000000000000000000000000000000000000000000000000000000PES00010000001000000000000000000000000
202312300010000600000000000000001515000000000000000015158000000000030717392619COOPERATIVA DE TRABAJO GASTRON000000333600001000000000000000000000000000000000000000000000000000000000000000000000000000000000000000000000000000000000PES00010000001000000000000000000000000
202312300010000600000000000000001516000000000000000015168000000000030717392619COOPERATIVA DE TRABAJO GASTRON000000319900006000000000000000000000000000000000000000000000000000000000000000000000000000000000000000000000000000000000PES00010000001000000000000000000000000
202312310010000600000000000000001517000000000000000015178000000000030708655011MARCELO VINCENTI CATERING S.R.000000325650010000000000000000000000000000000000000000000000000000000000000000000000000000000000000000000000000000000000PES00010000001000000000000000000000000
