202502030060000600000000000000003765000000000000000037658000000000030559799536SINDICATO OBRAS SANITARIAS DE 000000544880000000000000000000000000000000000000000000000000000000000000000000000000000000000000000000000000000000000000PES00010000001000000000000000000000000
202502030060000600000000000000003766000000000000000037668000000000030715124234MINISTERIO DE GOBIERNO BS.AS. 000001169880000000000000000000000000000000000000000000000000000000000000000000000000000000000000000000000000000000000000PES00010000001000000000000000000000000
202502060060000600000000000000003767000000000000000037678000000000030708499044INSTITUTO CULTURAL DE LA PROV 000000479198000000000000000000000000000000000000000000000000000000000000000000000000000000000000000000000000000000000000PES00010000001000000000000000000000000
202502070060000600000000000000003768000000000000000037688000000000030707045031MINISTERIO DE DESARROLLO DE LA000000989460000000000000000000000000000000000000000000000000000000000000000000000000000000000000000000000000000000000000PES00010000001000000000000000000000000
202502110060000600000000000000003769000000000000000037698000000000030546666707UNIVERSIDAD NACIONAL DE LA PLA000000019600000000000000000000000000000000000000000000000000000000000000000000000000000000000000000000000000000000000000PES00010000001000000000000000000000000
202502130060000600000000000000003770000000000000000037708000000000030708499044INSTITUTO CULTURAL DE LA PROV 000000071600000000000000000000000000000000000000000000000000000000000000000000000000000000000000000000000000000000000000PES00010000001000000000000000000000000
202502130060000600000000000000003771000000000000000037718000000000030708499044INSTITUTO CULTURAL DE LA PROV 000000157380000000000000000000000000000000000000000000000000000000000000000000000000000000000000000000000000000000000000PES00010000001000000000000000000000000
202502130060000600000000000000003772000000000000000037728000000000030708499044INSTITUTO CULTURAL DE LA PROV 000000100920000000000000000000000000000000000000000000000000000000000000000000000000000000000000000000000000000000000000PES00010000001000000000000000000000000
202502130010000600000000000000001730000000000000000017308000000000033593283319CORREGIDOR SA                 000000182541449000000000000000000000000000000000000000000000000000000000000000000000000000000000000000000000000000000000PES00010000001000000000000000000000000
202502130010000600000000000000001731000000000000000017318000000000033593283319CORREGIDOR SA                 000000033900555000000000000000000000000000000000000000000000000000000000000000000000000000000000000000000000000000000000PES00010000001000000000000000000000000
202502130010000600000000000000001732000000000000000017328000000000033593283319CORREGIDOR SA                 000000051221701000000000000000000000000000000000000000000000000000000000000000000000000000000000000000000000000000000000PES00010000001000000000000000000000000
202502130010000600000000000000001733000000000000000017338000000000033593283319CORREGIDOR SA                 000000092199060000000000000000000000000000000000000000000000000000000000000000000000000000000000000000000000000000000000PES00010000001000000000000000000000000
202502180010000600000000000000001734000000000000000017348000000000030657864281CAMUZZI GAS PAMPEANA S A      000000057520058000000000000000000000000000000000000000000000000000000000000000000000000000000000000000000000000000000000PES00010000001000000000000000000000000
202502200060000600000000000000003773000000000000000037738000000000030708499044INSTITUTO CULTURAL DE LA PROV 000000151000000000000000000000000000000000000000000000000000000000000000000000000000000000000000000000000000000000000000PES00010000001000000000000000000000000
202502210060000600000000000000003774000000000000000037748000000000030627393713DIRECCION GENERAL DE CULTURA Y000000095000000000000000000000000000000000000000000000000000000000000000000000000000000000000000000000000000000000000000PES00010000001000000000000000000000000
202502210060000600000000000000003775000000000000000037758000000000030627393713DIRECCION GENERAL DE CULTURA Y000000216600000000000000000000000000000000000000000000000000000000000000000000000000000000000000000000000000000000000000PES00010000001000000000000000000000000
202502210080000600000000000000000410000000000000000004108000000000030627393713DIRECCION GENERAL DE CULTURA Y000000095000000000000000000000000000000000000000000000000000000000000000000000000000000000000000000000000000000000000000PES00010000001000000000000000000000000
202502210080000600000000000000000411000000000000000004118000000000030627393713DIRECCION GENERAL DE CULTURA Y000000216600000000000000000000000000000000000000000000000000000000000000000000000000000000000000000000000000000000000000PES00010000001000000000000000000000000
202502210060000600000000000000003776000000000000000037768000000000030627393713DIRECCION GENERAL DE CULTURA Y000000311600000000000000000000000000000000000000000000000000000000000000000000000000000000000000000000000000000000000000PES00010000001000000000000000000000000
202502210060000600000000000000003777000000000000000037778000000000027251607864COVELLO JULIETA               000000094000000000000000000000000000000000000000000000000000000000000000000000000000000000000000000000000000000000000000PES00010000001000000000000000000000000
202502210080000600000000000000000412000000000000000004128000000000027251607864COVELLO JULIETA               000000094000000000000000000000000000000000000000000000000000000000000000000000000000000000000000000000000000000000000000PES00010000001000000000000000000000000
202502210010000600000000000000001735000000000000000017358000000000027251607864COVELLO JULIETA               000000094000010000000000000000000000000000000000000000000000000000000000000000000000000000000000000000000000000000000000PES00010000001000000000000000000000000
202502210010000600000000000000001736000000000000000017368000000000027251607864COVELLO JULIETA               000000187000019000000000000000000000000000000000000000000000000000000000000000000000000000000000000000000000000000000000PES00010000001000000000000000000000000
202502210060000600000000000000003778000000000000000037788000000000030627393713DIRECCION GENERAL DE CULTURA Y000000115000000000000000000000000000000000000000000000000000000000000000000000000000000000000000000000000000000000000000PES00010000001000000000000000000000000
202502210030000600000000000000000077000000000000000000778000000000027251607864COVELLO JULIETA               000000187000019000000000000000000000000000000000000000000000000000000000000000000000000000000000000000000000000000000000PES00010000001000000000000000000000000
202502210010000600000000000000001737000000000000000017378000000000027251607864COVELLO JULIETA               000000144500033000000000000000000000000000000000000000000000000000000000000000000000000000000000000000000000000000000000PES00010000001000000000000000000000000
202502240080000600000000000000000413000000000000000004138000000000030627393713DIRECCION GENERAL DE CULTURA Y000000311600000000000000000000000000000000000000000000000000000000000000000000000000000000000000000000000000000000000000PES00010000001000000000000000000000000
202502240060000600000000000000003779000000000000000037798000000000030627393713DIRECCION GENERAL DE CULTURA Y000000311600000000000000000000000000000000000000000000000000000000000000000000000000000000000000000000000000000000000000PES00010000001000000000000000000000000
202502240060000600000000000000003780000000000000000037808000000000030716742292MINISTERIO DE MUJERES Y DIVERS000000024500000000000000000000000000000000000000000000000000000000000000000000000000000000000000000000000000000000000000PES00010000001000000000000000020250324
202502260060000600000000000000003781000000000000000037818000000000030708499044INSTITUTO CULTURAL DE LA PROV 000000121200000000000000000000000000000000000000000000000000000000000000000000000000000000000000000000000000000000000000PES00010000001000000000000000000000000
202502260060000600000000000000003782000000000000000037828000000000030708499044INSTITUTO CULTURAL DE LA PROV 000000168500000000000000000000000000000000000000000000000000000000000000000000000000000000000000000000000000000000000000PES00010000001000000000000000000000000
202502270060000600000000000000003783000000000000000037838000000000030627393713DIRECCION GENERAL DE CULTURA Y000001484650000000000000000000000000000000000000000000000000000000000000000000000000000000000000000000000000000000000000PES00010000001000000000000000000000000
202502270060000600000000000000003784000000000000000037848000000000030627393713DIRECCION GENERAL DE CULTURA Y000000019400000000000000000000000000000000000000000000000000000000000000000000000000000000000000000000000000000000000000PES00010000001000000000000000000000000
202502270060000600000000000000003785000000000000000037858000000000030627393713DIRECCION GENERAL DE CULTURA Y000000062100000000000000000000000000000000000000000000000000000000000000000000000000000000000000000000000000000000000000PES00010000001000000000000000000000000
202502270060000600000000000000003786000000000000000037868000000000030627393713DIRECCION GENERAL DE CULTURA Y000001033680000000000000000000000000000000000000000000000000000000000000000000000000000000000000000000000000000000000000PES00010000001000000000000000000000000
202502280080000600000000000000000414000000000000000004148000000000030708499044INSTITUTO CULTURAL DE LA PROV 000000168500000000000000000000000000000000000000000000000000000000000000000000000000000000000000000000000000000000000000PES00010000001000000000000000000000000
202502280060000600000000000000003787000000000000000037878000000000030708499044INSTITUTO CULTURAL DE LA PROV 000000168300100000000000000000000000000000000000000000000000000000000000000000000000000000000000000000000000000000000000PES00010000001000000000000000000000000
202502280010000600000000000000001738000000000000000017388000000000030520912963TAIUTI CONSTRUCCIONES S C A   000000134300001000000000000000000000000000000000000000000000000000000000000000000000000000000000000000000000000000000000PES00010000001000000000000000000000000
202502280010000600000000000000001739000000000000000017398000000000027225988795NINA MARIA LAURA              000000114800020000000000000000000000000000000000000000000000000000000000000000000000000000000000000000000000000000000000PES00010000001000000000000000000000000
