202406030060000600000000000000003288000000000000000032888000000000030638438514H CAMARA DE DIPUTADOS PCIA BS 000000440539000000000000000000000000000000000000000000000000000000000000000000000000000000000000000000000000000000000000PES00010000001000000000000000000000000
202406040060000600000000000000003289000000000000000032898000000000030546666707UNIVERSIDAD NACIONAL DE LA PLA000000140000000000000000000000000000000000000000000000000000000000000000000000000000000000000000000000000000000000000000PES00010000001000000000000000000000000
202406050060000600000000000000003290000000000000000032909600000000000024913084GRANDE ARIEL MARTIN           000000036400000000000000000000000000000000000000000000000000000000000000000000000000000000000000000000000000000000000000PES00010000001000000000000000000000000
202406050060000600000000000000003291000000000000000032918000000000030559799536SINDICATO OBRAS SANITARIAS DE 000000129220000000000000000000000000000000000000000000000000000000000000000000000000000000000000000000000000000000000000PES00010000001000000000000000000000000
202406060060000600000000000000003292000000000000000032928000000000030710405863MINISTERIO DE AMBIENTE        000000046920000000000000000000000000000000000000000000000000000000000000000000000000000000000000000000000000000000000000PES00010000001000000000000000000000000
202406060060000600000000000000003293000000000000000032938000000000030710405863MINISTERIO DE AMBIENTE        000000046920000000000000000000000000000000000000000000000000000000000000000000000000000000000000000000000000000000000000PES00010000001000000000000000000000000
202406060060000600000000000000003294000000000000000032948000000000030710405863MINISTERIO DE AMBIENTE        000000046920000000000000000000000000000000000000000000000000000000000000000000000000000000000000000000000000000000000000PES00010000001000000000000000000000000
202406060060000600000000000000003295000000000000000032958000000000030710405863MINISTERIO DE AMBIENTE        000000046920000000000000000000000000000000000000000000000000000000000000000000000000000000000000000000000000000000000000PES00010000001000000000000000000000000
202406060060000600000000000000003296000000000000000032968000000000030710405863MINISTERIO DE AMBIENTE        000000046920000000000000000000000000000000000000000000000000000000000000000000000000000000000000000000000000000000000000PES00010000001000000000000000000000000
202406060060000600000000000000003297000000000000000032978000000000030716742292MINISTERIO DE MUJERES Y DIVERS000000028040000000000000000000000000000000000000000000000000000000000000000000000000000000000000000000000000000000000000PES00010000001000000000000000020240806
202406060060000600000000000000003298000000000000000032988000000000030716742292MINISTERIO DE MUJERES Y DIVERS000000065050000000000000000000000000000000000000000000000000000000000000000000000000000000000000000000000000000000000000PES00010000001000000000000000020240806
202406060080000600000000000000000334000000000000000003348000000000030627393713DIRECCION GENERAL DE CULTURA Y000000465000000000000000000000000000000000000000000000000000000000000000000000000000000000000000000000000000000000000000PES00010000001000000000000000020240721
202406060060000600000000000000003299000000000000000032998000000000030627393713DIRECCION GENERAL DE CULTURA Y000000465000000000000000000000000000000000000000000000000000000000000000000000000000000000000000000000000000000000000000PES00010000001000000000000000020240806
202406070060000600000000000000003300000000000000000033008000000000030627393713DIRECCION GENERAL DE CULTURA Y000000071700000000000000000000000000000000000000000000000000000000000000000000000000000000000000000000000000000000000000PES00010000001000000000000000020240807
202406070080000600000000000000000335000000000000000003358000000000030627393713DIRECCION GENERAL DE CULTURA Y000000128800000000000000000000000000000000000000000000000000000000000000000000000000000000000000000000000000000000000000PES00010000001000000000000000020240722
202406070060000600000000000000003301000000000000000033018000000000030627393713DIRECCION GENERAL DE CULTURA Y000000128800000000000000000000000000000000000000000000000000000000000000000000000000000000000000000000000000000000000000PES00010000001000000000000000020240807
202406070060000600000000000000003302000000000000000033028000000000030716742292MINISTERIO DE MUJERES Y DIVERS000000083000000000000000000000000000000000000000000000000000000000000000000000000000000000000000000000000000000000000000PES00010000001000000000000000000000000
202406070060000600000000000000003303000000000000000033038000000000030546666707UNIVERSIDAD NACIONAL DE LA PLA000000012000000000000000000000000000000000000000000000000000000000000000000000000000000000000000000000000000000000000000PES00010000001000000000000000000000000
202406100060000600000000000000003304000000000000000033048000000000030626983398MINISTERIO DE SALUD PCIA DE BS000000025200000000000000000000000000000000000000000000000000000000000000000000000000000000000000000000000000000000000000PES00010000001000000000000000000000000
202406100060000600000000000000003305000000000000000033058000000000030638438514H CAMARA DE DIPUTADOS PCIA BS 000000351015000000000000000000000000000000000000000000000000000000000000000000000000000000000000000000000000000000000000PES00010000001000000000000000000000000
202406100060000600000000000000003306000000000000000033068000000000030546666707UNIVERSIDAD NACIONAL DE LA PLA000000024000000000000000000000000000000000000000000000000000000000000000000000000000000000000000000000000000000000000000PES00010000001000000000000000000000000
202406120080000600000000000000000336000000000000000003368000000000030626983398MINISTERIO DE SALUD PCIA DE BS000000025200000000000000000000000000000000000000000000000000000000000000000000000000000000000000000000000000000000000000PES00010000001000000000000000000000000
202406120060000600000000000000003307000000000000000033078000000000030626983398MINISTERIO DE SALUD PCIA DE BS000000025200000000000000000000000000000000000000000000000000000000000000000000000000000000000000000000000000000000000000PES00010000001000000000000000000000000
202406120080000600000000000000000337000000000000000003378000000000030626983398MINISTERIO DE SALUD PCIA DE BS000000025200000000000000000000000000000000000000000000000000000000000000000000000000000000000000000000000000000000000000PES00010000001000000000000000000000000
202406120060000600000000000000003308000000000000000033088000000000030626983398MINISTERIO DE SALUD PCIA DE BS000000025200000000000000000000000000000000000000000000000000000000000000000000000000000000000000000000000000000000000000PES00010000001000000000000000000000000
202406130010000600000000000000001571000000000000000015718000000000030657864281CAMUZZI GAS PAMPEANA S A      000000078180310000000000000000000000000000000000000000000000000000000000000000000000000000000000000000000000000000000000PES00010000001000000000000000000000000
202406130010000600000000000000001572000000000000000015728000000000030718457315CONSULTORIOS INTEGRALES GONNET000000108500001000000000000000000000000000000000000000000000000000000000000000000000000000000000000000000000000000000000PES00010000001000000000000000000000000
202406170060000600000000000000003309000000000000000033098000000000030627393713DIRECCION GENERAL DE CULTURA Y000000190000000000000000000000000000000000000000000000000000000000000000000000000000000000000000000000000000000000000000PES00010000001000000000000000020240817
202406170060000600000000000000003310000000000000000033108000000000030627393713DIRECCION GENERAL DE CULTURA Y000000092700000000000000000000000000000000000000000000000000000000000000000000000000000000000000000000000000000000000000PES00010000001000000000000000020240817
202406170060000600000000000000003311000000000000000033118000000000030627393713DIRECCION GENERAL DE CULTURA Y000000295290000000000000000000000000000000000000000000000000000000000000000000000000000000000000000000000000000000000000PES00010000002000000000000000020240817
202406170060000600000000000000003312000000000000000033128000000000030627393713DIRECCION GENERAL DE CULTURA Y000000209000000000000000000000000000000000000000000000000000000000000000000000000000000000000000000000000000000000000000PES00010000001000000000000000020240817
202406180010000600000000000000001573000000000000000015738000000000030662938374DIGIMED S A                   000000045400001000000000000000000000000000000000000000000000000000000000000000000000000000000000000000000000000000000000PES00010000001000000000000000000000000
202406190080000600000000000000000338000000000000000003388000000000030627393713DIRECCION GENERAL DE CULTURA Y000000190000000000000000000000000000000000000000000000000000000000000000000000000000000000000000000000000000000000000000PES00010000001000000000000000000000000
202406190060000600000000000000003313000000000000000033138000000000030627393713DIRECCION GENERAL DE CULTURA Y000000190000000000000000000000000000000000000000000000000000000000000000000000000000000000000000000000000000000000000000PES00010000001000000000000000000000000
202406190060000600000000000000003314000000000000000033148000000000030638438514H CAMARA DE DIPUTADOS PCIA BS 000000265255000000000000000000000000000000000000000000000000000000000000000000000000000000000000000000000000000000000000PES00010000001000000000000000000000000
202406190060000600000000000000003315000000000000000033158000000000030715124234MINISTERIO DE GOBIERNO BS.AS. 000000330000000000000000000000000000000000000000000000000000000000000000000000000000000000000000000000000000000000000000PES00010000001000000000000000000000000
202406240060000600000000000000003316000000000000000033168000000000030708499044INSTITUTO CULTURAL DE LA PROV 000000018000000000000000000000000000000000000000000000000000000000000000000000000000000000000000000000000000000000000000PES00010000001000000000000000020240730
202406240060000600000000000000003317000000000000000033178000000000030708499044INSTITUTO CULTURAL DE LA PROV 000000014500000000000000000000000000000000000000000000000000000000000000000000000000000000000000000000000000000000000000PES00010000001000000000000000020240730
202406250060000600000000000000003318000000000000000033188000000000030708499044INSTITUTO CULTURAL DE LA PROV 000000019600000000000000000000000000000000000000000000000000000000000000000000000000000000000000000000000000000000000000PES00010000001000000000000000020240731
202406260060000600000000000000003319000000000000000033198000000000030707045031MINISTERIO DE DESARROLLO DE LA000001640000000000000000000000000000000000000000000000000000000000000000000000000000000000000000000000000000000000000000PES00010000001000000000000000000000000
202406280060000600000000000000003320000000000000000033208000000000030546666707UNIVERSIDAD NACIONAL DE LA PLA000000020300000000000000000000000000000000000000000000000000000000000000000000000000000000000000000000000000000000000000PES00010000001000000000000000000000000
202406280010000600000000000000001574000000000000000015748000000000027251607864COVELLO JULIETA               000000028600000000000000000000000000000000000000000000000000000000000000000000000000000000000000000000000000000000000000PES00010000001000000000000000000000000
202406290010000600000000000000001575000000000000000015758000000000033593283319CORREGIDOR SA                 000000046729111000000000000000000000000000000000000000000000000000000000000000000000000000000000000000000000000000000000PES00010000001000000000000000000000000
202406290010000600000000000000001576000000000000000015768000000000033593283319CORREGIDOR SA                 000000066330015000000000000000000000000000000000000000000000000000000000000000000000000000000000000000000000000000000000PES00010000001000000000000000000000000
202406290010000600000000000000001577000000000000000015778000000000033593283319CORREGIDOR SA                 000000044096475000000000000000000000000000000000000000000000000000000000000000000000000000000000000000000000000000000000PES00010000001000000000000000000000000
202406290010000600000000000000001578000000000000000015788000000000027225988795NINA MARIA LAURA              000000098750023000000000000000000000000000000000000000000000000000000000000000000000000000000000000000000000000000000000PES00010000001000000000000000000000000
