202504010060000600000000000000003821000000000000000038218000000000030707216669PODER JUDICIAL MINISTERIO PUBL000000007500000000000000000000000000000000000000000000000000000000000000000000000000000000000000000000000000000000000000PES00010000001000000000000000000000000
202504010010000600000000000000001757000000000000000017578000000000030657864281CAMUZZI GAS PAMPEANA S A      000000009700033000000000000000000000000000000000000000000000000000000000000000000000000000000000000000000000000000000000PES00010000001000000000000000000000000
202504010060000600000000000000003822000000000000000038228000000000030627393713DIRECCION GENERAL DE CULTURA Y000000215131000000000000000000000000000000000000000000000000000000000000000000000000000000000000000000000000000000000000PES00010000001000000000000000000000000
202504010060000600000000000000003823000000000000000038238000000000030710405863MINISTERIO DE AMBIENTE        000000285040000000000000000000000000000000000000000000000000000000000000000000000000000000000000000000000000000000000000PES00010000001000000000000000000000000
202504040060000600000000000000003824000000000000000038248000000000030627393713DIRECCION GENERAL DE CULTURA Y000000259820000000000000000000000000000000000000000000000000000000000000000000000000000000000000000000000000000000000000PES00010000001000000000000000000000000
202504080060000600000000000000003825000000000000000038258000000000030677218149DIRECCION PROVINCIAL PATRONATO000000056000000000000000000000000000000000000000000000000000000000000000000000000000000000000000000000000000000000000000PES00010000001000000000000000000000000
202504090060000600000000000000003826000000000000000038268000000000030627393713DIRECCION GENERAL DE CULTURA Y000000065270000000000000000000000000000000000000000000000000000000000000000000000000000000000000000000000000000000000000PES00010000001000000000000000000000000
202504090060000600000000000000003827000000000000000038278000000000030627393713DIRECCION GENERAL DE CULTURA Y000000259820000000000000000000000000000000000000000000000000000000000000000000000000000000000000000000000000000000000000PES00010000001000000000000000000000000
202504090060000600000000000000003828000000000000000038288000000000030627393713DIRECCION GENERAL DE CULTURA Y000000154881000000000000000000000000000000000000000000000000000000000000000000000000000000000000000000000000000000000000PES00010000001000000000000000000000000
202504090060000600000000000000003829000000000000000038298000000000030627393713DIRECCION GENERAL DE CULTURA Y000000154881000000000000000000000000000000000000000000000000000000000000000000000000000000000000000000000000000000000000PES00010000001000000000000000000000000
202504090060000600000000000000003830000000000000000038308000000000030627393713DIRECCION GENERAL DE CULTURA Y000000259820000000000000000000000000000000000000000000000000000000000000000000000000000000000000000000000000000000000000PES00010000001000000000000000000000000
202504100060000600000000000000003831000000000000000038318000000000030627393713DIRECCION GENERAL DE CULTURA Y000000467720000000000000000000000000000000000000000000000000000000000000000000000000000000000000000000000000000000000000PES00010000001000000000000000000000000
202504100060000600000000000000003832000000000000000038328000000000030627393713DIRECCION GENERAL DE CULTURA Y000000184800000000000000000000000000000000000000000000000000000000000000000000000000000000000000000000000000000000000000PES00010000001000000000000000000000000
202504100060000600000000000000003833000000000000000038338000000000033638161309COLEGIO DE MAGISTRADOS Y FUNCI000000084090000000000000000000000000000000000000000000000000000000000000000000000000000000000000000000000000000000000000PES00010000001000000000000000000000000
202504100060000600000000000000003834000000000000000038348000000000030627393713DIRECCION GENERAL DE CULTURA Y000000225276000000000000000000000000000000000000000000000000000000000000000000000000000000000000000000000000000000000000PES00010000001000000000000000000000000
202504100080000600000000000000000423000000000000000004238000000000030627393713DIRECCION GENERAL DE CULTURA Y000000259820000000000000000000000000000000000000000000000000000000000000000000000000000000000000000000000000000000000000PES00010000001000000000000000000000000
202504100060000600000000000000003835000000000000000038358000000000030715124234MINISTERIO DE GOBIERNO BS.AS. 000001126436618000000000000000000000000000000000000000000000000000000000000000000000000000000000000000000000000000000000PES00010000001000000000000000000000000
202504100060000600000000000000003836000000000000000038368000000000030708499044INSTITUTO CULTURAL DE LA PROV 000000052580000000000000000000000000000000000000000000000000000000000000000000000000000000000000000000000000000000000000PES00010000001000000000000000000000000
202504100060000600000000000000003837000000000000000038378000000000030708499044INSTITUTO CULTURAL DE LA PROV 000000067360000000000000000000000000000000000000000000000000000000000000000000000000000000000000000000000000000000000000PES00010000001000000000000000000000000
202504100010000600000000000000001758000000000000000017588000000000030559880120JOSE ANACLETO E HIJOS S A     000000010000021000000000000000000000000000000000000000000000000000000000000000000000000000000000000000000000000000000000PES00010000001000000000000000000000000
202504100010000600000000000000001759000000000000000017598000000000030559880120JOSE ANACLETO E HIJOS S A     000000009000004000000000000000000000000000000000000000000000000000000000000000000000000000000000000000000000000000000000PES00010000001000000000000000000000000
202504100010000600000000000000001760000000000000000017608000000000030657877669EMPRESA DISTRIBUIDORA LA PLATA000000106920001000000000000000000000000000000000000000000000000000000000000000000000000000000000000000000000000000000000PES00010000001000000000000000000000000
202504100010000600000000000000001761000000000000000017618000000000030657877669EMPRESA DISTRIBUIDORA LA PLATA000000020100000000000000000000000000000000000000000000000000000000000000000000000000000000000000000000000000000000000000PES00010000001000000000000000000000000
202504100010000600000000000000001762000000000000000017628000000000030657877669EMPRESA DISTRIBUIDORA LA PLATA000000009350000000000000000000000000000000000000000000000000000000000000000000000000000000000000000000000000000000000000PES00010000001000000000000000000000000
202504100010000600000000000000001763000000000000000017638000000000030657877669EMPRESA DISTRIBUIDORA LA PLATA000000023400001000000000000000000000000000000000000000000000000000000000000000000000000000000000000000000000000000000000PES00010000001000000000000000000000000
202504100010000600000000000000001764000000000000000017648000000000027225988795NINA MARIA LAURA              000000190400000000000000000000000000000000000000000000000000000000000000000000000000000000000000000000000000000000000000PES00010000001000000000000000000000000
202504110080000600000000000000000424000000000000000004248000000000030715124234MINISTERIO DE GOBIERNO BS.AS. 000001126436618000000000000000000000000000000000000000000000000000000000000000000000000000000000000000000000000000000000PES00010000001000000000000000000000000
202504110060000600000000000000003838000000000000000038388000000000030715124234MINISTERIO DE GOBIERNO BS.AS. 000001126436720000000000000000000000000000000000000000000000000000000000000000000000000000000000000000000000000000000000PES00010000001000000000000000000000000
202504120060000600000000000000003839000000000000000038398000000000030627393713DIRECCION GENERAL DE CULTURA Y000000140070000000000000000000000000000000000000000000000000000000000000000000000000000000000000000000000000000000000000PES00010000001000000000000000000000000
202504140080000600000000000000000425000000000000000004258000000000030627393713DIRECCION GENERAL DE CULTURA Y000000184800000000000000000000000000000000000000000000000000000000000000000000000000000000000000000000000000000000000000PES00010000001000000000000000000000000
202504140060000600000000000000003840000000000000000038408000000000030627393713DIRECCION GENERAL DE CULTURA Y000000184800000000000000000000000000000000000000000000000000000000000000000000000000000000000000000000000000000000000000PES00010000001000000000000000000000000
202504140060000600000000000000003841000000000000000038418000000000030627393713DIRECCION GENERAL DE CULTURA Y000000048500000000000000000000000000000000000000000000000000000000000000000000000000000000000000000000000000000000000000PES00010000001000000000000000000000000
202504140060000600000000000000003842000000000000000038428000000000030627393713DIRECCION GENERAL DE CULTURA Y000000221600000000000000000000000000000000000000000000000000000000000000000000000000000000000000000000000000000000000000PES00010000001000000000000000000000000
202504140060000600000000000000003843000000000000000038438000000000030627393713DIRECCION GENERAL DE CULTURA Y000000067400000000000000000000000000000000000000000000000000000000000000000000000000000000000000000000000000000000000000PES00010000001000000000000000000000000
202504150010000600000000000000001765000000000000000017658000000000033717633119CAFE DEL BIEN S. R. L.        000000100000000000000000000000000000000000000000000000000000000000000000000000000000000000000000000000000000000000000000PES00010000001000000000000000000000000
202504150010000600000000000000001766000000000000000017668000000000033717633119CAFE DEL BIEN S. R. L.        000000900000000000000000000000000000000000000000000000000000000000000000000000000000000000000000000000000000000000000000PES00010000001000000000000000000000000
202504160060000600000000000000003844000000000000000038448000000000030688318595ASOCIACION ALDEAS INFANTILES S000000068820000000000000000000000000000000000000000000000000000000000000000000000000000000000000000000000000000000000000PES00010000001000000000000000000000000
202504160010000600000000000000001767000000000000000017678000000000030710434421FARMACIA ZORICH DE PAULA CRIST000000028500000000000000000000000000000000000000000000000000000000000000000000000000000000000000000000000000000000000000PES00010000001000000000000000000000000
202504170010000600000000000000001768000000000000000017688000000000030520912963TAIUTI CONSTRUCCIONES S C A   000000107440002000000000000000000000000000000000000000000000000000000000000000000000000000000000000000000000000000000000PES00010000001000000000000000000000000
202504170010000600000000000000001769000000000000000017698000000000027225988795NINA MARIA LAURA              000000066000021000000000000000000000000000000000000000000000000000000000000000000000000000000000000000000000000000000000PES00010000001000000000000000000000000
202504170010000600000000000000001770000000000000000017708000000000027225988795NINA MARIA LAURA              000000074250023000000000000000000000000000000000000000000000000000000000000000000000000000000000000000000000000000000000PES00010000001000000000000000000000000
202504170010000600000000000000001771000000000000000017718000000000027225988795NINA MARIA LAURA              000000053200009000000000000000000000000000000000000000000000000000000000000000000000000000000000000000000000000000000000PES00010000001000000000000000000000000
202504170010000600000000000000001772000000000000000017728000000000030520912963TAIUTI CONSTRUCCIONES S C A   000000158160044000000000000000000000000000000000000000000000000000000000000000000000000000000000000000000000000000000000PES00010000001000000000000000000000000
202504170060000600000000000000003845000000000000000038458000000000030627393713DIRECCION GENERAL DE CULTURA Y000000676800000000000000000000000000000000000000000000000000000000000000000000000000000000000000000000000000000000000000PES00010000001000000000000000000000000
202504170060000600000000000000003846000000000000000038468000000000030627393713DIRECCION GENERAL DE CULTURA Y000000146640000000000000000000000000000000000000000000000000000000000000000000000000000000000000000000000000000000000000PES00010000001000000000000000000000000
202504210010000600000000000000001773000000000000000017738000000000033593283319CORREGIDOR SA                 000000048329400000000000000000000000000000000000000000000000000000000000000000000000000000000000000000000000000000000000PES00010000001000000000000000000000000
202504210010000600000000000000001774000000000000000017748000000000033593283319CORREGIDOR SA                 000000109524869000000000000000000000000000000000000000000000000000000000000000000000000000000000000000000000000000000000PES00010000001000000000000000000000000
202504210010000600000000000000001775000000000000000017758000000000020326381137BENGTSSON CHRISTIAN           000000111925000000000000000000000000000000000000000000000000000000000000000000000000000000000000000000000000000000000000PES00010000001000000000000000000000000
202504210060000600000000000000003847000000000000000038478000000000030627393713DIRECCION GENERAL DE CULTURA Y000000087268000000000000000000000000000000000000000000000000000000000000000000000000000000000000000000000000000000000000PES00010000001000000000000000000000000
202504210060000600000000000000003848000000000000000038488000000000030627393713DIRECCION GENERAL DE CULTURA Y000000188940000000000000000000000000000000000000000000000000000000000000000000000000000000000000000000000000000000000000PES00010000001000000000000000000000000
202504210010000600000000000000001776000000000000000017768000000000030516155074SINTEC TUR S A                000000118000001000000000000000000000000000000000000000000000000000000000000000000000000000000000000000000000000000000000PES00010000001000000000000000000000000
202504220060000600000000000000003849000000000000000038498000000000030546666707UNIVERSIDAD NACIONAL DE LA PLA000000040000000000000000000000000000000000000000000000000000000000000000000000000000000000000000000000000000000000000000PES00010000001000000000000000000000000
202504230080000600000000000000000426000000000000000004268000000000030627393713DIRECCION GENERAL DE CULTURA Y000000676800000000000000000000000000000000000000000000000000000000000000000000000000000000000000000000000000000000000000PES00010000001000000000000000000000000
202504230060000600000000000000003850000000000000000038508000000000030627393713DIRECCION GENERAL DE CULTURA Y000000676800000000000000000000000000000000000000000000000000000000000000000000000000000000000000000000000000000000000000PES00010000001000000000000000000000000
202504230060000600000000000000003851000000000000000038518000000000030627393713DIRECCION GENERAL DE CULTURA Y000000039040000000000000000000000000000000000000000000000000000000000000000000000000000000000000000000000000000000000000PES00010000001000000000000000000000000
202504240060000600000000000000003852000000000000000038528000000000030627393713DIRECCION GENERAL DE CULTURA Y000000240715000000000000000000000000000000000000000000000000000000000000000000000000000000000000000000000000000000000000PES00010000001000000000000000000000000
202504240060000600000000000000003853000000000000000038538000000000030627393713DIRECCION GENERAL DE CULTURA Y000000188940000000000000000000000000000000000000000000000000000000000000000000000000000000000000000000000000000000000000PES00010000001000000000000000000000000
202504240060000600000000000000003854000000000000000038548000000000030627393713DIRECCION GENERAL DE CULTURA Y000000087268000000000000000000000000000000000000000000000000000000000000000000000000000000000000000000000000000000000000PES00010000001000000000000000000000000
202504240080000600000000000000000427000000000000000004278000000000030627393713DIRECCION GENERAL DE CULTURA Y000000087268000000000000000000000000000000000000000000000000000000000000000000000000000000000000000000000000000000000000PES00010000001000000000000000000000000
202504240080000600000000000000000428000000000000000004288000000000030627393713DIRECCION GENERAL DE CULTURA Y000000188940000000000000000000000000000000000000000000000000000000000000000000000000000000000000000000000000000000000000PES00010000001000000000000000000000000
202504240060000600000000000000003855000000000000000038558000000000030627393713DIRECCION GENERAL DE CULTURA Y000000305920000000000000000000000000000000000000000000000000000000000000000000000000000000000000000000000000000000000000PES00010000001000000000000000000000000
202504240060000600000000000000003856000000000000000038568000000000030627393713DIRECCION GENERAL DE CULTURA Y000000514500000000000000000000000000000000000000000000000000000000000000000000000000000000000000000000000000000000000000PES00010000001000000000000000000000000
202504240010000600000000000000001777000000000000000017778000000000030548950704FEDERACION ODONTOLOGICA DE LA 000000038160077000000000000000000000000000000000000000000000000000000000000000000000000000000000000000000000000000000000PES00010000001000000000000000000000000
202504250060000600000000000000003857000000000000000038578000000000030627393713DIRECCION GENERAL DE CULTURA Y000000849400000000000000000000000000000000000000000000000000000000000000000000000000000000000000000000000000000000000000PES00010000001000000000000000000000000
202504250080000600000000000000000429000000000000000004298000000000030627393713DIRECCION GENERAL DE CULTURA Y000000146640000000000000000000000000000000000000000000000000000000000000000000000000000000000000000000000000000000000000PES00010000001000000000000000000000000
202504250060000600000000000000003858000000000000000038588000000000030627393713DIRECCION GENERAL DE CULTURA Y000000146640000000000000000000000000000000000000000000000000000000000000000000000000000000000000000000000000000000000000PES00010000001000000000000000000000000
202504250060000600000000000000003859000000000000000038598000000000030717321231JEFATURA DE ASESORES DEL GOBER000000046060000000000000000000000000000000000000000000000000000000000000000000000000000000000000000000000000000000000000PES00010000001000000000000000000000000
202504260060000600000000000000003860000000000000000038608000000000030627393713DIRECCION GENERAL DE CULTURA Y000000048500000000000000000000000000000000000000000000000000000000000000000000000000000000000000000000000000000000000000PES00010000001000000000000000000000000
202504260010000600000000000000001778000000000000000017788000000000027251607864COVELLO JULIETA               000000063000000000000000000000000000000000000000000000000000000000000000000000000000000000000000000000000000000000000000PES00010000001000000000000000000000000
202504260010000600000000000000001779000000000000000017798000000000033593283319CORREGIDOR SA                 000000139576800000000000000000000000000000000000000000000000000000000000000000000000000000000000000000000000000000000000PES00010000001000000000000000000000000
202504260010000600000000000000001780000000000000000017808000000000033593283319CORREGIDOR SA                 000000098674079000000000000000000000000000000000000000000000000000000000000000000000000000000000000000000000000000000000PES00010000001000000000000000000000000
202504280060000600000000000000003861000000000000000038618000000000030707216669PODER JUDICIAL MINISTERIO PUBL000000009750000000000000000000000000000000000000000000000000000000000000000000000000000000000000000000000000000000000000PES00010000001000000000000000000000000
202504280060000600000000000000003862000000000000000038628000000000033638161309COLEGIO DE MAGISTRADOS Y FUNCI000000009600000000000000000000000000000000000000000000000000000000000000000000000000000000000000000000000000000000000000PES00010000001000000000000000000000000
202504280060000600000000000000003863000000000000000038638000000000030708499044INSTITUTO CULTURAL DE LA PROV 000000054580000000000000000000000000000000000000000000000000000000000000000000000000000000000000000000000000000000000000PES00010000001000000000000000000000000
202504290060000600000000000000003864000000000000000038648000000000030707216669PODER JUDICIAL MINISTERIO PUBL000000007500000000000000000000000000000000000000000000000000000000000000000000000000000000000000000000000000000000000000PES00010000001000000000000000000000000
202504290010000600000000000000001781000000000000000017818000000000030559880120JOSE ANACLETO E HIJOS S A     000000011400000000000000000000000000000000000000000000000000000000000000000000000000000000000000000000000000000000000000PES00010000001000000000000000000000000
202504290060000600000000000000003865000000000000000038658000000000030708357363"UN TECHO PARA ARGENTINA ASOCI000000038850000000000000000000000000000000000000000000000000000000000000000000000000000000000000000000000000000000000000PES00010000001000000000000000000000000
202504300060000600000000000000003866000000000000000038668000000000030999057167MINISTERIO DE PRODUCCION CIENC000000094230000000000000000000000000000000000000000000000000000000000000000000000000000000000000000000000000000000000000PES00010000001000000000000000000000000
202504300010000600000000000000001782000000000000000017828000000000030520912963TAIUTI CONSTRUCCIONES S C A   000000134300001000000000000000000000000000000000000000000000000000000000000000000000000000000000000000000000000000000000PES00010000001000000000000000000000000
