202309010010000600000000000000001441000000000000000014418000000000030519098683FARMACIA CARUSO SOCIEDAD EN CO000000008550000000000000000000000000000000000000000000000000000000000000000000000000000000000000000000000000000000000000PES00010000001000000000000000000000000
202309010030000600000000000000000059000000000000000000598000000000030529881769AGREMIACION BONAERENSE EMPLEAD000000012436000000000000000000000000000000000000000000000000000000000000000000000000000000000000000000000000000000000000PES00010000001000000000000000000000000
202309010030000600000000000000000060000000000000000000608000000000030529881769AGREMIACION BONAERENSE EMPLEAD000000010205833000000000000000000000000000000000000000000000000000000000000000000000000000000000000000000000000000000000PES00010000001000000000000000000000000
202309010060000600000000000000002890000000000000000028908000000000030708693045CONSEJO PROFESIONAL DE CIENCIA000000009600000000000000000000000000000000000000000000000000000000000000000000000000000000000000000000000000000000000000PES00010000001000000000000000000000000
202309010010000600000000000000001442000000000000000014428000000000030544640212LABORATORIO ELEA PHOENIX S A  000000003540076000000000000000000000000000000000000000000000000000000000000000000000000000000000000000000000000000000000PES00010000001000000000000000000000000
202309020010000600000000000000001443000000000000000014438000000000027225988795NINA MARIA LAURA              000000069560000000000000000000000000000000000000000000000000000000000000000000000000000000000000000000000000000000000000PES00010000001000000000000000000000000
202309040060000600000000000000002891000000000000000028918000000000030546666707UNIVERSIDAD NACIONAL DE LA PLA000000012000000000000000000000000000000000000000000000000000000000000000000000000000000000000000000000000000000000000000PES00010000001000000000000000000000000
202309040060000600000000000000002892000000000000000028928000000000030546666707UNIVERSIDAD NACIONAL DE LA PLA000000012000000000000000000000000000000000000000000000000000000000000000000000000000000000000000000000000000000000000000PES00010000001000000000000000000000000
202309040060000600000000000000002893000000000000000028938000000000030546666707UNIVERSIDAD NACIONAL DE LA PLA000000012000000000000000000000000000000000000000000000000000000000000000000000000000000000000000000000000000000000000000PES00010000001000000000000000000000000
202309040060000600000000000000002894000000000000000028948000000000030546666707UNIVERSIDAD NACIONAL DE LA PLA000000012000000000000000000000000000000000000000000000000000000000000000000000000000000000000000000000000000000000000000PES00010000001000000000000000000000000
202309040060000600000000000000002895000000000000000028958000000000030999057167MINISTERIO DE PRODUCCION CIENC000000047400000000000000000000000000000000000000000000000000000000000000000000000000000000000000000000000000000000000000PES00010000001000000000000000000000000
202309040060000600000000000000002896000000000000000028968000000000030627393713DIRECCION GENERAL DE CULTURA Y000000148000000000000000000000000000000000000000000000000000000000000000000000000000000000000000000000000000000000000000PES00010000001000000000000000000000000
202309050060000600000000000000002897000000000000000028978000000000030627393713DIRECCION GENERAL DE CULTURA Y000000201740000000000000000000000000000000000000000000000000000000000000000000000000000000000000000000000000000000000000PES00010000001000000000000000000000000
202309060060000600000000000000002898000000000000000028988000000000030638438514H CAMARA DE DIPUTADOS PCIA BS 000000104125500000000000000000000000000000000000000000000000000000000000000000000000000000000000000000000000000000000000PES00010000001000000000000000000000000
202309060060000600000000000000002899000000000000000028998000000000030546666707UNIVERSIDAD NACIONAL DE LA PLA000000001830000000000000000000000000000000000000000000000000000000000000000000000000000000000000000000000000000000000000PES00010000001000000000000000000000000
202309060060000600000000000000002900000000000000000029008000000000030626983398MINISTERIO DE SALUD PCIA DE BS000000106400000000000000000000000000000000000000000000000000000000000000000000000000000000000000000000000000000000000000PES00010000001000000000000000000000000
202309060060000600000000000000002901000000000000000029018000000000030710100140CENTRO CIENTIFICO TECNOLOGICO 000000004200000000000000000000000000000000000000000000000000000000000000000000000000000000000000000000000000000000000000PES00010000001000000000000000000000000
202309070060000600000000000000002902000000000000000029028000000000030717321231JEFATURA DE ASESORES DEL GOBER000000075000000000000000000000000000000000000000000000000000000000000000000000000000000000000000000000000000000000000000PES00010000001000000000000000000000000
202309070060000600000000000000002903000000000000000029038000000000030546666707UNIVERSIDAD NACIONAL DE LA PLA000000011100000000000000000000000000000000000000000000000000000000000000000000000000000000000000000000000000000000000000PES00010000001000000000000000000000000
202309070080000600000000000000000265000000000000000002658000000000030716742292MINISTERIO DE LAS MUJERES, POL000000022400000000000000000000000000000000000000000000000000000000000000000000000000000000000000000000000000000000000000PES00010000001000000000000000000000000
202309070060000600000000000000002904000000000000000029048000000000030716742292MINISTERIO DE LAS MUJERES, POL000000022400000000000000000000000000000000000000000000000000000000000000000000000000000000000000000000000000000000000000PES00010000001000000000000000020231107
202309110060000600000000000000002905000000000000000029058000000000030710405863MINISTERIO DE AMBIENTE        000000334425000000000000000000000000000000000000000000000000000000000000000000000000000000000000000000000000000000000000PES00010000002000000000000000000000000
202309110060000600000000000000002906000000000000000029068000000000030707216650PODER JUDICIAL ADMINISTRACION 000000014000000000000000000000000000000000000000000000000000000000000000000000000000000000000000000000000000000000000000PES00010000001000000000000000000000000
202309110060000600000000000000002907000000000000000029078000000000030707051546MINISTERIO DE JUSTICIA Y DEREC000000001800000000000000000000000000000000000000000000000000000000000000000000000000000000000000000000000000000000000000PES00010000001000000000000000000000000
202309110060000600000000000000002908000000000000000029088000000000030707051546MINISTERIO DE JUSTICIA Y DEREC000000002000000000000000000000000000000000000000000000000000000000000000000000000000000000000000000000000000000000000000PES00010000001000000000000000000000000
202309120010000600000000000000001444000000000000000014448000000000027251607864COVELLO JULIETA               000000007200000000000000000000000000000000000000000000000000000000000000000000000000000000000000000000000000000000000000PES00010000001000000000000000000000000
202309120060000600000000000000002909000000000000000029098000000000030627393713DIRECCION GENERAL DE CULTURA Y000000659280000000000000000000000000000000000000000000000000000000000000000000000000000000000000000000000000000000000000PES00010000001000000000000000000000000
202309120080000600000000000000000266000000000000000002668000000000030710405863MINISTERIO DE AMBIENTE        000000012040000000000000000000000000000000000000000000000000000000000000000000000000000000000000000000000000000000000000PES00010000002000000000000000000000000
202309120060000600000000000000002910000000000000000029108000000000030710405863MINISTERIO DE AMBIENTE        000000012590000000000000000000000000000000000000000000000000000000000000000000000000000000000000000000000000000000000000PES00010000002000000000000000000000000
202309120080000600000000000000000267000000000000000002678000000000030710405863MINISTERIO DE AMBIENTE        000000012590000000000000000000000000000000000000000000000000000000000000000000000000000000000000000000000000000000000000PES00010000001000000000000000000000000
202309120080000600000000000000000268000000000000000002688000000000030710405863MINISTERIO DE AMBIENTE        000000012590000000000000000000000000000000000000000000000000000000000000000000000000000000000000000000000000000000000000PES00010000001000000000000000000000000
202309120060000600000000000000002911000000000000000029118000000000030710405863MINISTERIO DE AMBIENTE        000000024630000000000000000000000000000000000000000000000000000000000000000000000000000000000000000000000000000000000000PES00010000001000000000000000000000000
202309120060000600000000000000002912000000000000000029128000000000030550008021INSTITUTO INTERAMERICANO DE CO000000054000000000000000000000000000000000000000000000000000000000000000000000000000000000000000000000000000000000000000PES00010000001000000000000000000000000
202309120060000600000000000000002913000000000000000029138000000000030550008021INSTITUTO INTERAMERICANO DE CO000000054000000000000000000000000000000000000000000000000000000000000000000000000000000000000000000000000000000000000000PES00010000001000000000000000000000000
202309130060000600000000000000002914000000000000000029148000000000030627393713DIRECCION GENERAL DE CULTURA Y000000040600000000000000000000000000000000000000000000000000000000000000000000000000000000000000000000000000000000000000PES00010000001000000000000000000000000
202309140060000600000000000000002915000000000000000029158000000000030638438514H CAMARA DE DIPUTADOS PCIA BS 000000133280000000000000000000000000000000000000000000000000000000000000000000000000000000000000000000000000000000000000PES00010000001000000000000000000000000
202309140060000600000000000000002916000000000000000029168000000000030546666707UNIVERSIDAD NACIONAL DE LA PLA000000002495000000000000000000000000000000000000000000000000000000000000000000000000000000000000000000000000000000000000PES00010000001000000000000000000000000
202309140060000600000000000000002917000000000000000029178000000000030999057167MINISTERIO DE PRODUCCION CIENC000000334400000000000000000000000000000000000000000000000000000000000000000000000000000000000000000000000000000000000000PES00010000001000000000000000000000000
202309140060000600000000000000002918000000000000000029188000000000030715904817ORGANISMO PROVINCIAL DE INTEGR000000064400000000000000000000000000000000000000000000000000000000000000000000000000000000000000000000000000000000000000PES00010000001000000000000000020231114
202309180060000600000000000000002919000000000000000029198000000000030691600331INTERCAMBIOS ASOCIACION CIVIL 000000055000000000000000000000000000000000000000000000000000000000000000000000000000000000000000000000000000000000000000PES00010000001000000000000000000000000
202309180060000600000000000000002920000000000000000029208000000000030716742292MINISTERIO DE LAS MUJERES, POL000000018000000000000000000000000000000000000000000000000000000000000000000000000000000000000000000000000000000000000000PES00010000001000000000000000000000000
202309180060000600000000000000002921000000000000000029218000000000030716742292MINISTERIO DE LAS MUJERES, POL000000016200000000000000000000000000000000000000000000000000000000000000000000000000000000000000000000000000000000000000PES00010000001000000000000000000000000
202309180060000600000000000000002922000000000000000029228000000000030716742292MINISTERIO DE LAS MUJERES, POL000000002500000000000000000000000000000000000000000000000000000000000000000000000000000000000000000000000000000000000000PES00010000001000000000000000000000000
202309180060000600000000000000002923000000000000000029238000000000030716742292MINISTERIO DE LAS MUJERES, POL000000025600000000000000000000000000000000000000000000000000000000000000000000000000000000000000000000000000000000000000PES00010000001000000000000000000000000
202309180060000600000000000000002924000000000000000029248000000000030716742292MINISTERIO DE LAS MUJERES, POL000000021000000000000000000000000000000000000000000000000000000000000000000000000000000000000000000000000000000000000000PES00010000001000000000000000000000000
202309180060000600000000000000002925000000000000000029258000000000030716742292MINISTERIO DE LAS MUJERES, POL000000008400000000000000000000000000000000000000000000000000000000000000000000000000000000000000000000000000000000000000PES00010000001000000000000000000000000
202309180060000600000000000000002926000000000000000029268000000000030716742292MINISTERIO DE LAS MUJERES, POL000000001800000000000000000000000000000000000000000000000000000000000000000000000000000000000000000000000000000000000000PES00010000001000000000000000000000000
202309180060000600000000000000002927000000000000000029278000000000030716742292MINISTERIO DE LAS MUJERES, POL000000021000000000000000000000000000000000000000000000000000000000000000000000000000000000000000000000000000000000000000PES00010000001000000000000000000000000
202309180060000600000000000000002928000000000000000029288000000000030716742292MINISTERIO DE LAS MUJERES, POL000000019600000000000000000000000000000000000000000000000000000000000000000000000000000000000000000000000000000000000000PES00010000001000000000000000000000000
202309210060000600000000000000002929000000000000000029298000000000030710100140CENTRO CIENTIFICO TECNOLOGICO 000000001200000000000000000000000000000000000000000000000000000000000000000000000000000000000000000000000000000000000000PES00010000001000000000000000000000000
202309220060000600000000000000002930000000000000000029308000000000030638438514H CAMARA DE DIPUTADOS PCIA BS 000000164026000000000000000000000000000000000000000000000000000000000000000000000000000000000000000000000000000000000000PES00010000001000000000000000000000000
202309220060000600000000000000002931000000000000000029318000000000030627393713DIRECCION GENERAL DE CULTURA Y000000180800000000000000000000000000000000000000000000000000000000000000000000000000000000000000000000000000000000000000PES00010000001000000000000000000000000
202309250060000600000000000000002932000000000000000029328000000000030710100140CENTRO CIENTIFICO TECNOLOGICO 000000002700000000000000000000000000000000000000000000000000000000000000000000000000000000000000000000000000000000000000PES00010000001000000000000000000000000
202309250060000600000000000000002933000000000000000029338000000000030546666707UNIVERSIDAD NACIONAL DE LA PLA000000010000000000000000000000000000000000000000000000000000000000000000000000000000000000000000000000000000000000000000PES00010000001000000000000000000000000
202309250060000600000000000000002934000000000000000029348000000000030707045031MINISTERIO DE DESARROLLO DE LA000002730000000000000000000000000000000000000000000000000000000000000000000000000000000000000000000000000000000000000000PES00010000001000000000000000000000000
202309250010000600000000000000001445000000000000000014458000000000020181354640LOPRESTI MARCELO OMAR         000000011460000000000000000000000000000000000000000000000000000000000000000000000000000000000000000000000000000000000000PES00010000001000000000000000000000000
202309250010000600000000000000001446000000000000000014468000000000020181354640LOPRESTI MARCELO OMAR         000000033320000000000000000000000000000000000000000000000000000000000000000000000000000000000000000000000000000000000000PES00010000001000000000000000000000000
202309260010000600000000000000001447000000000000000014478000000000027251607864COVELLO JULIETA               000000012000025000000000000000000000000000000000000000000000000000000000000000000000000000000000000000000000000000000000PES00010000001000000000000000000000000
202309260060000600000000000000002935000000000000000029358000000000030639650304ASOCIACION DE MEDICOS JUBILADO000000007000000000000000000000000000000000000000000000000000000000000000000000000000000000000000000000000000000000000000PES00010000001000000000000000000000000
202309260060000600000000000000002936000000000000000029368000000000030627393713DIRECCION GENERAL DE CULTURA Y000000762960000000000000000000000000000000000000000000000000000000000000000000000000000000000000000000000000000000000000PES00010000001000000000000000000000000
202309260080000600000000000000000269000000000000000002698000000000030627393713DIRECCION GENERAL DE CULTURA Y000000180800000000000000000000000000000000000000000000000000000000000000000000000000000000000000000000000000000000000000PES00010000001000000000000000000000000
202309260060000600000000000000002937000000000000000029378000000000030627393713DIRECCION GENERAL DE CULTURA Y000000361600000000000000000000000000000000000000000000000000000000000000000000000000000000000000000000000000000000000000PES00010000001000000000000000000000000
202309260060000600000000000000002938000000000000000029388000000000030627393713DIRECCION GENERAL DE CULTURA Y000000033000000000000000000000000000000000000000000000000000000000000000000000000000000000000000000000000000000000000000PES00010000001000000000000000000000000
202309260060000600000000000000002939000000000000000029398000000000030627393713DIRECCION GENERAL DE CULTURA Y000000326000000000000000000000000000000000000000000000000000000000000000000000000000000000000000000000000000000000000000PES00010000001000000000000000000000000
202309260060000600000000000000002940000000000000000029408000000000030627393713DIRECCION GENERAL DE CULTURA Y000000260800000000000000000000000000000000000000000000000000000000000000000000000000000000000000000000000000000000000000PES00010000001000000000000000000000000
202309270060000600000000000000002941000000000000000029418000000000030546666707UNIVERSIDAD NACIONAL DE LA PLA000000006120000000000000000000000000000000000000000000000000000000000000000000000000000000000000000000000000000000000000PES00010000001000000000000000000000000
202309270080000600000000000000000270000000000000000002708000000000030627393713DIRECCION GENERAL DE CULTURA Y000000260800000000000000000000000000000000000000000000000000000000000000000000000000000000000000000000000000000000000000PES00010000001000000000000000000000000
202309270060000600000000000000002942000000000000000029428000000000030627393713DIRECCION GENERAL DE CULTURA Y000000260800000000000000000000000000000000000000000000000000000000000000000000000000000000000000000000000000000000000000PES00010000001000000000000000000000000
202309280080000600000000000000000271000000000000000002718000000000030716742292MINISTERIO DE LAS MUJERES, POL000000018000000000000000000000000000000000000000000000000000000000000000000000000000000000000000000000000000000000000000PES00010000001000000000000000000000000
202309280080000600000000000000000272000000000000000002728000000000030716742292MINISTERIO DE LAS MUJERES, POL000000016200000000000000000000000000000000000000000000000000000000000000000000000000000000000000000000000000000000000000PES00010000001000000000000000000000000
202309280080000600000000000000000273000000000000000002738000000000030716742292MINISTERIO DE LAS MUJERES, POL000000002500000000000000000000000000000000000000000000000000000000000000000000000000000000000000000000000000000000000000PES00010000001000000000000000000000000
202309280080000600000000000000000274000000000000000002748000000000030716742292MINISTERIO DE LAS MUJERES, POL000000025600000000000000000000000000000000000000000000000000000000000000000000000000000000000000000000000000000000000000PES00010000001000000000000000000000000
202309280080000600000000000000000275000000000000000002758000000000030716742292MINISTERIO DE LAS MUJERES, POL000000021000000000000000000000000000000000000000000000000000000000000000000000000000000000000000000000000000000000000000PES00010000001000000000000000000000000
202309280080000600000000000000000276000000000000000002768000000000030716742292MINISTERIO DE LAS MUJERES, POL000000008400000000000000000000000000000000000000000000000000000000000000000000000000000000000000000000000000000000000000PES00010000001000000000000000000000000
202309280080000600000000000000000277000000000000000002778000000000030716742292MINISTERIO DE LAS MUJERES, POL000000001800000000000000000000000000000000000000000000000000000000000000000000000000000000000000000000000000000000000000PES00010000001000000000000000000000000
202309280080000600000000000000000278000000000000000002788000000000030716742292MINISTERIO DE LAS MUJERES, POL000000021000000000000000000000000000000000000000000000000000000000000000000000000000000000000000000000000000000000000000PES00010000001000000000000000000000000
202309280080000600000000000000000279000000000000000002798000000000030716742292MINISTERIO DE LAS MUJERES, POL000000019600000000000000000000000000000000000000000000000000000000000000000000000000000000000000000000000000000000000000PES00010000001000000000000000000000000
202309280060000600000000000000002943000000000000000029438000000000030716742292MINISTERIO DE LAS MUJERES, POL000000019600000000000000000000000000000000000000000000000000000000000000000000000000000000000000000000000000000000000000PES00010000001000000000000000020230928
202309280060000600000000000000002944000000000000000029448000000000030716742292MINISTERIO DE LAS MUJERES, POL000000021000000000000000000000000000000000000000000000000000000000000000000000000000000000000000000000000000000000000000PES00010000001000000000000000020230928
202309280060000600000000000000002945000000000000000029458000000000030716742292MINISTERIO DE LAS MUJERES, POL000000001800000000000000000000000000000000000000000000000000000000000000000000000000000000000000000000000000000000000000PES00010000001000000000000000020230928
202309280060000600000000000000002946000000000000000029468000000000030716742292MINISTERIO DE LAS MUJERES, POL000000008400000000000000000000000000000000000000000000000000000000000000000000000000000000000000000000000000000000000000PES00010000001000000000000000020230928
202309280060000600000000000000002947000000000000000029478000000000030716742292MINISTERIO DE LAS MUJERES, POL000000021000000000000000000000000000000000000000000000000000000000000000000000000000000000000000000000000000000000000000PES00010000001000000000000000020230928
202309280060000600000000000000002948000000000000000029488000000000030716742292MINISTERIO DE LAS MUJERES, POL000000025600000000000000000000000000000000000000000000000000000000000000000000000000000000000000000000000000000000000000PES00010000001000000000000000020230928
202309280060000600000000000000002949000000000000000029498000000000030716742292MINISTERIO DE LAS MUJERES, POL000000002500000000000000000000000000000000000000000000000000000000000000000000000000000000000000000000000000000000000000PES00010000001000000000000000020230928
202309280060000600000000000000002950000000000000000029508000000000030716742292MINISTERIO DE LAS MUJERES, POL000000016200000000000000000000000000000000000000000000000000000000000000000000000000000000000000000000000000000000000000PES00010000001000000000000000020230928
202309280060000600000000000000002951000000000000000029518000000000030716742292MINISTERIO DE LAS MUJERES, POL000000018000000000000000000000000000000000000000000000000000000000000000000000000000000000000000000000000000000000000000PES00010000001000000000000000020230928
202309280060000600000000000000002952000000000000000029528000000000030710100140CENTRO CIENTIFICO TECNOLOGICO 000000004000000000000000000000000000000000000000000000000000000000000000000000000000000000000000000000000000000000000000PES00010000001000000000000000000000000
202309280060000600000000000000002953000000000000000029538000000000030716742292MINISTERIO DE LAS MUJERES, POL000000055000000000000000000000000000000000000000000000000000000000000000000000000000000000000000000000000000000000000000PES00010000001000000000000000020230928
202309280060000600000000000000002954000000000000000029548000000000030716742292MINISTERIO DE LAS MUJERES, POL000000008400000000000000000000000000000000000000000000000000000000000000000000000000000000000000000000000000000000000000PES00010000001000000000000000020230928
202309280060000600000000000000002955000000000000000029558000000000030716742292MINISTERIO DE LAS MUJERES, POL000000102000000000000000000000000000000000000000000000000000000000000000000000000000000000000000000000000000000000000000PES00010000001000000000000000020230928
202309280060000600000000000000002956000000000000000029568000000000030638438514H CAMARA DE DIPUTADOS PCIA BS 000000161418500000000000000000000000000000000000000000000000000000000000000000000000000000000000000000000000000000000000PES00010000001000000000000000000000000
202309280060000600000000000000002957000000000000000029578000000000030717495620MINISTERIO DE TRANSPORTE O. P.000000315000000000000000000000000000000000000000000000000000000000000000000000000000000000000000000000000000000000000000PES00010000001000000000000000000000000
202309290010000600000000000000001448000000000000000014488000000000033593283319CORREGIDOR SA                 000000007870501000000000000000000000000000000000000000000000000000000000000000000000000000000000000000000000000000000000PES00010000001000000000000000000000000
202309290010000600000000000000001449000000000000000014498000000000033593283319CORREGIDOR SA                 000000020253420000000000000000000000000000000000000000000000000000000000000000000000000000000000000000000000000000000000PES00010000001000000000000000000000000
202309290010000600000000000000001450000000000000000014508000000000033593283319CORREGIDOR SA                 000000023029560000000000000000000000000000000000000000000000000000000000000000000000000000000000000000000000000000000000PES00010000001000000000000000000000000
202309290060000600000000000000002958000000000000000029588000000000030710100140CENTRO CIENTIFICO TECNOLOGICO 000000000900000000000000000000000000000000000000000000000000000000000000000000000000000000000000000000000000000000000000PES00010000001000000000000000000000000
202309290010000600000000000000001451000000000000000014518000000000030657877669EMPRESA DISTRIBUIDORA LA PLATA000000039400003000000000000000000000000000000000000000000000000000000000000000000000000000000000000000000000000000000000PES00010000001000000000000000000000000
202309290010000600000000000000001452000000000000000014528000000000030657877669EMPRESA DISTRIBUIDORA LA PLATA000000006060001000000000000000000000000000000000000000000000000000000000000000000000000000000000000000000000000000000000PES00010000001000000000000000000000000
202309290010000600000000000000001453000000000000000014538000000000030657877669EMPRESA DISTRIBUIDORA LA PLATA000000004240001000000000000000000000000000000000000000000000000000000000000000000000000000000000000000000000000000000000PES00010000001000000000000000000000000
202309290010000600000000000000001454000000000000000014548000000000030657877669EMPRESA DISTRIBUIDORA LA PLATA000000005740001000000000000000000000000000000000000000000000000000000000000000000000000000000000000000000000000000000000PES00010000001000000000000000000000000
202309300060000600000000000000002959000000000000000029598000000000030627393713DIRECCION GENERAL DE CULTURA Y000000037500000000000000000000000000000000000000000000000000000000000000000000000000000000000000000000000000000000000000PES00010000001000000000000000000000000
202309300060000600000000000000002960000000000000000029608000000000030627393713DIRECCION GENERAL DE CULTURA Y000000037500000000000000000000000000000000000000000000000000000000000000000000000000000000000000000000000000000000000000PES00010000001000000000000000000000000
