202404040080000600000000000000000318000000000000000003188000000000030717495620MINISTERIO DE TRANSPORTE O. P.000000146250000000000000000000000000000000000000000000000000000000000000000000000000000000000000000000000000000000000000PES00010000001000000000000000000000000
202404040060000600000000000000003218000000000000000032188000000000030717495620MINISTERIO DE TRANSPORTE O. P.000000146250000000000000000000000000000000000000000000000000000000000000000000000000000000000000000000000000000000000000PES00010000001000000000000000000000000
202404080080000600000000000000000319000000000000000003198000000000030627393713DIRECCION GENERAL DE CULTURA Y000000201000000000000000000000000000000000000000000000000000000000000000000000000000000000000000000000000000000000000000PES00010000001000000000000000000000000
202404080060000600000000000000003219000000000000000032198000000000030715124234MINISTERIO DE GOBIERNO BS.AS. 000000391996600000000000000000000000000000000000000000000000000000000000000000000000000000000000000000000000000000000000PES00010000001000000000000000000000000
202404080060000600000000000000003220000000000000000032208000000000030716742292MINISTERIO DE MUJERES Y DIVERS000000009000000000000000000000000000000000000000000000000000000000000000000000000000000000000000000000000000000000000000PES00010000001000000000000000000000000
202404090060000600000000000000003221000000000000000032218000000000030626983398MINISTERIO DE SALUD PCIA DE BS000000270600000000000000000000000000000000000000000000000000000000000000000000000000000000000000000000000000000000000000PES00010000001000000000000000000000000
202404090060000600000000000000003222000000000000000032228000000000030559799536SINDICATO OBRAS SANITARIAS DE 000000194150000000000000000000000000000000000000000000000000000000000000000000000000000000000000000000000000000000000000PES00010000001000000000000000000000000
202404090060000600000000000000003223000000000000000032238000000000030638438514H CAMARA DE DIPUTADOS PCIA BS 000000377958000000000000000000000000000000000000000000000000000000000000000000000000000000000000000000000000000000000000PES00010000001000000000000000000000000
202404090060000600000000000000003224000000000000000032248000000000030716742292MINISTERIO DE MUJERES Y DIVERS000000009750000000000000000000000000000000000000000000000000000000000000000000000000000000000000000000000000000000000000PES00010000001000000000000000000000000
202404090060000600000000000000003225000000000000000032258000000000030716742292MINISTERIO DE MUJERES Y DIVERS000000019600000000000000000000000000000000000000000000000000000000000000000000000000000000000000000000000000000000000000PES00010000001000000000000000000000000
202404090080000600000000000000000320000000000000000003208000000000030716742292MINISTERIO DE MUJERES Y DIVERS000000009750000000000000000000000000000000000000000000000000000000000000000000000000000000000000000000000000000000000000PES00010000001000000000000000000000000
202404090080000600000000000000000321000000000000000003218000000000030716742292MINISTERIO DE MUJERES Y DIVERS000000019600000000000000000000000000000000000000000000000000000000000000000000000000000000000000000000000000000000000000PES00010000001000000000000000000000000
202404090080000600000000000000000322000000000000000003228000000000030716742292MINISTERIO DE MUJERES Y DIVERS000000009000000000000000000000000000000000000000000000000000000000000000000000000000000000000000000000000000000000000000PES00010000001000000000000000000000000
202404090060000600000000000000003226000000000000000032268000000000030716742292MINISTERIO DE MUJERES Y DIVERS000000009000000000000000000000000000000000000000000000000000000000000000000000000000000000000000000000000000000000000000PES00010000001000000000000000000000000
202404100010000600000000000000001534000000000000000015348000000000030657877669EMPRESA DISTRIBUIDORA LA PLATA000000005580002000000000000000000000000000000000000000000000000000000000000000000000000000000000000000000000000000000000PES00010000001000000000000000000000000
202404100010000600000000000000001535000000000000000015358000000000030657877669EMPRESA DISTRIBUIDORA LA PLATA000000007980000000000000000000000000000000000000000000000000000000000000000000000000000000000000000000000000000000000000PES00010000001000000000000000000000000
202404102010000600000000000000000002000000000000000000028000000000030657877669EMPRESA DISTRIBUIDORA LA PLATA000000127710000000000000000000000000000000000000000000000000000000000000000000000000000000000000000000000000000000000000PES00010000001000000000000000020240510
202404100060000600000000000000003227000000000000000032278000000000030709643874FUNDACION FACULTAD DE CIENCIAS000000089100000000000000000000000000000000000000000000000000000000000000000000000000000000000000000000000000000000000000PES00010000001000000000000000000000000
202404110010000600000000000000001536000000000000000015368000000000030657864281CAMUZZI GAS PAMPEANA S A      000000018640079000000000000000000000000000000000000000000000000000000000000000000000000000000000000000000000000000000000PES00010000001000000000000000000000000
202404122030000600000000000000000001000000000000000000018000000000030657877669EMPRESA DISTRIBUIDORA LA PLATA000000127710000000000000000000000000000000000000000000000000000000000000000000000000000000000000000000000000000000000000PES00010000001000000000000000000000000
202404120010000600000000000000001537000000000000000015378000000000030657877669EMPRESA DISTRIBUIDORA LA PLATA000000127710000000000000000000000000000000000000000000000000000000000000000000000000000000000000000000000000000000000000PES00010000001000000000000000000000000
202404120010000600000000000000001538000000000000000015388000000000030657877669EMPRESA DISTRIBUIDORA LA PLATA000000084880002000000000000000000000000000000000000000000000000000000000000000000000000000000000000000000000000000000000PES00010000001000000000000000000000000
202404120060000600000000000000003228000000000000000032288000000000030999057167MINISTERIO DE PRODUCCION CIENC000000351000000000000000000000000000000000000000000000000000000000000000000000000000000000000000000000000000000000000000PES00010000001000000000000000000000000
202404120060000600000000000000003229000000000000000032298000000000030999106753INSTITUTO DE LA VIVIENDA DE LA000000162000000000000000000000000000000000000000000000000000000000000000000000000000000000000000000000000000000000000000PES00010000001000000000000000000000000
202404170080000600000000000000000323000000000000000003238000000000030716742292MINISTERIO DE MUJERES Y DIVERS000000009750000000000000000000000000000000000000000000000000000000000000000000000000000000000000000000000000000000000000PES00010000001000000000000000000000000
202404170080000600000000000000000324000000000000000003248000000000030716742292MINISTERIO DE MUJERES Y DIVERS000000019600000000000000000000000000000000000000000000000000000000000000000000000000000000000000000000000000000000000000PES00010000001000000000000000000000000
202404170080000600000000000000000325000000000000000003258000000000030716742292MINISTERIO DE MUJERES Y DIVERS000000009000000000000000000000000000000000000000000000000000000000000000000000000000000000000000000000000000000000000000PES00010000001000000000000000000000000
202404170060000600000000000000003230000000000000000032308000000000030716742292MINISTERIO DE MUJERES Y DIVERS000000038350000000000000000000000000000000000000000000000000000000000000000000000000000000000000000000000000000000000000PES00010000001000000000000000000000000
202404180010000600000000000000001539000000000000000015398000000000030605796016DROGUERIA GARZON S A          000000010000000000000000000000000000000000000000000000000000000000000000000000000000000000000000000000000000000000000000PES00010000001000000000000000000000000
202404180060000600000000000000003231000000000000000032318000000000030677972463JUNTA ELECTORAL PCIA DE BUENOS000000026400000000000000000000000000000000000000000000000000000000000000000000000000000000000000000000000000000000000000PES00010000001000000000000000000000000
202404180060000600000000000000003232000000000000000032328000000000030709414085ESCUELA FREUD LACAN DE LA PLAT000000031000000000000000000000000000000000000000000000000000000000000000000000000000000000000000000000000000000000000000PES00010000001000000000000000000000000
202404190060000600000000000000003233000000000000000032338000000000030665658313MINISTERIO DE INFRAESTRUCTURA 000000008160000000000000000000000000000000000000000000000000000000000000000000000000000000000000000000000000000000000000PES00010000001000000000000000000000000
202404220010000600000000000000001540000000000000000015408000000000030519098683FARMACIA CARUSO SOCIEDAD EN CO000000292940220000000000000000000000000000000000000000000000000000000000000000000000000000000000000000000000000000000000PES00010000001000000000000000000000000
202404220010000600000000000000001541000000000000000015418000000000030559880120JOSE ANACLETO E HIJOS S A     000000072500054000000000000000000000000000000000000000000000000000000000000000000000000000000000000000000000000000000000PES00010000001000000000000000000000000
202404230060000600000000000000003234000000000000000032348000000000030999106753INSTITUTO DE LA VIVIENDA DE LA000000090000000000000000000000000000000000000000000000000000000000000000000000000000000000000000000000000000000000000000PES00010000001000000000000000000000000
202404230060000600000000000000003235000000000000000032358000000000030699969172UNION INDUSTRIAL DEL GRAN LA P000000007000000000000000000000000000000000000000000000000000000000000000000000000000000000000000000000000000000000000000PES00010000001000000000000000000000000
202404230060000600000000000000003236000000000000000032368000000000033638161309COLEGIO DE MAGISTRADOS Y FUNCI000000004920000000000000000000000000000000000000000000000000000000000000000000000000000000000000000000000000000000000000PES00010000001000000000000000000000000
202404240060000600000000000000003237000000000000000032378000000000030999106753INSTITUTO DE LA VIVIENDA DE LA000000009500000000000000000000000000000000000000000000000000000000000000000000000000000000000000000000000000000000000000PES00010000001000000000000000000000000
202404240060000600000000000000003238000000000000000032388000000000030708499044INSTITUTO CULTURAL DE LA PROV 000000123000000000000000000000000000000000000000000000000000000000000000000000000000000000000000000000000000000000000000PES00010000001000000000000000020240527
202404250080000600000000000000000326000000000000000003268000000000030708499044INSTITUTO CULTURAL DE LA PROV 000000123000000000000000000000000000000000000000000000000000000000000000000000000000000000000000000000000000000000000000PES00010000001000000000000000020240527
202404250060000600000000000000003239000000000000000032398000000000030708499044INSTITUTO CULTURAL DE LA PROV 000000123000000000000000000000000000000000000000000000000000000000000000000000000000000000000000000000000000000000000000PES00010000001000000000000000020240527
202404250060000600000000000000003240000000000000000032408000000000030708499044INSTITUTO CULTURAL DE LA PROV 000000027000000000000000000000000000000000000000000000000000000000000000000000000000000000000000000000000000000000000000PES00010000001000000000000000020240513
202404250060000600000000000000003241000000000000000032418000000000030708499044INSTITUTO CULTURAL DE LA PROV 000000016000000000000000000000000000000000000000000000000000000000000000000000000000000000000000000000000000000000000000PES00010000001000000000000000020240520
202404250060000600000000000000003242000000000000000032428000000000030716742292MINISTERIO DE MUJERES Y DIVERS000000157500000000000000000000000000000000000000000000000000000000000000000000000000000000000000000000000000000000000000PES00010000001000000000000000020240524
202404260060000600000000000000003243000000000000000032438000000000030638438514H CAMARA DE DIPUTADOS PCIA BS 000000283595000000000000000000000000000000000000000000000000000000000000000000000000000000000000000000000000000000000000PES00010000001000000000000000000000000
202404260060000600000000000000003244000000000000000032448000000000033638161309COLEGIO DE MAGISTRADOS Y FUNCI000000108000000000000000000000000000000000000000000000000000000000000000000000000000000000000000000000000000000000000000PES00010000001000000000000000000000000
202404290010000600000000000000001542000000000000000015428000000000027251607864COVELLO JULIETA               000000050000000000000000000000000000000000000000000000000000000000000000000000000000000000000000000000000000000000000000PES00010000001000000000000000000000000
202404290010000600000000000000001543000000000000000015438000000000027251607864COVELLO JULIETA               000000030000001000000000000000000000000000000000000000000000000000000000000000000000000000000000000000000000000000000000PES00010000001000000000000000000000000
202404290010000600000000000000001544000000000000000015448000000000027251607864COVELLO JULIETA               000000052500000000000000000000000000000000000000000000000000000000000000000000000000000000000000000000000000000000000000PES00010000001000000000000000000000000
202404290010000600000000000000001545000000000000000015458000000000033593283319CORREGIDOR SA                 000000025372410000000000000000000000000000000000000000000000000000000000000000000000000000000000000000000000000000000000PES00010000001000000000000000000000000
202404290010000600000000000000001546000000000000000015468000000000033593283319CORREGIDOR SA                 000000116083545000000000000000000000000000000000000000000000000000000000000000000000000000000000000000000000000000000000PES00010000001000000000000000000000000
202404290010000600000000000000001547000000000000000015478000000000033593283319CORREGIDOR SA                 000000013592362000000000000000000000000000000000000000000000000000000000000000000000000000000000000000000000000000000000PES00010000001000000000000000000000000
202404300060000600000000000000003245000000000000000032458000000000030546666707UNIVERSIDAD NACIONAL DE LA PLA000000317500000000000000000000000000000000000000000000000000000000000000000000000000000000000000000000000000000000000000PES00010000001000000000000000000000000
202404300060000600000000000000003246000000000000000032468000000000030627393713DIRECCION GENERAL DE CULTURA Y000000458100000000000000000000000000000000000000000000000000000000000000000000000000000000000000000000000000000000000000PES00010000001000000000000000020240630
202404300060000600000000000000003247000000000000000032478000000000030627393713DIRECCION GENERAL DE CULTURA Y000000453750000000000000000000000000000000000000000000000000000000000000000000000000000000000000000000000000000000000000PES00010000001000000000000000020240630
202404300010000600000000000000001548000000000000000015488000000000030717392619COOPERATIVA DE TRABAJO GASTRON000000027500057000000000000000000000000000000000000000000000000000000000000000000000000000000000000000000000000000000000PES00010000001000000000000000000000000
202404300010000600000000000000001549000000000000000015498000000000030717392619COOPERATIVA DE TRABAJO GASTRON000000168750000000000000000000000000000000000000000000000000000000000000000000000000000000000000000000000000000000000000PES00010000001000000000000000000000000
