202301020060000600000000000000002469000000000000000024698000000000030708499044INSTITUTO CULTURAL DE LA PROV 000000017100000000000000000000000000000000000000000000000000000000000000000000000000000000000000000000000000000000000000PES00010000001000000000000000020230202
202301020060000600000000000000002470000000000000000024708000000000030708499044INSTITUTO CULTURAL DE LA PROV 000000014500000000000000000000000000000000000000000000000000000000000000000000000000000000000000000000000000000000000000PES00010000001000000000000000020230202
202301020060000600000000000000002471000000000000000024718000000000030708499044INSTITUTO CULTURAL DE LA PROV 000000018300000000000000000000000000000000000000000000000000000000000000000000000000000000000000000000000000000000000000PES00010000001000000000000000020230202
202301020060000600000000000000002472000000000000000024728000000000030708499044INSTITUTO CULTURAL DE LA PROV 000000029100000000000000000000000000000000000000000000000000000000000000000000000000000000000000000000000000000000000000PES00010000001000000000000000020230202
202301020080000600000000000000000197000000000000000001978000000000030627393713DIRECCION GENERAL DE CULTURA Y000000021000000000000000000000000000000000000000000000000000000000000000000000000000000000000000000000000000000000000000PES00010000001000000000000000020230126
202301020060000600000000000000002473000000000000000024738000000000030627393713DIRECCION GENERAL DE CULTURA Y000000021000000000000000000000000000000000000000000000000000000000000000000000000000000000000000000000000000000000000000PES00010000001000000000000000020230202
202301020060000600000000000000002474000000000000000024748000000000030708499044INSTITUTO CULTURAL DE LA PROV 000000041900000000000000000000000000000000000000000000000000000000000000000000000000000000000000000000000000000000000000PES00010000001000000000000000020230202
202301020060000600000000000000002475000000000000000024758000000000030708499044INSTITUTO CULTURAL DE LA PROV 000000097000000000000000000000000000000000000000000000000000000000000000000000000000000000000000000000000000000000000000PES00010000001000000000000000020230202
202301020060000600000000000000002476000000000000000024768000000000030710405863MINISTERIO DE AMBIENTE        000000095100000000000000000000000000000000000000000000000000000000000000000000000000000000000000000000000000000000000000PES00010000001000000000000000000000000
202301030080000600000000000000000198000000000000000001988000000000030627393713DIRECCION GENERAL DE CULTURA Y000000067800000000000000000000000000000000000000000000000000000000000000000000000000000000000000000000000000000000000000PES00010000001000000000000000020230203
202301030060000600000000000000002477000000000000000024778000000000030627393713DIRECCION GENERAL DE CULTURA Y000000067800000000000000000000000000000000000000000000000000000000000000000000000000000000000000000000000000000000000000PES00010000001000000000000000020230203
202301060060000600000000000000002478000000000000000024788000000000020289086251OTERO PIZARRO JEREMIAS        000000001590000000000000000000000000000000000000000000000000000000000000000000000000000000000000000000000000000000000000PES00010000001000000000000000000000000
202301060010000600000000000000001332000000000000000013328000000000030657864281CAMUZZI GAS PAMPEANA S A      000000001452015000000000000000000000000000000000000000000000000000000000000000000000000000000000000000000000000000000000PES00010000001000000000000000000000000
202301070010000600000000000000001333000000000000000013338000000000030646558391MARIN CONSTRUCCIONES S A      000000001352008000000000000000000000000000000000000000000000000000000000000000000000000000000000000000000000000000000000PES00010000001000000000000000000000000
202301090060000600000000000000002479000000000000000024798000000000030550857061COLEGIO DE FARMACEUTICOS DE LA000000139101500000000000000000000000000000000000000000000000000000000000000000000000000000000000000000000000000000000000PES00010000001000000000000000000000000
202301090080000600000000000000000199000000000000000001998000000000030715471511MINISTERIO DE JEFATURA DE GABI000000107000000000000000000000000000000000000000000000000000000000000000000000000000000000000000000000000000000000000000PES00010000001000000000000000020230209
202301090060000600000000000000002480000000000000000024808000000000030715471511MINISTERIO DE JEFATURA DE GABI000000107000000000000000000000000000000000000000000000000000000000000000000000000000000000000000000000000000000000000000PES00010000001000000000000000020230209
202301090010000600000000000000001334000000000000000013348000000000030677145087BREAST CLINIC SA              000000019200014000000000000000000000000000000000000000000000000000000000000000000000000000000000000000000000000000000000PES00010000001000000000000000000000000
202301100010000600000000000000001335000000000000000013358000000000030715034537BIO-LIMP SOLUCIONES DE CALIDAD000000000480031000000000000000000000000000000000000000000000000000000000000000000000000000000000000000000000000000000000PES00010000001000000000000000000000000
202301130060000600000000000000002481000000000000000024818000000000030559799536SINDICATO OBRAS SANITARIAS DE 000000030080000000000000000000000000000000000000000000000000000000000000000000000000000000000000000000000000000000000000PES00010000001000000000000000000000000
202301130060000600000000000000002482000000000000000024828000000000030559799536SINDICATO OBRAS SANITARIAS DE 000000022000000000000000000000000000000000000000000000000000000000000000000000000000000000000000000000000000000000000000PES00010000001000000000000000000000000
202301160060000600000000000000002483000000000000000024838000000000030708499044INSTITUTO CULTURAL DE LA PROV 000000019000000000000000000000000000000000000000000000000000000000000000000000000000000000000000000000000000000000000000PES00010000001000000000000000020230216
202301160060000600000000000000002484000000000000000024848000000000030708499044INSTITUTO CULTURAL DE LA PROV 000000029900000000000000000000000000000000000000000000000000000000000000000000000000000000000000000000000000000000000000PES00010000001000000000000000020230216
202301170060000600000000000000002485000000000000000024858000000000030643233343MINISTERIO DE HACIENDA Y FINAN000000001866000000000000000000000000000000000000000000000000000000000000000000000000000000000000000000000000000000000000PES00010000001000000000000000000000000
202301170060000600000000000000002486000000000000000024868000000000030711485909ASOCIACION DE PADRES DE PERSON000000020500000000000000000000000000000000000000000000000000000000000000000000000000000000000000000000000000000000000000PES00010000001000000000000000000000000
202301170010000600000000000000001336000000000000000013368000000000030715034537BIO-LIMP SOLUCIONES DE CALIDAD000000000480032000000000000000000000000000000000000000000000000000000000000000000000000000000000000000000000000000000000PES00010000001000000000000000000000000
202301180070000600000000000000000003000000000000000000038000000000030715471511MINISTERIO DE JEFATURA DE GABI000000107000000000000000000000000000000000000000000000000000000000000000000000000000000000000000000000000000000000000000PES00010000001000000000000000020230209
202301180080000600000000000000000200000000000000000002008000000000030715471511MINISTERIO DE JEFATURA DE GABI000000107000000000000000000000000000000000000000000000000000000000000000000000000000000000000000000000000000000000000000PES00010000001000000000000000020230209
202301180010000600000000000000001337000000000000000013378000000000030545910604INSTITUTO MEDICO PLATENSE S.A.000000010000000000000000000000000000000000000000000000000000000000000000000000000000000000000000000000000000000000000000PES00010000001000000000000000000000000
202301180010000600000000000000001338000000000000000013388000000000030708605340INSTITUTO DE DIAGNOSTICO DE LA000000006000000000000000000000000000000000000000000000000000000000000000000000000000000000000000000000000000000000000000PES00010000001000000000000000000000000
202301180010000600000000000000001339000000000000000013398000000000030709533009N.C.N. NUEVA CLINICA DEL NIÑO 000000003000002000000000000000000000000000000000000000000000000000000000000000000000000000000000000000000000000000000000PES00010000001000000000000000000000000
202301180060000600000000000000002487000000000000000024878000000000030520918694ASOCIACION EMPLEADOS DE LA DIR000000025000000000000000000000000000000000000000000000000000000000000000000000000000000000000000000000000000000000000000PES00010000001000000000000000000000000
202301180060000600000000000000002488000000000000000024888000000000030520918694ASOCIACION EMPLEADOS DE LA DIR000000080000000000000000000000000000000000000000000000000000000000000000000000000000000000000000000000000000000000000000PES00010000001000000000000000000000000
202301180060000600000000000000002489000000000000000024898000000000030520918694ASOCIACION EMPLEADOS DE LA DIR000000072000000000000000000000000000000000000000000000000000000000000000000000000000000000000000000000000000000000000000PES00010000001000000000000000000000000
202301180060000600000000000000002490000000000000000024908000000000030520918694ASOCIACION EMPLEADOS DE LA DIR000000040000000000000000000000000000000000000000000000000000000000000000000000000000000000000000000000000000000000000000PES00010000001000000000000000000000000
202301180060000600000000000000002491000000000000000024918000000000030520918694ASOCIACION EMPLEADOS DE LA DIR000000012000000000000000000000000000000000000000000000000000000000000000000000000000000000000000000000000000000000000000PES00010000001000000000000000000000000
202301300060000600000000000000002492000000000000000024928000000000030627393713DIRECCION GENERAL DE CULTURA Y000000031370000000000000000000000000000000000000000000000000000000000000000000000000000000000000000000000000000000000000PES00010000001000000000000000000000000
202301300080000600000000000000000201000000000000000002018000000000030627393713DIRECCION GENERAL DE CULTURA Y000000031370000000000000000000000000000000000000000000000000000000000000000000000000000000000000000000000000000000000000PES00010000001000000000000000020230130
202301300060000600000000000000002493000000000000000024938000000000030627393713DIRECCION GENERAL DE CULTURA Y000000088500000000000000000000000000000000000000000000000000000000000000000000000000000000000000000000000000000000000000PES00010000001000000000000000000000000
202301300080000600000000000000000202000000000000000002028000000000030627393713DIRECCION GENERAL DE CULTURA Y000000088500000000000000000000000000000000000000000000000000000000000000000000000000000000000000000000000000000000000000PES00010000001000000000000000020230130
202301300060000600000000000000002494000000000000000024948000000000030627393713DIRECCION GENERAL DE CULTURA Y000000029680000000000000000000000000000000000000000000000000000000000000000000000000000000000000000000000000000000000000PES00010000001000000000000000000000000
202301300080000600000000000000000203000000000000000002038000000000030627393713DIRECCION GENERAL DE CULTURA Y000000029680000000000000000000000000000000000000000000000000000000000000000000000000000000000000000000000000000000000000PES00010000001000000000000000020230130
202301300060000600000000000000002495000000000000000024958000000000030627393713DIRECCION GENERAL DE CULTURA Y000000052000000000000000000000000000000000000000000000000000000000000000000000000000000000000000000000000000000000000000PES00010000001000000000000000020230328
202301300080000600000000000000000204000000000000000002048000000000030627393713DIRECCION GENERAL DE CULTURA Y000000052000000000000000000000000000000000000000000000000000000000000000000000000000000000000000000000000000000000000000PES00010000001000000000000000020230210
202301300060000600000000000000002496000000000000000024968000000000030627393713DIRECCION GENERAL DE CULTURA Y000000039200000000000000000000000000000000000000000000000000000000000000000000000000000000000000000000000000000000000000PES00010000001000000000000000020230328
202301300080000600000000000000000205000000000000000002058000000000030627393713DIRECCION GENERAL DE CULTURA Y000000039200000000000000000000000000000000000000000000000000000000000000000000000000000000000000000000000000000000000000PES00010000001000000000000000020230130
