202410020060000600000000000000003471000000000000000034718000000000030708752297MINISTERIO DE TRABAJO DE LA PR000000848000000000000000000000000000000000000000000000000000000000000000000000000000000000000000000000000000000000000000PES00010000001000000000000000000000000
202410040060000600000000000000003472000000000000000034728000000000030627393713DIRECCION GENERAL DE CULTURA Y000000086400000000000000000000000000000000000000000000000000000000000000000000000000000000000000000000000000000000000000PES00010000001000000000000000000000000
202410050060000600000000000000003473000000000000000034738000000000030627393713DIRECCION GENERAL DE CULTURA Y000000048500000000000000000000000000000000000000000000000000000000000000000000000000000000000000000000000000000000000000PES00010000001000000000000000000000000
202410070060000600000000000000003474000000000000000034748000000000030716742292MINISTERIO DE MUJERES Y DIVERS000000015000000000000000000000000000000000000000000000000000000000000000000000000000000000000000000000000000000000000000PES00010000001000000000000000000000000
202410070060000600000000000000003475000000000000000034758000000000030716742292MINISTERIO DE MUJERES Y DIVERS000000021000000000000000000000000000000000000000000000000000000000000000000000000000000000000000000000000000000000000000PES00010000001000000000000000000000000
202410090060000600000000000000003476000000000000000034768000000000030716742292MINISTERIO DE MUJERES Y DIVERS000000040000000000000000000000000000000000000000000000000000000000000000000000000000000000000000000000000000000000000000PES00010000001000000000000000000000000
202410090010000600000000000000001625000000000000000016258000000000030714246751ENJOYLOGY S.R.L. S. R. L.     000000006050000000000000000000000000000000000000000000000000000000000000000000000000000000000000000000000000000000000000PES00010000001000000000000000000000000
202410090010000600000000000000001626000000000000000016268000000000030714246751ENJOYLOGY S.R.L. S. R. L.     000000060500000000000000000000000000000000000000000000000000000000000000000000000000000000000000000000000000000000000000PES00010000001000000000000000000000000
202410090010000600000000000000001627000000000000000016278000000000030657864281CAMUZZI GAS PAMPEANA S A      000000006000000000000000000000000000000000000000000000000000000000000000000000000000000000000000000000000000000000000000PES00010000001000000000000000000000000
202410090010000600000000000000001628000000000000000016288000000000030657864281CAMUZZI GAS PAMPEANA S A      000000002300001000000000000000000000000000000000000000000000000000000000000000000000000000000000000000000000000000000000PES00010000001000000000000000000000000
202410090060000600000000000000003477000000000000000034778000000000030627393713DIRECCION GENERAL DE CULTURA Y000000123460000000000000000000000000000000000000000000000000000000000000000000000000000000000000000000000000000000000000PES00010000001000000000000000000000000
202410100010000600000000000000001629000000000000000016298000000000030710911378CT BARRAGAN S.A.              000000011920017000000000000000000000000000000000000000000000000000000000000000000000000000000000000000000000000000000000PES00010000001000000000000000000000000
202410100010000600000000000000001630000000000000000016308000000000030710911378CT BARRAGAN S.A.              000000004680043000000000000000000000000000000000000000000000000000000000000000000000000000000000000000000000000000000000PES00010000001000000000000000000000000
202410100060000600000000000000003478000000000000000034788000000000030627393713DIRECCION GENERAL DE CULTURA Y000000173288000000000000000000000000000000000000000000000000000000000000000000000000000000000000000000000000000000000000PES00010000001000000000000000000000000
202410100060000600000000000000003479000000000000000034798000000000030627393713DIRECCION GENERAL DE CULTURA Y000000173288000000000000000000000000000000000000000000000000000000000000000000000000000000000000000000000000000000000000PES00010000001000000000000000000000000
202410100060000600000000000000003480000000000000000034808000000000030627393713DIRECCION GENERAL DE CULTURA Y000000173288000000000000000000000000000000000000000000000000000000000000000000000000000000000000000000000000000000000000PES00010000001000000000000000000000000
202410100080000600000000000000000355000000000000000003558000000000030627393713DIRECCION GENERAL DE CULTURA Y000000042284000000000000000000000000000000000000000000000000000000000000000000000000000000000000000000000000000000000000PES00010000001000000000000000000000000
202410110060000600000000000000003481000000000000000034818000000000030627393713DIRECCION GENERAL DE CULTURA Y000000083600000000000000000000000000000000000000000000000000000000000000000000000000000000000000000000000000000000000000PES00010000001000000000000000000000000
202410110060000600000000000000003482000000000000000034828000000000030627393713DIRECCION GENERAL DE CULTURA Y000000042284000000000000000000000000000000000000000000000000000000000000000000000000000000000000000000000000000000000000PES00010000001000000000000000000000000
202410140060000600000000000000003483000000000000000034838000000000030627393713DIRECCION GENERAL DE CULTURA Y000000078560000000000000000000000000000000000000000000000000000000000000000000000000000000000000000000000000000000000000PES00010000001000000000000000000000000
202410150060000600000000000000003484000000000000000034848000000000030627393713DIRECCION GENERAL DE CULTURA Y000000193226000000000000000000000000000000000000000000000000000000000000000000000000000000000000000000000000000000000000PES00010000001000000000000000000000000
202410150060000600000000000000003485000000000000000034858000000000030627393713DIRECCION GENERAL DE CULTURA Y000000103780000000000000000000000000000000000000000000000000000000000000000000000000000000000000000000000000000000000000PES00010000001000000000000000000000000
202410160060000600000000000000003486000000000000000034868000000000030638438514H CAMARA DE DIPUTADOS PCIA BS 000000565520000000000000000000000000000000000000000000000000000000000000000000000000000000000000000000000000000000000000PES00010000001000000000000000000000000
202410170010000600000000000000001631000000000000000016318000000000030657864281CAMUZZI GAS PAMPEANA S A      000000027680081000000000000000000000000000000000000000000000000000000000000000000000000000000000000000000000000000000000PES00010000001000000000000000000000000
202410170080000600000000000000000356000000000000000003568000000000030627393713DIRECCION GENERAL DE CULTURA Y000000078560000000000000000000000000000000000000000000000000000000000000000000000000000000000000000000000000000000000000PES00010000001000000000000000000000000
202410170060000600000000000000003487000000000000000034878000000000030627393713DIRECCION GENERAL DE CULTURA Y000000078560000000000000000000000000000000000000000000000000000000000000000000000000000000000000000000000000000000000000PES00010000001000000000000000000000000
202410170060000600000000000000003488000000000000000034888000000000030627393713DIRECCION GENERAL DE CULTURA Y000000103780000000000000000000000000000000000000000000000000000000000000000000000000000000000000000000000000000000000000PES00010000002000000000000000000000000
202410170060000600000000000000003489000000000000000034898000000000030627393713DIRECCION GENERAL DE CULTURA Y000000230620000000000000000000000000000000000000000000000000000000000000000000000000000000000000000000000000000000000000PES00010000001000000000000000000000000
202410170060000600000000000000003490000000000000000034908000000000030627393713DIRECCION GENERAL DE CULTURA Y000000067900000000000000000000000000000000000000000000000000000000000000000000000000000000000000000000000000000000000000PES00010000001000000000000000000000000
202410170060000600000000000000003491000000000000000034918000000000030627393713DIRECCION GENERAL DE CULTURA Y000000157210000000000000000000000000000000000000000000000000000000000000000000000000000000000000000000000000000000000000PES00010000001000000000000000000000000
202410170060000600000000000000003492000000000000000034928000000000030627393713DIRECCION GENERAL DE CULTURA Y000000156090000000000000000000000000000000000000000000000000000000000000000000000000000000000000000000000000000000000000PES00010000001000000000000000000000000
202410180060000600000000000000003493000000000000000034938000000000030627393713DIRECCION GENERAL DE CULTURA Y000000162040000000000000000000000000000000000000000000000000000000000000000000000000000000000000000000000000000000000000PES00010000001000000000000000000000000
202410180060000600000000000000003494000000000000000034948000000000030627393713DIRECCION GENERAL DE CULTURA Y000000687000000000000000000000000000000000000000000000000000000000000000000000000000000000000000000000000000000000000000PES00010000001000000000000000000000000
202410180080000600000000000000000357000000000000000003578000000000030627393713DIRECCION GENERAL DE CULTURA Y000000687000000000000000000000000000000000000000000000000000000000000000000000000000000000000000000000000000000000000000PES00010000001000000000000000000000000
202410180060000600000000000000003495000000000000000034958000000000030715124234MINISTERIO DE GOBIERNO BS.AS. 000000687000000000000000000000000000000000000000000000000000000000000000000000000000000000000000000000000000000000000000PES00010000001000000000000000000000000
202410180060000600000000000000003496000000000000000034968000000000030627393713DIRECCION GENERAL DE CULTURA Y000000117004000000000000000000000000000000000000000000000000000000000000000000000000000000000000000000000000000000000000PES00010000001000000000000000000000000
202410180060000600000000000000003497000000000000000034978000000000030627393713DIRECCION GENERAL DE CULTURA Y000000025215000000000000000000000000000000000000000000000000000000000000000000000000000000000000000000000000000000000000PES00010000001000000000000000000000000
202410210060000600000000000000003498000000000000000034988000000000030710405863MINISTERIO DE AMBIENTE        000000138000000000000000000000000000000000000000000000000000000000000000000000000000000000000000000000000000000000000000PES00010000001000000000000000000000000
202410210060000600000000000000003499000000000000000034998000000000030627393713DIRECCION GENERAL DE CULTURA Y000000025215000000000000000000000000000000000000000000000000000000000000000000000000000000000000000000000000000000000000PES00010000001000000000000000000000000
202410220010000600000000000000001632000000000000000016328000000000030714246751ENJOYLOGY S.R.L. S. R. L.     000000029040000000000000000000000000000000000000000000000000000000000000000000000000000000000000000000000000000000000000PES00010000001000000000000000000000000
202410220060000600000000000000003500000000000000000035008000000000030627393713DIRECCION GENERAL DE CULTURA Y000000072152000000000000000000000000000000000000000000000000000000000000000000000000000000000000000000000000000000000000PES00010000001000000000000000000000000
202410220060000600000000000000003501000000000000000035018000000000030627393713DIRECCION GENERAL DE CULTURA Y000000106200000000000000000000000000000000000000000000000000000000000000000000000000000000000000000000000000000000000000PES00010000001000000000000000000000000
202410220010000600000000000000001633000000000000000016338000000000030710434421FARMACIA ZORICH DE PAULA CRIST000000031500015000000000000000000000000000000000000000000000000000000000000000000000000000000000000000000000000000000000PES00010000001000000000000000000000000
202410220010000600000000000000001634000000000000000016348000000000030643194097MOTOR PLAT SA                 000000007320008000000000000000000000000000000000000000000000000000000000000000000000000000000000000000000000000000000000PES00010000001000000000000000000000000
202410220010000600000000000000001635000000000000000016358000000000033593283319CORREGIDOR SA                 000000297601194000000000000000000000000000000000000000000000000000000000000000000000000000000000000000000000000000000000PES00010000001000000000000000000000000
202410220010000600000000000000001636000000000000000016368000000000027225988795NINA MARIA LAURA              000000175500082000000000000000000000000000000000000000000000000000000000000000000000000000000000000000000000000000000000PES00010000001000000000000000000000000
202410220010000600000000000000001637000000000000000016378000000000027225988795NINA MARIA LAURA              000000087750041000000000000000000000000000000000000000000000000000000000000000000000000000000000000000000000000000000000PES00010000001000000000000000000000000
202410220010000600000000000000001638000000000000000016388000000000027225988795NINA MARIA LAURA              000000034800011000000000000000000000000000000000000000000000000000000000000000000000000000000000000000000000000000000000PES00010000001000000000000000000000000
202410220010000600000000000000001639000000000000000016398000000000027225988795NINA MARIA LAURA              000000064380021000000000000000000000000000000000000000000000000000000000000000000000000000000000000000000000000000000000PES00010000001000000000000000000000000
202410220060000600000000000000003502000000000000000035028000000000030627393713DIRECCION GENERAL DE CULTURA Y000000471200000000000000000000000000000000000000000000000000000000000000000000000000000000000000000000000000000000000000PES00010000001000000000000000000000000
202410240010000600000000000000001640000000000000000016408000000000030657864281CAMUZZI GAS PAMPEANA S A      000000039019475000000000000000000000000000000000000000000000000000000000000000000000000000000000000000000000000000000000PES00010000001000000000000000000000000
202410240010000600000000000000001641000000000000000016418000000000030657864281CAMUZZI GAS PAMPEANA S A      000000027674878000000000000000000000000000000000000000000000000000000000000000000000000000000000000000000000000000000000PES00010000001000000000000000000000000
202410240020000600000000000000000002000000000000000000028000000000030657864281CAMUZZI GAS PAMPEANA S A      000000024400000000000000000000000000000000000000000000000000000000000000000000000000000000000000000000000000000000000000PES00010000001000000000000000000000000
202410240030000600000000000000000071000000000000000000718000000000030657864281CAMUZZI GAS PAMPEANA S A      000000027674878000000000000000000000000000000000000000000000000000000000000000000000000000000000000000000000000000000000PES00010000001000000000000000000000000
202410250060000600000000000000003503000000000000000035038000000000030638438514H CAMARA DE DIPUTADOS PCIA BS 000000702520000000000000000000000000000000000000000000000000000000000000000000000000000000000000000000000000000000000000PES00010000001000000000000000000000000
202410250060000600000000000000003504000000000000000035048000000000030627393713DIRECCION GENERAL DE CULTURA Y000000250500000000000000000000000000000000000000000000000000000000000000000000000000000000000000000000000000000000000000PES00010000001000000000000000000000000
202410250060000600000000000000003505000000000000000035058000000000030627393713DIRECCION GENERAL DE CULTURA Y000000250500000000000000000000000000000000000000000000000000000000000000000000000000000000000000000000000000000000000000PES00010000002000000000000000000000000
202410260060000600000000000000003506000000000000000035068000000000030627393713DIRECCION GENERAL DE CULTURA Y000000031444000000000000000000000000000000000000000000000000000000000000000000000000000000000000000000000000000000000000PES00010000001000000000000000000000000
202410260080000600000000000000000358000000000000000003588000000000030627393713DIRECCION GENERAL DE CULTURA Y000000250500000000000000000000000000000000000000000000000000000000000000000000000000000000000000000000000000000000000000PES00010000001000000000000000000000000
202410260060000600000000000000003507000000000000000035078000000000030627393713DIRECCION GENERAL DE CULTURA Y000000265700000000000000000000000000000000000000000000000000000000000000000000000000000000000000000000000000000000000000PES00010000001000000000000000000000000
202410260060000600000000000000003508000000000000000035088000000000030627393713DIRECCION GENERAL DE CULTURA Y000000111352000000000000000000000000000000000000000000000000000000000000000000000000000000000000000000000000000000000000PES00010000001000000000000000000000000
202410260060000600000000000000003509000000000000000035098000000000030627393713DIRECCION GENERAL DE CULTURA Y000000111352000000000000000000000000000000000000000000000000000000000000000000000000000000000000000000000000000000000000PES00010000001000000000000000000000000
202410260060000600000000000000003510000000000000000035108000000000030716742292MINISTERIO DE MUJERES Y DIVERS000000017000000000000000000000000000000000000000000000000000000000000000000000000000000000000000000000000000000000000000PES00010000001000000000000000000000000
202410280060000600000000000000003511000000000000000035118000000000030715904817ORGANISMO PROVINCIAL DE INTEGR000000098400000000000000000000000000000000000000000000000000000000000000000000000000000000000000000000000000000000000000PES00010000001000000000000000000000000
202410280060000600000000000000003512000000000000000035128000000000030715124234MINISTERIO DE GOBIERNO BS.AS. 000000650000000000000000000000000000000000000000000000000000000000000000000000000000000000000000000000000000000000000000PES00010000001000000000000000000000000
202410280060000600000000000000003513000000000000000035138000000000030710692978FEDERACION DE ESTIBADORES PORT000000051200000000000000000000000000000000000000000000000000000000000000000000000000000000000000000000000000000000000000PES00010000001000000000000000000000000
202410280080000600000000000000000359000000000000000003598000000000030716742292MINISTERIO DE MUJERES Y DIVERS000000017000000000000000000000000000000000000000000000000000000000000000000000000000000000000000000000000000000000000000PES00010000001000000000000000000000000
202410290010000600000000000000001642000000000000000016428000000000027251607864COVELLO JULIETA               000000030800001000000000000000000000000000000000000000000000000000000000000000000000000000000000000000000000000000000000PES00010000001000000000000000000000000
202410290010000600000000000000001643000000000000000016438000000000027251607864COVELLO JULIETA               000000320000036000000000000000000000000000000000000000000000000000000000000000000000000000000000000000000000000000000000PES00010000001000000000000000000000000
202410290060000600000000000000003514000000000000000035148000000000030716742292MINISTERIO DE MUJERES Y DIVERS000000017000000000000000000000000000000000000000000000000000000000000000000000000000000000000000000000000000000000000000PES00010000001000000000000000000000000
202410290010000600000000000000001644000000000000000016448000000000030657877669EMPRESA DISTRIBUIDORA LA PLATA000000011600000000000000000000000000000000000000000000000000000000000000000000000000000000000000000000000000000000000000PES00010000001000000000000000000000000
202410290010000600000000000000001645000000000000000016458000000000030657877669EMPRESA DISTRIBUIDORA LA PLATA000000009800001000000000000000000000000000000000000000000000000000000000000000000000000000000000000000000000000000000000PES00010000001000000000000000000000000
202410290010000600000000000000001646000000000000000016468000000000030657877669EMPRESA DISTRIBUIDORA LA PLATA000000044030000000000000000000000000000000000000000000000000000000000000000000000000000000000000000000000000000000000000PES00010000001000000000000000000000000
202410290010000600000000000000001647000000000000000016478000000000030657877669EMPRESA DISTRIBUIDORA LA PLATA000000082160089000000000000000000000000000000000000000000000000000000000000000000000000000000000000000000000000000000000PES00010000001000000000000000000000000
202410290010000600000000000000001648000000000000000016488000000000030608392641CARL ZEISS VISION ARGENTINA S.000000038000002000000000000000000000000000000000000000000000000000000000000000000000000000000000000000000000000000000000PES00010000001000000000000000000000000
202410300010000600000000000000001649000000000000000016498000000000030714246751ENJOYLOGY S.R.L. S. R. L.     000000029000000000000000000000000000000000000000000000000000000000000000000000000000000000000000000000000000000000000000PES00010000001000000000000000000000000
202410300010000600000000000000001650000000000000000016508000000000033593283319CORREGIDOR SA                 000000214616250000000000000000000000000000000000000000000000000000000000000000000000000000000000000000000000000000000000PES00010000001000000000000000000000000
202410300010000600000000000000001651000000000000000016518000000000030520912963TAIUTI CONSTRUCCIONES S C A   000000132884402000000000000000000000000000000000000000000000000000000000000000000000000000000000000000000000000000000000PES00010000001000000000000000000000000
202410300010000600000000000000001652000000000000000016528000000000030520912963TAIUTI CONSTRUCCIONES S C A   000000289699894000000000000000000000000000000000000000000000000000000000000000000000000000000000000000000000000000000000PES00010000001000000000000000000000000
202410300010000600000000000000001653000000000000000016538000000000030520912963TAIUTI CONSTRUCCIONES S C A   000000096000000000000000000000000000000000000000000000000000000000000000000000000000000000000000000000000000000000000000PES00010000001000000000000000000000000
202410300010000600000000000000001654000000000000000016548000000000030520912963TAIUTI CONSTRUCCIONES S C A   000000075830989000000000000000000000000000000000000000000000000000000000000000000000000000000000000000000000000000000000PES00010000001000000000000000000000000
202410300010000600000000000000001655000000000000000016558000000000030520912963TAIUTI CONSTRUCCIONES S C A   000000289670008000000000000000000000000000000000000000000000000000000000000000000000000000000000000000000000000000000000PES00010000001000000000000000000000000
202410300010000600000000000000001656000000000000000016568000000000030520912963TAIUTI CONSTRUCCIONES S C A   000000049454993000000000000000000000000000000000000000000000000000000000000000000000000000000000000000000000000000000000PES00010000001000000000000000000000000
202410300060000600000000000000003515000000000000000035158000000000033684854149COMISION DE INVESTIGACIONES CI000000106700000000000000000000000000000000000000000000000000000000000000000000000000000000000000000000000000000000000000PES00010000001000000000000000000000000
202410310060000600000000000000003516000000000000000035168000000000030627393713DIRECCION GENERAL DE CULTURA Y000000108776000000000000000000000000000000000000000000000000000000000000000000000000000000000000000000000000000000000000PES00010000001000000000000000000000000
202410310080000600000000000000000360000000000000000003608000000000030717321231JEFATURA DE ASESORES DEL GOBER000000900600000000000000000000000000000000000000000000000000000000000000000000000000000000000000000000000000000000000000PES00010000002000000000000000000000000
202410310060000600000000000000003517000000000000000035178000000000030717321231JEFATURA DE ASESORES DEL GOBER000000900600000000000000000000000000000000000000000000000000000000000000000000000000000000000000000000000000000000000000PES00010000001000000000000000000000000
202410310080000600000000000000000361000000000000000003618000000000030627393713DIRECCION GENERAL DE CULTURA Y000000103780000000000000000000000000000000000000000000000000000000000000000000000000000000000000000000000000000000000000PES00010000002000000000000000000000000
202410310060000600000000000000003518000000000000000035188000000000030627393713DIRECCION GENERAL DE CULTURA Y000000103780000000000000000000000000000000000000000000000000000000000000000000000000000000000000000000000000000000000000PES00010000001000000000000000000000000
202410310080000600000000000000000362000000000000000003628000000000030627393713DIRECCION GENERAL DE CULTURA Y000000313410000000000000000000000000000000000000000000000000000000000000000000000000000000000000000000000000000000000000PES00010000002000000000000000000000000
202410310060000600000000000000003519000000000000000035198000000000030627393713DIRECCION GENERAL DE CULTURA Y000000313410000000000000000000000000000000000000000000000000000000000000000000000000000000000000000000000000000000000000PES00010000001000000000000000000000000
202410310060000600000000000000003520000000000000000035208000000000030707051546MINISTERIO DE JUSTICIA Y DEREC000001649100000000000000000000000000000000000000000000000000000000000000000000000000000000000000000000000000000000000000PES00010000001000000000000000000000000
202410310010000600000000000000001657000000000000000016578000000000027225988795NINA MARIA LAURA              000000050399987000000000000000000000000000000000000000000000000000000000000000000000000000000000000000000000000000000000PES00010000001000000000000000000000000
202410310010000600000000000000001658000000000000000016588000000000027225988795NINA MARIA LAURA              000000111999972000000000000000000000000000000000000000000000000000000000000000000000000000000000000000000000000000000000PES00010000001000000000000000000000000
202410310010000600000000000000001659000000000000000016598000000000027225988795NINA MARIA LAURA              000000028000005000000000000000000000000000000000000000000000000000000000000000000000000000000000000000000000000000000000PES00010000001000000000000000000000000
202410310010000600000000000000001660000000000000000016608000000000027225988795NINA MARIA LAURA              000000114799972000000000000000000000000000000000000000000000000000000000000000000000000000000000000000000000000000000000PES00010000001000000000000000000000000
202410310010000600000000000000001661000000000000000016618000000000027225988795NINA MARIA LAURA              000000018000008000000000000000000000000000000000000000000000000000000000000000000000000000000000000000000000000000000000PES00010000001000000000000000000000000
