202407020010000600000000000000001579000000000000000015798000000000030601290592AGREMIACION ODONTOLOGICA DE BE000000004800166000000000000000000000000000000000000000000000000000000000000000000000000000000000000000000000000000000000PES00010000001000000000000000000000000
202407030060000600000000000000003321000000000000000033218000000000030707216669PODER JUDICIAL MINISTERIO PUBL000000008640000000000000000000000000000000000000000000000000000000000000000000000000000000000000000000000000000000000000PES00010000001000000000000000000000000
202407030060000600000000000000003322000000000000000033228000000000030707216669PODER JUDICIAL MINISTERIO PUBL000000008640000000000000000000000000000000000000000000000000000000000000000000000000000000000000000000000000000000000000PES00010000001000000000000000000000000
202407030060000600000000000000003323000000000000000033238000000000033638161309COLEGIO DE MAGISTRADOS Y FUNCI000000005280000000000000000000000000000000000000000000000000000000000000000000000000000000000000000000000000000000000000PES00010000001000000000000000000000000
202407040060000600000000000000003324000000000000000033248000000000030626983398MINISTERIO DE SALUD PCIA DE BS000000092000000000000000000000000000000000000000000000000000000000000000000000000000000000000000000000000000000000000000PES00010000001000000000000000000000000
202407040060000600000000000000003325000000000000000033258000000000030627393713DIRECCION GENERAL DE CULTURA Y000000038000000000000000000000000000000000000000000000000000000000000000000000000000000000000000000000000000000000000000PES00010000001000000000000000020240904
202407040060000600000000000000003326000000000000000033268000000000030627393713DIRECCION GENERAL DE CULTURA Y000000019000000000000000000000000000000000000000000000000000000000000000000000000000000000000000000000000000000000000000PES00010000001000000000000000020240904
202407040060000600000000000000003327000000000000000033278000000000030627393713DIRECCION GENERAL DE CULTURA Y000000955100000000000000000000000000000000000000000000000000000000000000000000000000000000000000000000000000000000000000PES00010000001000000000000000020240904
202407040060000600000000000000003328000000000000000033288000000000030627393713DIRECCION GENERAL DE CULTURA Y000000060000000000000000000000000000000000000000000000000000000000000000000000000000000000000000000000000000000000000000PES00010000001000000000000000020240904
202407040060000600000000000000003329000000000000000033298000000000030627393713DIRECCION GENERAL DE CULTURA Y000000162180000000000000000000000000000000000000000000000000000000000000000000000000000000000000000000000000000000000000PES00010000001000000000000000020240904
202407040060000600000000000000003330000000000000000033308000000000030627393713DIRECCION GENERAL DE CULTURA Y000000010500000000000000000000000000000000000000000000000000000000000000000000000000000000000000000000000000000000000000PES00010000001000000000000000020240904
202407050060000600000000000000003331000000000000000033318000000000030627393713DIRECCION GENERAL DE CULTURA Y000000164340000000000000000000000000000000000000000000000000000000000000000000000000000000000000000000000000000000000000PES00010000001000000000000000020240905
202407050060000600000000000000003332000000000000000033328000000000030627393713DIRECCION GENERAL DE CULTURA Y000000165000000000000000000000000000000000000000000000000000000000000000000000000000000000000000000000000000000000000000PES00010000001000000000000000020240905
202407050060000600000000000000003333000000000000000033338000000000030627393713DIRECCION GENERAL DE CULTURA Y000000052500000000000000000000000000000000000000000000000000000000000000000000000000000000000000000000000000000000000000PES00010000001000000000000000020240905
202407080060000600000000000000003334000000000000000033348000000000020249130843GRANDE ARIEL MARTIN           000000012000000000000000000000000000000000000000000000000000000000000000000000000000000000000000000000000000000000000000PES00010000001000000000000000000000000
202407100010000600000000000000001580000000000000000015808000000000030715428756COOPERATIVA DE TRABAJO EL GRAN000000078000000000000000000000000000000000000000000000000000000000000000000000000000000000000000000000000000000000000000PES00010000001000000000000000000000000
202407110060000600000000000000003335000000000000000033358000000000030627393713DIRECCION GENERAL DE CULTURA Y000000035500000000000000000000000000000000000000000000000000000000000000000000000000000000000000000000000000000000000000PES00010000001000000000000000000000000
202407110010000600000000000000001581000000000000000015818000000000030657864281CAMUZZI GAS PAMPEANA S A      000000107220135000000000000000000000000000000000000000000000000000000000000000000000000000000000000000000000000000000000PES00010000001000000000000000000000000
202407112010000600000000000000000003000000000000000000038000000000030657877669EMPRESA DISTRIBUIDORA LA PLATA000000184860001000000000000000000000000000000000000000000000000000000000000000000000000000000000000000000000000000000000PES00010000001000000000000000020240811
202407110010000600000000000000001582000000000000000015828000000000030657877669EMPRESA DISTRIBUIDORA LA PLATA000000026460000000000000000000000000000000000000000000000000000000000000000000000000000000000000000000000000000000000000PES00010000001000000000000000000000000
202407110010000600000000000000001583000000000000000015838000000000030657877669EMPRESA DISTRIBUIDORA LA PLATA000000015260000000000000000000000000000000000000000000000000000000000000000000000000000000000000000000000000000000000000PES00010000001000000000000000000000000
202407110060000600000000000000003336000000000000000033368000000000030716742292MINISTERIO DE MUJERES Y DIVERS000000112200000000000000000000000000000000000000000000000000000000000000000000000000000000000000000000000000000000000000PES00010000001000000000000000020240811
202407120060000600000000000000003337000000000000000033378000000000030715904817ORGANISMO PROVINCIAL DE INTEGR000000203000000000000000000000000000000000000000000000000000000000000000000000000000000000000000000000000000000000000000PES00010000001000000000000000000000000
202407130060000600000000000000003338000000000000000033388000000000030710405863MINISTERIO DE AMBIENTE        000000046920000000000000000000000000000000000000000000000000000000000000000000000000000000000000000000000000000000000000PES00010000001000000000000000000000000
202407130060000600000000000000003339000000000000000033398000000000030710405863MINISTERIO DE AMBIENTE        000000046920000000000000000000000000000000000000000000000000000000000000000000000000000000000000000000000000000000000000PES00010000001000000000000000000000000
202407130060000600000000000000003340000000000000000033408000000000030710405863MINISTERIO DE AMBIENTE        000000046920000000000000000000000000000000000000000000000000000000000000000000000000000000000000000000000000000000000000PES00010000001000000000000000000000000
202407130060000600000000000000003341000000000000000033418000000000030710405863MINISTERIO DE AMBIENTE        000000046920000000000000000000000000000000000000000000000000000000000000000000000000000000000000000000000000000000000000PES00010000001000000000000000000000000
202407130060000600000000000000003342000000000000000033428000000000030710405863MINISTERIO DE AMBIENTE        000000046920000000000000000000000000000000000000000000000000000000000000000000000000000000000000000000000000000000000000PES00010000001000000000000000000000000
202407130060000600000000000000003343000000000000000033438000000000030710405863MINISTERIO DE AMBIENTE        000000046920000000000000000000000000000000000000000000000000000000000000000000000000000000000000000000000000000000000000PES00010000001000000000000000000000000
202407130060000600000000000000003344000000000000000033448000000000030710405863MINISTERIO DE AMBIENTE        000000046920000000000000000000000000000000000000000000000000000000000000000000000000000000000000000000000000000000000000PES00010000001000000000000000000000000
202407130060000600000000000000003345000000000000000033458000000000030710405863MINISTERIO DE AMBIENTE        000000046920000000000000000000000000000000000000000000000000000000000000000000000000000000000000000000000000000000000000PES00010000001000000000000000000000000
202407130010000600000000000000001584000000000000000015848000000000030657864281CAMUZZI GAS PAMPEANA S A      000000024400000000000000000000000000000000000000000000000000000000000000000000000000000000000000000000000000000000000000PES00010000001000000000000000000000000
202407150060000600000000000000003346000000000000000033468000000000030708499044INSTITUTO CULTURAL DE LA PROV 000000778350000000000000000000000000000000000000000000000000000000000000000000000000000000000000000000000000000000000000PES00010000001000000000000000000000000
202407150060000600000000000000003347000000000000000033478000000000030708499044INSTITUTO CULTURAL DE LA PROV 000000110500000000000000000000000000000000000000000000000000000000000000000000000000000000000000000000000000000000000000PES00010000001000000000000000020240815
202407150060000600000000000000003348000000000000000033488000000000030708499044INSTITUTO CULTURAL DE LA PROV 000000032500000000000000000000000000000000000000000000000000000000000000000000000000000000000000000000000000000000000000PES00010000001000000000000000020240815
202407150060000600000000000000003349000000000000000033498000000000030708499044INSTITUTO CULTURAL DE LA PROV 000000019500000000000000000000000000000000000000000000000000000000000000000000000000000000000000000000000000000000000000PES00010000001000000000000000020240815
202407150060000600000000000000003350000000000000000033508000000000030715124234MINISTERIO DE GOBIERNO BS.AS. 000001163520000000000000000000000000000000000000000000000000000000000000000000000000000000000000000000000000000000000000PES00010000001000000000000000000000000
202407150060000600000000000000003351000000000000000033518000000000030715124234MINISTERIO DE GOBIERNO BS.AS. 000000470000000000000000000000000000000000000000000000000000000000000000000000000000000000000000000000000000000000000000PES00010000001000000000000000000000000
202407150060000600000000000000003352000000000000000033528000000000030715124234MINISTERIO DE GOBIERNO BS.AS. 000000550000000000000000000000000000000000000000000000000000000000000000000000000000000000000000000000000000000000000000PES00010000001000000000000000000000000
202407160060000600000000000000003353000000000000000033538000000000030715904817ORGANISMO PROVINCIAL DE INTEGR000000203000000000000000000000000000000000000000000000000000000000000000000000000000000000000000000000000000000000000000PES00010000001000000000000000000000000
202407160080000600000000000000000339000000000000000003398000000000030715904817ORGANISMO PROVINCIAL DE INTEGR000000203000000000000000000000000000000000000000000000000000000000000000000000000000000000000000000000000000000000000000PES00010000001000000000000000000000000
202407160010000600000000000000001585000000000000000015858000000000033593283319CORREGIDOR SA                 000000059291316000000000000000000000000000000000000000000000000000000000000000000000000000000000000000000000000000000000PES00010000001000000000000000000000000
202407160010000600000000000000001586000000000000000015868000000000033593283319CORREGIDOR SA                 000000017627148000000000000000000000000000000000000000000000000000000000000000000000000000000000000000000000000000000000PES00010000001000000000000000000000000
202407160010000600000000000000001587000000000000000015878000000000033593283319CORREGIDOR SA                 000000007897878000000000000000000000000000000000000000000000000000000000000000000000000000000000000000000000000000000000PES00010000001000000000000000000000000
202407160060000600000000000000003354000000000000000033548000000000030627393713DIRECCION GENERAL DE CULTURA Y000000067560000000000000000000000000000000000000000000000000000000000000000000000000000000000000000000000000000000000000PES00010000001000000000000000020240916
202407160060000600000000000000003355000000000000000033558000000000030627393713DIRECCION GENERAL DE CULTURA Y000000108000000000000000000000000000000000000000000000000000000000000000000000000000000000000000000000000000000000000000PES00010000001000000000000000020240916
202407160060000600000000000000003356000000000000000033568000000000030627393713DIRECCION GENERAL DE CULTURA Y000000247000000000000000000000000000000000000000000000000000000000000000000000000000000000000000000000000000000000000000PES00010000001000000000000000020240916
202407170060000600000000000000003357000000000000000033578000000000030707051546MINISTERIO DE JUSTICIA Y DEREC000000007200000000000000000000000000000000000000000000000000000000000000000000000000000000000000000000000000000000000000PES00010000001000000000000000000000000
202407180080000600000000000000000340000000000000000003408000000000030716742292MINISTERIO DE MUJERES Y DIVERS000000112200000000000000000000000000000000000000000000000000000000000000000000000000000000000000000000000000000000000000PES00010000001000000000000000020240811
202407190060000600000000000000003358000000000000000033588000000000030717321231JEFATURA DE ASESORES DEL GOBER000000054600000000000000000000000000000000000000000000000000000000000000000000000000000000000000000000000000000000000000PES00010000001000000000000000000000000
202407190060000600000000000000003359000000000000000033598000000000033684854149COMISION DE INVESTIGACIONES CI000000078800000000000000000000000000000000000000000000000000000000000000000000000000000000000000000000000000000000000000PES00010000001000000000000000000000000
202407190060000600000000000000003360000000000000000033608000000000030716742292MINISTERIO DE MUJERES Y DIVERS000000112200000000000000000000000000000000000000000000000000000000000000000000000000000000000000000000000000000000000000PES00010000001000000000000000020240819
202407200060000600000000000000003361000000000000000033618000000000030710405863MINISTERIO DE AMBIENTE        000000046920000000000000000000000000000000000000000000000000000000000000000000000000000000000000000000000000000000000000PES00010000001000000000000000000000000
202407200060000600000000000000003362000000000000000033628000000000030710405863MINISTERIO DE AMBIENTE        000000046920000000000000000000000000000000000000000000000000000000000000000000000000000000000000000000000000000000000000PES00010000001000000000000000000000000
202407200060000600000000000000003363000000000000000033638000000000030710405863MINISTERIO DE AMBIENTE        000000046920000000000000000000000000000000000000000000000000000000000000000000000000000000000000000000000000000000000000PES00010000001000000000000000000000000
202407200060000600000000000000003364000000000000000033648000000000030710405863MINISTERIO DE AMBIENTE        000000046920000000000000000000000000000000000000000000000000000000000000000000000000000000000000000000000000000000000000PES00010000001000000000000000000000000
202407220080000600000000000000000341000000000000000003418000000000030627393713DIRECCION GENERAL DE CULTURA Y000000019000000000000000000000000000000000000000000000000000000000000000000000000000000000000000000000000000000000000000PES00010000001000000000000000020240904
202407220060000600000000000000003365000000000000000033658000000000030627393713DIRECCION GENERAL DE CULTURA Y000000019000000000000000000000000000000000000000000000000000000000000000000000000000000000000000000000000000000000000000PES00010000001000000000000000020240922
202407220080000600000000000000000342000000000000000003428000000000030627393713DIRECCION GENERAL DE CULTURA Y000000128800000000000000000000000000000000000000000000000000000000000000000000000000000000000000000000000000000000000000PES00010000001000000000000000020240722
202407220060000600000000000000003366000000000000000033668000000000030627393713DIRECCION GENERAL DE CULTURA Y000000128800000000000000000000000000000000000000000000000000000000000000000000000000000000000000000000000000000000000000PES00010000001000000000000000020240922
202407220010000600000000000000001588000000000000000015888000000000027251607864COVELLO JULIETA               000000049800018000000000000000000000000000000000000000000000000000000000000000000000000000000000000000000000000000000000PES00010000001000000000000000000000000
202407220010000600000000000000001589000000000000000015898000000000027251607864COVELLO JULIETA               000000046530010000000000000000000000000000000000000000000000000000000000000000000000000000000000000000000000000000000000PES00010000001000000000000000000000000
202407240060000600000000000000003367000000000000000033678000000000030680950047FUNDACION UNIVERSIDAD EMPRESAR000000058500000000000000000000000000000000000000000000000000000000000000000000000000000000000000000000000000000000000000PES00010000001000000000000000000000000
202407250060000600000000000000003368000000000000000033688000000000030680950047FUNDACION UNIVERSIDAD EMPRESAR000000030880000000000000000000000000000000000000000000000000000000000000000000000000000000000000000000000000000000000000PES00010000001000000000000000000000000
202407260060000600000000000000003369000000000000000033698000000000030999106753INSTITUTO DE LA VIVIENDA DE LA000000009500000000000000000000000000000000000000000000000000000000000000000000000000000000000000000000000000000000000000PES00010000001000000000000000000000000
202407290010000600000000000000001590000000000000000015908000000000030710434421FARMACIA ZORICH DE PAULA CRIST000000020000000000000000000000000000000000000000000000000000000000000000000000000000000000000000000000000000000000000000PES00010000001000000000000000000000000
202407300060000600000000000000003370000000000000000033708000000000030717458342MINISTERIO DE HABITAT Y DESARR000000033420000000000000000000000000000000000000000000000000000000000000000000000000000000000000000000000000000000000000PES00010000002000000000000000000000000
202407300010000600000000000000001591000000000000000015918000000000030715354183DIAGNOSTICO CARDIOPULMONAR PLA000000016940000000000000000000000000000000000000000000000000000000000000000000000000000000000000000000000000000000000000PES00010000001000000000000000000000000
202407310060000600000000000000003371000000000000000033718000000000030999106753INSTITUTO DE LA VIVIENDA DE LA000000009500000000000000000000000000000000000000000000000000000000000000000000000000000000000000000000000000000000000000PES00010000001000000000000000000000000
202407310010000600000000000000001592000000000000000015928000000000030544640212LABORATORIO ELEA PHOENIX S A  000000084160001000000000000000000000000000000000000000000000000000000000000000000000000000000000000000000000000000000000PES00010000001000000000000000000000000
202407310010000600000000000000001593000000000000000015938000000000030544640212LABORATORIO ELEA PHOENIX S A  000000064000000000000000000000000000000000000000000000000000000000000000000000000000000000000000000000000000000000000000PES00010000001000000000000000000000000
202407310010000600000000000000001594000000000000000015948000000000030544640212LABORATORIO ELEA PHOENIX S A  000000032000000000000000000000000000000000000000000000000000000000000000000000000000000000000000000000000000000000000000PES00010000001000000000000000000000000
202407310010000600000000000000001595000000000000000015958000000000030657864281CAMUZZI GAS PAMPEANA S A      000000011140039000000000000000000000000000000000000000000000000000000000000000000000000000000000000000000000000000000000PES00010000001000000000000000000000000
202407310010000600000000000000001596000000000000000015968000000000030710215800BIOMARIN ARGENTINA SOCIEDAD DE000000022500010000000000000000000000000000000000000000000000000000000000000000000000000000000000000000000000000000000000PES00010000001000000000000000000000000
202407310060000600000000000000003372000000000000000033728000000000030546666707UNIVERSIDAD NACIONAL DE LA PLA000000024000000000000000000000000000000000000000000000000000000000000000000000000000000000000000000000000000000000000000PES00010000001000000000000000000000000
202407310060000600000000000000003373000000000000000033738000000000030546666707UNIVERSIDAD NACIONAL DE LA PLA000000022100000000000000000000000000000000000000000000000000000000000000000000000000000000000000000000000000000000000000PES00010000001000000000000000000000000
202407310060000600000000000000003374000000000000000033748000000000030707045031MINISTERIO DE DESARROLLO DE LA000001845000000000000000000000000000000000000000000000000000000000000000000000000000000000000000000000000000000000000000PES00010000001000000000000000000000000
202407310010000600000000000000001597000000000000000015978000000000030641040580LABORATORIO COPAHUE S A.      000000013600001000000000000000000000000000000000000000000000000000000000000000000000000000000000000000000000000000000000PES00010000001000000000000000000000000
