202503040060000600000000000000003788000000000000000037888000000000030627393713DIRECCION GENERAL DE CULTURA Y000002673800000000000000000000000000000000000000000000000000000000000000000000000000000000000000000000000000000000000000PES00010000001000000000000000000000000
202503050060000600000000000000003789000000000000000037898000000000033684854149COMISION DE INVESTIGACIONES CI000000145500000000000000000000000000000000000000000000000000000000000000000000000000000000000000000000000000000000000000PES00010000001000000000000000000000000
202503060080000600000000000000000415000000000000000004158000000000030708499044INSTITUTO CULTURAL DE LA PROV 000000168300100000000000000000000000000000000000000000000000000000000000000000000000000000000000000000000000000000000000PES00010000001000000000000000000000000
202503060060000600000000000000003790000000000000000037908000000000030708499044INSTITUTO CULTURAL DE LA PROV 000000168300000000000000000000000000000000000000000000000000000000000000000000000000000000000000000000000000000000000000PES00010000001000000000000000000000000
202503060060000600000000000000003791000000000000000037918000000000030707045031MINISTERIO DE DESARROLLO DE LA000001496550000000000000000000000000000000000000000000000000000000000000000000000000000000000000000000000000000000000000PES00010000001000000000000000000000000
202503060060000600000000000000003792000000000000000037928000000000030707045031MINISTERIO DE DESARROLLO DE LA000000879520000000000000000000000000000000000000000000000000000000000000000000000000000000000000000000000000000000000000PES00010000001000000000000000000000000
202503060080000600000000000000000416000000000000000004168000000000030707045031MINISTERIO DE DESARROLLO DE LA000000879520000000000000000000000000000000000000000000000000000000000000000000000000000000000000000000000000000000000000PES00010000001000000000000000000000000
202503060060000600000000000000003793000000000000000037938000000000030707045031MINISTERIO DE DESARROLLO DE LA000000879520000000000000000000000000000000000000000000000000000000000000000000000000000000000000000000000000000000000000PES00010000001000000000000000000000000
202503060080000600000000000000000417000000000000000004178000000000033684854149COMISION DE INVESTIGACIONES CI000000145500000000000000000000000000000000000000000000000000000000000000000000000000000000000000000000000000000000000000PES00010000001000000000000000000000000
202503060060000600000000000000003794000000000000000037948000000000033684854149COMISION DE INVESTIGACIONES CI000000145500000000000000000000000000000000000000000000000000000000000000000000000000000000000000000000000000000000000000PES00010000001000000000000000000000000
202503060060000600000000000000003795000000000000000037958000000000030708499044INSTITUTO CULTURAL DE LA PROV 000000159040000000000000000000000000000000000000000000000000000000000000000000000000000000000000000000000000000000000000PES00010000001000000000000000000000000
202503100010000600000000000000001740000000000000000017408000000000030657877669EMPRESA DISTRIBUIDORA LA PLATA000000051600014000000000000000000000000000000000000000000000000000000000000000000000000000000000000000000000000000000000PES00010000001000000000000000000000000
202503100010000600000000000000001741000000000000000017418000000000030657877669EMPRESA DISTRIBUIDORA LA PLATA000000004000000000000000000000000000000000000000000000000000000000000000000000000000000000000000000000000000000000000000PES00010000001000000000000000000000000
202503100010000600000000000000001742000000000000000017428000000000030657877669EMPRESA DISTRIBUIDORA LA PLATA000000003000000000000000000000000000000000000000000000000000000000000000000000000000000000000000000000000000000000000000PES00010000001000000000000000000000000
202503100010000600000000000000001743000000000000000017438000000000030657877669EMPRESA DISTRIBUIDORA LA PLATA000000040000000000000000000000000000000000000000000000000000000000000000000000000000000000000000000000000000000000000000PES00010000001000000000000000000000000
202503100010000600000000000000001744000000000000000017448000000000030657877669EMPRESA DISTRIBUIDORA LA PLATA000000028800004000000000000000000000000000000000000000000000000000000000000000000000000000000000000000000000000000000000PES00010000001000000000000000000000000
202503130060000600000000000000003796000000000000000037968000000000030546666707UNIVERSIDAD NACIONAL DE LA PLA000000039500000000000000000000000000000000000000000000000000000000000000000000000000000000000000000000000000000000000000PES00010000001000000000000000000000000
202503140010000600000000000000001745000000000000000017458000000000030657864281CAMUZZI GAS PAMPEANA S A      000000027360106000000000000000000000000000000000000000000000000000000000000000000000000000000000000000000000000000000000PES00010000001000000000000000000000000
202503140060000600000000000000003797000000000000000037978000000000030627393713DIRECCION GENERAL DE CULTURA Y000001150000000000000000000000000000000000000000000000000000000000000000000000000000000000000000000000000000000000000000PES00010000001000000000000000000000000
202503140060000600000000000000003798000000000000000037988000000000030627393713DIRECCION GENERAL DE CULTURA Y000000196000000000000000000000000000000000000000000000000000000000000000000000000000000000000000000000000000000000000000PES00010000001000000000000000000000000
202503140060000600000000000000003799000000000000000037998000000000030707216669PODER JUDICIAL MINISTERIO PUBL000000081640000000000000000000000000000000000000000000000000000000000000000000000000000000000000000000000000000000000000PES00010000001000000000000000000000000
202503170060000600000000000000003800000000000000000038008000000000030715124234MINISTERIO DE GOBIERNO BS.AS. 000001873055000000000000000000000000000000000000000000000000000000000000000000000000000000000000000000000000000000000000PES00010000001000000000000000000000000
202503170060000600000000000000003801000000000000000038018000000000030708499044INSTITUTO CULTURAL DE LA PROV 000000106700000000000000000000000000000000000000000000000000000000000000000000000000000000000000000000000000000000000000PES00010000002000000000000000000000000
202503170060000600000000000000003802000000000000000038028000000000030643233343MINISTERIO DE ECONOMIA - PBA  000000170000000000000000000000000000000000000000000000000000000000000000000000000000000000000000000000000000000000000000PES00010000001000000000000000000000000
202503180060000600000000000000003803000000000000000038038000000000030627393713DIRECCION GENERAL DE CULTURA Y000000115000000000000000000000000000000000000000000000000000000000000000000000000000000000000000000000000000000000000000PES00010000001000000000000000000000000
202503180060000600000000000000003804000000000000000038048000000000030715904817ORGANISMO PROVINCIAL DE INTEGR000001228000000000000000000000000000000000000000000000000000000000000000000000000000000000000000000000000000000000000000PES00010000001000000000000000000000000
202503180010000600000000000000001746000000000000000017468000000000030657864281CAMUZZI GAS PAMPEANA S A      000000014660101000000000000000000000000000000000000000000000000000000000000000000000000000000000000000000000000000000000PES00010000001000000000000000000000000
202503180010000600000000000000001747000000000000000017478000000000030657864281CAMUZZI GAS PAMPEANA S A      000000007220020000000000000000000000000000000000000000000000000000000000000000000000000000000000000000000000000000000000PES00010000001000000000000000000000000
202503180080000600000000000000000418000000000000000004188000000000030627393713DIRECCION GENERAL DE CULTURA Y000000747686000000000000000000000000000000000000000000000000000000000000000000000000000000000000000000000000000000000000PES00010000001000000000000000000000000
202503180060000600000000000000003805000000000000000038058000000000030627393713DIRECCION GENERAL DE CULTURA Y000000741894000000000000000000000000000000000000000000000000000000000000000000000000000000000000000000000000000000000000PES00010000001000000000000000000000000
202503180010000600000000000000001748000000000000000017488000000000027225988795NINA MARIA LAURA              000000024750005000000000000000000000000000000000000000000000000000000000000000000000000000000000000000000000000000000000PES00010000001000000000000000000000000
202503190080000600000000000000000419000000000000000004198000000000030627393713DIRECCION GENERAL DE CULTURA Y000000747686000000000000000000000000000000000000000000000000000000000000000000000000000000000000000000000000000000000000PES00010000001000000000000000000000000
202503190060000600000000000000003806000000000000000038068000000000030627393713DIRECCION GENERAL DE CULTURA Y000000741894000000000000000000000000000000000000000000000000000000000000000000000000000000000000000000000000000000000000PES00010000001000000000000000000000000
202503190060000600000000000000003807000000000000000038078000000000030627393713DIRECCION GENERAL DE CULTURA Y000000005792000000000000000000000000000000000000000000000000000000000000000000000000000000000000000000000000000000000000PES00010000001000000000000000000000000
202503190060000600000000000000003808000000000000000038088000000000030627393713DIRECCION GENERAL DE CULTURA Y000000055200000000000000000000000000000000000000000000000000000000000000000000000000000000000000000000000000000000000000PES00010000001000000000000000000000000
202503200060000600000000000000003809000000000000000038098000000000030643233343MINISTERIO DE ECONOMIA - PBA  000000170000000000000000000000000000000000000000000000000000000000000000000000000000000000000000000000000000000000000000PES00010000001000000000000000000000000
202503200080000600000000000000000420000000000000000004208000000000030643233343MINISTERIO DE ECONOMIA - PBA  000000170000000000000000000000000000000000000000000000000000000000000000000000000000000000000000000000000000000000000000PES00010000001000000000000000000000000
202503200080000600000000000000000421000000000000000004218000000000030643233343MINISTERIO DE ECONOMIA - PBA  000000170000000000000000000000000000000000000000000000000000000000000000000000000000000000000000000000000000000000000000PES00010000001000000000000000000000000
202503200060000600000000000000003810000000000000000038108000000000030643233343MINISTERIO DE ECONOMIA - PBA  000000170000000000000000000000000000000000000000000000000000000000000000000000000000000000000000000000000000000000000000PES00010000001000000000000000000000000
202503200060000600000000000000003811000000000000000038118000000000030627393713DIRECCION GENERAL DE CULTURA Y000000294660000000000000000000000000000000000000000000000000000000000000000000000000000000000000000000000000000000000000PES00010000001000000000000000000000000
202503200060000600000000000000003812000000000000000038128000000000030665708825TRIBUNAL DE CUENTAS DE LA PROV000000016000000000000000000000000000000000000000000000000000000000000000000000000000000000000000000000000000000000000000PES00010000001000000000000000000000000
202503200010000600000000000000001749000000000000000017498000000000033593283319CORREGIDOR SA                 000000156464101000000000000000000000000000000000000000000000000000000000000000000000000000000000000000000000000000000000PES00010000001000000000000000000000000
202503200010000600000000000000001750000000000000000017508000000000033593283319CORREGIDOR SA                 000000038131710000000000000000000000000000000000000000000000000000000000000000000000000000000000000000000000000000000000PES00010000001000000000000000000000000
202503220060000600000000000000003813000000000000000038138000000000030677980032FUNDACION DE LA FACULTAD DE IN000000010200000000000000000000000000000000000000000000000000000000000000000000000000000000000000000000000000000000000000PES00010000001000000000000000000000000
202503240010000600000000000000001751000000000000000017518000000000030520912963TAIUTI CONSTRUCCIONES S C A   000000015816001000000000000000000000000000000000000000000000000000000000000000000000000000000000000000000000000000000000PES00010000001000000000000000000000000
202503250010000600000000000000001752000000000000000017528000000000030520912963TAIUTI CONSTRUCCIONES S C A   000000202568000000000000000000000000000000000000000000000000000000000000000000000000000000000000000000000000000000000000PES00010000001000000000000000000000000
202503250010000600000000000000001753000000000000000017538000000000030520912963TAIUTI CONSTRUCCIONES S C A   000000289670000000000000000000000000000000000000000000000000000000000000000000000000000000000000000000000000000000000000PES00010000001000000000000000000000000
202503250010000600000000000000001754000000000000000017548000000000030657864281CAMUZZI GAS PAMPEANA S A      000000005500002000000000000000000000000000000000000000000000000000000000000000000000000000000000000000000000000000000000PES00010000001000000000000000000000000
202503250060000600000000000000003814000000000000000038148000000000030716742292MINISTERIO DE MUJERES Y DIVERS000000055000000000000000000000000000000000000000000000000000000000000000000000000000000000000000000000000000000000000000PES00010000001000000000000000020250525
202503250010000600000000000000001755000000000000000017558000000000030559880120JOSE ANACLETO E HIJOS S A     000000028800130000000000000000000000000000000000000000000000000000000000000000000000000000000000000000000000000000000000PES00010000001000000000000000000000000
202503260060000600000000000000003815000000000000000038158000000000030716742292MINISTERIO DE MUJERES Y DIVERS000000010000000000000000000000000000000000000000000000000000000000000000000000000000000000000000000000000000000000000000PES00010000001000000000000000020250425
202503260060000600000000000000003816000000000000000038168000000000030708499044INSTITUTO CULTURAL DE LA PROV 000000106700000000000000000000000000000000000000000000000000000000000000000000000000000000000000000000000000000000000000PES00010000001000000000000000000000000
202503260080000600000000000000000422000000000000000004228000000000030708499044INSTITUTO CULTURAL DE LA PROV 000000106700000000000000000000000000000000000000000000000000000000000000000000000000000000000000000000000000000000000000PES00010000002000000000000000000000000
202503260060000600000000000000003817000000000000000038178000000000030627393713DIRECCION GENERAL DE CULTURA Y000000055000000000000000000000000000000000000000000000000000000000000000000000000000000000000000000000000000000000000000PES00010000001000000000000000000000000
202503270010000600000000000000001756000000000000000017568000000000030641040580LABORATORIO COPAHUE S A.      000000027300013000000000000000000000000000000000000000000000000000000000000000000000000000000000000000000000000000000000PES00010000001000000000000000000000000
202503270060000600000000000000003818000000000000000038188000000000030677980032FUNDACION DE LA FACULTAD DE IN000000003000000000000000000000000000000000000000000000000000000000000000000000000000000000000000000000000000000000000000PES00010000001000000000000000000000000
202503280060000600000000000000003819000000000000000038198000000000030715904817ORGANISMO PROVINCIAL DE INTEGR000000549400000000000000000000000000000000000000000000000000000000000000000000000000000000000000000000000000000000000000PES00010000001000000000000000000000000
202503280060000600000000000000003820000000000000000038208000000000030708499044INSTITUTO CULTURAL DE LA PROV 000000099410000000000000000000000000000000000000000000000000000000000000000000000000000000000000000000000000000000000000PES00010000001000000000000000000000000
